{
  "address": "0x6DB472f28445daE0FA74A9f46B6bDd7c5E7cC063",
  "abi": [
    {
      "inputs": [
        {
          "internalType": "address",
          "name": "_voter",
          "type": "address"
        },
        {
          "internalType": "address",
          "name": "_ve",
          "type": "address"
        },
        {
          "internalType": "address",
          "name": "_rewardsDistributor",
          "type": "address"
        }
      ],
      "stateMutability": "nonpayable",
      "type": "constructor"
    },
    {
      "inputs": [],
      "name": "AlreadyNudged",
      "type": "error"
    },
    {
      "inputs": [],
      "name": "NotEpochGovernor",
      "type": "error"
    },
    {
      "anonymous": false,
      "inputs": [
        {
          "indexed": true,
          "internalType": "uint256",
          "name": "_period",
          "type": "uint256"
        },
        {
          "indexed": false,
          "internalType": "uint256",
          "name": "_oldRate",
          "type": "uint256"
        },
        {
          "indexed": false,
          "internalType": "uint256",
          "name": "_newRate",
          "type": "uint256"
        }
      ],
      "name": "Nudge",
      "type": "event"
    },
    {
      "anonymous": false,
      "inputs": [
        {
          "indexed": false,
          "internalType": "uint256",
          "name": "oldPeriod",
          "type": "uint256"
        },
        {
          "indexed": false,
          "internalType": "uint256",
          "name": "newPeriod",
          "type": "uint256"
        },
        {
          "indexed": false,
          "internalType": "uint256",
          "name": "firstRecipientAmount",
          "type": "uint256"
        },
        {
          "indexed": false,
          "internalType": "uint256",
          "name": "secondRecipientAmount",
          "type": "uint256"
        }
      ],
      "name": "PeriodUpdated",
      "type": "event"
    },
    {
      "inputs": [],
      "name": "MAXIMUM_GAUGE_SCALE",
      "outputs": [
        {
          "internalType": "uint256",
          "name": "",
          "type": "uint256"
        }
      ],
      "stateMutability": "view",
      "type": "function"
    },
    {
      "inputs": [],
      "name": "MINIMUM_GAUGE_SCALE",
      "outputs": [
        {
          "internalType": "uint256",
          "name": "",
          "type": "uint256"
        }
      ],
      "stateMutability": "view",
      "type": "function"
    },
    {
      "inputs": [],
      "name": "TICK",
      "outputs": [
        {
          "internalType": "uint256",
          "name": "",
          "type": "uint256"
        }
      ],
      "stateMutability": "view",
      "type": "function"
    },
    {
      "inputs": [],
      "name": "WEEK",
      "outputs": [
        {
          "internalType": "uint256",
          "name": "",
          "type": "uint256"
        }
      ],
      "stateMutability": "view",
      "type": "function"
    },
    {
      "inputs": [],
      "name": "activePeriod",
      "outputs": [
        {
          "internalType": "uint256",
          "name": "",
          "type": "uint256"
        }
      ],
      "stateMutability": "view",
      "type": "function"
    },
    {
      "inputs": [],
      "name": "needle",
      "outputs": [
        {
          "internalType": "uint256",
          "name": "",
          "type": "uint256"
        }
      ],
      "stateMutability": "view",
      "type": "function"
    },
    {
      "inputs": [],
      "name": "nudge",
      "outputs": [],
      "stateMutability": "nonpayable",
      "type": "function"
    },
    {
      "inputs": [
        {
          "internalType": "uint256",
          "name": "",
          "type": "uint256"
        }
      ],
      "name": "proposals",
      "outputs": [
        {
          "internalType": "bool",
          "name": "",
          "type": "bool"
        }
      ],
      "stateMutability": "view",
      "type": "function"
    },
    {
      "inputs": [],
      "name": "rewardsDistributor",
      "outputs": [
        {
          "internalType": "contract IRewardsDistributor",
          "name": "",
          "type": "address"
        }
      ],
      "stateMutability": "view",
      "type": "function"
    },
    {
      "inputs": [],
      "name": "token",
      "outputs": [
        {
          "internalType": "contract IERC20",
          "name": "",
          "type": "address"
        }
      ],
      "stateMutability": "view",
      "type": "function"
    },
    {
      "inputs": [],
      "name": "updatePeriod",
      "outputs": [
        {
          "internalType": "uint256",
          "name": "period",
          "type": "uint256"
        }
      ],
      "stateMutability": "nonpayable",
      "type": "function"
    },
    {
      "inputs": [],
      "name": "voter",
      "outputs": [
        {
          "internalType": "contract IVoter",
          "name": "",
          "type": "address"
        }
      ],
      "stateMutability": "view",
      "type": "function"
    }
  ],
  "transactionHash": "0xdc811f9e810838ade08874b050982120455ca814989ea82a23be4239e724c8c4",
  "args": [
    "0x5dCD51aC5891345F70EAd036348245b30c4D123d",
    "0x6f7bF8072cfB4D0B8f1a5e1596c820964fF3c744",
    "0xaAFE25fc82E4fC5dFb8D9533b2685b325f23dedf"
  ],
  "numDeployments": 1,
  "solcInputHash": "8d38669248b61b3eb695f578467cc289",
  "bytecode": "0x60e06040523480156200001157600080fd5b5060405162000eda38038062000eda8339810160408190526200003491620000ff565b81806001600160a01b031663fc0c546a6040518163ffffffff1660e01b8152600401602060405180830381865afa15801562000074573d6000803e3d6000fd5b505050506040513d601f19601f820116820180604052508101906200009a919062000149565b6001600160a01b03908116608052602160015582811660a052841660c0525062093a80620000c981426200016e565b620000d5919062000191565b60005550620001bd915050565b80516001600160a01b0381168114620000fa57600080fd5b919050565b6000806000606084860312156200011557600080fd5b6200012084620000e2565b92506200013060208501620000e2565b91506200014060408501620000e2565b90509250925092565b6000602082840312156200015c57600080fd5b6200016782620000e2565b9392505050565b6000826200018c57634e487b7160e01b600052601260045260246000fd5b500490565b8082028115828204841417620001b757634e487b7160e01b600052601160045260246000fd5b92915050565b60805160a05160c051610cb56200022560003960008181610154015281816104ea0152818161066801526106a30152600081816101150152818161059e01526105c50152600081816101a8015281816103e10152818161057c01526106460152610cb56000f3fe608060405234801561001057600080fd5b50600436106100b45760003560e01c80639008a642116100715780639008a6421461017e578063a83627de14610188578063b7a47df814610190578063bcffa6cd14610176578063f4359ce514610199578063fc0c546a146101a357600080fd5b8063013cf08b146100b95780630a441f7b146100f15780631c2b2a83146101085780633f2a55401461011057806346c96aac1461014f57806387ad796c14610176575b600080fd5b6100dc6100c7366004610ad6565b60026020526000908152604090205460ff1681565b60405190151581526020015b60405180910390f35b6100fa60005481565b6040519081526020016100e8565b6100fa606481565b6101377f000000000000000000000000000000000000000000000000000000000000000081565b6040516001600160a01b0390911681526020016100e8565b6101377f000000000000000000000000000000000000000000000000000000000000000081565b6100fa600181565b6101866101ca565b005b6100fa610390565b6100fa60015481565b6100fa62093a8081565b6101377f000000000000000000000000000000000000000000000000000000000000000081565b60006101d46104e6565b9050336001600160a01b038216146101ff576040516349bb6a7d60e11b815260040160405180910390fd5b60008054808252600260205260409091205460ff16156102325760405163b292ec6560e01b815260040160405180910390fd5b6000826001600160a01b031663653721476040518163ffffffff1660e01b81526004016020604051808303816000875af1158015610274573d6000803e3d6000fd5b505050506040513d601f19601f820116820180604052508101906102989190610aef565b60015490915060068260078111156102b2576102b2610b17565b1461032b5760048260078111156102cb576102cb610b17565b036103005760646102dd600183610b43565b116102f557600180546102f09190610b43565b6102f8565b60645b60015561032b565b600161030c8183610b5c565b10610324576001805461031f9190610b5c565b610327565b60015b6001555b60008381526002602052604090819020805460ff1916600190811790915554905184917f89f7f67bc867b6d7eefd5bd92b0df77051c2507700c7994efc25cfc679a0c5269161038291858252602082015260400190565b60405180910390a250505050565b6000546103a062093a8082610b43565b42106104e3578062093a806103b58142610b6f565b6103bf9190610b91565b60008181556040516370a0823160e01b815230600482015291935090819081907f00000000000000000000000000000000000000000000000000000000000000006001600160a01b0316906370a0823190602401602060405180830381865afa158015610430573d6000803e3d6000fd5b505050506040513d601f19601f820116820180604052508101906104549190610ba8565b905080156104965760646001548261046c9190610b91565b6104769190610b6f565b92506104828382610b5c565b915061048d8361056f565b61049682610639565b6040805185815260208101879052908101849052606081018390527f3ec74e88f8c23f93b4091b821cd0d4ba3bc8506a0d741a43199fbd522ba107609060800160405180910390a1505050505b90565b60007f00000000000000000000000000000000000000000000000000000000000000006001600160a01b0316633aae971f6040518163ffffffff1660e01b8152600401602060405180830381865afa158015610546573d6000803e3d6000fd5b505050506040513d601f19601f8201168201806040525081019061056a9190610bc1565b905090565b6105c36001600160a01b037f0000000000000000000000000000000000000000000000000000000000000000167f0000000000000000000000000000000000000000000000000000000000000000836106ef565b7f00000000000000000000000000000000000000000000000000000000000000006001600160a01b031663bee5dc326040518163ffffffff1660e01b8152600401600060405180830381600087803b15801561061e57600080fd5b505af1158015610632573d6000803e3d6000fd5b5050505050565b61068d6001600160a01b037f0000000000000000000000000000000000000000000000000000000000000000167f000000000000000000000000000000000000000000000000000000000000000083610757565b604051633c6b16ab60e01b8152600481018290527f00000000000000000000000000000000000000000000000000000000000000006001600160a01b031690633c6b16ab90602401600060405180830381600087803b15801561061e57600080fd5b6040516001600160a01b03831660248201526044810182905261075290849063a9059cbb60e01b906064015b60408051601f198184030181529190526020810180516001600160e01b03166001600160e01b031990931692909217909152610871565b505050565b8015806107d15750604051636eb1769f60e11b81523060048201526001600160a01b03838116602483015284169063dd62ed3e90604401602060405180830381865afa1580156107ab573d6000803e3d6000fd5b505050506040513d601f19601f820116820180604052508101906107cf9190610ba8565b155b6108415760405162461bcd60e51b815260206004820152603660248201527f5361666545524332303a20617070726f76652066726f6d206e6f6e2d7a65726f60448201527520746f206e6f6e2d7a65726f20616c6c6f77616e636560501b60648201526084015b60405180910390fd5b6040516001600160a01b03831660248201526044810182905261075290849063095ea7b360e01b9060640161071b565b60006108c6826040518060400160405280602081526020017f5361666545524332303a206c6f772d6c6576656c2063616c6c206661696c6564815250856001600160a01b03166109469092919063ffffffff16565b90508051600014806108e75750808060200190518101906108e79190610bea565b6107525760405162461bcd60e51b815260206004820152602a60248201527f5361666545524332303a204552433230206f7065726174696f6e20646964206e6044820152691bdd081cdd58d8d9595960b21b6064820152608401610838565b6060610955848460008561095d565b949350505050565b6060824710156109be5760405162461bcd60e51b815260206004820152602660248201527f416464726573733a20696e73756666696369656e742062616c616e636520666f6044820152651c8818d85b1b60d21b6064820152608401610838565b600080866001600160a01b031685876040516109da9190610c30565b60006040518083038185875af1925050503d8060008114610a17576040519150601f19603f3d011682016040523d82523d6000602084013e610a1c565b606091505b5091509150610a2d87838387610a38565b979650505050505050565b60608315610aa7578251600003610aa0576001600160a01b0385163b610aa05760405162461bcd60e51b815260206004820152601d60248201527f416464726573733a2063616c6c20746f206e6f6e2d636f6e74726163740000006044820152606401610838565b5081610955565b6109558383815115610abc5781518083602001fd5b8060405162461bcd60e51b81526004016108389190610c4c565b600060208284031215610ae857600080fd5b5035919050565b600060208284031215610b0157600080fd5b815160088110610b1057600080fd5b9392505050565b634e487b7160e01b600052602160045260246000fd5b634e487b7160e01b600052601160045260246000fd5b80820180821115610b5657610b56610b2d565b92915050565b81810381811115610b5657610b56610b2d565b600082610b8c57634e487b7160e01b600052601260045260246000fd5b500490565b8082028115828204841417610b5657610b56610b2d565b600060208284031215610bba57600080fd5b5051919050565b600060208284031215610bd357600080fd5b81516001600160a01b0381168114610b1057600080fd5b600060208284031215610bfc57600080fd5b81518015158114610b1057600080fd5b60005b83811015610c27578181015183820152602001610c0f565b50506000910152565b60008251610c42818460208701610c0c565b9190910192915050565b6020815260008251806020840152610c6b816040850160208701610c0c565b601f01601f1916919091016040019291505056fea264697066735822122086b2ac22514c5277bd127bc4e4238120cbb19c808d8400bccf41aec5870e1c1e64736f6c63430008180033",
  "devdoc": {
    "events": {
      "PeriodUpdated(uint256,uint256,uint256,uint256)": {
        "details": "Emitted when the epoch period is updated."
      }
    },
    "kind": "dev",
    "methods": {
      "updatePeriod()": {
        "details": "Needle position is used to determine the distribution ratio between         the first and second recipient.         1...first recipient amount..|..second recipient amount..100 [%]                                     ^                                   needle"
      }
    },
    "title": "ChainFeeSplitter",
    "version": 1
  },
  "userdoc": {
    "kind": "user",
    "methods": {
      "MAXIMUM_GAUGE_SCALE()": {
        "notice": "The maximum value of the gauge needle."
      },
      "MINIMUM_GAUGE_SCALE()": {
        "notice": "The minimum value of the gauge needle."
      },
      "TICK()": {
        "notice": "Needle tick change per proposal."
      },
      "WEEK()": {
        "notice": "Duration of epoch."
      },
      "activePeriod()": {
        "notice": "Start time of currently active epoch."
      },
      "needle()": {
        "notice": "The current position of the gauge needle."
      },
      "nudge()": {
        "notice": "Moves the gauge needle by 1 tick per epoch."
      },
      "rewardsDistributor()": {
        "notice": "Rewards distribution among stake gauges."
      },
      "token()": {
        "notice": "Token for fee distribution."
      },
      "updatePeriod()": {
        "notice": "Updates the period of the current epoch. This function can be called         by anyone. Chain fees accumulate in this contract continuously and         can be distributed between the first and second recipient after         the end of the specified period. In other words, the release of         the accumulated fees must wait until the end of the period."
      },
      "voter()": {
        "notice": "The address of the Voter contract."
      }
    },
    "notice": "A ChainFeeSplitter contract that changes the fee distribution between         veBTC holders and Stake Gauges based on the gauge needle position.",
    "version": 1
  },
  "storageLayout": {
    "storage": [
      {
        "astId": 14803,
        "contract": "contracts/ChainFeeSplitter.sol:ChainFeeSplitter",
        "label": "activePeriod",
        "offset": 0,
        "slot": "0",
        "type": "t_uint256"
      },
      {
        "astId": 14806,
        "contract": "contracts/ChainFeeSplitter.sol:ChainFeeSplitter",
        "label": "needle",
        "offset": 0,
        "slot": "1",
        "type": "t_uint256"
      },
      {
        "astId": 14811,
        "contract": "contracts/ChainFeeSplitter.sol:ChainFeeSplitter",
        "label": "proposals",
        "offset": 0,
        "slot": "2",
        "type": "t_mapping(t_uint256,t_bool)"
      }
    ],
    "types": {
      "t_bool": {
        "encoding": "inplace",
        "label": "bool",
        "numberOfBytes": "1"
      },
      "t_mapping(t_uint256,t_bool)": {
        "encoding": "mapping",
        "key": "t_uint256",
        "label": "mapping(uint256 => bool)",
        "numberOfBytes": "32",
        "value": "t_bool"
      },
      "t_uint256": {
        "encoding": "inplace",
        "label": "uint256",
        "numberOfBytes": "32"
      }
    }
  }
}