{
  "address": "0x6630E1209B65EC2deEddF98Ba46b6247B73a1468",
  "abi": [
    {
      "inputs": [],
      "name": "InvalidNonce",
      "type": "error"
    },
    {
      "inputs": [],
      "name": "InvalidSignature",
      "type": "error"
    },
    {
      "inputs": [],
      "name": "InvalidSignatureS",
      "type": "error"
    },
    {
      "inputs": [],
      "name": "NonExistentToken",
      "type": "error"
    },
    {
      "inputs": [],
      "name": "NotApprovedOrOwner",
      "type": "error"
    },
    {
      "inputs": [],
      "name": "NotPermanentLock",
      "type": "error"
    },
    {
      "inputs": [],
      "name": "OwnershipChange",
      "type": "error"
    },
    {
      "inputs": [],
      "name": "SafeCastUnderflow",
      "type": "error"
    },
    {
      "inputs": [],
      "name": "SignatureExpired",
      "type": "error"
    },
    {
      "anonymous": false,
      "inputs": [
        {
          "indexed": true,
          "internalType": "address",
          "name": "delegator",
          "type": "address"
        },
        {
          "indexed": true,
          "internalType": "uint256",
          "name": "fromDelegate",
          "type": "uint256"
        },
        {
          "indexed": true,
          "internalType": "uint256",
          "name": "toDelegate",
          "type": "uint256"
        }
      ],
      "name": "DelegateChanged",
      "type": "event"
    },
    {
      "inputs": [],
      "name": "DELEGATION_TYPEHASH",
      "outputs": [
        {
          "internalType": "bytes32",
          "name": "",
          "type": "bytes32"
        }
      ],
      "stateMutability": "view",
      "type": "function"
    },
    {
      "inputs": [],
      "name": "DOMAIN_TYPEHASH",
      "outputs": [
        {
          "internalType": "bytes32",
          "name": "",
          "type": "bytes32"
        }
      ],
      "stateMutability": "view",
      "type": "function"
    }
  ],
  "transactionHash": "0x0512b25e78b070331a6e31c53cb0104c72070bac3b49c7d16144d22ec73cc016",
  "args": [],
  "numDeployments": 1,
  "solcInputHash": "e46a5fe1a7647fe20def7a26ea4bca9d",
  "bytecode": "0x6110fd61003a600b82828239805160001a60731461002d57634e487b7160e01b600052600060045260246000fd5b30600052607381538281f3fe73000000000000000000000000000000000000000030146080604052600436106100615760003560e01c806320606b70146100665780636cdf6b591461009f578063a82f1e55146100b2578063e7a324dc146100d4578063fe58a054146100fb575b600080fd5b61008d7f8cad95687ba82c2ce50e74f7b754645e5117c3a5bec8151c0726d5857980a86681565b60405190815260200160405180910390f35b61008d6100ad366004610e58565b61011b565b8180156100be57600080fd5b506100d26100cd366004610ea1565b610256565b005b61008d7f9947d5709c1682eaa3946b2d84115c9c0d1c946b149d76e69b457458b42ea29e81565b81801561010757600080fd5b506100d2610116366004610f16565b610297565b600080610129868585610568565b6000858152602188016020908152604080832065ffffffffffff851684528252918290208251608081018452815480825260018301546001600160a01b0316938201939093526002820154938101939093526003015460608301529192509084101561019a5760009250505061024e565b80602001516001600160a01b0316866001600160a01b0316146101c25760009250505061024e565b60408101516060820151156101d75780610248565b604051637028a55d60e11b81526004810187905260248101869052309063e0514aba90604401602060405180830381865afa15801561021a573d6000803e3d6000fd5b505050506040513d601f19601f8201168201806040525081019061023e9190610faf565b6102489082610fde565b93505050505b949350505050565b61026a610262846106c6565b8490846106ec565b6102875760405163390cdd9b60e21b815260040160405180910390fd5b61029283838361075c565b505050565b6fa2a8918ca85bafe22016d0b997e4df60600160ff1b0360c086013511156102d2576040516317e97eb760e31b815260040160405180910390fd5b60007f8cad95687ba82c2ce50e74f7b754645e5117c3a5bec8151c0726d5857980a8668585604051610305929190610ff1565b6040518091039020848460405161031d929190610ff1565b60408051918290038220602083019490945281019190915260608101919091524660808201523060a082015260c00160408051808303601f1901815282825280516020918201207f9947d5709c1682eaa3946b2d84115c9c0d1c946b149d76e69b457458b42ea29e82850152893584840152908901356060808501919091529189013560808401529088013560a0830152915060009060c001604051602081830303815290604052805190602001209050600082826040516020016103f992919061190160f01b81526002810192909252602282015260420190565b60408051601f1981840301815291905280516020909101209050600060018261042860a08c0160808d01611001565b6040805160008152602081018083529390935260ff9091169082015260a0808c0135606083015260c08c01356080830152016020604051602081039080840390855afa15801561047c573d6000803e3d6000fd5b5050604051601f190151915061049690508a828b356106ec565b6104b35760405163390cdd9b60e21b815260040160405180910390fd5b6001600160a01b0381166104da57604051638baa579f60e01b815260040160405180910390fd5b6001600160a01b038116600090815260238b016020526040812080549161050083611024565b9190505589604001351461052757604051633ab3447f60e11b815260040160405180910390fd5b886060013542111561054c57604051630819bdcd60e01b815260040160405180910390fd5b61055c8a8a3560208c013561075c565b50505050505050505050565b600082815260228401602052604081205465ffffffffffff168082036105925760009150506106bf565b6000848152602186016020526040812084916105af60018561103d565b65ffffffffffff168152602081019190915260400160002054116105e0576105d860018261103d565b9150506106bf565b6000848152602186016020908152604080832083805290915290205483101561060d5760009150506106bf565b60008061061b60018461103d565b90505b8165ffffffffffff168165ffffffffffff1611156106ba5760006002610644848461103d565b61064e919061105c565b610658908361103d565b600088815260218a016020908152604080832065ffffffffffff851684529091529020805491925090879003610694575093506106bf92505050565b80548711156106a5578193506106b3565b6106b060018361103d565b92505b505061061e565b509150505b9392505050565b60006106d282336108d1565b156106e557505036601319013560601c90565b5033919050565b6000806106f985846108e8565b60008481526013870160209081526040808320546001600160a01b0380861680865260148c018552838620828c1680885295529290942054949550908214939216149060ff1682806107485750815b806107505750805b98975050505050505050565b6000828152601a8401602090815260409182902082516060810184528154600f0b81526001820154928101929092526002015460ff161515918101829052906107b857604051632188f8ab60e01b815260040160405180910390fd5b81158015906107d9575060006107ce85846108e8565b6001600160a01b0316145b156107f757604051634a1850bf60e11b815260040160405180910390fd5b6000838152601585016020526040902054439003610828576040516342d6fce760e01b815260040160405180910390fd5b82820361083457600091505b6000838152602080860190526040902054828103610853575050505050565b60006108658360000151600f0b610907565b905061087c86868661087783836108e8565b610933565b6108898685836001610bb2565b8382610894886106c6565b6001600160a01b03167ff1aa2a9e40138176a3ee6099df056f5c175f8511a0d8b8275d94d1ea5de4677360405160405180910390a4505050505050565b81546001600160a01b038281169116145b92915050565b600090815260119190910160205260409020546001600160a01b031690565b60008082600f0b121561092c5760405162406f5d60e21b815260040160405180910390fd5b50600f0b90565b6000838152601a8501602052604081205461095090600f0b610907565b600085815260228701602052604081205491925065ffffffffffff9091169081610994576000868152602188016020908152604080832083805290915290206109cf565b60008681526021880160205260408120906109b060018561103d565b65ffffffffffff1665ffffffffffff1681526020019081526020016000205b90506109e2878260030154856000610bb2565b6000868152602188016020908152604080832065ffffffffffff86168452909152902042815560028281015490820155600381018690556001810180546001600160a01b0319166001600160a01b038716179055610a408888610ddd565b15610a915760008781526022890160205260408120805465ffffffffffff1691610a698361108f565b91906101000a81548165ffffffffffff021916908365ffffffffffff16021790555050610b99565b600087815260218901602052604081208291610aae60018761103d565b65ffffffffffff1665ffffffffffff168152602001908152602001600020600082015481600001556001820160009054906101000a90046001600160a01b03168160010160006101000a8154816001600160a01b0302191690836001600160a01b03160217905550600282015481600201556003820154816003015590505087602101600088815260200190815260200160002060008465ffffffffffff1665ffffffffffff1681526020019081526020016000206000808201600090556001820160006101000a8154906001600160a01b0302191690556002820160009055600382016000905550505b5050506000938452505060209283019092526040902055565b8215610dd757600083815260228501602052604081205465ffffffffffff169081610bf757600085815260218701602090815260408083208380529091529020610c32565b6000858152602187016020526040812090610c1360018561103d565b65ffffffffffff1665ffffffffffff1681526020019081526020016000205b6000868152602188016020908152604080832065ffffffffffff87168452909152902042815560018083015490820180546001600160a01b0319166001600160a01b0390921691909117905590915083610cad5781600201548510610c98576000610cbd565b848260020154610ca891906110b4565b610cbd565b848260020154610cbd9190610fde565b600282015560038083015490820155610cd68787610ddd565b15610d275760008681526022880160205260408120805465ffffffffffff1691610cff8361108f565b91906101000a81548165ffffffffffff021916908365ffffffffffff16021790555050610dd3565b600086815260218801602052604081208291610d4460018761103d565b65ffffffffffff9081168252602080830193909352604091820160009081208554815560018087015481830180546001600160a01b039092166001600160a01b031992831617905560028089015481850155600398890154938901939093558d845260218f018752858420948b1684529390955292812081815593840180549092169091559082018190559101555b5050505b50505050565b600081815260228301602052604081205465ffffffffffff168015801590610e385750600083815260218501602052604081204291610e1d60018561103d565b65ffffffffffff168152602081019190915260400160002054145b15610e475760009150506108e2565b60019150506108e2565b5092915050565b60008060008060808587031215610e6e57600080fd5b8435935060208501356001600160a01b0381168114610e8c57600080fd5b93969395505050506040820135916060013590565b600080600060608486031215610eb657600080fd5b505081359360208301359350604090920135919050565b60008083601f840112610edf57600080fd5b50813567ffffffffffffffff811115610ef757600080fd5b602083019150836020828501011115610f0f57600080fd5b9250929050565b600080600080600080868803610140811215610f3157600080fd5b8735965060e0601f1982011215610f4757600080fd5b5060208701945061010087013567ffffffffffffffff80821115610f6a57600080fd5b610f768a838b01610ecd565b9096509450610120890135915080821115610f9057600080fd5b50610f9d89828a01610ecd565b979a9699509497509295939492505050565b600060208284031215610fc157600080fd5b5051919050565b634e487b7160e01b600052601160045260246000fd5b808201808211156108e2576108e2610fc8565b8183823760009101908152919050565b60006020828403121561101357600080fd5b813560ff811681146106bf57600080fd5b60006001820161103657611036610fc8565b5060010190565b65ffffffffffff828116828216039080821115610e5157610e51610fc8565b600065ffffffffffff8084168061108357634e487b7160e01b600052601260045260246000fd5b92169190910492915050565b600065ffffffffffff8083168181036110aa576110aa610fc8565b6001019392505050565b818103818111156108e2576108e2610fc856fea264697066735822122095f2a1802e23c36b5e1923fc9a46d8b8164aee85f6e8f66281fb7510bfcf3ffb64736f6c63430008180033",
  "devdoc": {
    "events": {
      "DelegateChanged(address,uint256,uint256)": {
        "details": "Emitted when an account changes their delegate."
      }
    },
    "kind": "dev",
    "methods": {
      "getPastVotes(VotingEscrowState.Storage storage,address,uint256,uint256)": {
        "details": "If a checkpoint does not exist prior to the timestamp, this will return 0.      The user must also own the token at the time in order to receive a voting balance.",
        "params": {
          "_account": ".",
          "_timestamp": ".",
          "_tokenId": "."
        },
        "returns": {
          "_0": "Total voting balance including delegations at a given timestamp."
        }
      }
    },
    "version": 1
  },
  "userdoc": {
    "kind": "user",
    "methods": {
      "DELEGATION_TYPEHASH()": {
        "notice": "The EIP-712 typehash for the delegation struct used by the contract"
      },
      "DOMAIN_TYPEHASH()": {
        "notice": "The EIP-712 typehash for the contract's domain"
      },
      "getPastVotes(VotingEscrowState.Storage storage,address,uint256,uint256)": {
        "notice": "Retrieves historical voting balance for a token id at a given timestamp."
      }
    },
    "version": 1
  },
  "storageLayout": {
    "storage": [],
    "types": null
  }
}