{
  "address": "0x391EcC7ffEFc48cff41D0F2Bb36e38b82180B993",
  "abi": [
    {
      "inputs": [
        {
          "internalType": "address",
          "name": "_fallbackPoolFactory",
          "type": "address"
        },
        {
          "internalType": "address",
          "name": "_fallbackVotingRewardsFactory",
          "type": "address"
        },
        {
          "internalType": "address",
          "name": "_fallbackGaugeFactory",
          "type": "address"
        },
        {
          "internalType": "address",
          "name": "_newManagedRewardsFactory",
          "type": "address"
        }
      ],
      "stateMutability": "nonpayable",
      "type": "constructor"
    },
    {
      "inputs": [],
      "name": "PathAlreadyApproved",
      "type": "error"
    },
    {
      "inputs": [],
      "name": "PathNotApproved",
      "type": "error"
    },
    {
      "inputs": [],
      "name": "PoolFactoryAlreadyApproved",
      "type": "error"
    },
    {
      "inputs": [],
      "name": "SameAddress",
      "type": "error"
    },
    {
      "inputs": [],
      "name": "ZeroAddress",
      "type": "error"
    },
    {
      "anonymous": false,
      "inputs": [
        {
          "indexed": true,
          "internalType": "address",
          "name": "poolFactory",
          "type": "address"
        },
        {
          "indexed": true,
          "internalType": "address",
          "name": "votingRewardsFactory",
          "type": "address"
        },
        {
          "indexed": true,
          "internalType": "address",
          "name": "gaugeFactory",
          "type": "address"
        }
      ],
      "name": "Approve",
      "type": "event"
    },
    {
      "anonymous": false,
      "inputs": [
        {
          "indexed": true,
          "internalType": "address",
          "name": "previousOwner",
          "type": "address"
        },
        {
          "indexed": true,
          "internalType": "address",
          "name": "newOwner",
          "type": "address"
        }
      ],
      "name": "OwnershipTransferred",
      "type": "event"
    },
    {
      "anonymous": false,
      "inputs": [
        {
          "indexed": true,
          "internalType": "address",
          "name": "_newRewardsFactory",
          "type": "address"
        }
      ],
      "name": "SetManagedRewardsFactory",
      "type": "event"
    },
    {
      "anonymous": false,
      "inputs": [
        {
          "indexed": true,
          "internalType": "address",
          "name": "poolFactory",
          "type": "address"
        },
        {
          "indexed": true,
          "internalType": "address",
          "name": "votingRewardsFactory",
          "type": "address"
        },
        {
          "indexed": true,
          "internalType": "address",
          "name": "gaugeFactory",
          "type": "address"
        }
      ],
      "name": "Unapprove",
      "type": "event"
    },
    {
      "inputs": [
        {
          "internalType": "address",
          "name": "poolFactory",
          "type": "address"
        },
        {
          "internalType": "address",
          "name": "votingRewardsFactory",
          "type": "address"
        },
        {
          "internalType": "address",
          "name": "gaugeFactory",
          "type": "address"
        }
      ],
      "name": "approve",
      "outputs": [],
      "stateMutability": "nonpayable",
      "type": "function"
    },
    {
      "inputs": [],
      "name": "fallbackGaugeFactory",
      "outputs": [
        {
          "internalType": "address",
          "name": "",
          "type": "address"
        }
      ],
      "stateMutability": "view",
      "type": "function"
    },
    {
      "inputs": [],
      "name": "fallbackPoolFactory",
      "outputs": [
        {
          "internalType": "address",
          "name": "",
          "type": "address"
        }
      ],
      "stateMutability": "view",
      "type": "function"
    },
    {
      "inputs": [],
      "name": "fallbackVotingRewardsFactory",
      "outputs": [
        {
          "internalType": "address",
          "name": "",
          "type": "address"
        }
      ],
      "stateMutability": "view",
      "type": "function"
    },
    {
      "inputs": [
        {
          "internalType": "address",
          "name": "poolFactory",
          "type": "address"
        },
        {
          "internalType": "address",
          "name": "votingRewardsFactory",
          "type": "address"
        },
        {
          "internalType": "address",
          "name": "gaugeFactory",
          "type": "address"
        }
      ],
      "name": "isApproved",
      "outputs": [
        {
          "internalType": "bool",
          "name": "",
          "type": "bool"
        }
      ],
      "stateMutability": "view",
      "type": "function"
    },
    {
      "inputs": [],
      "name": "managedRewardsFactory",
      "outputs": [
        {
          "internalType": "address",
          "name": "",
          "type": "address"
        }
      ],
      "stateMutability": "view",
      "type": "function"
    },
    {
      "inputs": [],
      "name": "owner",
      "outputs": [
        {
          "internalType": "address",
          "name": "",
          "type": "address"
        }
      ],
      "stateMutability": "view",
      "type": "function"
    },
    {
      "inputs": [],
      "name": "poolFactories",
      "outputs": [
        {
          "internalType": "address[]",
          "name": "",
          "type": "address[]"
        }
      ],
      "stateMutability": "view",
      "type": "function"
    },
    {
      "inputs": [],
      "name": "poolFactoriesLength",
      "outputs": [
        {
          "internalType": "uint256",
          "name": "",
          "type": "uint256"
        }
      ],
      "stateMutability": "view",
      "type": "function"
    },
    {
      "inputs": [
        {
          "internalType": "address",
          "name": "_poolFactory",
          "type": "address"
        }
      ],
      "name": "poolFactoryExists",
      "outputs": [
        {
          "internalType": "bool",
          "name": "",
          "type": "bool"
        }
      ],
      "stateMutability": "view",
      "type": "function"
    },
    {
      "inputs": [],
      "name": "renounceOwnership",
      "outputs": [],
      "stateMutability": "nonpayable",
      "type": "function"
    },
    {
      "inputs": [
        {
          "internalType": "address",
          "name": "_newManagedRewardsFactory",
          "type": "address"
        }
      ],
      "name": "setManagedRewardsFactory",
      "outputs": [],
      "stateMutability": "nonpayable",
      "type": "function"
    },
    {
      "inputs": [
        {
          "internalType": "address",
          "name": "newOwner",
          "type": "address"
        }
      ],
      "name": "transferOwnership",
      "outputs": [],
      "stateMutability": "nonpayable",
      "type": "function"
    },
    {
      "inputs": [
        {
          "internalType": "address",
          "name": "poolFactory",
          "type": "address"
        },
        {
          "internalType": "address",
          "name": "votingRewardsFactory",
          "type": "address"
        },
        {
          "internalType": "address",
          "name": "gaugeFactory",
          "type": "address"
        }
      ],
      "name": "unapprove",
      "outputs": [],
      "stateMutability": "nonpayable",
      "type": "function"
    }
  ],
  "transactionHash": "0x813c9ca4a38b0de4524ba023204bb26b0a0b0780518ca8b52ea99ea9c1cbef3b",
  "args": [
    "0x3012C2fE1240e3754E5C200A0946bb0E07474876",
    "0xE4B5913C0c82dB2eFC553b95c0173efb90a07c8B",
    "0x24C0Fbd3Ff8e742080c60881f8527cA3baf07647",
    "0x3CDFD2674AE85b2f5a767EDcfE823351351a7e17"
  ],
  "numDeployments": 1,
  "solcInputHash": "ff5a0ccb3d0d88b62210a9fe38c4030e",
  "bytecode": "0x60e06040523480156200001157600080fd5b5060405162000d9d38038062000d9d833981016040819052620000349162000267565b6200003f336200007b565b6001600160a01b0380851660805283811660a052821660c05262000065600285620000cb565b506200007181620000eb565b50505050620002c4565b600080546001600160a01b038381166001600160a01b0319831681178455604051919092169283917f8be0079c531659141344cd1fd0a4f28419497f9722a3daafe3b4186f6b6457e09190a35050565b6000620000e2836001600160a01b03841662000197565b90505b92915050565b620000f5620001e9565b6001546001600160a01b0390811690821603620001255760405163367558c360e01b815260040160405180910390fd5b6001600160a01b0381166200014d5760405163d92e233d60e01b815260040160405180910390fd5b600180546001600160a01b0319166001600160a01b0383169081179091556040517f3123bae5152a999decbb5b69306adb30fa19885cf983c49427fd5b4594dcb03790600090a250565b6000818152600183016020526040812054620001e057508154600181810184556000848152602080822090930184905584548482528286019093526040902091909155620000e5565b506000620000e5565b6000546001600160a01b03163314620002485760405162461bcd60e51b815260206004820181905260248201527f4f776e61626c653a2063616c6c6572206973206e6f7420746865206f776e6572604482015260640160405180910390fd5b565b80516001600160a01b03811681146200026257600080fd5b919050565b600080600080608085870312156200027e57600080fd5b62000289856200024a565b935062000299602086016200024a565b9250620002a9604086016200024a565b9150620002b9606086016200024a565b905092959194509250565b60805160a05160c051610a9462000309600039600081816101f201526102d40152600081816101a7015261029701526000818161012d015261025b0152610a946000f3fe608060405234801561001057600080fd5b50600436106100ca5760003560e01c80637516beda1161007c5780637516beda1461018f578063866a0a94146101a25780638da5cb5b146101c95780639b140a85146101da578063d841c216146101ed578063f2fde38b14610214578063ffc5f0d61461022757600080fd5b806306121cd5146100cf5780630cb299c9146100ed5780630d0ae6781461010357806356d9cb64146101285780635c1976421461014f5780636407693914610172578063715018a614610187575b600080fd5b6100d761023a565b6040516100e4919061094a565b60405180910390f35b6100f561024b565b6040519081526020016100e4565b6001546001600160a01b03165b6040516001600160a01b0390911681526020016100e4565b6101107f000000000000000000000000000000000000000000000000000000000000000081565b61016261015d3660046109b3565b610257565b60405190151581526020016100e4565b6101856101803660046109f6565b610351565b005b6101856103f9565b61018561019d3660046109b3565b61040d565b6101107f000000000000000000000000000000000000000000000000000000000000000081565b6000546001600160a01b0316610110565b6101856101e83660046109b3565b6104f7565b6101107f000000000000000000000000000000000000000000000000000000000000000081565b6101856102223660046109f6565b61060e565b6101626102353660046109f6565b61068c565b6060610246600261069f565b905090565b600061024660026106ac565b60007f00000000000000000000000000000000000000000000000000000000000000006001600160a01b0316846001600160a01b03161480156102cb57507f00000000000000000000000000000000000000000000000000000000000000006001600160a01b0316836001600160a01b0316145b801561030857507f00000000000000000000000000000000000000000000000000000000000000006001600160a01b0316826001600160a01b0316145b156103155750600161034a565b506001600160a01b038084166000908152600460209081526040808320868516845282528083209385168352929052205460ff165b9392505050565b6103596106b6565b6001546001600160a01b03908116908216036103885760405163367558c360e01b815260040160405180910390fd5b6001600160a01b0381166103af5760405163d92e233d60e01b815260040160405180910390fd5b600180546001600160a01b0319166001600160a01b0383169081179091556040517f3123bae5152a999decbb5b69306adb30fa19885cf983c49427fd5b4594dcb03790600090a250565b6104016106b6565b61040b6000610710565b565b6104156106b6565b6001600160a01b038084166000908152600460209081526040808320868516845282528083209385168352929052205460ff166104655760405163d38afd6560e01b815260040160405180910390fd5b6001600160a01b03808416600090815260046020908152604080832086851684528252808320938516835292905220805460ff191690556104a7600284610760565b50806001600160a01b0316826001600160a01b0316846001600160a01b03167fbbbf8609bccd24696f7d2d86357dbd1a55ff9b79853a72ea11b1c0968ada177660405160405180910390a4505050565b6104ff6106b6565b6001600160a01b038084166000908152600460209081526040808320868516845282528083209385168352929052205460ff1615610550576040516362cee17560e11b815260040160405180910390fd5b61055b600284610775565b1561057957604051630234331160e61b815260040160405180910390fd5b6001600160a01b03808416600090815260046020908152604080832086851684528252808320938516835292905220805460ff191660011790556105be600284610797565b50806001600160a01b0316826001600160a01b0316846001600160a01b03167f5abe7702ac48299ef7647755d7af6d6a6beecd1c584bbb6fa55b7a882490efc760405160405180910390a4505050565b6106166106b6565b6001600160a01b0381166106805760405162461bcd60e51b815260206004820152602660248201527f4f776e61626c653a206e6577206f776e657220697320746865207a65726f206160448201526564647265737360d01b60648201526084015b60405180910390fd5b61068981610710565b50565b6000610699600283610775565b92915050565b6060600061034a836107ac565b6000610699825490565b6000546001600160a01b0316331461040b5760405162461bcd60e51b815260206004820181905260248201527f4f776e61626c653a2063616c6c6572206973206e6f7420746865206f776e65726044820152606401610677565b600080546001600160a01b038381166001600160a01b0319831681178455604051919092169283917f8be0079c531659141344cd1fd0a4f28419497f9722a3daafe3b4186f6b6457e09190a35050565b600061034a836001600160a01b038416610808565b6001600160a01b0381166000908152600183016020526040812054151561034a565b600061034a836001600160a01b0384166108fb565b6060816000018054806020026020016040519081016040528092919081815260200182805480156107fc57602002820191906000526020600020905b8154815260200190600101908083116107e8575b50505050509050919050565b600081815260018301602052604081205480156108f157600061082c600183610a11565b855490915060009061084090600190610a11565b90508181146108a557600086600001828154811061086057610860610a32565b906000526020600020015490508087600001848154811061088357610883610a32565b6000918252602080832090910192909255918252600188019052604090208390555b85548690806108b6576108b6610a48565b600190038181906000526020600020016000905590558560010160008681526020019081526020016000206000905560019350505050610699565b6000915050610699565b600081815260018301602052604081205461094257508154600181810184556000848152602080822090930184905584548482528286019093526040902091909155610699565b506000610699565b6020808252825182820181905260009190848201906040850190845b8181101561098b5783516001600160a01b031683529284019291840191600101610966565b50909695505050505050565b80356001600160a01b03811681146109ae57600080fd5b919050565b6000806000606084860312156109c857600080fd5b6109d184610997565b92506109df60208501610997565b91506109ed60408501610997565b90509250925092565b600060208284031215610a0857600080fd5b61034a82610997565b8181038181111561069957634e487b7160e01b600052601160045260246000fd5b634e487b7160e01b600052603260045260246000fd5b634e487b7160e01b600052603160045260246000fdfea2646970667358221220053cf047f8d7e81861043bd91a8e52660fe37730aa6dcda4d4ac9ee029fae44c64736f6c63430008180033",
  "devdoc": {
    "author": "Carter Carlson (@pegahcarter)",
    "kind": "dev",
    "methods": {
      "approve(address,address,address)": {
        "details": "Callable by onlyOwner",
        "params": {
          "gaugeFactory": ".",
          "poolFactory": ".",
          "votingRewardsFactory": "."
        }
      },
      "isApproved(address,address,address)": {
        "params": {
          "gaugeFactory": ".",
          "poolFactory": ".",
          "votingRewardsFactory": "."
        },
        "returns": {
          "_0": "True if set of factories are approved, else false"
        }
      },
      "owner()": {
        "details": "Returns the address of the current owner."
      },
      "poolFactories()": {
        "details": "The same PoolFactory address cannot be used twice",
        "returns": {
          "_0": "Array of PoolFactory addresses"
        }
      },
      "renounceOwnership()": {
        "details": "Leaves the contract without owner. It will not be possible to call `onlyOwner` functions. Can only be called by the current owner. NOTE: Renouncing ownership will leave the contract without an owner, thereby disabling any functionality that is only available to the owner."
      },
      "setManagedRewardsFactory(address)": {
        "details": "Callable by onlyOwner",
        "params": {
          "_newManagedRewardsFactory": "address of new managedRewardsFactory"
        }
      },
      "transferOwnership(address)": {
        "details": "Transfers ownership of the contract to a new account (`newOwner`). Can only be called by the current owner."
      },
      "unapprove(address,address,address)": {
        "details": "Callable by onlyOwner",
        "params": {
          "gaugeFactory": ".",
          "poolFactory": ".",
          "votingRewardsFactory": "."
        }
      }
    },
    "stateVariables": {
      "_approved": {
        "details": "poolFactory => votingRewardsFactory => gaugeFactory => true if path exists, else false"
      },
      "_managedRewardsFactory": {
        "details": "factory to create free and locked rewards for a managed veNFT"
      }
    },
    "version": 1
  },
  "userdoc": {
    "kind": "user",
    "methods": {
      "isApproved(address,address,address)": {
        "notice": "Check if a set of factories are approved for use in Mezodrome Protocol"
      },
      "managedRewardsFactory()": {
        "notice": "Factory to create free and locked rewards for a managed veNFT"
      },
      "poolFactories()": {
        "notice": "Get all PoolFactories used by the registry"
      },
      "poolFactoriesLength()": {
        "notice": "Get the length of the poolFactories array"
      },
      "setManagedRewardsFactory(address)": {
        "notice": "Set the rewards factory address"
      },
      "unapprove(address,address,address)": {
        "notice": "Unapprove a set of factories used in Mezodrome Protocol. Router is no longer able to swap with pools         created by the poolFactory"
      }
    },
    "version": 1
  },
  "storageLayout": {
    "storage": [
      {
        "astId": 396,
        "contract": "contracts/factories/FactoryRegistry.sol:FactoryRegistry",
        "label": "_owner",
        "offset": 0,
        "slot": "0",
        "type": "t_address"
      },
      {
        "astId": 15894,
        "contract": "contracts/factories/FactoryRegistry.sol:FactoryRegistry",
        "label": "_managedRewardsFactory",
        "offset": 0,
        "slot": "1",
        "type": "t_address"
      },
      {
        "astId": 15903,
        "contract": "contracts/factories/FactoryRegistry.sol:FactoryRegistry",
        "label": "_poolFactories",
        "offset": 0,
        "slot": "2",
        "type": "t_struct(AddressSet)8818_storage"
      },
      {
        "astId": 15912,
        "contract": "contracts/factories/FactoryRegistry.sol:FactoryRegistry",
        "label": "_approved",
        "offset": 0,
        "slot": "4",
        "type": "t_mapping(t_address,t_mapping(t_address,t_mapping(t_address,t_bool)))"
      }
    ],
    "types": {
      "t_address": {
        "encoding": "inplace",
        "label": "address",
        "numberOfBytes": "20"
      },
      "t_array(t_bytes32)dyn_storage": {
        "base": "t_bytes32",
        "encoding": "dynamic_array",
        "label": "bytes32[]",
        "numberOfBytes": "32"
      },
      "t_bool": {
        "encoding": "inplace",
        "label": "bool",
        "numberOfBytes": "1"
      },
      "t_bytes32": {
        "encoding": "inplace",
        "label": "bytes32",
        "numberOfBytes": "32"
      },
      "t_mapping(t_address,t_bool)": {
        "encoding": "mapping",
        "key": "t_address",
        "label": "mapping(address => bool)",
        "numberOfBytes": "32",
        "value": "t_bool"
      },
      "t_mapping(t_address,t_mapping(t_address,t_bool))": {
        "encoding": "mapping",
        "key": "t_address",
        "label": "mapping(address => mapping(address => bool))",
        "numberOfBytes": "32",
        "value": "t_mapping(t_address,t_bool)"
      },
      "t_mapping(t_address,t_mapping(t_address,t_mapping(t_address,t_bool)))": {
        "encoding": "mapping",
        "key": "t_address",
        "label": "mapping(address => mapping(address => mapping(address => bool)))",
        "numberOfBytes": "32",
        "value": "t_mapping(t_address,t_mapping(t_address,t_bool))"
      },
      "t_mapping(t_bytes32,t_uint256)": {
        "encoding": "mapping",
        "key": "t_bytes32",
        "label": "mapping(bytes32 => uint256)",
        "numberOfBytes": "32",
        "value": "t_uint256"
      },
      "t_struct(AddressSet)8818_storage": {
        "encoding": "inplace",
        "label": "struct EnumerableSet.AddressSet",
        "members": [
          {
            "astId": 8817,
            "contract": "contracts/factories/FactoryRegistry.sol:FactoryRegistry",
            "label": "_inner",
            "offset": 0,
            "slot": "0",
            "type": "t_struct(Set)8503_storage"
          }
        ],
        "numberOfBytes": "64"
      },
      "t_struct(Set)8503_storage": {
        "encoding": "inplace",
        "label": "struct EnumerableSet.Set",
        "members": [
          {
            "astId": 8498,
            "contract": "contracts/factories/FactoryRegistry.sol:FactoryRegistry",
            "label": "_values",
            "offset": 0,
            "slot": "0",
            "type": "t_array(t_bytes32)dyn_storage"
          },
          {
            "astId": 8502,
            "contract": "contracts/factories/FactoryRegistry.sol:FactoryRegistry",
            "label": "_indexes",
            "offset": 0,
            "slot": "1",
            "type": "t_mapping(t_bytes32,t_uint256)"
          }
        ],
        "numberOfBytes": "64"
      },
      "t_uint256": {
        "encoding": "inplace",
        "label": "uint256",
        "numberOfBytes": "32"
      }
    }
  }
}