{
  "address": "0x24C0Fbd3Ff8e742080c60881f8527cA3baf07647",
  "abi": [
    {
      "inputs": [
        {
          "internalType": "address",
          "name": "_forwarder",
          "type": "address"
        },
        {
          "internalType": "address",
          "name": "_pool",
          "type": "address"
        },
        {
          "internalType": "address",
          "name": "_feesVotingReward",
          "type": "address"
        },
        {
          "internalType": "address",
          "name": "_rewardToken",
          "type": "address"
        },
        {
          "internalType": "bool",
          "name": "isPool",
          "type": "bool"
        }
      ],
      "name": "createGauge",
      "outputs": [
        {
          "internalType": "address",
          "name": "gauge",
          "type": "address"
        }
      ],
      "stateMutability": "nonpayable",
      "type": "function"
    }
  ],
  "transactionHash": "0x9cbe15cba5711bb29da02afab5e3f39f9e092abf812fe5ec0c890d777c75b84d",
  "args": [],
  "numDeployments": 1,
  "solcInputHash": "ff5a0ccb3d0d88b62210a9fe38c4030e",
  "bytecode": "0x608060405234801561001057600080fd5b50611a10806100206000396000f3fe608060405234801561001057600080fd5b506004361061002b5760003560e01c80638a983e5414610030575b600080fd5b61004361003e3660046100fb565b61005f565b6040516001600160a01b03909116815260200160405180910390f35b6000858585853386604051610073906100d2565b6001600160a01b039687168152948616602086015292851660408501529084166060840152909216608082015290151560a082015260c001604051809103906000f0801580156100c7573d6000803e3d6000fd5b509695505050505050565b6118718061016a83390190565b80356001600160a01b03811681146100f657600080fd5b919050565b600080600080600060a0868803121561011357600080fd5b61011c866100df565b945061012a602087016100df565b9350610138604087016100df565b9250610146606087016100df565b91506080860135801515811461015b57600080fd5b80915050929550929590935056fe6101406040523480156200001257600080fd5b506040516200187138038062001871833981016040819052620000359162000089565b6001600160a01b03958616608052600160005593851660a05291841660e052831660c0529091166101005215156101205262000112565b80516001600160a01b03811681146200008457600080fd5b919050565b60008060008060008060c08789031215620000a357600080fd5b620000ae876200006c565b9550620000be602088016200006c565b9450620000ce604088016200006c565b9350620000de606088016200006c565b9250620000ee608088016200006c565b915060a087015180151581146200010457600080fd5b809150509295509295509295565b60805160a05160c05160e051610100516101205161169f620001d2600039600081816103710152610b6401526000818161022a01528181610574015281816108c30152610f4f0152600081816101bd01528181610cf601528181610d3201528181610dc50152610e010152600081816103a101528181610628015281816106930152818161072a015261095e0152600081816102b0015281816104e601528181610b9201528181610c5401526110040152600061082e015261169f6000f3fe608060405234801561001057600080fd5b506004361061016d5760003560e01c80637b0a47ee116100ce578063c00007b011610087578063c00007b01461033f578063c8f33c9114610352578063cd3daf9d1461035b578063df136d6514610363578063e2e1c6db1461036c578063ebe2b12b14610393578063f7c618c11461039c57600080fd5b80637b0a47ee146102d257806380faa57d146102db5780638b876347146102e357806393f1c4421461030357806394af5b631461030c578063b6b55f251461032c57600080fd5b80633c6b16ab1161012b5780633c6b16ab1461021257806346c96aac146102255780634c02a21c1461024c578063572b6c05146102555780636e553f651461027857806370a082311461028b57806372f702f3146102ab57600080fd5b80628cc262146101725780630700037d146101985780630fe2f711146101b857806316e64048146101ec57806318160ddd146101f45780632e1a7d4d146101fd575b600080fd5b610185610180366004611460565b6103c3565b6040519081526020015b60405180910390f35b6101856101a6366004611460565b60086020526000908152604090205481565b6101df7f000000000000000000000000000000000000000000000000000000000000000081565b60405161018f919061147d565b610185610440565b61018560055481565b61021061020b366004611491565b610477565b005b610210610220366004611491565b61055e565b6101df7f000000000000000000000000000000000000000000000000000000000000000081565b610185600b5481565b610268610263366004611460565b61082c565b604051901515815260200161018f565b6102106102863660046114aa565b61085e565b610185610299366004611460565b60066020526000908152604090205481565b6101df7f000000000000000000000000000000000000000000000000000000000000000081565b61018560025481565b61018561086c565b6101856102f1366004611460565b60076020526000908152604090205481565b610185600a5481565b61018561031a366004611491565b60096020526000908152604090205481565b61021061033a366004611491565b61087f565b61021061034d366004611460565b610890565b61018560035481565b6101856109d5565b61018560045481565b6102687f000000000000000000000000000000000000000000000000000000000000000081565b61018560015481565b6101df7f000000000000000000000000000000000000000000000000000000000000000081565b6001600160a01b0381166000908152600860209081526040808320546007909252822054670de0b6b3a7640000906103f96109d5565b61040391906114f0565b6001600160a01b0385166000908152600660205260409020546104269190611503565b610430919061151a565b61043a919061153c565b92915050565b600060015442106104515750600090565b60004260015461046191906114f0565b9050600254816104719190611503565b91505090565b61047f610a37565b6000610489610a95565b905061049481610ab7565b81600560008282546104a691906114f0565b90915550506001600160a01b038116600090815260066020526040812080548492906104d39084906114f0565b9091555061050d90506001600160a01b037f0000000000000000000000000000000000000000000000000000000000000000168284610b04565b806001600160a01b03167f884edad9ce6fa2440d8a54cc123490eb96d2768479d49ff9c7366125a94243648360405161054891815260200190565b60405180910390a25061055b6001600055565b50565b610566610a37565b6000610570610a95565b90507f00000000000000000000000000000000000000000000000000000000000000006001600160a01b0316816001600160a01b0316146105c45760405163c18384c160e01b815260040160405180910390fd5b816000036105e557604051631f2a200560e01b815260040160405180910390fd5b6105ed610b5f565b50506105f76109d5565b6004554260006106108262093a808082068203016114f0565b90506001548210610662576106506001600160a01b037f000000000000000000000000000000000000000000000000000000000000000016843087610ed1565b61065a818561151a565b6002556106d6565b60008260015461067291906114f0565b90506000600254826106849190611503565b90506106bb6001600160a01b037f000000000000000000000000000000000000000000000000000000000000000016863089610ed1565b826106c6828861153c565b6106d0919061151a565b60025550505b60025462093a8083068303600090815260096020526040812082905503610710576040516307ced7af60e01b815260040160405180910390fd5b6040516370a0823160e01b81526000906001600160a01b037f000000000000000000000000000000000000000000000000000000000000000016906370a082319061075f90309060040161147d565b602060405180830381865afa15801561077c573d6000803e3d6000fd5b505050506040513d601f19601f820116820180604052508101906107a0919061154f565b90506107ac828261151a565b60025411156107ce57604051633c6be1b360e01b815260040160405180910390fd5b60038390556107dd828461153c565b6001556040518581526001600160a01b038516907f095667752957714306e1a6ad83495404412df6fdb932fca6dc849a7ee910d4c19060200160405180910390a25050505061055b6001600055565b7f00000000000000000000000000000000000000000000000000000000000000006001600160a01b0390811691161490565b6108688282610f0f565b5050565b600061087a426001546110ca565b905090565b61055b8161088b610a95565b610f0f565b610898610a37565b60006108a2610a95565b9050816001600160a01b0316816001600160a01b0316141580156108f857507f00000000000000000000000000000000000000000000000000000000000000006001600160a01b0316816001600160a01b031614155b156109165760405163ea8e4eb560e01b815260040160405180910390fd5b61091f82610ab7565b6001600160a01b03821660009081526008602052604090205480156109c9576001600160a01b03808416600090815260086020526040812055610985907f0000000000000000000000000000000000000000000000000000000000000000168483610b04565b826001600160a01b03167f1f89f96333d3133000ee447473151fa9606543368f02271c9d95ae14f13bcc67826040516109c091815260200190565b60405180910390a25b505061055b6001600055565b60006005546000036109e8575060045490565b600554670de0b6b3a7640000600254600354610a0261086c565b610a0c91906114f0565b610a169190611503565b610a209190611503565b610a2a919061151a565b60045461087a919061153c565b600260005403610a8e5760405162461bcd60e51b815260206004820152601f60248201527f5265656e7472616e637947756172643a207265656e7472616e742063616c6c0060448201526064015b60405180910390fd5b6002600055565b6000610aa03361082c565b15610ab2575060131936013560601c90565b503390565b610abf6109d5565b600455610aca61086c565b600355610ad6816103c3565b6001600160a01b03909116600090815260086020908152604080832093909355600454600790915291902055565b610b5a8363a9059cbb60e01b8484604051602401610b23929190611568565b60408051601f198184030181529190526020810180516001600160e01b03166001600160e01b0319909316929092179091526110e2565b505050565b6000807f0000000000000000000000000000000000000000000000000000000000000000610b905750600091829150565b7f00000000000000000000000000000000000000000000000000000000000000006001600160a01b031663d294f0936040518163ffffffff1660e01b815260040160408051808303816000875af1158015610bef573d6000803e3d6000fd5b505050506040513d601f19601f82011682018060405250810190610c139190611581565b909250905081151580610c265750600081115b15610ecd57600082600a54610c3b919061153c565b9050600082600b54610c4d919061153c565b90506000807f00000000000000000000000000000000000000000000000000000000000000006001600160a01b0316639d63848a6040518163ffffffff1660e01b81526004016040805180830381865afa158015610caf573d6000803e3d6000fd5b505050506040513d601f19601f82011682018060405250810190610cd391906115a5565b9150915062093a80841115610da0576000600a55610d1b6001600160a01b0383167f0000000000000000000000000000000000000000000000000000000000000000866111b7565b60405163b66503cf60e01b81526001600160a01b037f0000000000000000000000000000000000000000000000000000000000000000169063b66503cf90610d699085908890600401611568565b600060405180830381600087803b158015610d8357600080fd5b505af1158015610d97573d6000803e3d6000fd5b50505050610da6565b600a8490555b62093a80831115610e6f576000600b55610dea6001600160a01b0382167f0000000000000000000000000000000000000000000000000000000000000000856111b7565b60405163b66503cf60e01b81526001600160a01b037f0000000000000000000000000000000000000000000000000000000000000000169063b66503cf90610e389084908790600401611568565b600060405180830381600087803b158015610e5257600080fd5b505af1158015610e66573d6000803e3d6000fd5b50505050610e75565b600b8390555b610e7d610a95565b6001600160a01b03167fbc567d6cbad26368064baa0ab5a757be46aae4d70f707f9203d9d9b6c8ccbfa38787604051610ec0929190918252602082015260400190565b60405180910390a2505050505b9091565b6040516001600160a01b0380851660248301528316604482015260648101829052610f099085906323b872dd60e01b90608401610b23565b50505050565b610f17610a37565b81600003610f3857604051631f2a200560e01b815260040160405180910390fd5b604051631703e5f960e01b81526001600160a01b037f00000000000000000000000000000000000000000000000000000000000000001690631703e5f990610f8490309060040161147d565b602060405180830381865afa158015610fa1573d6000803e3d6000fd5b505050506040513d601f19601f82011682018060405250810190610fc591906115d4565b610fe2576040516310f3d9c960e01b815260040160405180910390fd5b6000610fec610a95565b9050610ff782610ab7565b61102c6001600160a01b037f000000000000000000000000000000000000000000000000000000000000000016823086610ed1565b826005600082825461103e919061153c565b90915550506001600160a01b0382166000908152600660205260408120805485929061106b90849061153c565b92505081905550816001600160a01b0316816001600160a01b03167f5548c837ab068cf56a2c2479df0882a4922fd203edb7517321831d95078c5f62856040516110b791815260200190565b60405180910390a3506108686001600055565b60008183106110d957816110db565b825b9392505050565b6000611137826040518060400160405280602081526020017f5361666545524332303a206c6f772d6c6576656c2063616c6c206661696c6564815250856001600160a01b03166112bb9092919063ffffffff16565b905080516000148061115857508080602001905181019061115891906115d4565b610b5a5760405162461bcd60e51b815260206004820152602a60248201527f5361666545524332303a204552433230206f7065726174696f6e20646964206e6044820152691bdd081cdd58d8d9595960b21b6064820152608401610a85565b8015806112315750604051636eb1769f60e11b81523060048201526001600160a01b03838116602483015284169063dd62ed3e90604401602060405180830381865afa15801561120b573d6000803e3d6000fd5b505050506040513d601f19601f8201168201806040525081019061122f919061154f565b155b61129c5760405162461bcd60e51b815260206004820152603660248201527f5361666545524332303a20617070726f76652066726f6d206e6f6e2d7a65726f60448201527520746f206e6f6e2d7a65726f20616c6c6f77616e636560501b6064820152608401610a85565b610b5a8363095ea7b360e01b8484604051602401610b23929190611568565b60606112ca84846000856112d2565b949350505050565b6060824710156113335760405162461bcd60e51b815260206004820152602660248201527f416464726573733a20696e73756666696369656e742062616c616e636520666f6044820152651c8818d85b1b60d21b6064820152608401610a85565b600080866001600160a01b0316858760405161134f919061161a565b60006040518083038185875af1925050503d806000811461138c576040519150601f19603f3d011682016040523d82523d6000602084013e611391565b606091505b50915091506113a2878383876113ad565b979650505050505050565b6060831561141c578251600003611415576001600160a01b0385163b6114155760405162461bcd60e51b815260206004820152601d60248201527f416464726573733a2063616c6c20746f206e6f6e2d636f6e74726163740000006044820152606401610a85565b50816112ca565b6112ca83838151156114315781518083602001fd5b8060405162461bcd60e51b8152600401610a859190611636565b6001600160a01b038116811461055b57600080fd5b60006020828403121561147257600080fd5b81356110db8161144b565b6001600160a01b0391909116815260200190565b6000602082840312156114a357600080fd5b5035919050565b600080604083850312156114bd57600080fd5b8235915060208301356114cf8161144b565b809150509250929050565b634e487b7160e01b600052601160045260246000fd5b8181038181111561043a5761043a6114da565b808202811582820484141761043a5761043a6114da565b60008261153757634e487b7160e01b600052601260045260246000fd5b500490565b8082018082111561043a5761043a6114da565b60006020828403121561156157600080fd5b5051919050565b6001600160a01b03929092168252602082015260400190565b6000806040838503121561159457600080fd5b505080516020909101519092909150565b600080604083850312156115b857600080fd5b82516115c38161144b565b60208401519092506114cf8161144b565b6000602082840312156115e657600080fd5b815180151581146110db57600080fd5b60005b838110156116115781810151838201526020016115f9565b50506000910152565b6000825161162c8184602087016115f6565b9190910192915050565b60208152600082518060208401526116558160408501602087016115f6565b601f01601f1916919091016040019291505056fea2646970667358221220c91273f7db52192e4f7626f0b2aa0d7332b5eacd4802b2c5071b1aab3957fbf864736f6c63430008180033a264697066735822122034c8fe58282426c028b123939b3500c262a1101b429f7875ffee81926952856464736f6c63430008180033",
  "devdoc": {
    "kind": "dev",
    "methods": {},
    "version": 1
  },
  "userdoc": {
    "kind": "user",
    "methods": {},
    "version": 1
  },
  "storageLayout": {
    "storage": [],
    "types": null
  }
}