{
  "address": "0x3CDFD2674AE85b2f5a767EDcfE823351351a7e17",
  "abi": [
    {
      "anonymous": false,
      "inputs": [
        {
          "indexed": true,
          "internalType": "address",
          "name": "voter",
          "type": "address"
        },
        {
          "indexed": true,
          "internalType": "address",
          "name": "lockedManagedReward",
          "type": "address"
        },
        {
          "indexed": true,
          "internalType": "address",
          "name": "freeManagedReward",
          "type": "address"
        }
      ],
      "name": "ManagedRewardCreated",
      "type": "event"
    },
    {
      "inputs": [
        {
          "internalType": "address",
          "name": "_forwarder",
          "type": "address"
        },
        {
          "internalType": "address",
          "name": "_voter",
          "type": "address"
        }
      ],
      "name": "createRewards",
      "outputs": [
        {
          "internalType": "address",
          "name": "lockedManagedReward",
          "type": "address"
        },
        {
          "internalType": "address",
          "name": "freeManagedReward",
          "type": "address"
        }
      ],
      "stateMutability": "nonpayable",
      "type": "function"
    }
  ],
  "transactionHash": "0x93055e299de7717d8613410209dea1e6abb82ff2e23cecfded0c3839e5f0e2b5",
  "args": [],
  "numDeployments": 1,
  "solcInputHash": "ff5a0ccb3d0d88b62210a9fe38c4030e",
  "bytecode": "0x608060405234801561001057600080fd5b50613663806100206000396000f3fe608060405234801561001057600080fd5b506004361061002b5760003560e01c8063dabc8e8314610030575b600080fd5b61004361003e366004610154565b61005a565b604051610051929190610187565b60405180910390f35b600080838360405161006b9061011e565b610076929190610187565b604051809103906000f080158015610092573d6000803e3d6000fd5b50915083836040516100a39061012b565b6100ae929190610187565b604051809103906000f0801580156100ca573d6000803e3d6000fd5b509050806001600160a01b0316826001600160a01b0316846001600160a01b03167f951f6f2ffc705efc870b0c6023fb94c7edece24c87077884b6d08a5cd44e6aa760405160405180910390a49250929050565b611a32806101a283390190565b611a5a80611bd483390190565b80356001600160a01b038116811461014f57600080fd5b919050565b6000806040838503121561016757600080fd5b61017083610138565b915061017e60208401610138565b90509250929050565b6001600160a01b039283168152911660208201526040019056fe60e06040523480156200001157600080fd5b5060405162001a3238038062001a32833981016040819052620000349162000240565b6001600160a01b038083166080526001600055811660a081905260408051630fc2838b60e11b81529051849284928492849291631f8507169160048083019260209291908290030181865afa15801562000092573d6000803e3d6000fd5b505050506040513d601f19601f82011682018060405250810190620000b8919062000278565b6001600160a01b031660c0816001600160a01b03168152505050506000816001600160a01b0316631f8507166040518163ffffffff1660e01b8152600401602060405180830381865afa15801562000114573d6000803e3d6000fd5b505050506040513d601f19601f820116820180604052508101906200013a919062000278565b90506000816001600160a01b031663fc0c546a6040518163ffffffff1660e01b8152600401602060405180830381865afa1580156200017d573d6000803e3d6000fd5b505050506040513d601f19601f82011682018060405250810190620001a3919062000278565b6006805460018082019092557ff652222313e28459528d920b65115c16c04f3efc82aaedc97be59f3f377c0d3f0180546001600160a01b03199081166001600160a01b03948516908117909255600091825260076020526040909120805460ff1916831790558154169390911692909217909155506200029d9350505050565b80516001600160a01b03811681146200023b57600080fd5b919050565b600080604083850312156200025457600080fd5b6200025f8362000223565b91506200026f6020840162000223565b90509250929050565b6000602082840312156200028b57600080fd5b620002968262000223565b9392505050565b60805160a05160c051611749620002e96000396000818161017d01528181610963015281816109b501528181610b930152610c07015260006101e2015260006105c401526117496000f3fe608060405234801561001057600080fd5b506004361061014d5760003560e01c806392777b29116100c3578063e8111a121161007c578063e8111a1214610352578063f25e55a51461035b578063f301af4214610386578063f320772314610399578063f5f8d365146103ac578063f7412baf146103bf57600080fd5b806392777b29146102c45780639cc7f708146102ef5780639e2bf22c1461030f578063a28d4c9c14610324578063b66503cf14610337578063e68863961461034a57600080fd5b806346c96aac1161011557806346c96aac146101dd57806349dcc204146102045780634d5ce0381461024b578063505897931461027e578063572b6c051461029e57806376f4be36146102b157600080fd5b806318160ddd146101525780631be052891461016e5780631f850716146101785780633e491d47146101b7578063456cb7c6146101ca575b600080fd5b61015b60025481565b6040519081526020015b60405180910390f35b61015b62093a8081565b61019f7f000000000000000000000000000000000000000000000000000000000000000081565b6040516001600160a01b039091168152602001610165565b61015b6101c536600461146b565b6103e6565b60015461019f906001600160a01b031681565b61019f7f000000000000000000000000000000000000000000000000000000000000000081565b610236610212366004611497565b60086020908152600092835260408084209091529082529020805460019091015482565b60408051928352602083019190915201610165565b61026e6102593660046114b9565b60076020526000908152604090205460ff1681565b6040519015158152602001610165565b61015b61028c3660046114d6565b60096020526000908152604090205481565b61026e6102ac3660046114b9565b6105c2565b61015b6102bf3660046114d6565b6105f4565b61015b6102d236600461146b565b600460209081526000928352604080842090915290825290205481565b61015b6102fd3660046114d6565b60036020526000908152604090205481565b61032261031d366004611497565b610728565b005b61015b610332366004611497565b610808565b61032261034536600461146b565b61094d565b60065461015b565b61015b600b5481565b61015b61036936600461146b565b600560209081526000928352604080842090915290825290205481565b61019f6103943660046114d6565b610a80565b6103226103a7366004611497565b610aaa565b6103226103ba366004611505565b610b7d565b6102366103cd3660046114d6565b600a602052600090815260409020805460019091015482565b6000818152600960205260408120548103610403575060006105bc565b6001600160a01b038316600090815260056020908152604080832085845290915281205460019062093a80810690038261043d8683610808565b600087815260086020908152604080832084845282529182902082518084019093528054808452600190910154918301919091529192509061048890849062093a8081069003610cdd565b9250600062093a8061049f854283810690036115ec565b6104a991906115ff565b905080156105b35760005b818110156105b1576104d98960016104cf62093a8089611621565b61033291906115ec565b60008a815260086020908152604080832084845282528083208151808301909252805482526001908101549282019290925292965091945061054d91600a91906105349061052a62093a808b611621565b6102bf91906115ec565b8152602001908152602001600020600101546001610cdd565b6001600160a01b038b1660009081526004602090815260408083208984528252909120549085015191975087916105849190611634565b61058e91906115ff565b6105989088611621565b96506105a762093a8086611621565b94506001016104b4565b505b50939450505050505b92915050565b7f00000000000000000000000000000000000000000000000000000000000000006001600160a01b0390811691161490565b600b5460009080820361060a5750600092915050565b82600a600061061a6001856115ec565b815260200190815260200160002060000154116106435761063c6001826115ec565b9392505050565b60008052600a6020527f13da86008ba1c6922daee3e07db95305ef49ebced9f5467a0b8613fcc6b343e35483101561067e5750600092915050565b60008061068c6001846115ec565b90505b8181111561072057600060026106a584846115ec565b6106af91906115ff565b6106b990836115ec565b6000818152600a60209081526040918290208251808401909352805480845260019091015491830191909152919250908790036106fa575095945050505050565b805187111561070b57819350610719565b6107166001836115ec565b92505b505061068f565b509392505050565b6000610732610cf3565b6001549091506001600160a01b038083169116146107635760405163ea8e4eb560e01b815260040160405180910390fd5b826002600082825461077591906115ec565b9091555050600082815260036020526040812080548592906107989084906115ec565b90915550506000828152600360205260409020546107b7908390610d15565b6107bf610e1f565b81816001600160a01b03167ff279e6a1f5e320cca91135676d9cb6e44ca8a08c0b88342bcdb1144f6511b568856040516107fb91815260200190565b60405180910390a3505050565b6000828152600960205260408120548082036108285760009150506105bc565b600084815260086020526040812084916108436001856115ec565b8152602001908152602001600020600001541161086d576108656001826115ec565b9150506105bc565b60008481526008602090815260408083208380529091529020548310156108985760009150506105bc565b6000806108a66001846115ec565b90505b8181111561094457600060026108bf84846115ec565b6108c991906115ff565b6108d390836115ec565b600088815260086020908152604080832084845282529182902082518084019093528054808452600190910154918301919091529192509087900361091e575093506105bc92505050565b805187111561092f5781935061093d565b61093a6001836115ec565b92505b50506108a9565b50949350505050565b610955610ed7565b600061095f610cf3565b90507f00000000000000000000000000000000000000000000000000000000000000006001600160a01b0316816001600160a01b0316146109b3576040516306b746df60e51b815260040160405180910390fd5b7f00000000000000000000000000000000000000000000000000000000000000006001600160a01b031663fc0c546a6040518163ffffffff1660e01b8152600401602060405180830381865afa158015610a11573d6000803e3d6000fd5b505050506040513d601f19601f82011682018060405250810190610a35919061164b565b6001600160a01b0316836001600160a01b031614610a6657604051630b9eb1c560e41b815260040160405180910390fd5b610a71818484610f35565b50610a7c6001600055565b5050565b60068181548110610a9057600080fd5b6000918252602090912001546001600160a01b0316905081565b6000610ab4610cf3565b6001549091506001600160a01b03808316911614610ae55760405163ea8e4eb560e01b815260040160405180910390fd5b8260026000828254610af79190611621565b909155505060008281526003602052604081208054859290610b1a908490611621565b9091555050600082815260036020526040902054610b39908390610d15565b610b41610e1f565b81816001600160a01b03167f90890809c654f11d6e72a28fa60149770a0d11ec6c92319d6ceb2bb0a4ea1a15856040516107fb91815260200190565b610b85610ed7565b6000610b8f610cf3565b90507f00000000000000000000000000000000000000000000000000000000000000006001600160a01b0316816001600160a01b031614610be3576040516306b746df60e51b815260040160405180910390fd5b8151600114610c055760405163801f099f60e01b815260040160405180910390fd5b7f00000000000000000000000000000000000000000000000000000000000000006001600160a01b031663fc0c546a6040518163ffffffff1660e01b8152600401602060405180830381865afa158015610c63573d6000803e3d6000fd5b505050506040513d601f19601f82011682018060405250810190610c87919061164b565b6001600160a01b031682600081518110610ca357610ca3611668565b60200260200101516001600160a01b031614610cd257604051630b9eb1c560e41b815260040160405180910390fd5b610a7181848461100f565b6000818311610cec578161063c565b5090919050565b6000610cfe336105c2565b15610d10575060131936013560601c90565b503390565b600082815260096020526040902054428115801590610d73575062093a80810681036000858152600860205260408120610d7191610d546001876115ec565b81526020019081526020016000206000015462093a808106900390565b145b15610dc9576040805180820182528281526020808201869052600087815260089091529182209091610da66001866115ec565b815260208082019290925260400160002082518155910151600190910155610e19565b6040805180820182528281526020808201868152600088815260088352848120878252909252929020905181559051600191820155610e09908390611621565b6000858152600960205260409020555b50505050565b600b54428115801590610e49575062093a8081068103610e47600a6000610d546001876115ec565b145b15610e9457604080518082019091528181526002546020820152600a6000610e726001866115ec565b8152602080820192909252604001600020825181559101516001909101555050565b60408051808201825282815260025460208083019182526000868152600a90915292909220905181559051600191820155610ed0908390611621565b600b555050565b600260005403610f2e5760405162461bcd60e51b815260206004820152601f60248201527f5265656e7472616e637947756172643a207265656e7472616e742063616c6c0060448201526064015b60405180910390fd5b6002600055565b80600003610f5657604051631f2a200560e01b815260040160405180910390fd5b610f6b6001600160a01b03831684308461113e565b6000610f7c4262093a808106900390565b6001600160a01b0384166000908152600460209081526040808320848452909152812080549293508492909190610fb4908490611621565b9250508190555080836001600160a01b0316856001600160a01b03167f52977ea98a2220a03ee9ba5cb003ada08d394ea10155483c95dc2dc77a7eb24b8560405161100191815260200190565b60405180910390a450505050565b805160005b8181101561113757600061104184838151811061103357611033611668565b6020026020010151866103e6565b9050426005600086858151811061105a5761105a611668565b6020908102919091018101516001600160a01b03168252818101929092526040908101600090812089825290925290205580156110c8576110c886828685815181106110a8576110a8611668565b60200260200101516001600160a01b03166111a99092919063ffffffff16565b8382815181106110da576110da611668565b60200260200101516001600160a01b0316866001600160a01b03167f9aa05b3d70a9e3e2f004f039648839560576334fb45c81f91b6db03ad9e2efc98360405161112691815260200190565b60405180910390a350600101611014565b5050505050565b6040516001600160a01b0380851660248301528316604482015260648101829052610e199085906323b872dd60e01b906084015b60408051601f198184030181529190526020810180516001600160e01b03166001600160e01b0319909316929092179091526111de565b6040516001600160a01b0383166024820152604481018290526111d990849063a9059cbb60e01b90606401611172565b505050565b6000611233826040518060400160405280602081526020017f5361666545524332303a206c6f772d6c6576656c2063616c6c206661696c6564815250856001600160a01b03166112b39092919063ffffffff16565b9050805160001480611254575080806020019051810190611254919061167e565b6111d95760405162461bcd60e51b815260206004820152602a60248201527f5361666545524332303a204552433230206f7065726174696f6e20646964206e6044820152691bdd081cdd58d8d9595960b21b6064820152608401610f25565b60606112c284846000856112ca565b949350505050565b60608247101561132b5760405162461bcd60e51b815260206004820152602660248201527f416464726573733a20696e73756666696369656e742062616c616e636520666f6044820152651c8818d85b1b60d21b6064820152608401610f25565b600080866001600160a01b0316858760405161134791906116c4565b60006040518083038185875af1925050503d8060008114611384576040519150601f19603f3d011682016040523d82523d6000602084013e611389565b606091505b509150915061139a878383876113a5565b979650505050505050565b6060831561141457825160000361140d576001600160a01b0385163b61140d5760405162461bcd60e51b815260206004820152601d60248201527f416464726573733a2063616c6c20746f206e6f6e2d636f6e74726163740000006044820152606401610f25565b50816112c2565b6112c283838151156114295781518083602001fd5b8060405162461bcd60e51b8152600401610f2591906116e0565b6001600160a01b038116811461145857600080fd5b50565b803561146681611443565b919050565b6000806040838503121561147e57600080fd5b823561148981611443565b946020939093013593505050565b600080604083850312156114aa57600080fd5b50508035926020909101359150565b6000602082840312156114cb57600080fd5b813561063c81611443565b6000602082840312156114e857600080fd5b5035919050565b634e487b7160e01b600052604160045260246000fd5b6000806040838503121561151857600080fd5b8235915060208084013567ffffffffffffffff8082111561153857600080fd5b818601915086601f83011261154c57600080fd5b81358181111561155e5761155e6114ef565b8060051b604051601f19603f83011681018181108582111715611583576115836114ef565b6040529182528482019250838101850191898311156115a157600080fd5b938501935b828510156115c6576115b78561145b565b845293850193928501926115a6565b8096505050505050509250929050565b634e487b7160e01b600052601160045260246000fd5b818103818111156105bc576105bc6115d6565b60008261161c57634e487b7160e01b600052601260045260246000fd5b500490565b808201808211156105bc576105bc6115d6565b80820281158282048414176105bc576105bc6115d6565b60006020828403121561165d57600080fd5b815161063c81611443565b634e487b7160e01b600052603260045260246000fd5b60006020828403121561169057600080fd5b8151801515811461063c57600080fd5b60005b838110156116bb5781810151838201526020016116a3565b50506000910152565b600082516116d68184602087016116a0565b9190910192915050565b60208152600082518060208401526116ff8160408501602087016116a0565b601f01601f1916919091016040019291505056fea264697066735822122074ce3816f9b7922f0819e4bceb52ef7f453e99d3946a976a07b1e4954436a5e064736f6c6343000818003360e06040523480156200001157600080fd5b5060405162001a5a38038062001a5a833981016040819052620000349162000240565b6001600160a01b038083166080526001600055811660a081905260408051630fc2838b60e11b81529051849284928492849291631f8507169160048083019260209291908290030181865afa15801562000092573d6000803e3d6000fd5b505050506040513d601f19601f82011682018060405250810190620000b8919062000278565b6001600160a01b031660c0816001600160a01b03168152505050506000816001600160a01b0316631f8507166040518163ffffffff1660e01b8152600401602060405180830381865afa15801562000114573d6000803e3d6000fd5b505050506040513d601f19601f820116820180604052508101906200013a919062000278565b90506000816001600160a01b031663fc0c546a6040518163ffffffff1660e01b8152600401602060405180830381865afa1580156200017d573d6000803e3d6000fd5b505050506040513d601f19601f82011682018060405250810190620001a3919062000278565b6006805460018082019092557ff652222313e28459528d920b65115c16c04f3efc82aaedc97be59f3f377c0d3f0180546001600160a01b03199081166001600160a01b03948516908117909255600091825260076020526040909120805460ff1916831790558154169390911692909217909155506200029d9350505050565b80516001600160a01b03811681146200023b57600080fd5b919050565b600080604083850312156200025457600080fd5b6200025f8362000223565b91506200026f6020840162000223565b90509250929050565b6000602082840312156200028b57600080fd5b620002968262000223565b9392505050565b60805160a05160c051611778620002e26000396000818161017d01528181610bb00152610c8c0152600081816101e201526109a1015260006105c401526117786000f3fe608060405234801561001057600080fd5b506004361061014d5760003560e01c806392777b29116100c3578063e8111a121161007c578063e8111a1214610352578063f25e55a51461035b578063f301af4214610386578063f320772314610399578063f5f8d365146103ac578063f7412baf146103bf57600080fd5b806392777b29146102c45780639cc7f708146102ef5780639e2bf22c1461030f578063a28d4c9c14610324578063b66503cf14610337578063e68863961461034a57600080fd5b806346c96aac1161011557806346c96aac146101dd57806349dcc204146102045780634d5ce0381461024b578063505897931461027e578063572b6c051461029e57806376f4be36146102b157600080fd5b806318160ddd146101525780631be052891461016e5780631f850716146101785780633e491d47146101b7578063456cb7c6146101ca575b600080fd5b61015b60025481565b6040519081526020015b60405180910390f35b61015b62093a8081565b61019f7f000000000000000000000000000000000000000000000000000000000000000081565b6040516001600160a01b039091168152602001610165565b61015b6101c536600461149a565b6103e6565b60015461019f906001600160a01b031681565b61019f7f000000000000000000000000000000000000000000000000000000000000000081565b6102366102123660046114c6565b60086020908152600092835260408084209091529082529020805460019091015482565b60408051928352602083019190915201610165565b61026e6102593660046114e8565b60076020526000908152604090205460ff1681565b6040519015158152602001610165565b61015b61028c366004611505565b60096020526000908152604090205481565b61026e6102ac3660046114e8565b6105c2565b61015b6102bf366004611505565b6105f4565b61015b6102d236600461149a565b600460209081526000928352604080842090915290825290205481565b61015b6102fd366004611505565b60036020526000908152604090205481565b61032261031d3660046114c6565b610728565b005b61015b6103323660046114c6565b610808565b61032261034536600461149a565b61094d565b60065461015b565b61015b600b5481565b61015b61036936600461149a565b600560209081526000928352604080842090915290825290205481565b61019f610394366004611505565b610aa9565b6103226103a73660046114c6565b610ad3565b6103226103ba366004611534565b610ba6565b6102366103cd366004611505565b600a602052600090815260409020805460019091015482565b6000818152600960205260408120548103610403575060006105bc565b6001600160a01b038316600090815260056020908152604080832085845290915281205460019062093a80810690038261043d8683610808565b600087815260086020908152604080832084845282529182902082518084019093528054808452600190910154918301919091529192509061048890849062093a8081069003610d0c565b9250600062093a8061049f8542838106900361161b565b6104a9919061162e565b905080156105b35760005b818110156105b1576104d98960016104cf62093a8089611650565b610332919061161b565b60008a815260086020908152604080832084845282528083208151808301909252805482526001908101549282019290925292965091945061054d91600a91906105349061052a62093a808b611650565b6102bf919061161b565b8152602001908152602001600020600101546001610d0c565b6001600160a01b038b1660009081526004602090815260408083208984528252909120549085015191975087916105849190611663565b61058e919061162e565b6105989088611650565b96506105a762093a8086611650565b94506001016104b4565b505b50939450505050505b92915050565b7f00000000000000000000000000000000000000000000000000000000000000006001600160a01b0390811691161490565b600b5460009080820361060a5750600092915050565b82600a600061061a60018561161b565b815260200190815260200160002060000154116106435761063c60018261161b565b9392505050565b60008052600a6020527f13da86008ba1c6922daee3e07db95305ef49ebced9f5467a0b8613fcc6b343e35483101561067e5750600092915050565b60008061068c60018461161b565b90505b8181111561072057600060026106a5848461161b565b6106af919061162e565b6106b9908361161b565b6000818152600a60209081526040918290208251808401909352805480845260019091015491830191909152919250908790036106fa575095945050505050565b805187111561070b57819350610719565b61071660018361161b565b92505b505061068f565b509392505050565b6000610732610d22565b6001549091506001600160a01b038083169116146107635760405163ea8e4eb560e01b815260040160405180910390fd5b8260026000828254610775919061161b565b90915550506000828152600360205260408120805485929061079890849061161b565b90915550506000828152600360205260409020546107b7908390610d44565b6107bf610e4e565b81816001600160a01b03167ff279e6a1f5e320cca91135676d9cb6e44ca8a08c0b88342bcdb1144f6511b568856040516107fb91815260200190565b60405180910390a3505050565b6000828152600960205260408120548082036108285760009150506105bc565b6000848152600860205260408120849161084360018561161b565b8152602001908152602001600020600001541161086d5761086560018261161b565b9150506105bc565b60008481526008602090815260408083208380529091529020548310156108985760009150506105bc565b6000806108a660018461161b565b90505b8181111561094457600060026108bf848461161b565b6108c9919061162e565b6108d3908361161b565b600088815260086020908152604080832084845282529182902082518084019093528054808452600190910154918301919091529192509087900361091e575093506105bc92505050565b805187111561092f5781935061093d565b61093a60018361161b565b92505b50506108a9565b50949350505050565b610955610f06565b600061095f610d22565b6001600160a01b03841660009081526007602052604090205490915060ff16610a8f5760405163559bfa4360e11b81526001600160a01b0384811660048301527f0000000000000000000000000000000000000000000000000000000000000000169063ab37f48690602401602060405180830381865afa1580156109e8573d6000803e3d6000fd5b505050506040513d601f19601f82011682018060405250810190610a0c919061167a565b610a2957604051630b094f2760e31b815260040160405180910390fd5b6001600160a01b0383166000818152600760205260408120805460ff191660019081179091556006805491820181559091527ff652222313e28459528d920b65115c16c04f3efc82aaedc97be59f3f377c0d3f0180546001600160a01b03191690911790555b610a9a818484610f64565b50610aa56001600055565b5050565b60068181548110610ab957600080fd5b6000918252602090912001546001600160a01b0316905081565b6000610add610d22565b6001549091506001600160a01b03808316911614610b0e5760405163ea8e4eb560e01b815260040160405180910390fd5b8260026000828254610b209190611650565b909155505060008281526003602052604081208054859290610b43908490611650565b9091555050600082815260036020526040902054610b62908390610d44565b610b6a610e4e565b81816001600160a01b03167f90890809c654f11d6e72a28fa60149770a0d11ec6c92319d6ceb2bb0a4ea1a15856040516107fb91815260200190565b610bae610f06565b7f00000000000000000000000000000000000000000000000000000000000000006001600160a01b031663430c2081610be5610d22565b6040516001600160e01b031960e084901b1681526001600160a01b039091166004820152602481018590526044016020604051808303816000875af1158015610c32573d6000803e3d6000fd5b505050506040513d601f19601f82011682018060405250810190610c56919061167a565b610c735760405163ea8e4eb560e01b815260040160405180910390fd5b6040516331a9108f60e11b8152600481018390526000907f00000000000000000000000000000000000000000000000000000000000000006001600160a01b031690636352211e90602401602060405180830381865afa158015610cdb573d6000803e3d6000fd5b505050506040513d601f19601f82011682018060405250810190610cff919061169c565b9050610a9a81848461103e565b6000818311610d1b578161063c565b5090919050565b6000610d2d336105c2565b15610d3f575060131936013560601c90565b503390565b600082815260096020526040902054428115801590610da2575062093a80810681036000858152600860205260408120610da091610d8360018761161b565b81526020019081526020016000206000015462093a808106900390565b145b15610df8576040805180820182528281526020808201869052600087815260089091529182209091610dd560018661161b565b815260208082019290925260400160002082518155910151600190910155610e48565b6040805180820182528281526020808201868152600088815260088352848120878252909252929020905181559051600191820155610e38908390611650565b6000858152600960205260409020555b50505050565b600b54428115801590610e78575062093a8081068103610e76600a6000610d8360018761161b565b145b15610ec357604080518082019091528181526002546020820152600a6000610ea160018661161b565b8152602080820192909252604001600020825181559101516001909101555050565b60408051808201825282815260025460208083019182526000868152600a90915292909220905181559051600191820155610eff908390611650565b600b555050565b600260005403610f5d5760405162461bcd60e51b815260206004820152601f60248201527f5265656e7472616e637947756172643a207265656e7472616e742063616c6c0060448201526064015b60405180910390fd5b6002600055565b80600003610f8557604051631f2a200560e01b815260040160405180910390fd5b610f9a6001600160a01b03831684308461116d565b6000610fab4262093a808106900390565b6001600160a01b0384166000908152600460209081526040808320848452909152812080549293508492909190610fe3908490611650565b9250508190555080836001600160a01b0316856001600160a01b03167f52977ea98a2220a03ee9ba5cb003ada08d394ea10155483c95dc2dc77a7eb24b8560405161103091815260200190565b60405180910390a450505050565b805160005b81811015611166576000611070848381518110611062576110626116b9565b6020026020010151866103e6565b90504260056000868581518110611089576110896116b9565b6020908102919091018101516001600160a01b03168252818101929092526040908101600090812089825290925290205580156110f7576110f786828685815181106110d7576110d76116b9565b60200260200101516001600160a01b03166111d89092919063ffffffff16565b838281518110611109576111096116b9565b60200260200101516001600160a01b0316866001600160a01b03167f9aa05b3d70a9e3e2f004f039648839560576334fb45c81f91b6db03ad9e2efc98360405161115591815260200190565b60405180910390a350600101611043565b5050505050565b6040516001600160a01b0380851660248301528316604482015260648101829052610e489085906323b872dd60e01b906084015b60408051601f198184030181529190526020810180516001600160e01b03166001600160e01b03199093169290921790915261120d565b6040516001600160a01b03831660248201526044810182905261120890849063a9059cbb60e01b906064016111a1565b505050565b6000611262826040518060400160405280602081526020017f5361666545524332303a206c6f772d6c6576656c2063616c6c206661696c6564815250856001600160a01b03166112e29092919063ffffffff16565b9050805160001480611283575080806020019051810190611283919061167a565b6112085760405162461bcd60e51b815260206004820152602a60248201527f5361666545524332303a204552433230206f7065726174696f6e20646964206e6044820152691bdd081cdd58d8d9595960b21b6064820152608401610f54565b60606112f184846000856112f9565b949350505050565b60608247101561135a5760405162461bcd60e51b815260206004820152602660248201527f416464726573733a20696e73756666696369656e742062616c616e636520666f6044820152651c8818d85b1b60d21b6064820152608401610f54565b600080866001600160a01b0316858760405161137691906116f3565b60006040518083038185875af1925050503d80600081146113b3576040519150601f19603f3d011682016040523d82523d6000602084013e6113b8565b606091505b50915091506113c9878383876113d4565b979650505050505050565b6060831561144357825160000361143c576001600160a01b0385163b61143c5760405162461bcd60e51b815260206004820152601d60248201527f416464726573733a2063616c6c20746f206e6f6e2d636f6e74726163740000006044820152606401610f54565b50816112f1565b6112f183838151156114585781518083602001fd5b8060405162461bcd60e51b8152600401610f54919061170f565b6001600160a01b038116811461148757600080fd5b50565b803561149581611472565b919050565b600080604083850312156114ad57600080fd5b82356114b881611472565b946020939093013593505050565b600080604083850312156114d957600080fd5b50508035926020909101359150565b6000602082840312156114fa57600080fd5b813561063c81611472565b60006020828403121561151757600080fd5b5035919050565b634e487b7160e01b600052604160045260246000fd5b6000806040838503121561154757600080fd5b8235915060208084013567ffffffffffffffff8082111561156757600080fd5b818601915086601f83011261157b57600080fd5b81358181111561158d5761158d61151e565b8060051b604051601f19603f830116810181811085821117156115b2576115b261151e565b6040529182528482019250838101850191898311156115d057600080fd5b938501935b828510156115f5576115e68561148a565b845293850193928501926115d5565b8096505050505050509250929050565b634e487b7160e01b600052601160045260246000fd5b818103818111156105bc576105bc611605565b60008261164b57634e487b7160e01b600052601260045260246000fd5b500490565b808201808211156105bc576105bc611605565b80820281158282048414176105bc576105bc611605565b60006020828403121561168c57600080fd5b8151801515811461063c57600080fd5b6000602082840312156116ae57600080fd5b815161063c81611472565b634e487b7160e01b600052603260045260246000fd5b60005b838110156116ea5781810151838201526020016116d2565b50506000910152565b600082516117058184602087016116cf565b9190910192915050565b602081526000825180602084015261172e8160408501602087016116cf565b601f01601f1916919091016040019291505056fea2646970667358221220f747b3b3bdc74a7bf1bb6b88cbc7022775455b60273591b2da5d92cf4d5dd49064736f6c63430008180033a2646970667358221220447a2a02d887d4c21e90b32cb10f65bbb6ea3ea599a1799e292c79a503adcfb464736f6c63430008180033",
  "devdoc": {
    "kind": "dev",
    "methods": {
      "createRewards(address,address)": {
        "params": {
          "_forwarder": "Address of trusted forwarder",
          "_voter": "Address of Voter.sol"
        },
        "returns": {
          "freeManagedReward": "  Address of FreeManagedReward contract created",
          "lockedManagedReward": "Address of LockedManagedReward contract created"
        }
      }
    },
    "version": 1
  },
  "userdoc": {
    "kind": "user",
    "methods": {
      "createRewards(address,address)": {
        "notice": "creates a LockedManagedReward and a FreeManagedReward contract for a managed veNFT"
      }
    },
    "version": 1
  },
  "storageLayout": {
    "storage": [],
    "types": null
  }
}