{
  "address": "0x1A14D6eE452dd0bE3881E586FDF671707e35b006",
  "abi": [
    {
      "inputs": [
        {
          "internalType": "address",
          "name": "_forwarder",
          "type": "address"
        },
        {
          "internalType": "address",
          "name": "_factoryRegistry",
          "type": "address"
        },
        {
          "internalType": "address",
          "name": "_factory",
          "type": "address"
        },
        {
          "internalType": "address",
          "name": "_voter",
          "type": "address"
        }
      ],
      "stateMutability": "nonpayable",
      "type": "constructor"
    },
    {
      "inputs": [],
      "name": "Expired",
      "type": "error"
    },
    {
      "inputs": [],
      "name": "InsufficientAmount",
      "type": "error"
    },
    {
      "inputs": [],
      "name": "InsufficientAmountA",
      "type": "error"
    },
    {
      "inputs": [],
      "name": "InsufficientAmountADesired",
      "type": "error"
    },
    {
      "inputs": [],
      "name": "InsufficientAmountAOptimal",
      "type": "error"
    },
    {
      "inputs": [],
      "name": "InsufficientAmountB",
      "type": "error"
    },
    {
      "inputs": [],
      "name": "InsufficientAmountBDesired",
      "type": "error"
    },
    {
      "inputs": [],
      "name": "InsufficientLiquidity",
      "type": "error"
    },
    {
      "inputs": [],
      "name": "InsufficientOutputAmount",
      "type": "error"
    },
    {
      "inputs": [],
      "name": "InvalidPath",
      "type": "error"
    },
    {
      "inputs": [],
      "name": "InvalidRouteA",
      "type": "error"
    },
    {
      "inputs": [],
      "name": "InvalidRouteB",
      "type": "error"
    },
    {
      "inputs": [],
      "name": "PoolDoesNotExist",
      "type": "error"
    },
    {
      "inputs": [],
      "name": "PoolFactoryDoesNotExist",
      "type": "error"
    },
    {
      "inputs": [],
      "name": "SameAddresses",
      "type": "error"
    },
    {
      "inputs": [],
      "name": "ZeroAddress",
      "type": "error"
    },
    {
      "inputs": [
        {
          "internalType": "uint256[]",
          "name": "amounts",
          "type": "uint256[]"
        },
        {
          "components": [
            {
              "internalType": "address",
              "name": "from",
              "type": "address"
            },
            {
              "internalType": "address",
              "name": "to",
              "type": "address"
            },
            {
              "internalType": "bool",
              "name": "stable",
              "type": "bool"
            },
            {
              "internalType": "address",
              "name": "factory",
              "type": "address"
            }
          ],
          "internalType": "struct IRouter.Route[]",
          "name": "routes",
          "type": "tuple[]"
        },
        {
          "internalType": "address",
          "name": "to",
          "type": "address"
        },
        {
          "internalType": "uint256",
          "name": "deadline",
          "type": "uint256"
        }
      ],
      "name": "UNSAFE_swapExactTokensForTokens",
      "outputs": [
        {
          "internalType": "uint256[]",
          "name": "",
          "type": "uint256[]"
        }
      ],
      "stateMutability": "nonpayable",
      "type": "function"
    },
    {
      "inputs": [
        {
          "internalType": "address",
          "name": "tokenA",
          "type": "address"
        },
        {
          "internalType": "address",
          "name": "tokenB",
          "type": "address"
        },
        {
          "internalType": "bool",
          "name": "stable",
          "type": "bool"
        },
        {
          "internalType": "uint256",
          "name": "amountADesired",
          "type": "uint256"
        },
        {
          "internalType": "uint256",
          "name": "amountBDesired",
          "type": "uint256"
        },
        {
          "internalType": "uint256",
          "name": "amountAMin",
          "type": "uint256"
        },
        {
          "internalType": "uint256",
          "name": "amountBMin",
          "type": "uint256"
        },
        {
          "internalType": "address",
          "name": "to",
          "type": "address"
        },
        {
          "internalType": "uint256",
          "name": "deadline",
          "type": "uint256"
        }
      ],
      "name": "addLiquidity",
      "outputs": [
        {
          "internalType": "uint256",
          "name": "amountA",
          "type": "uint256"
        },
        {
          "internalType": "uint256",
          "name": "amountB",
          "type": "uint256"
        },
        {
          "internalType": "uint256",
          "name": "liquidity",
          "type": "uint256"
        }
      ],
      "stateMutability": "nonpayable",
      "type": "function"
    },
    {
      "inputs": [],
      "name": "defaultFactory",
      "outputs": [
        {
          "internalType": "address",
          "name": "",
          "type": "address"
        }
      ],
      "stateMutability": "view",
      "type": "function"
    },
    {
      "inputs": [],
      "name": "factoryRegistry",
      "outputs": [
        {
          "internalType": "address",
          "name": "",
          "type": "address"
        }
      ],
      "stateMutability": "view",
      "type": "function"
    },
    {
      "inputs": [
        {
          "internalType": "address",
          "name": "tokenA",
          "type": "address"
        },
        {
          "internalType": "address",
          "name": "tokenB",
          "type": "address"
        },
        {
          "internalType": "bool",
          "name": "stable",
          "type": "bool"
        },
        {
          "internalType": "address",
          "name": "_factory",
          "type": "address"
        },
        {
          "internalType": "uint256",
          "name": "amountInA",
          "type": "uint256"
        },
        {
          "internalType": "uint256",
          "name": "amountInB",
          "type": "uint256"
        },
        {
          "components": [
            {
              "internalType": "address",
              "name": "from",
              "type": "address"
            },
            {
              "internalType": "address",
              "name": "to",
              "type": "address"
            },
            {
              "internalType": "bool",
              "name": "stable",
              "type": "bool"
            },
            {
              "internalType": "address",
              "name": "factory",
              "type": "address"
            }
          ],
          "internalType": "struct IRouter.Route[]",
          "name": "routesA",
          "type": "tuple[]"
        },
        {
          "components": [
            {
              "internalType": "address",
              "name": "from",
              "type": "address"
            },
            {
              "internalType": "address",
              "name": "to",
              "type": "address"
            },
            {
              "internalType": "bool",
              "name": "stable",
              "type": "bool"
            },
            {
              "internalType": "address",
              "name": "factory",
              "type": "address"
            }
          ],
          "internalType": "struct IRouter.Route[]",
          "name": "routesB",
          "type": "tuple[]"
        }
      ],
      "name": "generateZapInParams",
      "outputs": [
        {
          "internalType": "uint256",
          "name": "amountOutMinA",
          "type": "uint256"
        },
        {
          "internalType": "uint256",
          "name": "amountOutMinB",
          "type": "uint256"
        },
        {
          "internalType": "uint256",
          "name": "amountAMin",
          "type": "uint256"
        },
        {
          "internalType": "uint256",
          "name": "amountBMin",
          "type": "uint256"
        }
      ],
      "stateMutability": "view",
      "type": "function"
    },
    {
      "inputs": [
        {
          "internalType": "address",
          "name": "tokenA",
          "type": "address"
        },
        {
          "internalType": "address",
          "name": "tokenB",
          "type": "address"
        },
        {
          "internalType": "bool",
          "name": "stable",
          "type": "bool"
        },
        {
          "internalType": "address",
          "name": "_factory",
          "type": "address"
        },
        {
          "internalType": "uint256",
          "name": "liquidity",
          "type": "uint256"
        },
        {
          "components": [
            {
              "internalType": "address",
              "name": "from",
              "type": "address"
            },
            {
              "internalType": "address",
              "name": "to",
              "type": "address"
            },
            {
              "internalType": "bool",
              "name": "stable",
              "type": "bool"
            },
            {
              "internalType": "address",
              "name": "factory",
              "type": "address"
            }
          ],
          "internalType": "struct IRouter.Route[]",
          "name": "routesA",
          "type": "tuple[]"
        },
        {
          "components": [
            {
              "internalType": "address",
              "name": "from",
              "type": "address"
            },
            {
              "internalType": "address",
              "name": "to",
              "type": "address"
            },
            {
              "internalType": "bool",
              "name": "stable",
              "type": "bool"
            },
            {
              "internalType": "address",
              "name": "factory",
              "type": "address"
            }
          ],
          "internalType": "struct IRouter.Route[]",
          "name": "routesB",
          "type": "tuple[]"
        }
      ],
      "name": "generateZapOutParams",
      "outputs": [
        {
          "internalType": "uint256",
          "name": "amountOutMinA",
          "type": "uint256"
        },
        {
          "internalType": "uint256",
          "name": "amountOutMinB",
          "type": "uint256"
        },
        {
          "internalType": "uint256",
          "name": "amountAMin",
          "type": "uint256"
        },
        {
          "internalType": "uint256",
          "name": "amountBMin",
          "type": "uint256"
        }
      ],
      "stateMutability": "view",
      "type": "function"
    },
    {
      "inputs": [
        {
          "internalType": "uint256",
          "name": "amountIn",
          "type": "uint256"
        },
        {
          "components": [
            {
              "internalType": "address",
              "name": "from",
              "type": "address"
            },
            {
              "internalType": "address",
              "name": "to",
              "type": "address"
            },
            {
              "internalType": "bool",
              "name": "stable",
              "type": "bool"
            },
            {
              "internalType": "address",
              "name": "factory",
              "type": "address"
            }
          ],
          "internalType": "struct IRouter.Route[]",
          "name": "routes",
          "type": "tuple[]"
        }
      ],
      "name": "getAmountsOut",
      "outputs": [
        {
          "internalType": "uint256[]",
          "name": "amounts",
          "type": "uint256[]"
        }
      ],
      "stateMutability": "view",
      "type": "function"
    },
    {
      "inputs": [
        {
          "internalType": "address",
          "name": "tokenA",
          "type": "address"
        },
        {
          "internalType": "address",
          "name": "tokenB",
          "type": "address"
        },
        {
          "internalType": "bool",
          "name": "stable",
          "type": "bool"
        },
        {
          "internalType": "address",
          "name": "_factory",
          "type": "address"
        }
      ],
      "name": "getReserves",
      "outputs": [
        {
          "internalType": "uint256",
          "name": "reserveA",
          "type": "uint256"
        },
        {
          "internalType": "uint256",
          "name": "reserveB",
          "type": "uint256"
        }
      ],
      "stateMutability": "view",
      "type": "function"
    },
    {
      "inputs": [
        {
          "internalType": "address",
          "name": "forwarder",
          "type": "address"
        }
      ],
      "name": "isTrustedForwarder",
      "outputs": [
        {
          "internalType": "bool",
          "name": "",
          "type": "bool"
        }
      ],
      "stateMutability": "view",
      "type": "function"
    },
    {
      "inputs": [
        {
          "internalType": "address",
          "name": "tokenA",
          "type": "address"
        },
        {
          "internalType": "address",
          "name": "tokenB",
          "type": "address"
        },
        {
          "internalType": "bool",
          "name": "stable",
          "type": "bool"
        },
        {
          "internalType": "address",
          "name": "_factory",
          "type": "address"
        }
      ],
      "name": "poolFor",
      "outputs": [
        {
          "internalType": "address",
          "name": "pool",
          "type": "address"
        }
      ],
      "stateMutability": "view",
      "type": "function"
    },
    {
      "inputs": [
        {
          "internalType": "address",
          "name": "tokenA",
          "type": "address"
        },
        {
          "internalType": "address",
          "name": "tokenB",
          "type": "address"
        },
        {
          "internalType": "bool",
          "name": "stable",
          "type": "bool"
        },
        {
          "internalType": "address",
          "name": "_factory",
          "type": "address"
        },
        {
          "internalType": "uint256",
          "name": "amountADesired",
          "type": "uint256"
        },
        {
          "internalType": "uint256",
          "name": "amountBDesired",
          "type": "uint256"
        }
      ],
      "name": "quoteAddLiquidity",
      "outputs": [
        {
          "internalType": "uint256",
          "name": "amountA",
          "type": "uint256"
        },
        {
          "internalType": "uint256",
          "name": "amountB",
          "type": "uint256"
        },
        {
          "internalType": "uint256",
          "name": "liquidity",
          "type": "uint256"
        }
      ],
      "stateMutability": "view",
      "type": "function"
    },
    {
      "inputs": [
        {
          "internalType": "address",
          "name": "tokenA",
          "type": "address"
        },
        {
          "internalType": "address",
          "name": "tokenB",
          "type": "address"
        },
        {
          "internalType": "bool",
          "name": "stable",
          "type": "bool"
        },
        {
          "internalType": "address",
          "name": "_factory",
          "type": "address"
        },
        {
          "internalType": "uint256",
          "name": "liquidity",
          "type": "uint256"
        }
      ],
      "name": "quoteRemoveLiquidity",
      "outputs": [
        {
          "internalType": "uint256",
          "name": "amountA",
          "type": "uint256"
        },
        {
          "internalType": "uint256",
          "name": "amountB",
          "type": "uint256"
        }
      ],
      "stateMutability": "view",
      "type": "function"
    },
    {
      "inputs": [
        {
          "internalType": "address",
          "name": "tokenA",
          "type": "address"
        },
        {
          "internalType": "address",
          "name": "tokenB",
          "type": "address"
        },
        {
          "internalType": "address",
          "name": "_factory",
          "type": "address"
        }
      ],
      "name": "quoteStableLiquidityRatio",
      "outputs": [
        {
          "internalType": "uint256",
          "name": "ratio",
          "type": "uint256"
        }
      ],
      "stateMutability": "view",
      "type": "function"
    },
    {
      "inputs": [
        {
          "internalType": "address",
          "name": "tokenA",
          "type": "address"
        },
        {
          "internalType": "address",
          "name": "tokenB",
          "type": "address"
        },
        {
          "internalType": "bool",
          "name": "stable",
          "type": "bool"
        },
        {
          "internalType": "uint256",
          "name": "liquidity",
          "type": "uint256"
        },
        {
          "internalType": "uint256",
          "name": "amountAMin",
          "type": "uint256"
        },
        {
          "internalType": "uint256",
          "name": "amountBMin",
          "type": "uint256"
        },
        {
          "internalType": "address",
          "name": "to",
          "type": "address"
        },
        {
          "internalType": "uint256",
          "name": "deadline",
          "type": "uint256"
        }
      ],
      "name": "removeLiquidity",
      "outputs": [
        {
          "internalType": "uint256",
          "name": "amountA",
          "type": "uint256"
        },
        {
          "internalType": "uint256",
          "name": "amountB",
          "type": "uint256"
        }
      ],
      "stateMutability": "nonpayable",
      "type": "function"
    },
    {
      "inputs": [
        {
          "internalType": "address",
          "name": "tokenA",
          "type": "address"
        },
        {
          "internalType": "address",
          "name": "tokenB",
          "type": "address"
        }
      ],
      "name": "sortTokens",
      "outputs": [
        {
          "internalType": "address",
          "name": "token0",
          "type": "address"
        },
        {
          "internalType": "address",
          "name": "token1",
          "type": "address"
        }
      ],
      "stateMutability": "pure",
      "type": "function"
    },
    {
      "inputs": [
        {
          "internalType": "uint256",
          "name": "amountIn",
          "type": "uint256"
        },
        {
          "internalType": "uint256",
          "name": "amountOutMin",
          "type": "uint256"
        },
        {
          "components": [
            {
              "internalType": "address",
              "name": "from",
              "type": "address"
            },
            {
              "internalType": "address",
              "name": "to",
              "type": "address"
            },
            {
              "internalType": "bool",
              "name": "stable",
              "type": "bool"
            },
            {
              "internalType": "address",
              "name": "factory",
              "type": "address"
            }
          ],
          "internalType": "struct IRouter.Route[]",
          "name": "routes",
          "type": "tuple[]"
        },
        {
          "internalType": "address",
          "name": "to",
          "type": "address"
        },
        {
          "internalType": "uint256",
          "name": "deadline",
          "type": "uint256"
        }
      ],
      "name": "swapExactTokensForTokens",
      "outputs": [
        {
          "internalType": "uint256[]",
          "name": "amounts",
          "type": "uint256[]"
        }
      ],
      "stateMutability": "nonpayable",
      "type": "function"
    },
    {
      "inputs": [
        {
          "internalType": "uint256",
          "name": "amountIn",
          "type": "uint256"
        },
        {
          "internalType": "uint256",
          "name": "amountOutMin",
          "type": "uint256"
        },
        {
          "components": [
            {
              "internalType": "address",
              "name": "from",
              "type": "address"
            },
            {
              "internalType": "address",
              "name": "to",
              "type": "address"
            },
            {
              "internalType": "bool",
              "name": "stable",
              "type": "bool"
            },
            {
              "internalType": "address",
              "name": "factory",
              "type": "address"
            }
          ],
          "internalType": "struct IRouter.Route[]",
          "name": "routes",
          "type": "tuple[]"
        },
        {
          "internalType": "address",
          "name": "to",
          "type": "address"
        },
        {
          "internalType": "uint256",
          "name": "deadline",
          "type": "uint256"
        }
      ],
      "name": "swapExactTokensForTokensSupportingFeeOnTransferTokens",
      "outputs": [],
      "stateMutability": "nonpayable",
      "type": "function"
    },
    {
      "inputs": [],
      "name": "voter",
      "outputs": [
        {
          "internalType": "address",
          "name": "",
          "type": "address"
        }
      ],
      "stateMutability": "view",
      "type": "function"
    },
    {
      "inputs": [
        {
          "internalType": "address",
          "name": "tokenIn",
          "type": "address"
        },
        {
          "internalType": "uint256",
          "name": "amountInA",
          "type": "uint256"
        },
        {
          "internalType": "uint256",
          "name": "amountInB",
          "type": "uint256"
        },
        {
          "components": [
            {
              "internalType": "address",
              "name": "tokenA",
              "type": "address"
            },
            {
              "internalType": "address",
              "name": "tokenB",
              "type": "address"
            },
            {
              "internalType": "bool",
              "name": "stable",
              "type": "bool"
            },
            {
              "internalType": "address",
              "name": "factory",
              "type": "address"
            },
            {
              "internalType": "uint256",
              "name": "amountOutMinA",
              "type": "uint256"
            },
            {
              "internalType": "uint256",
              "name": "amountOutMinB",
              "type": "uint256"
            },
            {
              "internalType": "uint256",
              "name": "amountAMin",
              "type": "uint256"
            },
            {
              "internalType": "uint256",
              "name": "amountBMin",
              "type": "uint256"
            }
          ],
          "internalType": "struct IRouter.Zap",
          "name": "zapInPool",
          "type": "tuple"
        },
        {
          "components": [
            {
              "internalType": "address",
              "name": "from",
              "type": "address"
            },
            {
              "internalType": "address",
              "name": "to",
              "type": "address"
            },
            {
              "internalType": "bool",
              "name": "stable",
              "type": "bool"
            },
            {
              "internalType": "address",
              "name": "factory",
              "type": "address"
            }
          ],
          "internalType": "struct IRouter.Route[]",
          "name": "routesA",
          "type": "tuple[]"
        },
        {
          "components": [
            {
              "internalType": "address",
              "name": "from",
              "type": "address"
            },
            {
              "internalType": "address",
              "name": "to",
              "type": "address"
            },
            {
              "internalType": "bool",
              "name": "stable",
              "type": "bool"
            },
            {
              "internalType": "address",
              "name": "factory",
              "type": "address"
            }
          ],
          "internalType": "struct IRouter.Route[]",
          "name": "routesB",
          "type": "tuple[]"
        },
        {
          "internalType": "address",
          "name": "to",
          "type": "address"
        },
        {
          "internalType": "bool",
          "name": "stake",
          "type": "bool"
        }
      ],
      "name": "zapIn",
      "outputs": [
        {
          "internalType": "uint256",
          "name": "liquidity",
          "type": "uint256"
        }
      ],
      "stateMutability": "nonpayable",
      "type": "function"
    },
    {
      "inputs": [
        {
          "internalType": "address",
          "name": "tokenOut",
          "type": "address"
        },
        {
          "internalType": "uint256",
          "name": "liquidity",
          "type": "uint256"
        },
        {
          "components": [
            {
              "internalType": "address",
              "name": "tokenA",
              "type": "address"
            },
            {
              "internalType": "address",
              "name": "tokenB",
              "type": "address"
            },
            {
              "internalType": "bool",
              "name": "stable",
              "type": "bool"
            },
            {
              "internalType": "address",
              "name": "factory",
              "type": "address"
            },
            {
              "internalType": "uint256",
              "name": "amountOutMinA",
              "type": "uint256"
            },
            {
              "internalType": "uint256",
              "name": "amountOutMinB",
              "type": "uint256"
            },
            {
              "internalType": "uint256",
              "name": "amountAMin",
              "type": "uint256"
            },
            {
              "internalType": "uint256",
              "name": "amountBMin",
              "type": "uint256"
            }
          ],
          "internalType": "struct IRouter.Zap",
          "name": "zapOutPool",
          "type": "tuple"
        },
        {
          "components": [
            {
              "internalType": "address",
              "name": "from",
              "type": "address"
            },
            {
              "internalType": "address",
              "name": "to",
              "type": "address"
            },
            {
              "internalType": "bool",
              "name": "stable",
              "type": "bool"
            },
            {
              "internalType": "address",
              "name": "factory",
              "type": "address"
            }
          ],
          "internalType": "struct IRouter.Route[]",
          "name": "routesA",
          "type": "tuple[]"
        },
        {
          "components": [
            {
              "internalType": "address",
              "name": "from",
              "type": "address"
            },
            {
              "internalType": "address",
              "name": "to",
              "type": "address"
            },
            {
              "internalType": "bool",
              "name": "stable",
              "type": "bool"
            },
            {
              "internalType": "address",
              "name": "factory",
              "type": "address"
            }
          ],
          "internalType": "struct IRouter.Route[]",
          "name": "routesB",
          "type": "tuple[]"
        }
      ],
      "name": "zapOut",
      "outputs": [],
      "stateMutability": "nonpayable",
      "type": "function"
    }
  ],
  "transactionHash": "0x9e2ac5b186f24a8618359d2434de43ba0885b135503f3819f269c42a49bd62d9",
  "args": [
    "0x03ad279010a5fDe435D41ec0f7008b665aE25FF4",
    "0x6724AFaD29FbeBdbfe9897E089208e0aAa8210C5",
    "0xd875f8ce0b1DDBAd287F72912fCbd571Fc77905B",
    "0x5dCD51aC5891345F70EAd036348245b30c4D123d"
  ],
  "numDeployments": 1,
  "solcInputHash": "8d38669248b61b3eb695f578467cc289",
  "bytecode": "0x6101006040523480156200001257600080fd5b506040516200475538038062004755833981016040819052620000359162000075565b6001600160a01b0393841660805291831660a052821660c0521660e052620000d2565b80516001600160a01b03811681146200007057600080fd5b919050565b600080600080608085870312156200008c57600080fd5b620000978562000058565b9350620000a76020860162000058565b9250620000b76040860162000058565b9150620000c76060860162000058565b905092959194509250565b60805160a05160c05160e05161460a6200014b600039600081816101ea0152611dc7015260008181610342015281816104f10152818161093201528181610b6d01528181610d780152818161243f015281816124e0015261256a0152600081816101960152610dc901526000610b10015261460a6000f3fe608060405234801561001057600080fd5b506004361061012c5760003560e01c8063874029d9116100ad578063cac88ea911610071578063cac88ea914610317578063ce700c291461032a578063d4b6846d1461033d578063f5ba53c714610364578063fb49bafd1461038557600080fd5b8063874029d9146102b657806388cd821e146102c95780638c0037dc146102de578063a81b9159146102f1578063c92de3ec1461030457600080fd5b8063544caa56116100f4578063544caa561461020c5780635509a1ac1461023f578063572b6c05146102525780635a47ddc3146102755780637539d413146102a357600080fd5b806307db50fa146101315780630dede6c4146101695780633bf0c9fb146101915780634111d597146101c557806346c96aac146101e5575b600080fd5b61014461013f3660046138b6565b610398565b6040805194855260208501939093529183015260608201526080015b60405180910390f35b61017c610177366004613986565b6104da565b60408051928352602083019190915201610160565b6101b87f000000000000000000000000000000000000000000000000000000000000000081565b6040516101609190613a0b565b6101d86101d3366004613a88565b610634565b6040516101609190613b64565b6101b87f000000000000000000000000000000000000000000000000000000000000000081565b61021f61021a366004613ba8565b6107a9565b604080516001600160a01b03938416815292909116602083015201610160565b6101d861024d366004613c69565b610834565b610265610260366004613d15565b610b0e565b6040519015158152602001610160565b610288610283366004613d32565b610b40565b60408051938452602084019290925290820152606001610160565b6101446102b1366004613dc1565b610c3b565b6101b86102c4366004613e86565b610d74565b6102dc6102d7366004613ee2565b610f8d565b005b61017c6102ec366004613e86565b611237565b6102dc6102ff366004613f6d565b6112f1565b61017c61031236600461400d565b6115cd565b6101d8610325366004613ee2565b611716565b610288610338366004614071565b611877565b6101b87f000000000000000000000000000000000000000000000000000000000000000081565b6103776103723660046140df565b611a59565b604051908152602001610160565b61037761039336600461412a565b611cca565b85856000806060871561042d576104018b8a8a808060200260200160405190810160405280939291908181526020016000905b828210156103f7576103e8608083028601368190038101906141fb565b815260200190600101906103cb565b5050505050610834565b90508060018251610412919061422d565b8151811061042257610422614240565b602002602001015194505b85156104b1576104858a8888808060200260200160405190810160405280939291908181526020016000905b828210156103f757610476608083028601368190038101906141fb565b81526020019060010190610459565b90508060018251610496919061422d565b815181106104a6576104a6614240565b602002602001015193505b6104bf8f8f8f8f8989611877565b508093508194505050509a509a509a509a9650505050505050565b600080826104e781611f97565b60006105158c8c8c7f0000000000000000000000000000000000000000000000000000000000000000610d74565b9050610534610522611fbb565b6001600160a01b03831690838c611fdd565b600080826001600160a01b03166389afcb44896040518263ffffffff1660e01b81526004016105639190613a0b565b60408051808303816000875af1158015610581573d6000803e3d6000fd5b505050506040513d601f19601f820116820180604052508101906105a59190614256565b9150915060006105b58f8f6107a9565b509050806001600160a01b03168f6001600160a01b0316146105d85781836105db565b82825b90975095508a871015610601576040516323d9bb0560e21b815260040160405180910390fd5b8986101561062257604051630d32418960e21b815260040160405180910390fd5b50505050509850989650505050505050565b60608161064081611f97565b6107418686600081811061065657610656614240565b61066c9260206080909202019081019150613d15565b610674611fbb565b6107218989600081811061068a5761068a614240565b6106a09260206080909202019081019150613d15565b8a8a60008181106106b3576106b3614240565b90506080020160200160208101906106cb9190613d15565b8b8b60008181106106de576106de614240565b90506080020160400160208101906106f6919061427a565b8c8c600081811061070957610709614240565b90506080020160600160208101906102c49190613d15565b8a60008151811061073457610734614240565b602002602001015161203b565b61079e878787808060200260200160405190810160405280939291908181526020016000905b8282101561079357610784608083028601368190038101906141fb565b81526020019060010190610767565b505050505086612137565b509495945050505050565b600080826001600160a01b0316846001600160a01b0316036107de57604051633295f3fd60e21b815260040160405180910390fd5b826001600160a01b0316846001600160a01b0316106107fe578284610801565b83835b90925090506001600160a01b03821661082d5760405163d92e233d60e01b815260040160405180910390fd5b9250929050565b6060600182511015610859576040516320db826760e01b815260040160405180910390fd5b8151610866906001614297565b6001600160401b0381111561087d5761087d613a1f565b6040519080825280602002602001820160405280156108a6578160200160208202803683370190505b50905082816000815181106108bd576108bd614240565b6020908102919091010152815160005b81811015610b06576000806001600160a01b03168583815181106108f3576108f3614240565b6020026020010151606001516001600160a01b0316146109305784828151811061091f5761091f614240565b602002602001015160600151610952565b7f00000000000000000000000000000000000000000000000000000000000000005b905060006109b986848151811061096b5761096b614240565b60200260200101516000015187858151811061098957610989614240565b6020026020010151602001518886815181106109a7576109a7614240565b60200260200101516040015185610d74565b604051635b16ebb760e01b81529091506001600160a01b03831690635b16ebb7906109e8908490600401613a0b565b602060405180830381865afa158015610a05573d6000803e3d6000fd5b505050506040513d601f19601f82011682018060405250810190610a2991906142aa565b15610afc57806001600160a01b031663f140a35a868581518110610a4f57610a4f614240565b6020026020010151888681518110610a6957610a69614240565b6020026020010151600001516040518363ffffffff1660e01b8152600401610a929291906142c7565b602060405180830381865afa158015610aaf573d6000803e3d6000fd5b505050506040513d601f19601f82011682018060405250810190610ad391906142de565b85610adf856001614297565b81518110610aef57610aef614240565b6020026020010181815250505b50506001016108cd565b505092915050565b7f00000000000000000000000000000000000000000000000000000000000000006001600160a01b0390811691161490565b600080600083610b4f81611f97565b610b5e8d8d8d8d8d8d8d6123e0565b90945092506000610b918e8e8e7f0000000000000000000000000000000000000000000000000000000000000000610d74565b9050610ba68e610b9f611fbb565b838861203b565b610bb98d610bb2611fbb565b838761203b565b6040516335313c2160e11b81526001600160a01b03821690636a62784290610be5908a90600401613a0b565b6020604051808303816000875af1158015610c04573d6000803e3d6000fd5b505050506040513d601f19601f82011682018060405250810190610c2891906142de565b9250505099509950999650505050505050565b600080600080610c4e8d8d8d8d8d6115cd565b909450925083915082905060608715610cdf57610cb3838a8a808060200260200160405190810160405280939291908181526020016000905b828210156103f757610ca4608083028601368190038101906141fb565b81526020019060010190610c87565b90508060018251610cc4919061422d565b81518110610cd457610cd4614240565b602002602001015194505b8515610d6357610d37828888808060200260200160405190810160405280939291908181526020016000905b828210156103f757610d28608083028601368190038101906141fb565b81526020019060010190610d0b565b90508060018251610d48919061422d565b81518110610d5857610d58614240565b602002602001015193505b509950995099509995505050505050565b60007f0000000000000000000000000000000000000000000000000000000000000000816001600160a01b03841615610dad5783610daf565b815b60405163d1ea0a1d60e01b81529091506001600160a01b037f0000000000000000000000000000000000000000000000000000000000000000169063d1ea0a1d90610dfe908490600401613a0b565b602060405180830381865afa158015610e1b573d6000803e3d6000fd5b505050506040513d601f19601f82011682018060405250810190610e3f91906142aa565b610e5c57604051634d39d5a360e11b815260040160405180910390fd5b600080610e6989896107a9565b6040516bffffffffffffffffffffffff19606084811b8216602084015283901b16603482015289151560f81b60488201529193509150600090604901604051602081830303815290604052805190602001209050610f7f846001600160a01b0316635c60da1b6040518163ffffffff1660e01b8152600401602060405180830381865afa158015610efe573d6000803e3d6000fd5b505050506040513d601f19601f82011682018060405250810190610f2291906142f7565b604051603881018790526f5af43d82803e903d91602b57fd5bf3ff60248201526014810191909152733d602d80600a3d3981f3363d3d373d3d3d363d738152605881018390526037600c8201206078820152605560439091012090565b9a9950505050505050505050565b80610f9781611f97565b61106685856000818110610fad57610fad614240565b610fc39260206080909202019081019150613d15565b610fcb611fbb565b61106088886000818110610fe157610fe1614240565b610ff79260206080909202019081019150613d15565b8989600081811061100a5761100a614240565b90506080020160200160208101906110229190613d15565b8a8a600081811061103557611035614240565b905060800201604001602081019061104d919061427a565b8b8b600081811061070957610709614240565b8a61203b565b600061107360018661422d565b9050600086868381811061108957611089614240565b90506080020160200160208101906110a19190613d15565b6001600160a01b03166370a08231866040518263ffffffff1660e01b81526004016110cc9190613a0b565b602060405180830381865afa1580156110e9573d6000803e3d6000fd5b505050506040513d601f19601f8201168201806040525081019061110d91906142de565b905061116b8787808060200260200160405190810160405280939291908181526020016000905b8282101561116057611151608083028601368190038101906141fb565b81526020019060010190611134565b505050505086612649565b878188888581811061117f5761117f614240565b90506080020160200160208101906111979190613d15565b6001600160a01b03166370a08231886040518263ffffffff1660e01b81526004016111c29190613a0b565b602060405180830381865afa1580156111df573d6000803e3d6000fd5b505050506040513d601f19601f8201168201806040525081019061120391906142de565b61120d919061422d565b101561122c576040516342301c2360e01b815260040160405180910390fd5b505050505050505050565b600080600061124687876107a9565b50905060008061125889898989610d74565b6001600160a01b0316630902f1ac6040518163ffffffff1660e01b8152600401606060405180830381865afa158015611295573d6000803e3d6000fd5b505050506040513d601f19601f820116820180604052508101906112b99190614314565b5091509150826001600160a01b0316896001600160a01b0316146112de5780826112e1565b81815b909a909950975050505050505050565b60006113006020870187613d15565b905060006113146040880160208901613d15565b9050886113218989612a0a565b6000816001600160a01b0316846001600160a01b031614611472576040516370a0823160e01b81526001600160a01b038516906370a0823190611368903090600401613a0b565b602060405180830381865afa158015611385573d6000803e3d6000fd5b505050506040513d601f19601f820116820180604052508101906113a991906142de565b90506001600160a01b03821688886113c260018261422d565b8181106113d1576113d1614240565b90506080020160200160208101906113e99190613d15565b6001600160a01b031614611410576040516309d41c6760e31b815260040160405180910390fd5b61147284828b608001358b8b808060200260200160405190810160405280939291908181526020016000905b8282101561146857611459608083028601368190038101906141fb565b8152602001906001019061143c565b5050505050612b71565b816001600160a01b0316836001600160a01b0316146115b7576040516370a0823160e01b81526001600160a01b038416906370a08231906114b7903090600401613a0b565b602060405180830381865afa1580156114d4573d6000803e3d6000fd5b505050506040513d601f19601f820116820180604052508101906114f891906142de565b90506001600160a01b038216868661151160018261422d565b81811061152057611520614240565b90506080020160200160208101906115389190613d15565b6001600160a01b03161461155f576040516332b2410360e21b815260040160405180910390fd5b6115b783828b60a001358989808060200260200160405190810160405280939291908181526020016000905b82821015611468576115a8608083028601368190038101906141fb565b8152602001906001019061158b565b6115c08b612c53565b5050505050505050505050565b6000806000846001600160a01b03166379bc57d58989896040518463ffffffff1660e01b815260040161160293929190614342565b602060405180830381865afa15801561161f573d6000803e3d6000fd5b505050506040513d601f19601f8201168201806040525081019061164391906142f7565b90506001600160a01b03811661166057600080925092505061170c565b60008061166f8a8a8a8a611237565b915091506000836001600160a01b03166318160ddd6040518163ffffffff1660e01b8152600401602060405180830381865afa1580156116b3573d6000803e3d6000fd5b505050506040513d601f19601f820116820180604052508101906116d791906142de565b9050806116e48489614366565b6116ee9190614393565b9550806116fb8389614366565b6117059190614393565b9450505050505b9550959350505050565b60608161172281611f97565b611774888787808060200260200160405190810160405280939291908181526020016000905b828210156103f757611765608083028601368190038101906141fb565b81526020019060010190611748565b9150868260018451611786919061422d565b8151811061179657611796614240565b602002602001015110156117bd576040516342301c2360e01b815260040160405180910390fd5b61181a868660008181106117d3576117d3614240565b6117e99260206080909202019081019150613d15565b6117f1611fbb565b6118078989600081811061068a5761068a614240565b8560008151811061073457610734614240565b61186c828787808060200260200160405190810160405280939291908181526020016000905b828210156107935761185d608083028601368190038101906141fb565b81526020019060010190611840565b509695505050505050565b600080600080866001600160a01b03166379bc57d58b8b8b6040518463ffffffff1660e01b81526004016118ad93929190614342565b602060405180830381865afa1580156118ca573d6000803e3d6000fd5b505050506040513d601f19601f820116820180604052508101906118ee91906142f7565b9050600080806001600160a01b0384161561197957836001600160a01b03166318160ddd6040518163ffffffff1660e01b8152600401602060405180830381865afa158015611941573d6000803e3d6000fd5b505050506040513d601f19601f8201168201806040525081019061196591906142de565b90506119738d8d8d8d611237565b90935091505b82158015611985575081155b156119b6578896508795506103e86119a56119a0888a614366565b612cef565b6119af919061422d565b9450611a49565b60006119c38a8585612dde565b9050888111611a0b57899750955085611a04846119e0848b614366565b6119ea9190614393565b846119f5858b614366565b6119ff9190614393565b612e47565b9550611a47565b6000611a188a8587612dde565b9850899750889050611a4385611a2e8584614366565b611a389190614393565b856119f5868c614366565b9650505b505b5050505096509650969350505050565b600080611a698585600186610d74565b90506000856001600160a01b031663313ce5676040518163ffffffff1660e01b8152600401602060405180830381865afa158015611aab573d6000803e3d6000fd5b505050506040513d601f19601f82011682018060405250810190611acf91906143b5565b611ada90600a6144bc565b90506000856001600160a01b031663313ce5676040518163ffffffff1660e01b8152600401602060405180830381865afa158015611b1c573d6000803e3d6000fd5b505050506040513d601f19601f82011682018060405250810190611b4091906143b5565b611b4b90600a6144bc565b6040516378a051ad60e11b815290915082906000906001600160a01b0386169063f140a35a90611b819085908d906004016142c7565b602060405180830381865afa158015611b9e573d6000803e3d6000fd5b505050506040513d601f19601f82011682018060405250810190611bc291906142de565b9050600080611bd68b8b60018c8888611877565b50909250905085611bef83670de0b6b3a7640000614366565b611bf99190614393565b915084611c0e82670de0b6b3a7640000614366565b611c189190614393565b905084611c2d84670de0b6b3a7640000614366565b611c379190614393565b925085611c4c85670de0b6b3a7640000614366565b611c569190614393565b9350808285611c6d86670de0b6b3a7640000614366565b611c779190614393565b611c819190614366565b611c8b9190614393565b9750611c9f88670de0b6b3a7640000614297565b611cb185670de0b6b3a7640000614366565b611cbb9190614393565b9b9a5050505050505050505050565b600080611cd78a8c614297565b9050611cec8c611ce5611fbb565b308461203b565b611cfc8c8c8c8c8c8c8c8c612e61565b611d0589613116565b6000611d4a611d1760208c018c613d15565b611d2760408d0160208e01613d15565b611d3760608e0160408f0161427a565b8d60600160208101906102c49190613d15565b90508315611ee4576040516335313c2160e11b81526001600160a01b03821690636a62784290611d7e903090600401613a0b565b6020604051808303816000875af1158015611d9d573d6000803e3d6000fd5b505050506040513d601f19601f82011682018060405250810190611dc191906142de565b925060007f00000000000000000000000000000000000000000000000000000000000000006001600160a01b031663b9a09fd5836040518263ffffffff1660e01b8152600401611e119190613a0b565b602060405180830381865afa158015611e2e573d6000803e3d6000fd5b505050506040513d601f19601f82011682018060405250810190611e5291906142f7565b9050611e686001600160a01b038316828661328a565b604051636e553f6560e01b81526001600160a01b03821690636e553f6590611e969087908a906004016142c7565b600060405180830381600087803b158015611eb057600080fd5b505af1158015611ec4573d6000803e3d6000fd5b50611ede925050506001600160a01b03831682600061328a565b50611f56565b6040516335313c2160e11b81526001600160a01b03821690636a62784290611f10908890600401613a0b565b6020604051808303816000875af1158015611f2f573d6000803e3d6000fd5b505050506040513d601f19601f82011682018060405250810190611f5391906142de565b92505b611f5f8d612c53565b611f74611f6f60208c018c613d15565b612c53565b611f87611f6f60408c0160208d01613d15565b50509a9950505050505050505050565b42811015611fb857604051630407b05b60e31b815260040160405180910390fd5b50565b6000611fc633610b0e565b15611fd8575060131936013560601c90565b503390565b612035846323b872dd60e01b858585604051602401611ffe939291906144cb565b60408051601f198184030181529190526020810180516001600160e01b03166001600160e01b031990931692909217909152613393565b50505050565b6000846001600160a01b03163b1161205257600080fd5b600080856001600160a01b03166323b872dd60e01b86868660405160240161207c939291906144cb565b60408051601f198184030181529181526020820180516001600160e01b03166001600160e01b03199094169390931790925290516120ba9190614513565b6000604051808303816000865af19150503d80600081146120f7576040519150601f19603f3d011682016040523d82523d6000602084013e6120fc565b606091505b509150915081801561212657508051158061212657508080602001905181019061212691906142aa565b61212f57600080fd5b505050505050565b815160005b818110156123d957600061218a85838151811061215b5761215b614240565b60200260200101516000015186848151811061217957612179614240565b6020026020010151602001516107a9565b50905060008661219b846001614297565b815181106121ab576121ab614240565b60200260200101519050600080836001600160a01b03168886815181106121d4576121d4614240565b6020026020010151600001516001600160a01b0316146121f6578260006121fa565b6000835b9150915060006001895161220e919061422d565b861061221a57876122c8565b6122c889612229886001614297565b8151811061223957612239614240565b6020026020010151600001518a8860016122539190614297565b8151811061226357612263614240565b6020026020010151602001518b89600161227d9190614297565b8151811061228d5761228d614240565b6020026020010151604001518c8a60016122a79190614297565b815181106122b7576122b7614240565b602002602001015160600151610d74565b90506123398987815181106122df576122df614240565b6020026020010151600001518a88815181106122fd576122fd614240565b6020026020010151602001518b898151811061231b5761231b614240565b6020026020010151604001518c8a815181106122b7576122b7614240565b6001600160a01b031663022c0d9f84848460006040519080825280601f01601f191660200182016040528015612376576020820181803683370190505b506040518563ffffffff1660e01b8152600401612396949392919061455b565b600060405180830381600087803b1580156123b057600080fd5b505af11580156123c4573d6000803e3d6000fd5b50506001909701965061213c95505050505050565b5050505050565b6000808386101561240457604051636e35977960e11b815260040160405180910390fd5b828510156124255760405163acee051360e01b815260040160405180910390fd5b6040516379bc57d560e01b81526000906001600160a01b037f000000000000000000000000000000000000000000000000000000000000000016906379bc57d590612478908d908d908d90600401614342565b602060405180830381865afa158015612495573d6000803e3d6000fd5b505050506040513d601f19601f820116820180604052508101906124b991906142f7565b90506001600160a01b03811661255f576040516301b5fcad60e51b81526001600160a01b037f000000000000000000000000000000000000000000000000000000000000000016906336bf95a090612519908d908d908d90600401614342565b6020604051808303816000875af1158015612538573d6000803e3d6000fd5b505050506040513d601f19601f8201168201806040525081019061255c91906142f7565b90505b60008061258e8c8c8c7f0000000000000000000000000000000000000000000000000000000000000000611237565b915091508160001480156125a0575080155b156125b05788945087935061263a565b60006125bd8a8484612dde565b90508881116125f257868110156125e757604051630d32418960e21b815260040160405180910390fd5b899550935083612638565b60006125ff8a8486612dde565b90508a81111561261157612611614592565b88811015612632576040516323d9bb0560e21b815260040160405180910390fd5b95508894505b505b50505097509795505050505050565b815160005b8181101561203557600061266d85838151811061215b5761215b614240565b50905060006126e186848151811061268757612687614240565b6020026020010151600001518785815181106126a5576126a5614240565b6020026020010151602001518886815181106126c3576126c3614240565b6020026020010151604001518987815181106122b7576122b7614240565b905060008060006127688987815181106126fd576126fd614240565b6020026020010151600001518a888151811061271b5761271b614240565b6020026020010151602001518b898151811061273957612739614240565b6020026020010151604001518c8a8151811061275757612757614240565b602002602001015160600151611237565b5090508089878151811061277e5761277e614240565b6020026020010151600001516001600160a01b03166370a08231866040518263ffffffff1660e01b81526004016127b59190613a0b565b602060405180830381865afa1580156127d2573d6000803e3d6000fd5b505050506040513d601f19601f820116820180604052508101906127f691906142de565b612800919061422d565b925050826001600160a01b031663f140a35a838a888151811061282557612825614240565b6020026020010151600001516040518363ffffffff1660e01b815260040161284e9291906142c7565b602060405180830381865afa15801561286b573d6000803e3d6000fd5b505050506040513d601f19601f8201168201806040525081019061288f91906142de565b9050600080856001600160a01b03168a88815181106128b0576128b0614240565b6020026020010151600001516001600160a01b0316146128d2578260006128d6565b6000835b91509150600060018b516128ea919061422d565b88106128f65789612983565b6129838b6129058a6001614297565b8151811061291557612915614240565b6020026020010151600001518c8a600161292f9190614297565b8151811061293f5761293f614240565b6020026020010151602001518d8b60016129599190614297565b8151811061296957612969614240565b6020026020010151604001518e8c60016122a79190614297565b6040805160008152602081019182905263022c0d9f60e01b9091529091506001600160a01b0387169063022c0d9f906129c5908690869086906024810161455b565b600060405180830381600087803b1580156129df57600080fd5b505af11580156129f3573d6000803e3d6000fd5b50506001909901985061264e975050505050505050565b6000612a196020830183613d15565b90506000612a2d6040840160208501613d15565b90506000612a568383612a46606088016040890161427a565b6102c46080890160608a01613d15565b9050612a6d6001600160a01b038216338388611fdd565b6000612a7984846107a9565b509050600080836001600160a01b03166389afcb44306040518263ffffffff1660e01b8152600401612aab9190613a0b565b60408051808303816000875af1158015612ac9573d6000803e3d6000fd5b505050506040513d601f19601f82011682018060405250810190612aed9190614256565b91509150600080846001600160a01b0316886001600160a01b031614612b14578284612b17565b83835b915091508860c00135821015612b40576040516323d9bb0560e21b815260040160405180910390fd5b8860e00135811015612b6557604051630d32418960e21b815260040160405180910390fd5b50505050505050505050565b6000612b7d8483610834565b9050828160018351612b8f919061422d565b81518110612b9f57612b9f614240565b60200260200101511015612bc6576040516342301c2360e01b815260040160405180910390fd5b6000612c3b83600081518110612bde57612bde614240565b60200260200101516000015184600081518110612bfd57612bfd614240565b60200260200101516020015185600081518110612c1c57612c1c614240565b602002602001015160400151866000815181106122b7576122b7614240565b9050612c48868287613468565b61212f828430612137565b6000612c5d611fbb565b90506000826001600160a01b03166370a08231306040518263ffffffff1660e01b8152600401612c8d9190613a0b565b602060405180830381865afa158015612caa573d6000803e3d6000fd5b505050506040513d601f19601f82011682018060405250810190612cce91906142de565b90508015612cea57612cea6001600160a01b038416838361355a565b505050565b600081600003612d0157506000919050565b60006001612d0e84613579565b901c6001901b90506001818481612d2757612d2761437d565b048201901c90506001818481612d3f57612d3f61437d565b048201901c90506001818481612d5757612d5761437d565b048201901c90506001818481612d6f57612d6f61437d565b048201901c90506001818481612d8757612d8761437d565b048201901c90506001818481612d9f57612d9f61437d565b048201901c90506001818481612db757612db761437d565b048201901c9050612dd781828581612dd157612dd161437d565b04612e47565b9392505050565b600083600003612e0157604051632ca2f52b60e11b815260040160405180910390fd5b821580612e0c575081155b15612e2a5760405163bb55fd2760e01b815260040160405180910390fd5b82612e358386614366565b612e3f9190614393565b949350505050565b6000818310612e565781612e58565b825b90505b92915050565b6000612e706020870187613d15565b90506000612e846040880160208901613d15565b90506000612e986060890160408a0161427a565b90506000612eac60808a0160608b01613d15565b90506000612ebc85858585610d74565b9050600080826001600160a01b0316630902f1ac6040518163ffffffff1660e01b8152600401606060405180830381865afa158015612eff573d6000803e3d6000fd5b505050506040513d601f19601f82011682018060405250810190612f239190614314565b50915091506103e882111580612f3b57506103e88111155b15612f59576040516302721e1f60e61b815260040160405180910390fd5b5050846001600160a01b03168d6001600160a01b031614613031576001600160a01b0385168989612f8b60018261422d565b818110612f9a57612f9a614240565b9050608002016020016020810190612fb29190613d15565b6001600160a01b031614612fd9576040516309d41c6760e31b815260040160405180910390fd5b6130318d8d8c608001358c8c808060200260200160405190810160405280939291908181526020016000905b8282101561146857613022608083028601368190038101906141fb565b81526020019060010190613005565b836001600160a01b03168d6001600160a01b031614613107576001600160a01b038416878761306160018261422d565b81811061307057613070614240565b90506080020160200160208101906130889190613d15565b6001600160a01b0316146130af576040516332b2410360e21b815260040160405180910390fd5b6131078d8c8c60a001358a8a808060200260200160405190810160405280939291908181526020016000905b82821015611468576130f8608083028601368190038101906141fb565b815260200190600101906130db565b50505050505050505050505050565b60006131256020830183613d15565b905060006131396040840160208501613d15565b9050600061314d606085016040860161427a565b905060006131616080860160608701613d15565b9050600061317185858585610d74565b9050600080613266878787878b6001600160a01b03166370a08231306040518263ffffffff1660e01b81526004016131a99190613a0b565b602060405180830381865afa1580156131c6573d6000803e3d6000fd5b505050506040513d601f19601f820116820180604052508101906131ea91906142de565b6040516370a0823160e01b81526001600160a01b038d16906370a0823190613216903090600401613a0b565b602060405180830381865afa158015613233573d6000803e3d6000fd5b505050506040513d601f19601f8201168201806040525081019061325791906142de565b8e60c001358f60e0013561360d565b91509150613275878484613468565b613280868483613468565b5050505050505050565b8015806133045750604051636eb1769f60e11b81523060048201526001600160a01b03838116602483015284169063dd62ed3e90604401602060405180830381865afa1580156132de573d6000803e3d6000fd5b505050506040513d601f19601f8201168201806040525081019061330291906142de565b155b6133745760405162461bcd60e51b815260206004820152603660248201527f5361666545524332303a20617070726f76652066726f6d206e6f6e2d7a65726f60448201527520746f206e6f6e2d7a65726f20616c6c6f77616e636560501b60648201526084015b60405180910390fd5b612cea8363095ea7b360e01b8484604051602401611ffe9291906145a8565b60006133e8826040518060400160405280602081526020017f5361666545524332303a206c6f772d6c6576656c2063616c6c206661696c6564815250856001600160a01b031661371c9092919063ffffffff16565b905080516000148061340957508080602001905181019061340991906142aa565b612cea5760405162461bcd60e51b815260206004820152602a60248201527f5361666545524332303a204552433230206f7065726174696f6e20646964206e6044820152691bdd081cdd58d8d9595960b21b606482015260840161336b565b6000836001600160a01b03163b1161347f57600080fd5b600080846001600160a01b031663a9059cbb60e01b85856040516024016134a79291906145a8565b60408051601f198184030181529181526020820180516001600160e01b03166001600160e01b03199094169390931790925290516134e59190614513565b6000604051808303816000865af19150503d8060008114613522576040519150601f19603f3d011682016040523d82523d6000602084013e613527565b606091505b509150915081801561355157508051158061355157508080602001905181019061355191906142aa565b6123d957600080fd5b612cea8363a9059cbb60e01b8484604051602401611ffe9291906145a8565b600080608083901c1561358e57608092831c92015b604083901c156135a057604092831c92015b602083901c156135b257602092831c92015b601083901c156135c457601092831c92015b600883901c156135d657600892831c92015b600483901c156135e857600492831c92015b600283901c156135fa57600292831c92015b600183901c15612e5b5760010192915050565b6000808386101561363157604051636e35977960e11b815260040160405180910390fd5b828510156136525760405163acee051360e01b815260040160405180910390fd5b6000806136618c8c8c8c611237565b91509150816000148015613673575080155b156136835787935086925061370d565b6000613690898484612dde565b90508781116136c557858110156136ba57604051630d32418960e21b815260040160405180910390fd5b88945092508261370b565b60006136d2898486612dde565b9050898111156136e4576136e4614592565b87811015613705576040516323d9bb0560e21b815260040160405180910390fd5b94508793505b505b50509850989650505050505050565b6060612e3f848460008585600080866001600160a01b031685876040516137439190614513565b60006040518083038185875af1925050503d8060008114613780576040519150601f19603f3d011682016040523d82523d6000602084013e613785565b606091505b5091509150613796878383876137a1565b979650505050505050565b60608315613810578251600003613809576001600160a01b0385163b6138095760405162461bcd60e51b815260206004820152601d60248201527f416464726573733a2063616c6c20746f206e6f6e2d636f6e7472616374000000604482015260640161336b565b5081612e3f565b612e3f83838151156138255781518083602001fd5b8060405162461bcd60e51b815260040161336b91906145c1565b6001600160a01b0381168114611fb857600080fd5b803561385f8161383f565b919050565b8015158114611fb857600080fd5b60008083601f84011261388457600080fd5b5081356001600160401b0381111561389b57600080fd5b6020830191508360208260071b850101111561082d57600080fd5b6000806000806000806000806000806101008b8d0312156138d657600080fd5b8a356138e18161383f565b995060208b01356138f18161383f565b985060408b013561390181613864565b975060608b01356139118161383f565b965060808b0135955060a08b0135945060c08b01356001600160401b038082111561393b57600080fd5b6139478e838f01613872565b909650945060e08d013591508082111561396057600080fd5b5061396d8d828e01613872565b915080935050809150509295989b9194979a5092959850565b600080600080600080600080610100898b0312156139a357600080fd5b88356139ae8161383f565b975060208901356139be8161383f565b965060408901356139ce81613864565b9550606089013594506080890135935060a0890135925060c08901356139f38161383f565b8092505060e089013590509295985092959890939650565b6001600160a01b0391909116815260200190565b634e487b7160e01b600052604160045260246000fd5b604051601f8201601f191681016001600160401b0381118282101715613a5d57613a5d613a1f565b604052919050565b60006001600160401b03821115613a7e57613a7e613a1f565b5060051b60200190565b600080600080600060808688031215613aa057600080fd5b85356001600160401b0380821115613ab757600080fd5b818801915088601f830112613acb57600080fd5b81356020613ae0613adb83613a65565b613a35565b82815260059290921b8401810191818101908c841115613aff57600080fd5b948201945b83861015613b1d57853582529482019490820190613b04565b99505089013592505080821115613b3357600080fd5b50613b4088828901613872565b9095509350613b53905060408701613854565b949793965091946060013592915050565b6020808252825182820181905260009190848201906040850190845b81811015613b9c57835183529284019291840191600101613b80565b50909695505050505050565b60008060408385031215613bbb57600080fd5b8235613bc68161383f565b91506020830135613bd68161383f565b809150509250929050565b600060808284031215613bf357600080fd5b604051608081018181106001600160401b0382111715613c1557613c15613a1f565b6040529050808235613c268161383f565b81526020830135613c368161383f565b60208201526040830135613c4981613864565b60408201526060830135613c5c8161383f565b6060919091015292915050565b60008060408385031215613c7c57600080fd5b823591506020808401356001600160401b03811115613c9a57600080fd5b8401601f81018613613cab57600080fd5b8035613cb9613adb82613a65565b8082825260208201915060208360071b850101925088831115613cdb57600080fd5b6020840193505b82841015613d0657613cf48985613be1565b82528482019150608084019350613ce2565b80955050505050509250929050565b600060208284031215613d2757600080fd5b8135612dd78161383f565b60008060008060008060008060006101208a8c031215613d5157600080fd5b8935613d5c8161383f565b985060208a0135613d6c8161383f565b975060408a0135613d7c81613864565b965060608a0135955060808a0135945060a08a0135935060c08a0135925060e08a0135613da88161383f565b809250506101008a013590509295985092959850929598565b600080600080600080600080600060e08a8c031215613ddf57600080fd5b8935613dea8161383f565b985060208a0135613dfa8161383f565b975060408a0135613e0a81613864565b965060608a0135613e1a8161383f565b955060808a0135945060a08a01356001600160401b0380821115613e3d57600080fd5b613e498d838e01613872565b909650945060c08c0135915080821115613e6257600080fd5b50613e6f8c828d01613872565b915080935050809150509295985092959850929598565b60008060008060808587031215613e9c57600080fd5b8435613ea78161383f565b93506020850135613eb78161383f565b92506040850135613ec781613864565b91506060850135613ed78161383f565b939692955090935050565b60008060008060008060a08789031215613efb57600080fd5b863595506020870135945060408701356001600160401b03811115613f1f57600080fd5b613f2b89828a01613872565b9095509350506060870135613f3f8161383f565b80925050608087013590509295509295509295565b60006101008284031215613f6757600080fd5b50919050565b6000806000806000806000610180888a031215613f8957600080fd5b8735613f948161383f565b965060208801359550613faa8960408a01613f54565b94506101408801356001600160401b0380821115613fc757600080fd5b613fd38b838c01613872565b90965094506101608a0135915080821115613fed57600080fd5b50613ffa8a828b01613872565b989b979a50959850939692959293505050565b600080600080600060a0868803121561402557600080fd5b85356140308161383f565b945060208601356140408161383f565b9350604086013561405081613864565b925060608601356140608161383f565b949793965091946080013592915050565b60008060008060008060c0878903121561408a57600080fd5b86356140958161383f565b955060208701356140a58161383f565b945060408701356140b581613864565b935060608701356140c58161383f565b9598949750929560808101359460a0909101359350915050565b6000806000606084860312156140f457600080fd5b83356140ff8161383f565b9250602084013561410f8161383f565b9150604084013561411f8161383f565b809150509250925092565b6000806000806000806000806000806101e08b8d03121561414a57600080fd5b8a356141558161383f565b995060208b0135985060408b013597506141728c60608d01613f54565b96506101608b01356001600160401b038082111561418f57600080fd5b61419b8e838f01613872565b90985096506101808d01359150808211156141b557600080fd5b506141c28d828e01613872565b9095509350506101a08b01356141d78161383f565b91506101c08b01356141e881613864565b809150509295989b9194979a5092959850565b60006080828403121561420d57600080fd5b612e588383613be1565b634e487b7160e01b600052601160045260246000fd5b81810381811115612e5b57612e5b614217565b634e487b7160e01b600052603260045260246000fd5b6000806040838503121561426957600080fd5b505080516020909101519092909150565b60006020828403121561428c57600080fd5b8135612dd781613864565b80820180821115612e5b57612e5b614217565b6000602082840312156142bc57600080fd5b8151612dd781613864565b9182526001600160a01b0316602082015260400190565b6000602082840312156142f057600080fd5b5051919050565b60006020828403121561430957600080fd5b8151612dd78161383f565b60008060006060848603121561432957600080fd5b8351925060208401519150604084015190509250925092565b6001600160a01b039384168152919092166020820152901515604082015260600190565b8082028115828204841417612e5b57612e5b614217565b634e487b7160e01b600052601260045260246000fd5b6000826143b057634e487b7160e01b600052601260045260246000fd5b500490565b6000602082840312156143c757600080fd5b815160ff81168114612dd757600080fd5b600181815b808511156144135781600019048211156143f9576143f9614217565b8085161561440657918102915b93841c93908002906143dd565b509250929050565b60008261442a57506001612e5b565b8161443757506000612e5b565b816001811461444d576002811461445757614473565b6001915050612e5b565b60ff84111561446857614468614217565b50506001821b612e5b565b5060208310610133831016604e8410600b8410161715614496575081810a612e5b565b6144a083836143d8565b80600019048211156144b4576144b4614217565b029392505050565b6000612e5860ff84168361441b565b6001600160a01b039384168152919092166020820152604081019190915260600190565b60005b8381101561450a5781810151838201526020016144f2565b50506000910152565b600082516145258184602087016144ef565b9190910192915050565b600081518084526145478160208601602086016144ef565b601f01601f19169290920160200192915050565b84815283602082015260018060a01b0383166040820152608060608201526000614588608083018461452f565b9695505050505050565b634e487b7160e01b600052600160045260246000fd5b6001600160a01b03929092168252602082015260400190565b602081526000612e58602083018461452f56fea26469706673582212209e6ec97bab12254ce4f0f8a057c72deae749f8218b184c5dddc0691031594abe64736f6c63430008180033",
  "devdoc": {
    "author": "velodrome.finance, @pegahcarter",
    "kind": "dev",
    "methods": {
      "UNSAFE_swapExactTokensForTokens(uint256[],(address,address,bool,address)[],address,uint256)": {
        "params": {
          "deadline": "Deadline to receive tokens",
          "routes": "Array of trade routes used in the swap",
          "to": "Recipient of the tokens received"
        },
        "returns": {
          "_0": "amounts     Array of amounts to swap  per route"
        }
      },
      "addLiquidity(address,address,bool,uint256,uint256,uint256,uint256,address,uint256)": {
        "params": {
          "amountADesired": "Amount of tokenA desired to deposit",
          "amountAMin": "Minimum amount of tokenA to deposit",
          "amountBDesired": "Amount of tokenB desired to deposit",
          "amountBMin": "Minimum amount of tokenB to deposit",
          "deadline": "Deadline to receive liquidity",
          "stable": "True if pool is stable, false if volatile",
          "to": "Recipient of liquidity token",
          "tokenA": ".",
          "tokenB": "."
        },
        "returns": {
          "amountA": "        Amount of tokenA to actually deposit",
          "amountB": "        Amount of tokenB to actually deposit",
          "liquidity": "      Amount of liquidity token returned from deposit"
        }
      },
      "generateZapInParams(address,address,bool,address,uint256,uint256,(address,address,bool,address)[],(address,address,bool,address)[])": {
        "details": "Output token refers to the token you want to zap in from.",
        "params": {
          "_factory": ".",
          "amountInA": "Amount of input token you wish to send down routesA",
          "amountInB": "Amount of input token you wish to send down routesB",
          "routesA": "Route used to convert input token to tokenA",
          "routesB": "Route used to convert input token to tokenB",
          "stable": ".",
          "tokenA": ".",
          "tokenB": "."
        },
        "returns": {
          "amountAMin": "     Minimum amount of tokenA expected from depositing liquidity.",
          "amountBMin": "     Minimum amount of tokenB expected from depositing liquidity.",
          "amountOutMinA": "  Minimum output expected from swapping input token to tokenA.",
          "amountOutMinB": "  Minimum output expected from swapping input token to tokenB."
        }
      },
      "generateZapOutParams(address,address,bool,address,uint256,(address,address,bool,address)[],(address,address,bool,address)[])": {
        "details": "Output token refers to the token you want to zap out of.",
        "params": {
          "_factory": ".",
          "liquidity": "Amount of liquidity being zapped out of into a given output token.",
          "routesA": "Route used to convert tokenA into output token.",
          "routesB": "Route used to convert tokenB into output token.",
          "stable": ".",
          "tokenA": ".",
          "tokenB": "."
        },
        "returns": {
          "amountAMin": "     Minimum amount of tokenA expected from withdrawing liquidity.",
          "amountBMin": "     Minimum amount of tokenB expected from withdrawing liquidity.",
          "amountOutMinA": "  Minimum output expected from swapping tokenA into output token.",
          "amountOutMinB": "  Minimum output expected from swapping tokenB into output token."
        }
      },
      "getReserves(address,address,bool,address)": {
        "params": {
          "_factory": "Address of PoolFactory for tokenA and tokenB",
          "stable": "True if pool is stable, false if volatile",
          "tokenA": ".",
          "tokenB": "."
        },
        "returns": {
          "reserveA": "   Amount of reserves of the sorted token A",
          "reserveB": "   Amount of reserves of the sorted token B"
        }
      },
      "poolFor(address,address,bool,address)": {
        "details": "Returns a randomly generated address for a nonexistent pool",
        "params": {
          "_factory": "Address of factory which created the pool",
          "stable": "True if pool is stable, false if volatile",
          "tokenA": "Address of token to query",
          "tokenB": "Address of token to query"
        }
      },
      "quoteAddLiquidity(address,address,bool,address,uint256,uint256)": {
        "params": {
          "_factory": "Address of PoolFactory for tokenA and tokenB",
          "amountADesired": "Amount of tokenA desired to deposit",
          "amountBDesired": "Amount of tokenB desired to deposit",
          "stable": "True if pool is stable, false if volatile",
          "tokenA": ".",
          "tokenB": "."
        },
        "returns": {
          "amountA": "        Amount of tokenA to actually deposit",
          "amountB": "        Amount of tokenB to actually deposit",
          "liquidity": "      Amount of liquidity token returned from deposit"
        }
      },
      "quoteRemoveLiquidity(address,address,bool,address,uint256)": {
        "params": {
          "_factory": "Address of PoolFactory for tokenA and tokenB",
          "liquidity": "Amount of liquidity to remove",
          "stable": "True if pool is stable, false if volatile",
          "tokenA": ".",
          "tokenB": "."
        },
        "returns": {
          "amountA": "    Amount of tokenA received",
          "amountB": "    Amount of tokenB received"
        }
      },
      "quoteStableLiquidityRatio(address,address,address)": {
        "details": "Returns stable liquidity ratio of B to (A + B).      E.g. if ratio is 0.4, it means there is more of A than there is of B.      Therefore you should deposit more of token A than B.",
        "params": {
          "factory": "Factory that created stable pool.",
          "tokenA": "tokenA of stable pool you are zapping into.",
          "tokenB": "tokenB of stable pool you are zapping into."
        },
        "returns": {
          "ratio": "  Ratio of token0 to token1 required to deposit into zap."
        }
      },
      "removeLiquidity(address,address,bool,uint256,uint256,uint256,address,uint256)": {
        "params": {
          "amountAMin": "Minimum amount of tokenA to receive",
          "amountBMin": "Minimum amount of tokenB to receive",
          "deadline": "Deadline to remove liquidity",
          "liquidity": "Amount of liquidity to remove",
          "stable": "True if pool is stable, false if volatile",
          "to": "Recipient of tokens received",
          "tokenA": ".",
          "tokenB": "."
        },
        "returns": {
          "amountA": "    Amount of tokenA received",
          "amountB": "    Amount of tokenB received"
        }
      },
      "sortTokens(address,address)": {
        "params": {
          "tokenA": "Address of token to sort",
          "tokenB": "Address of token to sort"
        },
        "returns": {
          "token0": " Lower address value between tokenA and tokenB",
          "token1": " Higher address value between tokenA and tokenB"
        }
      },
      "swapExactTokensForTokens(uint256,uint256,(address,address,bool,address)[],address,uint256)": {
        "params": {
          "amountIn": "Amount of token in",
          "amountOutMin": "Minimum amount of desired token received",
          "deadline": "Deadline to receive tokens",
          "routes": "Array of trade routes used in the swap",
          "to": "Recipient of the tokens received"
        },
        "returns": {
          "amounts": "    Array of amounts returned per route"
        }
      },
      "swapExactTokensForTokensSupportingFeeOnTransferTokens(uint256,uint256,(address,address,bool,address)[],address,uint256)": {
        "params": {
          "amountIn": "Amount of token in",
          "amountOutMin": "Minimum amount of desired token received",
          "deadline": "Deadline to receive tokens",
          "routes": "Array of trade routes used in the swap",
          "to": "Recipient of the tokens received"
        }
      },
      "zapIn(address,uint256,uint256,(address,address,bool,address,uint256,uint256,uint256,uint256),(address,address,bool,address)[],(address,address,bool,address)[],address,bool)": {
        "params": {
          "amountInA": "Amount of input token you wish to send down routesA",
          "amountInB": "Amount of input token you wish to send down routesB",
          "routesA": "Route used to convert input token to tokenA",
          "routesB": "Route used to convert input token to tokenB",
          "stake": "Auto-stake liquidity in corresponding gauge.",
          "to": "Address you wish to mint liquidity to.",
          "tokenIn": "Token you are zapping in from (i.e. input token).",
          "zapInPool": "Contains zap struct information. See Zap struct."
        },
        "returns": {
          "liquidity": "  Amount of LP tokens created from zapping in."
        }
      },
      "zapOut(address,uint256,(address,address,bool,address,uint256,uint256,uint256,uint256),(address,address,bool,address)[],(address,address,bool,address)[])": {
        "params": {
          "liquidity": "Amount of liquidity you wish to remove.",
          "routesA": "Route used to convert tokenA into output token.",
          "routesB": "Route used to convert tokenB into output token.",
          "tokenOut": "Token you are zapping out to (i.e. output token).",
          "zapOutPool": "Contains zap struct information. See Zap struct."
        }
      }
    },
    "title": "Protocol Router",
    "version": 1
  },
  "userdoc": {
    "kind": "user",
    "methods": {
      "UNSAFE_swapExactTokensForTokens(uint256[],(address,address,bool,address)[],address,uint256)": {
        "notice": "Swap one token for another without slippage protection"
      },
      "addLiquidity(address,address,bool,uint256,uint256,uint256,uint256,address,uint256)": {
        "notice": "Add liquidity of two tokens to a Pool"
      },
      "defaultFactory()": {
        "notice": "Address of Protocol PoolFactory.sol"
      },
      "factoryRegistry()": {
        "notice": "Address of FactoryRegistry.sol"
      },
      "generateZapInParams(address,address,bool,address,uint256,uint256,(address,address,bool,address)[],(address,address,bool,address)[])": {
        "notice": "Used to generate params required for zapping in.         Zap in => remove liquidity then swap.         Apply slippage to expected swap values to account for changes in reserves in between."
      },
      "generateZapOutParams(address,address,bool,address,uint256,(address,address,bool,address)[],(address,address,bool,address)[])": {
        "notice": "Used to generate params required for zapping out.         Zap out => swap then add liquidity.         Apply slippage to expected liquidity values to account for changes in reserves in between."
      },
      "getAmountsOut(uint256,(address,address,bool,address)[])": {
        "notice": "Perform chained getAmountOut calculations on any number of pools"
      },
      "getReserves(address,address,bool,address)": {
        "notice": "Fetch and sort the reserves for a pool"
      },
      "poolFor(address,address,bool,address)": {
        "notice": "Calculate the address of a pool by its' factory.         Used by all Router functions containing a `Route[]` or `_factory` argument.         Reverts if _factory is not approved by the FactoryRegistry"
      },
      "quoteAddLiquidity(address,address,bool,address,uint256,uint256)": {
        "notice": "Quote the amount deposited into a Pool"
      },
      "quoteRemoveLiquidity(address,address,bool,address,uint256)": {
        "notice": "Quote the amount of liquidity removed from a Pool"
      },
      "quoteStableLiquidityRatio(address,address,address)": {
        "notice": "Used by zapper to determine appropriate ratio of A to B to deposit liquidity. Assumes stable pool."
      },
      "removeLiquidity(address,address,bool,uint256,uint256,uint256,address,uint256)": {
        "notice": "Remove liquidity of two tokens from a Pool"
      },
      "sortTokens(address,address)": {
        "notice": "Sort two tokens by which address value is less than the other"
      },
      "swapExactTokensForTokens(uint256,uint256,(address,address,bool,address)[],address,uint256)": {
        "notice": "Swap one token for another"
      },
      "swapExactTokensForTokensSupportingFeeOnTransferTokens(uint256,uint256,(address,address,bool,address)[],address,uint256)": {
        "notice": "Swap one token for another supporting fee-on-transfer tokens"
      },
      "voter()": {
        "notice": "Address of Voter.sol"
      },
      "zapIn(address,uint256,uint256,(address,address,bool,address,uint256,uint256,uint256,uint256),(address,address,bool,address)[],(address,address,bool,address)[],address,bool)": {
        "notice": "Zap a token A into a pool (B, C). (A can be equal to B or C).         Supports standard ERC20 tokens only (i.e. not fee-on-transfer tokens etc).         Slippage is required for the initial swap.         Additional slippage may be required when adding liquidity as the         price of the token may have changed."
      },
      "zapOut(address,uint256,(address,address,bool,address,uint256,uint256,uint256,uint256),(address,address,bool,address)[],(address,address,bool,address)[])": {
        "notice": "Zap out a pool (B, C) into A.         Supports standard ERC20 tokens only (i.e. not fee-on-transfer tokens etc).         Slippage is required for the removal of liquidity.         Additional slippage may be required on the swap as the         price of the token may have changed."
      }
    },
    "notice": "Router allows routes through any pools created by any factory adhering to univ2 interface.",
    "version": 1
  },
  "storageLayout": {
    "storage": [],
    "types": null
  }
}