{
  "address": "0x41c919D87382c9C14A3A1f6B378439abEdA9f253",
  "abi": [
    {
      "inputs": [
        {
          "internalType": "address",
          "name": "_forwarder",
          "type": "address"
        },
        {
          "internalType": "address",
          "name": "_btc",
          "type": "address"
        },
        {
          "internalType": "address",
          "name": "_factoryRegistry",
          "type": "address"
        }
      ],
      "stateMutability": "nonpayable",
      "type": "constructor"
    },
    {
      "inputs": [],
      "name": "AlreadyVoted",
      "type": "error"
    },
    {
      "inputs": [],
      "name": "AmountTooBig",
      "type": "error"
    },
    {
      "inputs": [],
      "name": "ERC721ReceiverRejectedTokens",
      "type": "error"
    },
    {
      "inputs": [],
      "name": "ERC721TransferToNonERC721ReceiverImplementer",
      "type": "error"
    },
    {
      "inputs": [],
      "name": "InvalidManagedNFTId",
      "type": "error"
    },
    {
      "inputs": [],
      "name": "InvalidNonce",
      "type": "error"
    },
    {
      "inputs": [],
      "name": "InvalidSignature",
      "type": "error"
    },
    {
      "inputs": [],
      "name": "InvalidSignatureS",
      "type": "error"
    },
    {
      "inputs": [],
      "name": "LockDurationNotInFuture",
      "type": "error"
    },
    {
      "inputs": [],
      "name": "LockDurationTooLong",
      "type": "error"
    },
    {
      "inputs": [],
      "name": "LockExpired",
      "type": "error"
    },
    {
      "inputs": [],
      "name": "LockNotExpired",
      "type": "error"
    },
    {
      "inputs": [],
      "name": "NoLockFound",
      "type": "error"
    },
    {
      "inputs": [],
      "name": "NonExistentToken",
      "type": "error"
    },
    {
      "inputs": [],
      "name": "NotApprovedOrOwner",
      "type": "error"
    },
    {
      "inputs": [],
      "name": "NotDistributor",
      "type": "error"
    },
    {
      "inputs": [],
      "name": "NotEmergencyCouncilOrGovernor",
      "type": "error"
    },
    {
      "inputs": [],
      "name": "NotGovernor",
      "type": "error"
    },
    {
      "inputs": [],
      "name": "NotGovernorOrManager",
      "type": "error"
    },
    {
      "inputs": [],
      "name": "NotLockedNFT",
      "type": "error"
    },
    {
      "inputs": [],
      "name": "NotManagedNFT",
      "type": "error"
    },
    {
      "inputs": [],
      "name": "NotManagedOrNormalNFT",
      "type": "error"
    },
    {
      "inputs": [],
      "name": "NotNormalNFT",
      "type": "error"
    },
    {
      "inputs": [],
      "name": "NotOwner",
      "type": "error"
    },
    {
      "inputs": [],
      "name": "NotPermanentLock",
      "type": "error"
    },
    {
      "inputs": [],
      "name": "NotTeam",
      "type": "error"
    },
    {
      "inputs": [],
      "name": "NotVoter",
      "type": "error"
    },
    {
      "inputs": [],
      "name": "OwnershipChange",
      "type": "error"
    },
    {
      "inputs": [],
      "name": "PermanentLock",
      "type": "error"
    },
    {
      "inputs": [],
      "name": "SafeCastOverflow",
      "type": "error"
    },
    {
      "inputs": [],
      "name": "SafeCastUnderflow",
      "type": "error"
    },
    {
      "inputs": [],
      "name": "SameAddress",
      "type": "error"
    },
    {
      "inputs": [],
      "name": "SameNFT",
      "type": "error"
    },
    {
      "inputs": [],
      "name": "SameState",
      "type": "error"
    },
    {
      "inputs": [],
      "name": "SignatureExpired",
      "type": "error"
    },
    {
      "inputs": [],
      "name": "SplitNoOwner",
      "type": "error"
    },
    {
      "inputs": [],
      "name": "SplitNotAllowed",
      "type": "error"
    },
    {
      "inputs": [],
      "name": "TooManyTokenIDs",
      "type": "error"
    },
    {
      "inputs": [],
      "name": "ZeroAddress",
      "type": "error"
    },
    {
      "inputs": [],
      "name": "ZeroAmount",
      "type": "error"
    },
    {
      "inputs": [],
      "name": "ZeroBalance",
      "type": "error"
    },
    {
      "anonymous": false,
      "inputs": [
        {
          "indexed": true,
          "internalType": "address",
          "name": "owner",
          "type": "address"
        },
        {
          "indexed": true,
          "internalType": "address",
          "name": "approved",
          "type": "address"
        },
        {
          "indexed": true,
          "internalType": "uint256",
          "name": "tokenId",
          "type": "uint256"
        }
      ],
      "name": "Approval",
      "type": "event"
    },
    {
      "anonymous": false,
      "inputs": [
        {
          "indexed": true,
          "internalType": "address",
          "name": "owner",
          "type": "address"
        },
        {
          "indexed": true,
          "internalType": "address",
          "name": "operator",
          "type": "address"
        },
        {
          "indexed": false,
          "internalType": "bool",
          "name": "approved",
          "type": "bool"
        }
      ],
      "name": "ApprovalForAll",
      "type": "event"
    },
    {
      "anonymous": false,
      "inputs": [
        {
          "indexed": false,
          "internalType": "uint256",
          "name": "_fromTokenId",
          "type": "uint256"
        },
        {
          "indexed": false,
          "internalType": "uint256",
          "name": "_toTokenId",
          "type": "uint256"
        }
      ],
      "name": "BatchMetadataUpdate",
      "type": "event"
    },
    {
      "anonymous": false,
      "inputs": [
        {
          "indexed": true,
          "internalType": "address",
          "name": "_to",
          "type": "address"
        },
        {
          "indexed": true,
          "internalType": "uint256",
          "name": "_mTokenId",
          "type": "uint256"
        },
        {
          "indexed": true,
          "internalType": "address",
          "name": "_from",
          "type": "address"
        },
        {
          "indexed": false,
          "internalType": "address",
          "name": "_lockedManagedReward",
          "type": "address"
        },
        {
          "indexed": false,
          "internalType": "address",
          "name": "_freeManagedReward",
          "type": "address"
        }
      ],
      "name": "CreateManaged",
      "type": "event"
    },
    {
      "anonymous": false,
      "inputs": [
        {
          "indexed": true,
          "internalType": "address",
          "name": "delegator",
          "type": "address"
        },
        {
          "indexed": true,
          "internalType": "uint256",
          "name": "fromDelegate",
          "type": "uint256"
        },
        {
          "indexed": true,
          "internalType": "uint256",
          "name": "toDelegate",
          "type": "uint256"
        }
      ],
      "name": "DelegateChanged",
      "type": "event"
    },
    {
      "anonymous": false,
      "inputs": [
        {
          "indexed": true,
          "internalType": "address",
          "name": "delegate",
          "type": "address"
        },
        {
          "indexed": false,
          "internalType": "uint256",
          "name": "previousBalance",
          "type": "uint256"
        },
        {
          "indexed": false,
          "internalType": "uint256",
          "name": "newBalance",
          "type": "uint256"
        }
      ],
      "name": "DelegateVotesChanged",
      "type": "event"
    },
    {
      "anonymous": false,
      "inputs": [
        {
          "indexed": true,
          "internalType": "address",
          "name": "provider",
          "type": "address"
        },
        {
          "indexed": true,
          "internalType": "uint256",
          "name": "tokenId",
          "type": "uint256"
        },
        {
          "indexed": true,
          "internalType": "enum IVotingEscrow.DepositType",
          "name": "depositType",
          "type": "uint8"
        },
        {
          "indexed": false,
          "internalType": "uint256",
          "name": "value",
          "type": "uint256"
        },
        {
          "indexed": false,
          "internalType": "uint256",
          "name": "locktime",
          "type": "uint256"
        },
        {
          "indexed": false,
          "internalType": "uint256",
          "name": "ts",
          "type": "uint256"
        }
      ],
      "name": "Deposit",
      "type": "event"
    },
    {
      "anonymous": false,
      "inputs": [
        {
          "indexed": true,
          "internalType": "address",
          "name": "_owner",
          "type": "address"
        },
        {
          "indexed": true,
          "internalType": "uint256",
          "name": "_tokenId",
          "type": "uint256"
        },
        {
          "indexed": true,
          "internalType": "uint256",
          "name": "_mTokenId",
          "type": "uint256"
        },
        {
          "indexed": false,
          "internalType": "uint256",
          "name": "_weight",
          "type": "uint256"
        },
        {
          "indexed": false,
          "internalType": "uint256",
          "name": "_ts",
          "type": "uint256"
        }
      ],
      "name": "DepositManaged",
      "type": "event"
    },
    {
      "anonymous": false,
      "inputs": [
        {
          "indexed": true,
          "internalType": "address",
          "name": "_owner",
          "type": "address"
        },
        {
          "indexed": true,
          "internalType": "uint256",
          "name": "_tokenId",
          "type": "uint256"
        },
        {
          "indexed": false,
          "internalType": "uint256",
          "name": "amount",
          "type": "uint256"
        },
        {
          "indexed": false,
          "internalType": "uint256",
          "name": "_ts",
          "type": "uint256"
        }
      ],
      "name": "LockPermanent",
      "type": "event"
    },
    {
      "anonymous": false,
      "inputs": [
        {
          "indexed": true,
          "internalType": "address",
          "name": "_sender",
          "type": "address"
        },
        {
          "indexed": true,
          "internalType": "uint256",
          "name": "_from",
          "type": "uint256"
        },
        {
          "indexed": true,
          "internalType": "uint256",
          "name": "_to",
          "type": "uint256"
        },
        {
          "indexed": false,
          "internalType": "uint256",
          "name": "_amountFrom",
          "type": "uint256"
        },
        {
          "indexed": false,
          "internalType": "uint256",
          "name": "_amountTo",
          "type": "uint256"
        },
        {
          "indexed": false,
          "internalType": "uint256",
          "name": "_amountFinal",
          "type": "uint256"
        },
        {
          "indexed": false,
          "internalType": "uint256",
          "name": "_locktime",
          "type": "uint256"
        },
        {
          "indexed": false,
          "internalType": "uint256",
          "name": "_ts",
          "type": "uint256"
        }
      ],
      "name": "Merge",
      "type": "event"
    },
    {
      "anonymous": false,
      "inputs": [
        {
          "indexed": false,
          "internalType": "uint256",
          "name": "_tokenId",
          "type": "uint256"
        }
      ],
      "name": "MetadataUpdate",
      "type": "event"
    },
    {
      "anonymous": false,
      "inputs": [
        {
          "indexed": true,
          "internalType": "address",
          "name": "_allowedManager",
          "type": "address"
        }
      ],
      "name": "SetAllowedManager",
      "type": "event"
    },
    {
      "anonymous": false,
      "inputs": [
        {
          "indexed": true,
          "internalType": "uint256",
          "name": "_from",
          "type": "uint256"
        },
        {
          "indexed": true,
          "internalType": "uint256",
          "name": "_tokenId1",
          "type": "uint256"
        },
        {
          "indexed": true,
          "internalType": "uint256",
          "name": "_tokenId2",
          "type": "uint256"
        },
        {
          "indexed": false,
          "internalType": "address",
          "name": "_sender",
          "type": "address"
        },
        {
          "indexed": false,
          "internalType": "uint256",
          "name": "_splitAmount1",
          "type": "uint256"
        },
        {
          "indexed": false,
          "internalType": "uint256",
          "name": "_splitAmount2",
          "type": "uint256"
        },
        {
          "indexed": false,
          "internalType": "uint256",
          "name": "_locktime",
          "type": "uint256"
        },
        {
          "indexed": false,
          "internalType": "uint256",
          "name": "_ts",
          "type": "uint256"
        }
      ],
      "name": "Split",
      "type": "event"
    },
    {
      "anonymous": false,
      "inputs": [
        {
          "indexed": false,
          "internalType": "uint256",
          "name": "prevSupply",
          "type": "uint256"
        },
        {
          "indexed": false,
          "internalType": "uint256",
          "name": "supply",
          "type": "uint256"
        }
      ],
      "name": "Supply",
      "type": "event"
    },
    {
      "anonymous": false,
      "inputs": [
        {
          "indexed": true,
          "internalType": "address",
          "name": "from",
          "type": "address"
        },
        {
          "indexed": true,
          "internalType": "address",
          "name": "to",
          "type": "address"
        },
        {
          "indexed": true,
          "internalType": "uint256",
          "name": "tokenId",
          "type": "uint256"
        }
      ],
      "name": "Transfer",
      "type": "event"
    },
    {
      "anonymous": false,
      "inputs": [
        {
          "indexed": true,
          "internalType": "address",
          "name": "_owner",
          "type": "address"
        },
        {
          "indexed": true,
          "internalType": "uint256",
          "name": "_tokenId",
          "type": "uint256"
        },
        {
          "indexed": false,
          "internalType": "uint256",
          "name": "amount",
          "type": "uint256"
        },
        {
          "indexed": false,
          "internalType": "uint256",
          "name": "_ts",
          "type": "uint256"
        }
      ],
      "name": "UnlockPermanent",
      "type": "event"
    },
    {
      "anonymous": false,
      "inputs": [
        {
          "indexed": true,
          "internalType": "address",
          "name": "provider",
          "type": "address"
        },
        {
          "indexed": true,
          "internalType": "uint256",
          "name": "tokenId",
          "type": "uint256"
        },
        {
          "indexed": false,
          "internalType": "uint256",
          "name": "value",
          "type": "uint256"
        },
        {
          "indexed": false,
          "internalType": "uint256",
          "name": "ts",
          "type": "uint256"
        }
      ],
      "name": "Withdraw",
      "type": "event"
    },
    {
      "anonymous": false,
      "inputs": [
        {
          "indexed": true,
          "internalType": "address",
          "name": "_owner",
          "type": "address"
        },
        {
          "indexed": true,
          "internalType": "uint256",
          "name": "_tokenId",
          "type": "uint256"
        },
        {
          "indexed": true,
          "internalType": "uint256",
          "name": "_mTokenId",
          "type": "uint256"
        },
        {
          "indexed": false,
          "internalType": "uint256",
          "name": "_weight",
          "type": "uint256"
        },
        {
          "indexed": false,
          "internalType": "uint256",
          "name": "_ts",
          "type": "uint256"
        }
      ],
      "name": "WithdrawManaged",
      "type": "event"
    },
    {
      "inputs": [],
      "name": "CLOCK_MODE",
      "outputs": [
        {
          "internalType": "string",
          "name": "",
          "type": "string"
        }
      ],
      "stateMutability": "pure",
      "type": "function"
    },
    {
      "inputs": [],
      "name": "DELEGATION_TYPEHASH",
      "outputs": [
        {
          "internalType": "bytes32",
          "name": "",
          "type": "bytes32"
        }
      ],
      "stateMutability": "view",
      "type": "function"
    },
    {
      "inputs": [],
      "name": "DOMAIN_TYPEHASH",
      "outputs": [
        {
          "internalType": "bytes32",
          "name": "",
          "type": "bytes32"
        }
      ],
      "stateMutability": "view",
      "type": "function"
    },
    {
      "inputs": [],
      "name": "allowedManager",
      "outputs": [
        {
          "internalType": "address",
          "name": "",
          "type": "address"
        }
      ],
      "stateMutability": "view",
      "type": "function"
    },
    {
      "inputs": [
        {
          "internalType": "address",
          "name": "_approved",
          "type": "address"
        },
        {
          "internalType": "uint256",
          "name": "_tokenId",
          "type": "uint256"
        }
      ],
      "name": "approve",
      "outputs": [],
      "stateMutability": "nonpayable",
      "type": "function"
    },
    {
      "inputs": [],
      "name": "artProxy",
      "outputs": [
        {
          "internalType": "address",
          "name": "",
          "type": "address"
        }
      ],
      "stateMutability": "view",
      "type": "function"
    },
    {
      "inputs": [
        {
          "internalType": "address",
          "name": "_owner",
          "type": "address"
        }
      ],
      "name": "balanceOf",
      "outputs": [
        {
          "internalType": "uint256",
          "name": "",
          "type": "uint256"
        }
      ],
      "stateMutability": "view",
      "type": "function"
    },
    {
      "inputs": [
        {
          "internalType": "uint256",
          "name": "_tokenId",
          "type": "uint256"
        }
      ],
      "name": "balanceOfNFT",
      "outputs": [
        {
          "internalType": "uint256",
          "name": "",
          "type": "uint256"
        }
      ],
      "stateMutability": "view",
      "type": "function"
    },
    {
      "inputs": [
        {
          "internalType": "uint256",
          "name": "_tokenId",
          "type": "uint256"
        },
        {
          "internalType": "uint256",
          "name": "_t",
          "type": "uint256"
        }
      ],
      "name": "balanceOfNFTAt",
      "outputs": [
        {
          "internalType": "uint256",
          "name": "",
          "type": "uint256"
        }
      ],
      "stateMutability": "view",
      "type": "function"
    },
    {
      "inputs": [
        {
          "internalType": "address",
          "name": "",
          "type": "address"
        }
      ],
      "name": "canSplit",
      "outputs": [
        {
          "internalType": "bool",
          "name": "",
          "type": "bool"
        }
      ],
      "stateMutability": "view",
      "type": "function"
    },
    {
      "inputs": [],
      "name": "checkpoint",
      "outputs": [],
      "stateMutability": "nonpayable",
      "type": "function"
    },
    {
      "inputs": [
        {
          "internalType": "uint256",
          "name": "_tokenId",
          "type": "uint256"
        },
        {
          "internalType": "uint48",
          "name": "_index",
          "type": "uint48"
        }
      ],
      "name": "checkpoints",
      "outputs": [
        {
          "components": [
            {
              "internalType": "uint256",
              "name": "fromTimestamp",
              "type": "uint256"
            },
            {
              "internalType": "address",
              "name": "owner",
              "type": "address"
            },
            {
              "internalType": "uint256",
              "name": "delegatedBalance",
              "type": "uint256"
            },
            {
              "internalType": "uint256",
              "name": "delegatee",
              "type": "uint256"
            }
          ],
          "internalType": "struct IVotingEscrow.Checkpoint",
          "name": "",
          "type": "tuple"
        }
      ],
      "stateMutability": "view",
      "type": "function"
    },
    {
      "inputs": [],
      "name": "clock",
      "outputs": [
        {
          "internalType": "uint48",
          "name": "",
          "type": "uint48"
        }
      ],
      "stateMutability": "view",
      "type": "function"
    },
    {
      "inputs": [
        {
          "internalType": "uint256",
          "name": "_value",
          "type": "uint256"
        },
        {
          "internalType": "uint256",
          "name": "_lockDuration",
          "type": "uint256"
        }
      ],
      "name": "createLock",
      "outputs": [
        {
          "internalType": "uint256",
          "name": "",
          "type": "uint256"
        }
      ],
      "stateMutability": "nonpayable",
      "type": "function"
    },
    {
      "inputs": [
        {
          "internalType": "uint256",
          "name": "_value",
          "type": "uint256"
        },
        {
          "internalType": "uint256",
          "name": "_lockDuration",
          "type": "uint256"
        },
        {
          "internalType": "address",
          "name": "_to",
          "type": "address"
        }
      ],
      "name": "createLockFor",
      "outputs": [
        {
          "internalType": "uint256",
          "name": "",
          "type": "uint256"
        }
      ],
      "stateMutability": "nonpayable",
      "type": "function"
    },
    {
      "inputs": [
        {
          "internalType": "address",
          "name": "_to",
          "type": "address"
        }
      ],
      "name": "createManagedLockFor",
      "outputs": [
        {
          "internalType": "uint256",
          "name": "_mTokenId",
          "type": "uint256"
        }
      ],
      "stateMutability": "nonpayable",
      "type": "function"
    },
    {
      "inputs": [
        {
          "internalType": "uint256",
          "name": "",
          "type": "uint256"
        }
      ],
      "name": "deactivated",
      "outputs": [
        {
          "internalType": "bool",
          "name": "",
          "type": "bool"
        }
      ],
      "stateMutability": "view",
      "type": "function"
    },
    {
      "inputs": [],
      "name": "decimals",
      "outputs": [
        {
          "internalType": "uint8",
          "name": "",
          "type": "uint8"
        }
      ],
      "stateMutability": "pure",
      "type": "function"
    },
    {
      "inputs": [
        {
          "internalType": "uint256",
          "name": "delegator",
          "type": "uint256"
        },
        {
          "internalType": "uint256",
          "name": "delegatee",
          "type": "uint256"
        }
      ],
      "name": "delegate",
      "outputs": [],
      "stateMutability": "nonpayable",
      "type": "function"
    },
    {
      "inputs": [
        {
          "internalType": "uint256",
          "name": "delegator",
          "type": "uint256"
        },
        {
          "internalType": "uint256",
          "name": "delegatee",
          "type": "uint256"
        },
        {
          "internalType": "uint256",
          "name": "nonce",
          "type": "uint256"
        },
        {
          "internalType": "uint256",
          "name": "expiry",
          "type": "uint256"
        },
        {
          "internalType": "uint8",
          "name": "v",
          "type": "uint8"
        },
        {
          "internalType": "bytes32",
          "name": "r",
          "type": "bytes32"
        },
        {
          "internalType": "bytes32",
          "name": "s",
          "type": "bytes32"
        }
      ],
      "name": "delegateBySig",
      "outputs": [],
      "stateMutability": "nonpayable",
      "type": "function"
    },
    {
      "inputs": [
        {
          "internalType": "uint256",
          "name": "delegator",
          "type": "uint256"
        }
      ],
      "name": "delegates",
      "outputs": [
        {
          "internalType": "uint256",
          "name": "",
          "type": "uint256"
        }
      ],
      "stateMutability": "view",
      "type": "function"
    },
    {
      "inputs": [
        {
          "internalType": "uint256",
          "name": "_tokenId",
          "type": "uint256"
        },
        {
          "internalType": "uint256",
          "name": "_value",
          "type": "uint256"
        }
      ],
      "name": "depositFor",
      "outputs": [],
      "stateMutability": "nonpayable",
      "type": "function"
    },
    {
      "inputs": [
        {
          "internalType": "uint256",
          "name": "_tokenId",
          "type": "uint256"
        },
        {
          "internalType": "uint256",
          "name": "_mTokenId",
          "type": "uint256"
        }
      ],
      "name": "depositManaged",
      "outputs": [],
      "stateMutability": "nonpayable",
      "type": "function"
    },
    {
      "inputs": [],
      "name": "distributor",
      "outputs": [
        {
          "internalType": "address",
          "name": "",
          "type": "address"
        }
      ],
      "stateMutability": "view",
      "type": "function"
    },
    {
      "inputs": [],
      "name": "epoch",
      "outputs": [
        {
          "internalType": "uint256",
          "name": "",
          "type": "uint256"
        }
      ],
      "stateMutability": "view",
      "type": "function"
    },
    {
      "inputs": [
        {
          "internalType": "uint256",
          "name": "",
          "type": "uint256"
        }
      ],
      "name": "escrowType",
      "outputs": [
        {
          "internalType": "enum IVotingEscrow.EscrowType",
          "name": "",
          "type": "uint8"
        }
      ],
      "stateMutability": "view",
      "type": "function"
    },
    {
      "inputs": [],
      "name": "factoryRegistry",
      "outputs": [
        {
          "internalType": "address",
          "name": "",
          "type": "address"
        }
      ],
      "stateMutability": "view",
      "type": "function"
    },
    {
      "inputs": [],
      "name": "forwarder",
      "outputs": [
        {
          "internalType": "address",
          "name": "",
          "type": "address"
        }
      ],
      "stateMutability": "view",
      "type": "function"
    },
    {
      "inputs": [
        {
          "internalType": "uint256",
          "name": "_tokenId",
          "type": "uint256"
        }
      ],
      "name": "getApproved",
      "outputs": [
        {
          "internalType": "address",
          "name": "",
          "type": "address"
        }
      ],
      "stateMutability": "view",
      "type": "function"
    },
    {
      "inputs": [
        {
          "internalType": "uint256",
          "name": "_timestamp",
          "type": "uint256"
        }
      ],
      "name": "getPastTotalSupply",
      "outputs": [
        {
          "internalType": "uint256",
          "name": "",
          "type": "uint256"
        }
      ],
      "stateMutability": "view",
      "type": "function"
    },
    {
      "inputs": [
        {
          "internalType": "address",
          "name": "_account",
          "type": "address"
        },
        {
          "internalType": "uint256",
          "name": "_tokenId",
          "type": "uint256"
        },
        {
          "internalType": "uint256",
          "name": "_timestamp",
          "type": "uint256"
        }
      ],
      "name": "getPastVotes",
      "outputs": [
        {
          "internalType": "uint256",
          "name": "",
          "type": "uint256"
        }
      ],
      "stateMutability": "view",
      "type": "function"
    },
    {
      "inputs": [
        {
          "internalType": "uint256",
          "name": "",
          "type": "uint256"
        }
      ],
      "name": "idToManaged",
      "outputs": [
        {
          "internalType": "uint256",
          "name": "",
          "type": "uint256"
        }
      ],
      "stateMutability": "view",
      "type": "function"
    },
    {
      "inputs": [
        {
          "internalType": "uint256",
          "name": "_tokenId",
          "type": "uint256"
        },
        {
          "internalType": "uint256",
          "name": "_value",
          "type": "uint256"
        }
      ],
      "name": "increaseAmount",
      "outputs": [],
      "stateMutability": "nonpayable",
      "type": "function"
    },
    {
      "inputs": [
        {
          "internalType": "uint256",
          "name": "_tokenId",
          "type": "uint256"
        },
        {
          "internalType": "uint256",
          "name": "_lockDuration",
          "type": "uint256"
        }
      ],
      "name": "increaseUnlockTime",
      "outputs": [],
      "stateMutability": "nonpayable",
      "type": "function"
    },
    {
      "inputs": [
        {
          "internalType": "address",
          "name": "_owner",
          "type": "address"
        },
        {
          "internalType": "address",
          "name": "_operator",
          "type": "address"
        }
      ],
      "name": "isApprovedForAll",
      "outputs": [
        {
          "internalType": "bool",
          "name": "",
          "type": "bool"
        }
      ],
      "stateMutability": "view",
      "type": "function"
    },
    {
      "inputs": [
        {
          "internalType": "address",
          "name": "_spender",
          "type": "address"
        },
        {
          "internalType": "uint256",
          "name": "_tokenId",
          "type": "uint256"
        }
      ],
      "name": "isApprovedOrOwner",
      "outputs": [
        {
          "internalType": "bool",
          "name": "",
          "type": "bool"
        }
      ],
      "stateMutability": "view",
      "type": "function"
    },
    {
      "inputs": [
        {
          "internalType": "address",
          "name": "forwarder",
          "type": "address"
        }
      ],
      "name": "isTrustedForwarder",
      "outputs": [
        {
          "internalType": "bool",
          "name": "",
          "type": "bool"
        }
      ],
      "stateMutability": "view",
      "type": "function"
    },
    {
      "inputs": [
        {
          "internalType": "uint256",
          "name": "_tokenId",
          "type": "uint256"
        }
      ],
      "name": "lockPermanent",
      "outputs": [],
      "stateMutability": "nonpayable",
      "type": "function"
    },
    {
      "inputs": [
        {
          "internalType": "uint256",
          "name": "_tokenId",
          "type": "uint256"
        }
      ],
      "name": "locked",
      "outputs": [
        {
          "components": [
            {
              "internalType": "int128",
              "name": "amount",
              "type": "int128"
            },
            {
              "internalType": "uint256",
              "name": "end",
              "type": "uint256"
            },
            {
              "internalType": "bool",
              "name": "isPermanent",
              "type": "bool"
            }
          ],
          "internalType": "struct IVotingEscrow.LockedBalance",
          "name": "",
          "type": "tuple"
        }
      ],
      "stateMutability": "view",
      "type": "function"
    },
    {
      "inputs": [
        {
          "internalType": "uint256",
          "name": "",
          "type": "uint256"
        }
      ],
      "name": "managedToFree",
      "outputs": [
        {
          "internalType": "address",
          "name": "",
          "type": "address"
        }
      ],
      "stateMutability": "view",
      "type": "function"
    },
    {
      "inputs": [
        {
          "internalType": "uint256",
          "name": "",
          "type": "uint256"
        }
      ],
      "name": "managedToLocked",
      "outputs": [
        {
          "internalType": "address",
          "name": "",
          "type": "address"
        }
      ],
      "stateMutability": "view",
      "type": "function"
    },
    {
      "inputs": [
        {
          "internalType": "uint256",
          "name": "_from",
          "type": "uint256"
        },
        {
          "internalType": "uint256",
          "name": "_to",
          "type": "uint256"
        }
      ],
      "name": "merge",
      "outputs": [],
      "stateMutability": "nonpayable",
      "type": "function"
    },
    {
      "inputs": [],
      "name": "name",
      "outputs": [
        {
          "internalType": "string",
          "name": "",
          "type": "string"
        }
      ],
      "stateMutability": "pure",
      "type": "function"
    },
    {
      "inputs": [
        {
          "internalType": "address",
          "name": "",
          "type": "address"
        }
      ],
      "name": "nonces",
      "outputs": [
        {
          "internalType": "uint256",
          "name": "",
          "type": "uint256"
        }
      ],
      "stateMutability": "view",
      "type": "function"
    },
    {
      "inputs": [
        {
          "internalType": "uint256",
          "name": "",
          "type": "uint256"
        }
      ],
      "name": "numCheckpoints",
      "outputs": [
        {
          "internalType": "uint48",
          "name": "",
          "type": "uint48"
        }
      ],
      "stateMutability": "view",
      "type": "function"
    },
    {
      "inputs": [
        {
          "internalType": "uint256",
          "name": "_tokenId",
          "type": "uint256"
        }
      ],
      "name": "ownerOf",
      "outputs": [
        {
          "internalType": "address",
          "name": "",
          "type": "address"
        }
      ],
      "stateMutability": "view",
      "type": "function"
    },
    {
      "inputs": [
        {
          "internalType": "address",
          "name": "",
          "type": "address"
        },
        {
          "internalType": "uint256",
          "name": "",
          "type": "uint256"
        }
      ],
      "name": "ownerToNFTokenIdList",
      "outputs": [
        {
          "internalType": "uint256",
          "name": "",
          "type": "uint256"
        }
      ],
      "stateMutability": "view",
      "type": "function"
    },
    {
      "inputs": [],
      "name": "permanentLockBalance",
      "outputs": [
        {
          "internalType": "uint256",
          "name": "",
          "type": "uint256"
        }
      ],
      "stateMutability": "view",
      "type": "function"
    },
    {
      "inputs": [
        {
          "internalType": "uint256",
          "name": "_loc",
          "type": "uint256"
        }
      ],
      "name": "pointHistory",
      "outputs": [
        {
          "components": [
            {
              "internalType": "int128",
              "name": "bias",
              "type": "int128"
            },
            {
              "internalType": "int128",
              "name": "slope",
              "type": "int128"
            },
            {
              "internalType": "uint256",
              "name": "ts",
              "type": "uint256"
            },
            {
              "internalType": "uint256",
              "name": "blk",
              "type": "uint256"
            },
            {
              "internalType": "uint256",
              "name": "permanentLockBalance",
              "type": "uint256"
            }
          ],
          "internalType": "struct IVotingEscrow.GlobalPoint",
          "name": "",
          "type": "tuple"
        }
      ],
      "stateMutability": "view",
      "type": "function"
    },
    {
      "inputs": [
        {
          "internalType": "address",
          "name": "_from",
          "type": "address"
        },
        {
          "internalType": "address",
          "name": "_to",
          "type": "address"
        },
        {
          "internalType": "uint256",
          "name": "_tokenId",
          "type": "uint256"
        }
      ],
      "name": "safeTransferFrom",
      "outputs": [],
      "stateMutability": "nonpayable",
      "type": "function"
    },
    {
      "inputs": [
        {
          "internalType": "address",
          "name": "_from",
          "type": "address"
        },
        {
          "internalType": "address",
          "name": "_to",
          "type": "address"
        },
        {
          "internalType": "uint256",
          "name": "_tokenId",
          "type": "uint256"
        },
        {
          "internalType": "bytes",
          "name": "_data",
          "type": "bytes"
        }
      ],
      "name": "safeTransferFrom",
      "outputs": [],
      "stateMutability": "nonpayable",
      "type": "function"
    },
    {
      "inputs": [
        {
          "internalType": "address",
          "name": "_allowedManager",
          "type": "address"
        }
      ],
      "name": "setAllowedManager",
      "outputs": [],
      "stateMutability": "nonpayable",
      "type": "function"
    },
    {
      "inputs": [
        {
          "internalType": "address",
          "name": "_operator",
          "type": "address"
        },
        {
          "internalType": "bool",
          "name": "_approved",
          "type": "bool"
        }
      ],
      "name": "setApprovalForAll",
      "outputs": [],
      "stateMutability": "nonpayable",
      "type": "function"
    },
    {
      "inputs": [
        {
          "internalType": "address",
          "name": "_proxy",
          "type": "address"
        }
      ],
      "name": "setArtProxy",
      "outputs": [],
      "stateMutability": "nonpayable",
      "type": "function"
    },
    {
      "inputs": [
        {
          "internalType": "uint256",
          "name": "_mTokenId",
          "type": "uint256"
        },
        {
          "internalType": "bool",
          "name": "_state",
          "type": "bool"
        }
      ],
      "name": "setManagedState",
      "outputs": [],
      "stateMutability": "nonpayable",
      "type": "function"
    },
    {
      "inputs": [
        {
          "internalType": "address",
          "name": "_team",
          "type": "address"
        }
      ],
      "name": "setTeam",
      "outputs": [],
      "stateMutability": "nonpayable",
      "type": "function"
    },
    {
      "inputs": [
        {
          "internalType": "address",
          "name": "_voter",
          "type": "address"
        },
        {
          "internalType": "address",
          "name": "_distributor",
          "type": "address"
        }
      ],
      "name": "setVoterAndDistributor",
      "outputs": [],
      "stateMutability": "nonpayable",
      "type": "function"
    },
    {
      "inputs": [
        {
          "internalType": "uint256",
          "name": "",
          "type": "uint256"
        }
      ],
      "name": "slopeChanges",
      "outputs": [
        {
          "internalType": "int128",
          "name": "",
          "type": "int128"
        }
      ],
      "stateMutability": "view",
      "type": "function"
    },
    {
      "inputs": [
        {
          "internalType": "uint256",
          "name": "_from",
          "type": "uint256"
        },
        {
          "internalType": "uint256",
          "name": "_amount",
          "type": "uint256"
        }
      ],
      "name": "split",
      "outputs": [
        {
          "internalType": "uint256",
          "name": "_tokenId1",
          "type": "uint256"
        },
        {
          "internalType": "uint256",
          "name": "_tokenId2",
          "type": "uint256"
        }
      ],
      "stateMutability": "nonpayable",
      "type": "function"
    },
    {
      "inputs": [],
      "name": "supply",
      "outputs": [
        {
          "internalType": "uint256",
          "name": "",
          "type": "uint256"
        }
      ],
      "stateMutability": "view",
      "type": "function"
    },
    {
      "inputs": [
        {
          "internalType": "bytes4",
          "name": "_interfaceID",
          "type": "bytes4"
        }
      ],
      "name": "supportsInterface",
      "outputs": [
        {
          "internalType": "bool",
          "name": "",
          "type": "bool"
        }
      ],
      "stateMutability": "view",
      "type": "function"
    },
    {
      "inputs": [],
      "name": "symbol",
      "outputs": [
        {
          "internalType": "string",
          "name": "",
          "type": "string"
        }
      ],
      "stateMutability": "pure",
      "type": "function"
    },
    {
      "inputs": [],
      "name": "team",
      "outputs": [
        {
          "internalType": "address",
          "name": "",
          "type": "address"
        }
      ],
      "stateMutability": "view",
      "type": "function"
    },
    {
      "inputs": [
        {
          "internalType": "address",
          "name": "_account",
          "type": "address"
        },
        {
          "internalType": "bool",
          "name": "_bool",
          "type": "bool"
        }
      ],
      "name": "toggleSplit",
      "outputs": [],
      "stateMutability": "nonpayable",
      "type": "function"
    },
    {
      "inputs": [],
      "name": "token",
      "outputs": [
        {
          "internalType": "address",
          "name": "",
          "type": "address"
        }
      ],
      "stateMutability": "view",
      "type": "function"
    },
    {
      "inputs": [],
      "name": "tokenId",
      "outputs": [
        {
          "internalType": "uint256",
          "name": "",
          "type": "uint256"
        }
      ],
      "stateMutability": "view",
      "type": "function"
    },
    {
      "inputs": [
        {
          "internalType": "uint256",
          "name": "_tokenId",
          "type": "uint256"
        }
      ],
      "name": "tokenURI",
      "outputs": [
        {
          "internalType": "string",
          "name": "",
          "type": "string"
        }
      ],
      "stateMutability": "view",
      "type": "function"
    },
    {
      "inputs": [],
      "name": "totalSupply",
      "outputs": [
        {
          "internalType": "uint256",
          "name": "",
          "type": "uint256"
        }
      ],
      "stateMutability": "view",
      "type": "function"
    },
    {
      "inputs": [
        {
          "internalType": "uint256",
          "name": "_timestamp",
          "type": "uint256"
        }
      ],
      "name": "totalSupplyAt",
      "outputs": [
        {
          "internalType": "uint256",
          "name": "",
          "type": "uint256"
        }
      ],
      "stateMutability": "view",
      "type": "function"
    },
    {
      "inputs": [
        {
          "internalType": "address",
          "name": "_from",
          "type": "address"
        },
        {
          "internalType": "address",
          "name": "_to",
          "type": "address"
        },
        {
          "internalType": "uint256",
          "name": "_tokenId",
          "type": "uint256"
        }
      ],
      "name": "transferFrom",
      "outputs": [],
      "stateMutability": "nonpayable",
      "type": "function"
    },
    {
      "inputs": [
        {
          "internalType": "uint256",
          "name": "_tokenId",
          "type": "uint256"
        }
      ],
      "name": "unlockPermanent",
      "outputs": [],
      "stateMutability": "nonpayable",
      "type": "function"
    },
    {
      "inputs": [
        {
          "internalType": "uint256",
          "name": "",
          "type": "uint256"
        }
      ],
      "name": "userPointEpoch",
      "outputs": [
        {
          "internalType": "uint256",
          "name": "",
          "type": "uint256"
        }
      ],
      "stateMutability": "view",
      "type": "function"
    },
    {
      "inputs": [
        {
          "internalType": "uint256",
          "name": "_tokenId",
          "type": "uint256"
        },
        {
          "internalType": "uint256",
          "name": "_loc",
          "type": "uint256"
        }
      ],
      "name": "userPointHistory",
      "outputs": [
        {
          "components": [
            {
              "internalType": "int128",
              "name": "bias",
              "type": "int128"
            },
            {
              "internalType": "int128",
              "name": "slope",
              "type": "int128"
            },
            {
              "internalType": "uint256",
              "name": "ts",
              "type": "uint256"
            },
            {
              "internalType": "uint256",
              "name": "blk",
              "type": "uint256"
            },
            {
              "internalType": "uint256",
              "name": "permanent",
              "type": "uint256"
            }
          ],
          "internalType": "struct IVotingEscrow.UserPoint",
          "name": "",
          "type": "tuple"
        }
      ],
      "stateMutability": "view",
      "type": "function"
    },
    {
      "inputs": [],
      "name": "version",
      "outputs": [
        {
          "internalType": "string",
          "name": "",
          "type": "string"
        }
      ],
      "stateMutability": "pure",
      "type": "function"
    },
    {
      "inputs": [
        {
          "internalType": "uint256",
          "name": "",
          "type": "uint256"
        }
      ],
      "name": "voted",
      "outputs": [
        {
          "internalType": "bool",
          "name": "",
          "type": "bool"
        }
      ],
      "stateMutability": "view",
      "type": "function"
    },
    {
      "inputs": [],
      "name": "voter",
      "outputs": [
        {
          "internalType": "address",
          "name": "",
          "type": "address"
        }
      ],
      "stateMutability": "view",
      "type": "function"
    },
    {
      "inputs": [
        {
          "internalType": "uint256",
          "name": "_tokenId",
          "type": "uint256"
        },
        {
          "internalType": "bool",
          "name": "_voted",
          "type": "bool"
        }
      ],
      "name": "voting",
      "outputs": [],
      "stateMutability": "nonpayable",
      "type": "function"
    },
    {
      "inputs": [
        {
          "internalType": "uint256",
          "name": "",
          "type": "uint256"
        },
        {
          "internalType": "uint256",
          "name": "",
          "type": "uint256"
        }
      ],
      "name": "weights",
      "outputs": [
        {
          "internalType": "uint256",
          "name": "",
          "type": "uint256"
        }
      ],
      "stateMutability": "view",
      "type": "function"
    },
    {
      "inputs": [
        {
          "internalType": "uint256",
          "name": "_tokenId",
          "type": "uint256"
        }
      ],
      "name": "withdraw",
      "outputs": [],
      "stateMutability": "nonpayable",
      "type": "function"
    },
    {
      "inputs": [
        {
          "internalType": "uint256",
          "name": "_tokenId",
          "type": "uint256"
        }
      ],
      "name": "withdrawManaged",
      "outputs": [],
      "stateMutability": "nonpayable",
      "type": "function"
    }
  ],
  "transactionHash": "0x7c961585d2bcb46811bd479f1a3aa94c9430fc6661e273e4295de3a55588c791",
  "args": [
    "0x472cf77ec6fe955f0E9bB3B2aa2Ff162ae563218",
    "0x7b7c000000000000000000000000000000000000",
    "0xbB59f486135145aD247B82F9cdF52bE4a58A0B81"
  ],
  "numDeployments": 1,
  "solcInputHash": "6e51939a73557ccc85605868276db4eb",
  "bytecode": "0x6101006040523480156200001257600080fd5b50604051620062f0380380620062f083398101604081905262000035916200026c565b6001600160a01b038084166080819052600160005560a05280831660e052811660c0528282826200006562000227565b600380546001600160a01b0319166001600160a01b03929092169190911790556200008f62000227565b600280546001600160a01b0319166001600160a01b0392909216919091179055437f54cdd369e4e8a8515e52ca72ec816c2101831ad1f18bf44102ed171459c9b4fa55427f54cdd369e4e8a8515e52ca72ec816c2101831ad1f18bf44102ed171459c9b4f95560076020527f1142c8ae8ad77901cd97fce843895a9ccf91a8cbd5b191350a94c1d957b07f74805460ff1990811660019081179092557f2379132be4428a30bdcf8f40c0757cba23c7e3f4204cd933dabcc3d42093e80480548216831790557f7108cf076693445f3e0461801864e91d74eb5e0eee196ef60b5961a16cd35b9380548216831790557fbc48a5b87e2e2cb168c956e8aca8ee5c5d50c657bb1c18b9ad30280d5cf98f5b805482168317905563da287a1d60e01b60009081527f7105fc4c24d760d461c0883f925f50b55888872394b962f52e936e529601d62a8054909216909217905560085460405190913091600080516020620062d0833981519152908290a46008546040516000903090600080516020620062d0833981519152908390a4505050505050620002b6565b6080516000906001600160a01b031633036200024a575060131936013560601c90565b503390565b80516001600160a01b03811681146200026757600080fd5b919050565b6000806000606084860312156200028257600080fd5b6200028d846200024f565b92506200029d602085016200024f565b9150620002ad604085016200024f565b90509250925092565b60805160a05160c05160e051615faf6200032160003960008181610d29015281816112210152818161175a0152818161182601528181613f3e0152614e670152600081816106d70152611f97015260008181610d02015261202a015260006126080152615faf6000f3fe608060405234801561001057600080fd5b50600436106104805760003560e01c806370a0823111610257578063b45a3c0e11610146578063e58f5947116100c3578063ec32e6df11610087578063ec32e6df14610c65578063f04cb3a814610c78578063f52a36f714610cc7578063f645d4f914610cfd578063fc0c546a14610d2457600080fd5b8063e58f594714610bbc578063e75b1c2e14610bdc578063e7a324dc14610bef578063e7e242d414610c16578063e985e9c514610c2957600080fd5b8063c87b56dd1161010a578063c87b56dd14610b5d578063d1c2babb14610b70578063d9a3495214610b83578063e0514aba14610b96578063e0c11f9a14610ba957600080fd5b8063b45a3c0e14610a94578063b52c05fe14610b1c578063b88d4fde14610b2f578063bfe1092814610b42578063c2c4c5c114610b5557600080fd5b806391ddadf4116101d4578063a22cb46511610198578063a22cb46514610a02578063a738da8214610a15578063a899b36c14610a3e578063b1548afc14610a61578063b2383e5514610a8157600080fd5b806391ddadf4146109d657806395d89b41146104de578063981b24d0146109975780639954a989146109dc5780639d507b8b146109ef57600080fd5b80638ad4c4471161021b5780638ad4c447146109595780638bf9d84c1461096c5780638e539e8c146109975780638fbb38ff146109aa578063900cf0cf146109cd57600080fd5b806370a08231146108ba5780637c728000146108e35780637ecebe0014610913578063834b0b691461093357806385f2aef21461094657600080fd5b8063370fb5fa116103735780634bf5d7e9116102f057806354fd4d50116102b457806354fd4d501461084d5780635594a0451461086e578063572b6c05146108815780635a4f459a146108945780636352211e146108a757600080fd5b80634bf5d7e91461079d5780634d01cb66146107c75780634d6fb775146107d057806350589793146107e3578063515857d41461082257600080fd5b806342842e0e1161033757806342842e0e1461071c578063430c20811461072f57806344acb42a1461074257806346c96aac146107625780634b19becc1461077557600080fd5b8063370fb5fa1461069957806337b1f500146106ac5780633a6396a5146106bf5780633bf0c9fb146106d25780633d085a37146106f957600080fd5b806320606b70116104015780632e720f7d116103c55780632e720f7d1461063e5780632f7f9ba914610651578063313ce5671461066457806333230dc01461067357806335b0f6bd1461068657600080fd5b806320606b70146105b557806323b872dd146105dc57806327a6ee98146105ef5780632d0485ec146106185780632e1a7d4d1461062b57600080fd5b8063095ea7b311610448578063095ea7b31461055e5780630ec84dda1461057157806317d70f7c1461058457806318160ddd1461058d57806319a0a9d51461059557600080fd5b806301ffc9a714610485578063047fc9aa146104c757806306fdde03146104de578063081812fc14610508578063095cf5c614610549575b600080fd5b6104b261049336600461573b565b6001600160e01b03191660009081526007602052604090205460ff1690565b60405190151581526020015b60405180910390f35b6104d060175481565b6040519081526020016104be565b604080518082019091526005815264766542544360d81b60208201525b6040516104be91906157a8565b6105316105163660046157bb565b6000908152601160205260409020546001600160a01b031690565b6040516001600160a01b0390911681526020016104be565b61055c6105573660046157e9565b610d4b565b005b61055c61056c366004615806565b610dcf565b61055c61057f366004615832565b610f10565b6104d060085481565b6104d0610f9d565b6104d06105a33660046157bb565b600a6020526000908152604090205481565b6104d07f8cad95687ba82c2ce50e74f7b754645e5117c3a5bec8151c0726d5857980a86681565b61055c6105ea366004615854565b610fad565b6105316105fd3660046157bb565b600e602052600090815260409020546001600160a01b031681565b61055c610626366004615895565b610fc5565b61055c6106393660046157bb565b61102e565b61055c61064c3660046157e9565b6112e2565b600554610531906001600160a01b031681565b604051601281526020016104be565b61055c6106813660046158dc565b611376565b61055c6106943660046157bb565b6113dc565b61055c6106a73660046157bb565b61164b565b61055c6106ba36600461590a565b611c4e565b6104d06106cd3660046157e9565b611e34565b6105317f000000000000000000000000000000000000000000000000000000000000000081565b6104b26107073660046157e9565b601c6020526000908152604090205460ff1681565b61055c61072a366004615854565b612136565b6104b261073d366004615806565b612151565b610755610750366004615832565b612166565b6040516104be919061592f565b600254610531906001600160a01b031681565b610788610783366004615832565b6121e4565b604080519283526020830191909152016104be565b60408051808201909152600e81526d06d6f64653d74696d657374616d760941b60208201526104fb565b6104d0601d5481565b6104d06107de36600461596e565b612561565b61080b6107f13660046157bb565b60216020526000908152604090205465ffffffffffff1681565b60405165ffffffffffff90911681526020016104be565b6104d0610830366004615832565b600b60209081526000928352604080842090915290825290205481565b6040805180820190915260058152640312e302e360dc1b60208201526104fb565b600454610531906001600160a01b031681565b6104b261088f3660046157e9565b612606565b61055c6108a236600461590a565b612638565b6105316108b53660046157bb565b612693565b6104d06108c83660046157e9565b6001600160a01b031660009081526010602052604090205490565b6109066108f13660046157bb565b60096020526000908152604090205460ff1681565b6040516104be91906159b9565b6104d06109213660046157e9565b60226020526000908152604090205481565b61055c6109413660046159e1565b61269e565b600354610531906001600160a01b031681565b6107556109673660046157bb565b6129df565b6104d061097a366004615806565b601460209081526000928352604080842090915290825290205481565b6104d06109a53660046157bb565b612a70565b6104b26109b83660046157bb565b601e6020526000908152604090205460ff1681565b6104d060165481565b4261080b565b61055c6109ea3660046157e9565b612a7b565b61055c6109fd366004615832565b612bca565b61055c610a103660046158dc565b612d9e565b610531610a233660046157bb565b600d602052600090815260409020546001600160a01b031681565b6104b2610a4c3660046157bb565b600c6020526000908152604090205460ff1681565b6104d0610a6f3660046157bb565b6000908152601f602052604090205490565b61055c610a8f366004615832565b612e49565b610af5610aa23660046157bb565b6040805160608082018352600080835260208084018290529284018190529384526018825292829020825193840183528054600f0b84526001810154918401919091526002015460ff1615159082015290565b604080518251600f0b815260208084015190820152918101511515908201526060016104be565b6104d0610b2a366004615832565b612e85565b61055c610b3d366004615ab5565b612ead565b600154610531906001600160a01b031681565b61055c612fd0565b6104fb610b6b3660046157bb565b613022565b61055c610b7e366004615832565b6130c5565b61055c610b91366004615832565b613524565b6104d0610ba4366004615832565b613556565b61055c610bb7366004615832565b613562565b6104d0610bca3660046157bb565b601a6020526000908152604090205481565b61055c610bea3660046157bb565b613a1f565b6104d07f9947d5709c1682eaa3946b2d84115c9c0d1c946b149d76e69b457458b42ea29e81565b6104d0610c243660046157bb565b613c4e565b6104b2610c37366004615895565b6001600160a01b03918216600090815260126020908152604080832093909416825291909152205460ff1690565b6104d0610c73366004615b64565b613c76565b610c8b610c86366004615b9d565b613c97565b6040516104be9190815181526020808301516001600160a01b031690820152604080830151908201526060918201519181019190915260800190565b610cea610cd53660046157bb565b601b60205260009081526040902054600f0b81565b604051600f9190910b81526020016104be565b6105317f000000000000000000000000000000000000000000000000000000000000000081565b6105317f000000000000000000000000000000000000000000000000000000000000000081565b6003546001600160a01b0316610d5f613d28565b6001600160a01b031614610d8657604051633a7cfa5d60e21b815260040160405180910390fd5b6001600160a01b038116610dad5760405163d92e233d60e01b815260040160405180910390fd5b600380546001600160a01b0319166001600160a01b0392909216919091179055565b6000610dd9613d28565b90506000610de683613d4a565b90506001600160a01b038116610e0f5760405163d92e233d60e01b815260040160405180910390fd5b836001600160a01b0316816001600160a01b031603610e415760405163367558c360e01b815260040160405180910390fd5b6000826001600160a01b0316610e5685613d4a565b6001600160a01b0384811660009081526012602090815260408083208985168452909152902054911691909114915060ff16811582610e93575080155b15610eb15760405163390cdd9b60e21b815260040160405180910390fd5b60008581526011602052604080822080546001600160a01b0319166001600160a01b038a811691821790925591518893918716917f8c5be1e5ebec7d5bd14f71427d1e84f3dd0314c0f7b2291e5b200ac8c7c3b92591a4505050505050565b610f18613d65565b600260008381526009602052604090205460ff166002811115610f3d57610f3d6159a3565b148015610f6557506001546001600160a01b0316610f59613d28565b6001600160a01b031614155b15610f835760405163385296d560e01b815260040160405180910390fd5b610f8f82826000613dc3565b610f996001600055565b5050565b6000610fa84261400c565b905090565b610fc0838383610fbb613d28565b61409c565b505050565b6002546001600160a01b0316610fd9613d28565b6001600160a01b0316146110005760405163c18384c160e01b815260040160405180910390fd5b600280546001600160a01b039384166001600160a01b03199182161790915560018054929093169116179055565b611036613d65565b6000611040613d28565b905061104c81836141b8565b6110695760405163390cdd9b60e21b815260040160405180910390fd5b6000828152601e602052604090205460ff161561109957604051637c9a1cf960e01b815260040160405180910390fd5b60008281526009602052604081205460ff1660028111156110bc576110bc6159a3565b146110da576040516317a66f3760e01b815260040160405180910390fd5b60008281526018602090815260409182902082516060810184528154600f0b81526001820154928101929092526002015460ff161580159282019290925290611136576040516334d10f9560e11b815260040160405180910390fd5b806020015142101561115b5760405163342ad40160e11b815260040160405180910390fd5b600061116d8260000151600f0b614222565b90506111788461424e565b6040805160608101825260008082526020808301828152838501838152898452601890925293909120915182546001600160801b0319166001600160801b039091161782559151600182015590516002909101805460ff19169115159190911790556017546111e78282615be3565b601755604080516060810182526000808252602082018190529181019190915261121490869085906142ec565b6112486001600160a01b037f0000000000000000000000000000000000000000000000000000000000000000168584614ab5565b6040805183815242602082015286916001600160a01b038716917f02f25270a4d87bea75db541cdfe559334a275b4a233520ed6c0a2429667cca94910160405180910390a37f5e2aa66efd74cce82b21852e317e5490d9ecc9e6bb953ae24d90851258cc2f5c816112b98482615be3565b6040805192835260208301919091520160405180910390a1505050506112df6001600055565b50565b6003546001600160a01b03166112f6613d28565b6001600160a01b03161461131d57604051633a7cfa5d60e21b815260040160405180910390fd5b600480546001600160a01b0319166001600160a01b038316179055604080516000815260001960208201527f6bd5c950a8d8df17f772f5af37cb3655737899cbf903264b9795592da439661c910160405180910390a150565b6003546001600160a01b031661138a613d28565b6001600160a01b0316146113b157604051633a7cfa5d60e21b815260040160405180910390fd5b6001600160a01b03919091166000908152601c60205260409020805460ff1916911515919091179055565b60006113e6613d28565b90506113f281836141b8565b61140f5760405163390cdd9b60e21b815260040160405180910390fd5b60008281526009602052604081205460ff166002811115611432576114326159a3565b14611450576040516317a66f3760e01b815260040160405180910390fd5b6000828152601e602052604090205460ff161561148057604051637c9a1cf960e01b815260040160405180910390fd5b60008281526018602090815260409182902082516060810184528154600f0b81526001820154928101929092526002015460ff161515918101829052906114da57604051632188f8ab60e01b815260040160405180910390fd5b60006114ec8260000151600f0b614222565b905080601d60008282546115009190615be3565b9091555062093a80905080611519630784ce0042615bf6565b6115239190615c1f565b61152d9190615c33565b6020830152600060408301819052611546908590614b0b565b60008481526018602090815260409182902082516060810184528154600f0b81526001820154928101929092526002015460ff1615159181019190915261158f908590846142ec565b600084815260186020908152604091829020845181546001600160801b0319166001600160801b03909116178155848201516001820155848301516002909101805460ff19169115159190911790558151838152429181019190915285916001600160a01b038616917f668d293c0a181c1f163fd0d3c757239a9c17bd26c5e483150e374455433b27fa91015b60405180910390a3604051848152600080516020615f5a8339815191529060200160405180910390a150505050565b611653613d65565b6000818152600a60205260409020546002546001600160a01b0316611676613d28565b6001600160a01b03161461169d5760405163c18384c160e01b815260040160405180910390fd5b806000036116be5760405163d7caa26160e01b815260040160405180910390fd5b600160008381526009602052604090205460ff1660028111156116e3576116e36159a3565b1461170157604051630fd82f7760e11b815260040160405180910390fd5b6000818152600d6020908152604080832054600e835281842054868552600b8452828520868652909352818420549151633e491d4760e01b81526001600160a01b039182169491909316928490633e491d4790611784907f0000000000000000000000000000000000000000000000000000000000000000908a90600401615c4a565b602060405180830381865afa1580156117a1573d6000803e3d6000fd5b505050506040513d601f19601f820116820180604052508101906117c59190615c63565b905060006117d38284615bf6565b9050600062093a80806117ea630784ce0042615bf6565b6117f49190615c1f565b6117fe9190615c33565b60408051600180825281830190925291925060009190602080830190803683370190505090507f00000000000000000000000000000000000000000000000000000000000000008160008151811061185857611858615c7c565b6001600160a01b03928316602091820292909201015260405163f5f8d36560e01b81529088169063f5f8d36590611895908c908590600401615c92565b600060405180830381600087803b1580156118af57600080fd5b505af11580156118c3573d6000803e3d6000fd5b50505050600060405180606001604052806118dd86614c73565b600f90810b82526020808301879052600060409384018190528e8152601882528390208351606081018552815490930b83526001810154918301919091526002015460ff1615159181019190915290915061193a908b90836142ec565b60008a8152601860209081526040808320845181546001600160801b0319166001600160801b0390911617815584830151600180830191909155858301516002928301805460ff19169115159190911790558d85529382902082516060810184528154600f0b8082529582015494810194909452015460ff16151590820152906119c386614c73565b600f0b126119d25780516119db565b6119db85614c73565b815182906119ea908390615ceb565b600f0b905250601d548510611a0157601d54611a03565b845b601d6000828254611a149190615be3565b909155505060008a8152601f6020526040812054611a33918790614ca1565b60008a81526018602090815260409182902082516060810184528154600f0b81526001820154928101929092526002015460ff16151591810191909152611a7c908b90836142ec565b60008a815260186020908152604091829020835181546001600160801b0319166001600160801b03909116178155908301516001820155828201516002909101805460ff19169115159190911790555163278afc8b60e21b815260048101889052602481018c90526001600160a01b038a1690639e2bf22c90604401600060405180830381600087803b158015611b1257600080fd5b505af1158015611b26573d6000803e3d6000fd5b505060405163278afc8b60e21b8152600481018a9052602481018e90526001600160a01b038b169250639e2bf22c9150604401600060405180830381600087803b158015611b7357600080fd5b505af1158015611b87573d6000803e3d6000fd5b50505060008c8152600a60209081526040808320839055600b82528083208e845282528083208390558e835260099091529020805460ff1916905550898b611bce81613d4a565b6001600160a01b03167f5319474ec1e9d118585a40e615ea37be254007e6bb5b039756c3813c2d1354898842604051611c11929190918252602082015260400190565b60405180910390a46040518b8152600080516020615f5a8339815191529060200160405180910390a1505050505050505050506112df6001600055565b600260009054906101000a90046001600160a01b03166001600160a01b0316637778960e6040518163ffffffff1660e01b8152600401602060405180830381865afa158015611ca1573d6000803e3d6000fd5b505050506040513d601f19601f82011682018060405250810190611cc59190615d18565b6001600160a01b0316611cd6613d28565b6001600160a01b031614158015611d7c5750600260009054906101000a90046001600160a01b03166001600160a01b0316630c340a246040518163ffffffff1660e01b8152600401602060405180830381865afa158015611d3b573d6000803e3d6000fd5b505050506040513d601f19601f82011682018060405250810190611d5f9190615d18565b6001600160a01b0316611d70613d28565b6001600160a01b031614155b15611d9a5760405163459d6a3f60e01b815260040160405180910390fd5b600260008381526009602052604090205460ff166002811115611dbf57611dbf6159a3565b14611ddd5760405163054b1e0160e51b815260040160405180910390fd5b6000828152600c602052604090205481151560ff909116151503611e1457604051631490ad1160e01b815260040160405180910390fd5b6000918252600c6020526040909120805460ff1916911515919091179055565b6000611e3e613d65565b6000611e48613d28565b6005549091506001600160a01b03808316911614801590611ef15750600260009054906101000a90046001600160a01b03166001600160a01b0316630c340a246040518163ffffffff1660e01b8152600401602060405180830381865afa158015611eb7573d6000803e3d6000fd5b505050506040513d601f19601f82011682018060405250810190611edb9190615d18565b6001600160a01b0316816001600160a01b031614155b15611f0f57604051633bc1d15f60e01b815260040160405180910390fd5b600860008154611f1e90615d35565b91829055509150611f2f8383614d1e565b50611f618260008060405180606001604052806000600f0b815260200160008152602001600115158152506001614d7b565b6000828152600960209081526040808320805460ff1916600217905580516301a15ccf60e31b8152905183926001600160a01b037f00000000000000000000000000000000000000000000000000000000000000001692630d0ae67892600480830193928290030181865afa158015611fde573d6000803e3d6000fd5b505050506040513d601f19601f820116820180604052508101906120029190615d18565b60025460405163dabc8e8360e01b81526001600160a01b039283169263dabc8e8392612056927f00000000000000000000000000000000000000000000000000000000000000009290911690600401615d4e565b60408051808303816000875af1158015612074573d6000803e3d6000fd5b505050506040513d601f19601f820116820180604052508101906120989190615d68565b6000868152600d6020908152604080832080546001600160a01b038088166001600160a01b031992831617909255600e909352928190208054848616931692909217909155519294509092508481169186918816907fae65a147ec014982132ce8b32019735e3c5f41457848d2ce2e2c3e0cbc9df7bc9061211c9087908790615d4e565b60405180910390a45050506121316001600055565b919050565b610fc083838360405180602001604052806000815250612ead565b600061215d83836141b8565b90505b92915050565b61216e6156f0565b600083815260196020526040902082633b9aca00811061219057612190615c7c565b6040805160a081018252600492909202929092018054600f81810b8452600160801b909104900b60208301526001810154928201929092526002820154606082015260039091015460808201529392505050565b6000806121ef613d65565b60006121f9613d28565b9050600061220686613d4a565b90506001600160a01b03811661222f57604051632c2151ef60e11b815260040160405180910390fd5b6001600160a01b0381166000908152601c602052604090205460ff16158015612283575060008052601c6020527fb9c6de81004e18dedadca3e5eabaab449ca91dff6f58efc9461da635fe77f8495460ff16155b156122a157604051633df16fd960e21b815260040160405180910390fd5b60008681526009602052604081205460ff1660028111156122c4576122c46159a3565b146122e2576040516317a66f3760e01b815260040160405180910390fd5b6000868152601e602052604090205460ff161561231257604051637c9a1cf960e01b815260040160405180910390fd5b61231c82876141b8565b6123395760405163390cdd9b60e21b815260040160405180910390fd5b60008681526018602090815260409182902082516060810184528154600f0b8152600182015492810183905260029091015460ff16151592810192909252421080159061238857508060400151155b156123a6576040516307b7d7dd60e51b815260040160405180910390fd5b60006123b187614c73565b905080600f0b6000036123d757604051631f2a200560e01b815260040160405180910390fd5b80600f0b8260000151600f0b1361240157604051636b2f218360e01b815260040160405180910390fd5b61240a8861424e565b6040805160608082018352600080835260208084018281528486018381528e845260188352868420955186546001600160801b0319166001600160801b0390911617865590516001860155516002909401805460ff191694151594909417909355835191820184528082529181018290529182015261248c90899084906142ec565b808260000181815161249e9190615ceb565b600f0b9052506124ae8383614f40565b600f82900b835295506124c18383614f40565b600087815260186020526040902054909550859087908a907f8303de8187a6102fdc3fe20c756dddd68df0ae027b77e2391c19a855e0821f3390889061250990600f0b614222565b61251587600f0b614222565b6020808a0151604080516001600160a01b03909616865291850193909352830152606082015242608082015260a00160405180910390a45050505061255a6001600055565b9250929050565b6040516332b53f5360e11b815260216004820152602060248201526001600160a01b03841660448201526064810183905260848101829052600090735E9b95a2CD162382fDF7adb6D3Db03cfb708CbA19063656a7ea69060a401602060405180830381865af41580156125d8573d6000803e3d6000fd5b505050506040513d601f19601f820116820180604052508101906125fc9190615c63565b90505b9392505050565b7f00000000000000000000000000000000000000000000000000000000000000006001600160a01b0390811691161490565b6002546001600160a01b031661264c613d28565b6001600160a01b0316146126735760405163c18384c160e01b815260040160405180910390fd5b6000918252601e6020526040909120805460ff1916911515919091179055565b600061216082613d4a565b6fa2a8918ca85bafe22016d0b997e4df60600160ff1b038111156126d5576040516317e97eb760e31b815260040160405180910390fd5b60007f8cad95687ba82c2ce50e74f7b754645e5117c3a5bec8151c0726d5857980a866306001600160a01b03166306fdde036040518163ffffffff1660e01b8152600401600060405180830381865afa158015612736573d6000803e3d6000fd5b505050506040513d6000823e601f3d908101601f1916820160405261275e9190810190615d97565b80519060200120306001600160a01b03166354fd4d506040518163ffffffff1660e01b8152600401600060405180830381865afa1580156127a3573d6000803e3d6000fd5b505050506040513d6000823e601f3d908101601f191682016040526127cb9190810190615d97565b805160209182012060408051808401959095528481019390935260608401524660808401523060a0808501919091528251808503909101815260c0840183528051908201207f9947d5709c1682eaa3946b2d84115c9c0d1c946b149d76e69b457458b42ea29e60e085015261010084018c905261012084018b905261014084018a90526101608085018a90528351808603909101815261018085019093528251929091019190912061190160f01b6101a08401526101a283018290526101c28301819052909250906000906101e20160408051601f198184030181528282528051602091820120600080855291840180845281905260ff8a169284019290925260608301889052608083018790529092509060019060a0016020604051602081039080840390855afa158015612905573d6000803e3d6000fd5b50505060206040510351905061291b818c6141b8565b6129385760405163390cdd9b60e21b815260040160405180910390fd5b6001600160a01b03811661295f57604051638baa579f60e01b815260040160405180910390fd5b6001600160a01b038116600090815260226020526040812080549161298383615d35565b9190505589146129a657604051633ab3447f60e11b815260040160405180910390fd5b874211156129c757604051630819bdcd60e01b815260040160405180910390fd5b6129d18b8b614b0b565b505050505b50505050505050565b612a176040518060a001604052806000600f0b81526020016000600f0b81526020016000815260200160008152602001600081525090565b50600090815260066020908152604091829020825160a0810184528154600f81810b8352600160801b909104900b9281019290925260018101549282019290925260028201546060820152600390910154608082015290565b60006121608261400c565b600260009054906101000a90046001600160a01b03166001600160a01b0316630c340a246040518163ffffffff1660e01b8152600401602060405180830381865afa158015612ace573d6000803e3d6000fd5b505050506040513d601f19601f82011682018060405250810190612af29190615d18565b6001600160a01b0316612b03613d28565b6001600160a01b031614612b2a57604051633b8d9d7560e21b815260040160405180910390fd5b6005546001600160a01b0390811690821603612b595760405163367558c360e01b815260040160405180910390fd5b6001600160a01b038116612b805760405163d92e233d60e01b815260040160405180910390fd5b600580546001600160a01b0319166001600160a01b0383169081179091556040517f1a6ce72407c68def4b7d2e724c896070d89cf2b2a2dd56b6897b5febd88420f590600090a250565b612bd2613d65565b612be3612bdd613d28565b836141b8565b612c005760405163390cdd9b60e21b815260040160405180910390fd5b60008281526009602052604081205460ff166002811115612c2357612c236159a3565b14612c41576040516317a66f3760e01b815260040160405180910390fd5b60008281526018602090815260409182902082516060810184528154600f0b81526001820154928101929092526002015460ff161580159282019290925290612c9d576040516334d10f9560e11b815260040160405180910390fd5b600062093a8080612cae8542615bf6565b612cb89190615c1f565b612cc29190615c33565b905042826020015111612ce8576040516307b7d7dd60e51b815260040160405180910390fd5b60008260000151600f0b13612d105760405163f90e998d60e01b815260040160405180910390fd5b81602001518111612d3457604051638e6b5b6760e01b815260040160405180910390fd5b612d42630784ce0042615bf6565b811115612d625760405163f761f1cd60e01b815260040160405180910390fd5b612d7184600083856003614d7b565b604051848152600080516020615f5a8339815191529060200160405180910390a15050610f996001600055565b6000612da8613d28565b9050806001600160a01b0316836001600160a01b031603612ddc5760405163367558c360e01b815260040160405180910390fd5b6001600160a01b03818116600081815260126020908152604080832094881680845294825291829020805460ff191687151590811790915591519182527f17307eab39ab6107e8899845ad3d59bd9653f200f220920489ca2b5937696c31910160405180910390a3505050565b612e51613d65565b612e5c612bdd613d28565b612e795760405163390cdd9b60e21b815260040160405180910390fd5b610f8f82826002613dc3565b6000612e8f613d65565b612ea18383612e9c613d28565b614fdb565b90506121606001600055565b6000612eb7613d28565b9050612ec58585858461409c565b833b15612fc957604051630a85bd0160e11b81526001600160a01b0385169063150b7a0290612efe908490899088908890600401615e05565b6020604051808303816000875af1925050508015612f39575060408051601f3d908101601f19168201909252612f3691810190615e42565b60015b612f96573d808015612f67576040519150601f19603f3d011682016040523d82523d6000602084013e612f6c565b606091505b508051600003612f8e57604051626b5e2960e61b815260040160405180910390fd5b805181602001fd5b6001600160e01b03198116630a85bd0160e11b14612fc75760405163279929b160e21b815260040160405180910390fd5b505b5050505050565b612fd8613d65565b6040805160608082018352600080835260208084018290528385018290528451928301855281835282018190529281018390526130169291906142ec565b6130206001600055565b565b6060600061302f83613d4a565b6001600160a01b03160361305657604051634a1850bf60e11b815260040160405180910390fd5b6004805460405163c87b56dd60e01b81529182018490526001600160a01b03169063c87b56dd90602401600060405180830381865afa15801561309d573d6000803e3d6000fd5b505050506040513d6000823e601f3d908101601f191682016040526121609190810190615d97565b6130cd613d65565b60006130d7613d28565b6000848152601e602052604090205490915060ff161561310a57604051637c9a1cf960e01b815260040160405180910390fd5b60008381526009602052604081205460ff16600281111561312d5761312d6159a3565b1461314b576040516317a66f3760e01b815260040160405180910390fd5b60008281526009602052604081205460ff16600281111561316e5761316e6159a3565b1461318c576040516317a66f3760e01b815260040160405180910390fd5b8183036131ac576040516349da877960e11b815260040160405180910390fd5b6131b681846141b8565b6131d35760405163390cdd9b60e21b815260040160405180910390fd5b6131dd81836141b8565b6131fa5760405163390cdd9b60e21b815260040160405180910390fd5b60008281526018602090815260409182902082516060810184528154600f0b8152600182015492810183905260029091015460ff16151592810192909252421080159061324957508060400151155b15613267576040516307b7d7dd60e51b815260040160405180910390fd5b60008481526018602090815260409182902082516060810184528154600f0b81526001820154928101929092526002015460ff1615801592820192909252906132c3576040516334d10f9560e11b815260040160405180910390fd5b60008260200151826020015110156132df5782602001516132e5565b81602001515b90506132f08661424e565b6040805160608082018352600080835260208084018281528486018381528c845260188352868420955186546001600160801b0319166001600160801b0390911617865590516001860155516002909401805460ff191694151594909417909355835191820184528082529181018290529182015261337290879084906142ec565b60408051606081018252600080825260208201819052918101919091528251845161339d9190615e5f565b600f0b8152604080850151158015918301919091526133e05782516133c490600f0b614222565b601d60008282546133d59190615bf6565b909155506133e89050565b602081018290525b6000868152601f60205260409020548351613411919061340a90600f0b614222565b6001614ca1565b61341c8685836142ec565b600086815260186020908152604091829020835181546001600160801b0319166001600160801b03909116178155908301516001820155908201516002909101805460ff19169115159190911790558251869088906001600160a01b038816907f986e3c958e3bdf1f58c2150357fc94624dd4e77b08f9802d8e2e885fa0d6a198906134aa90600f0b614222565b88516134b890600f0b614222565b86516134c690600f0b614222565b6020808901516040805195865291850193909352830152606082015242608082015260a00160405180910390a4604051868152600080516020615f5a833981519152906020015b60405180910390a15050505050610f996001600055565b61352f612bdd613d28565b61354c5760405163390cdd9b60e21b815260040160405180910390fd5b610f998282614b0b565b600061215d83836150ed565b61356a613d65565b6002546001600160a01b031661357e613d28565b6001600160a01b0316146135a55760405163c18384c160e01b815260040160405180910390fd5b600260008281526009602052604090205460ff1660028111156135ca576135ca6159a3565b146135e85760405163054b1e0160e51b815260040160405180910390fd5b60008281526009602052604081205460ff16600281111561360b5761360b6159a3565b14613629576040516317a66f3760e01b815260040160405180910390fd5b61363382426150ed565b6000036136535760405163334ab3f560e11b815260040160405180910390fd5b60008281526018602052604090208054600290910154600f9190910b9060ff16156136a65761368481600f0b614222565b601d60008282546136959190615be3565b909155506136a69050836000614b0b565b60008381526018602090815260408083208151606080820184528254600f0b825260018301548286015260029092015460ff161515818401528251918201835284825292810184905290810192909252613702918591906142ec565b60408051606081018252600080825260208083018281528385018381528884526018909252938220925183546001600160801b0319166001600160801b039091161783559251600183015591516002909101805460ff1916911515919091179055613770600f83900b614222565b905080601d60008282546137849190615bf6565b909155505060008381526018602090815260409182902082516060810184528154600f0b80825260018301549382019390935260029091015460ff16151592810192909252839082906137d8908390615e5f565b600f0b9052506000848152601f60205260409020546137f990836001614ca1565b60008481526018602090815260409182902082516060810184528154600f0b81526001820154928101929092526002015460ff16151591810191909152613842908590836142ec565b6000848152601860209081526040808320845181546001600160801b0319166001600160801b0390911617815584830151600180830191909155858301516002909201805460ff19908116931515939093179055898552600b84528285208986528452828520879055898552600a8452828520899055600984528285208054909216179055868352600d9091529081902054905163f320772360e01b815260048101849052602481018790526001600160a01b0390911690819063f320772390604401600060405180830381600087803b15801561391f57600080fd5b505af1158015613933573d6000803e3d6000fd5b5050506000868152600e60205260409081902054905163f320772360e01b815260048101869052602481018990526001600160a01b039091169150819063f320772390604401600060405180830381600087803b15801561399357600080fd5b505af11580156139a7573d6000803e3d6000fd5b5050505085876139b689613d4a565b6001600160a01b03167ff7757ce35992f4ee014dee2e0c97ed6245758960a6ecc9e124897a5fb7b0142387426040516139f9929190918252602082015260400190565b60405180910390a4604051878152600080516020615f5a8339815191529060200161350d565b6000613a29613d28565b9050613a3581836141b8565b613a525760405163390cdd9b60e21b815260040160405180910390fd5b60008281526009602052604081205460ff166002811115613a7557613a756159a3565b14613a93576040516317a66f3760e01b815260040160405180910390fd5b60008281526018602090815260409182902082516060810184528154600f0b81526001820154928101929092526002015460ff161580159282019290925290613aef576040516334d10f9560e11b815260040160405180910390fd5b42816020015111613b13576040516307b7d7dd60e51b815260040160405180910390fd5b60008160000151600f0b13613b3b5760405163f90e998d60e01b815260040160405180910390fd5b6000613b4d8260000151600f0b614222565b905080601d6000828254613b619190615bf6565b90915550506000602080840182905260016040808601829052878452601883529283902083516060810185528154600f0b8152918101549282019290925260029091015460ff16151591810191909152613bbd908590846142ec565b600084815260186020908152604091829020845181546001600160801b0319166001600160801b03909116178155848201516001820155848301516002909101805460ff19169115159190911790558151838152429181019190915285916001600160a01b038616917f793cb7a30a4bb8669ec607dfcbdc93f5a3e9d282f38191fddab43ccaf79efb80910161161c565b600081815260136020526040812054439003613c6c57506000919050565b61216082426150ed565b6000613c80613d65565b613c8b848484614fdb565b90506125ff6001600055565b613ccb60405180608001604052806000815260200160006001600160a01b0316815260200160008152602001600081525090565b5060009182526020808052604080842065ffffffffffff9390931684529181529181902081516080810183528154815260018201546001600160a01b03169381019390935260028101549183019190915260030154606082015290565b6000613d3333612606565b15613d45575060131936013560601c90565b503390565b6000908152600f60205260409020546001600160a01b031690565b600260005403613dbc5760405162461bcd60e51b815260206004820152601f60248201527f5265656e7472616e637947756172643a207265656e7472616e742063616c6c0060448201526064015b60405180910390fd5b6002600055565b60008381526009602052604090205460ff166001816002811115613de957613de96159a3565b03613e0757604051635eb32db160e11b815260040160405180910390fd5b600084815260186020908152604080832081516060810183528154600f0b81526001820154938101939093526002015460ff1615159082015290849003613e6157604051631f2a200560e01b815260040160405180910390fd5b60008160000151600f0b13613e895760405163f90e998d60e01b815260040160405180910390fd5b42816020015111158015613e9f57508060400151155b15613ebd576040516307b7d7dd60e51b815260040160405180910390fd5b806040015115613edf5783601d6000828254613ed99190615bf6565b90915550505b6000858152601f6020526040902054613efa90856001614ca1565b613f08858560008487614d7b565b6002826002811115613f1c57613f1c6159a3565b03613fe4576000858152600d60205260409020546001600160a01b03908116907f000000000000000000000000000000000000000000000000000000000000000090613f6b9082168388615179565b60405163b66503cf60e01b81526001600160a01b0383169063b66503cf90613f999084908a90600401615c4a565b600060405180830381600087803b158015613fb357600080fd5b505af1158015613fc7573d6000803e3d6000fd5b50613fe1925050506001600160a01b038216836000615179565b50505b604051858152600080516020615f5a8339815191529060200160405180910390a15050505050565b601654604051637259b01960e01b8152601b60048201526006602482015260448101919091526064810182905260009073f6a1CA09e39B32F2D090C0088510f15fcCE5064890637259b01990608401602060405180830381865af4158015614078573d6000803e3d6000fd5b505050506040513d601f19601f820116820180604052508101906121609190615c63565b600160008381526009602052604090205460ff1660028111156140c1576140c16159a3565b036140df57604051635eb32db160e11b815260040160405180910390fd5b6140e981836141b8565b6141065760405163390cdd9b60e21b815260040160405180910390fd5b836001600160a01b031661411983613d4a565b6001600160a01b031614614140576040516330cd747160e01b815260040160405180910390fd5b600082815260116020526040902080546001600160a01b0319169055614166848361527c565b614172826000856152fd565b61417c8383615367565b6000828152601360205260408082204390555183916001600160a01b038087169290881691600080516020615f3a83398151915291a450505050565b6000806141c483613d4a565b6000848152601160209081526040808320546001600160a01b0380861680865260128552838620828c1680885295529290942054949550908214939216149060ff16828061420f5750815b806142175750805b979650505050505050565b60008082600f0b12156142475760405162406f5d60e21b815260040160405180910390fd5b50600f0b90565b6000614258613d28565b905061426481836141b8565b6142815760405163390cdd9b60e21b815260040160405180910390fd5b600061428c83613d4a565b600084815260116020526040812080546001600160a01b03191690559091506142b7908490806152fd565b6142c1818461527c565b60405183906000906001600160a01b03841690600080516020615f3a833981519152908390a4505050565b6142f46156f0565b6142fc6156f0565b6016546000908190871561444f57856040015161431a576000614328565b855161432890600f0b614222565b6080850152602087015142108015614347575060008760000151600f0b135b1561439557865161435d90630784ce0090615e8c565b600f0b6020808701919091528701516143809061437b904290615be3565b614c73565b856020015161438f9190615eca565b600f0b85525b4286602001511180156143af575060008660000151600f0b135b156143f85785516143c590630784ce0090615e8c565b600f0b6020808601919091528601516143e39061437b904290615be3565b84602001516143f29190615eca565b600f0b84525b6020808801516000908152601b8252604090205490870151600f9190910b93501561444f5786602001518660200151036144345782915061444f565b6020808701516000908152601b9091526040902054600f0b91505b6040805160a0810182526000808252602082018190524292820192909252436060820152608081019190915281156144d85750600081815260066020908152604091829020825160a0810184528154600f81810b8352600160801b909104900b928101929092526001810154928201929092526002820154606082015260039091015460808201525b60008160400151905060006040518060a001604052808460000151600f0b81526020018460200151600f0b8152602001846040015181526020018460600151815260200184608001518152509050600083604001514211156145715760408401516145439042615be3565b60608501516145529043615be3565b61456490670de0b6b3a7640000615c33565b61456e9190615c1f565b90505b600062093a806145818186615c1f565b61458b9190615c33565b905060005b60ff81101561470a576145a662093a8083615bf6565b91506000428311156145ba574292506145ce565b506000828152601b6020526040902054600f0b5b6145db61437b8785615be3565b87602001516145ea9190615eca565b875188906145f9908390615ceb565b600f0b905250602087018051829190614613908390615e5f565b600f90810b90915288516000910b1215905061462e57600087525b60008760200151600f0b121561464657600060208801525b60408088018490528501519295508592670de0b6b3a76400009061466a9085615be3565b6146749086615c33565b61467e9190615c1f565b856060015161468d9190615bf6565b606088015261469d600189615bf6565b97504283036146b2575043606087015261470a565b6000888152600660209081526040918290208951918a01516001600160801b03908116600160801b02921691909117815590880151600182015560608801516002820155608088015160039091015550600101614590565b50508b1561479957886020015188602001516147269190615ceb565b846020018181516147379190615e5f565b600f0b9052508851885161474b9190615ceb565b8451859061475a908390615e5f565b600f90810b90915260208601516000910b1215905061477b57600060208501525b60008460000151600f0b121561479057600084525b601d5460808501525b846001141580156147c9575042600660006147b5600189615be3565b815260200190815260200160002060010154145b156148335783600660006147de600189615be3565b815260208082019290925260409081016000208351928401516001600160801b03908116600160801b029316929092178255820151600182015560608201516002820155608090910151600390910155614888565b60168590556000858152600660209081526040918290208651918701516001600160801b03908116600160801b0292169190911781559085015160018201556060850151600282015560808501516003909101555b8b15614aa757428b6020015111156148fa5760208901516148a99088615e5f565b96508a602001518a60200151036148cc5760208801516148c99088615ceb565b96505b60208b8101516000908152601b9091526040902080546001600160801b0319166001600160801b0389161790555b428a602001511115614955578a602001518a6020015111156149555760208801516149259087615ceb565b60208b8101516000908152601b9091526040902080546001600160801b0319166001600160801b03831617905595505b426040808a01919091524360608a015260008d8152601a602052205480158015906149a9575060008d8152601960205260409020429082633b9aca00811061499f5761499f615c7c565b6004020160010154145b15614a1f5760008d8152601960205260409020899082633b9aca0081106149d2576149d2615c7c565b825160208401516001600160801b03908116600160801b02911617600491909102919091019081556040820151600182015560608201516002820155608090910151600390910155614aa5565b614a2881615d35565b60008e8152601a6020908152604080832084905560199091529020909150899082633b9aca008110614a5c57614a5c615c7c565b825160208401516001600160801b03908116600160801b029116176004919091029190910190815560408201516001820155606082015160028201556080909101516003909101555b505b505050505050505050505050565b610fc08363a9059cbb60e01b8484604051602401614ad4929190615c4a565b60408051601f198184030181529190526020810180516001600160e01b03166001600160e01b0319909316929092179091526153f9565b60008281526018602090815260409182902082516060810184528154600f0b81526001820154928101929092526002015460ff16151591810182905290614b6557604051632188f8ab60e01b815260040160405180910390fd5b8115801590614b8557506000614b7a83613d4a565b6001600160a01b0316145b15614ba357604051634a1850bf60e11b815260040160405180910390fd5b600083815260136020526040902054439003614bd2576040516342d6fce760e01b815260040160405180910390fd5b828203614bde57600091505b6000838152601f6020526040902054828103614bfa5750505050565b6000614c0c8360000151600f0b614222565b9050614c218585614c1c88613d4a565b6152fd565b614c2d84826001614ca1565b8382614c37613d28565b6001600160a01b03167ff1aa2a9e40138176a3ee6099df056f5c175f8511a0d8b8275d94d1ea5de4677360405160405180910390a45050505050565b600060016001607f1b03821115614c9d576040516393dafdf160e01b815260040160405180910390fd5b5090565b6040516375f199b960e11b8152602160048201526020602482015260448101849052606481018390528115156084820152735E9b95a2CD162382fDF7adb6D3Db03cfb708CbA19063ebe333729060a4015b60006040518083038186803b158015614d0a57600080fd5b505af41580156129d6573d6000803e3d6000fd5b60006001600160a01b038316614d3657614d36615eea565b614d408383615367565b614d4c826000856152fd565b60405182906001600160a01b03851690600090600080516020615f3a833981519152908290a450600192915050565b601754614d888582615bf6565b6017556040805160608101825260008082526020808301828152838501928352875191880151948801511515909252929052600f9190910b8152614dcb86614c73565b81518290614dda908390615e5f565b600f0b9052508415614dee57602081018590525b600087815260186020908152604091829020835181546001600160801b0319166001600160801b03909116178155908301516001820155908201516002909101805460ff1916911515919091179055614e488785836142ec565b6000614e52613d28565b90508615614e8f57614e8f6001600160a01b037f00000000000000000000000000000000000000000000000000000000000000001682308a6154ce565b836003811115614ea157614ea16159a3565b602083810151604080518b8152928301919091524282820152518a916001600160a01b038516917f8835c22a0c751188de86681e15904223c054bedd5c68ec8858945b78312902739181900360600190a47f5e2aa66efd74cce82b21852e317e5490d9ecc9e6bb953ae24d90851258cc2f5c83614f1e8982615bf6565b6040805192835260208301919091520160405180910390a15050505050505050565b6000600860008154614f5190615d35565b91829055506000818152601860209081526040808320865181546001600160801b0319166001600160801b03909116178155868301516001820155868201516002909101805460ff19169115159190911790558051606081018252838152918201839052810191909152909150614fca908290846142ec565b614fd48382614d1e565b5092915050565b60008062093a8080614fed8642615bf6565b614ff79190615c1f565b6150019190615c33565b90508460000361502457604051631f2a200560e01b815260040160405180910390fd5b42811161504457604051638e6b5b6760e01b815260040160405180910390fd5b615052630784ce0042615bf6565b8111156150725760405163f761f1cd60e01b815260040160405180910390fd5b600060086000815461508390615d35565b918290555090506150948482614d1e565b5060008181526018602090815260409182902082516060810184528154600f0b81526001808301549382019390935260029091015460ff161515928101929092526150e491839189918691614d7b565b95945050505050565b604051637b29b3d160e01b8152601a600482015260196024820152604481018390526064810182905260009073f6a1CA09e39B32F2D090C0088510f15fcCE5064890637b29b3d190608401602060405180830381865af4158015615155573d6000803e3d6000fd5b505050506040513d601f19601f8201168201806040525081019061215d9190615c63565b8015806151f25750604051636eb1769f60e11b81526001600160a01b0384169063dd62ed3e906151af9030908690600401615d4e565b602060405180830381865afa1580156151cc573d6000803e3d6000fd5b505050506040513d601f19601f820116820180604052508101906151f09190615c63565b155b61525d5760405162461bcd60e51b815260206004820152603660248201527f5361666545524332303a20617070726f76652066726f6d206e6f6e2d7a65726f60448201527520746f206e6f6e2d7a65726f20616c6c6f77616e636560501b6064820152608401613db3565b610fc08363095ea7b360e01b8484604051602401614ad4929190615c4a565b816001600160a01b031661528f82613d4a565b6001600160a01b0316146152a5576152a5615eea565b6000818152600f6020526040902080546001600160a01b03191690556152cb828261550c565b6001600160a01b03821660009081526010602052604081208054600192906152f4908490615be3565b90915550505050565b60405163690f66bf60e01b8152601860048201526021602482015260206044820152601f60648201526084810184905260a481018390526001600160a01b03821660c4820152735E9b95a2CD162382fDF7adb6D3Db03cfb708CbA19063690f66bf9060e401614cf2565b600061537282613d4a565b6001600160a01b03161461538857615388615eea565b6000818152600f6020908152604080832080546001600160a01b0319166001600160a01b0387169081179091558084526010808452828520805460148652848720818852865284872088905587875260158652938620939093559084529091528054600192906152f4908490615bf6565b600061544e826040518060400160405280602081526020017f5361666545524332303a206c6f772d6c6576656c2063616c6c206661696c6564815250856001600160a01b03166155cb9092919063ffffffff16565b905080516000148061546f57508080602001905181019061546f9190615f00565b610fc05760405162461bcd60e51b815260206004820152602a60248201527f5361666545524332303a204552433230206f7065726174696f6e20646964206e6044820152691bdd081cdd58d8d9595960b21b6064820152608401613db3565b6040516001600160a01b03808516602483015283166044820152606481018290526155069085906323b872dd60e01b90608401614ad4565b50505050565b6001600160a01b03821660009081526010602052604081205461553190600190615be3565b600083815260156020526040902054909150808203615580576001600160a01b038416600090815260146020908152604080832085845282528083208390558583526015909152812055615506565b6001600160a01b039390931660009081526014602090815260408083209383529281528282208054868452848420819055835260159091528282209490945592839055908252812055565b60606125fc848460008585600080866001600160a01b031685876040516155f29190615f1d565b60006040518083038185875af1925050503d806000811461562f576040519150601f19603f3d011682016040523d82523d6000602084013e615634565b606091505b509150915061564587838387615652565b925050505b949350505050565b606083156156c15782516000036156ba576001600160a01b0385163b6156ba5760405162461bcd60e51b815260206004820152601d60248201527f416464726573733a2063616c6c20746f206e6f6e2d636f6e74726163740000006044820152606401613db3565b508161564a565b61564a83838151156156d65781518083602001fd5b8060405162461bcd60e51b8152600401613db391906157a8565b6040518060a001604052806000600f0b81526020016000600f0b81526020016000815260200160008152602001600081525090565b6001600160e01b0319811681146112df57600080fd5b60006020828403121561574d57600080fd5b81356125ff81615725565b60005b8381101561577357818101518382015260200161575b565b50506000910152565b60008151808452615794816020860160208601615758565b601f01601f19169290920160200192915050565b60208152600061215d602083018461577c565b6000602082840312156157cd57600080fd5b5035919050565b6001600160a01b03811681146112df57600080fd5b6000602082840312156157fb57600080fd5b81356125ff816157d4565b6000806040838503121561581957600080fd5b8235615824816157d4565b946020939093013593505050565b6000806040838503121561584557600080fd5b50508035926020909101359150565b60008060006060848603121561586957600080fd5b8335615874816157d4565b92506020840135615884816157d4565b929592945050506040919091013590565b600080604083850312156158a857600080fd5b82356158b3816157d4565b915060208301356158c3816157d4565b809150509250929050565b80151581146112df57600080fd5b600080604083850312156158ef57600080fd5b82356158fa816157d4565b915060208301356158c3816158ce565b6000806040838503121561591d57600080fd5b8235915060208301356158c3816158ce565b60a0810161216082848051600f0b82526020810151600f0b60208301526040810151604083015260608101516060830152608081015160808301525050565b60008060006060848603121561598357600080fd5b833561598e816157d4565b95602085013595506040909401359392505050565b634e487b7160e01b600052602160045260246000fd5b60208101600383106159db57634e487b7160e01b600052602160045260246000fd5b91905290565b600080600080600080600060e0888a0312156159fc57600080fd5b87359650602088013595506040880135945060608801359350608088013560ff81168114615a2957600080fd5b9699959850939692959460a0840135945060c09093013592915050565b634e487b7160e01b600052604160045260246000fd5b604051601f8201601f1916810167ffffffffffffffff81118282101715615a8557615a85615a46565b604052919050565b600067ffffffffffffffff821115615aa757615aa7615a46565b50601f01601f191660200190565b60008060008060808587031215615acb57600080fd5b8435615ad6816157d4565b93506020850135615ae6816157d4565b925060408501359150606085013567ffffffffffffffff811115615b0957600080fd5b8501601f81018713615b1a57600080fd5b8035615b2d615b2882615a8d565b615a5c565b818152886020838501011115615b4257600080fd5b8160208401602083013760006020838301015280935050505092959194509250565b600080600060608486031215615b7957600080fd5b83359250602084013591506040840135615b92816157d4565b809150509250925092565b60008060408385031215615bb057600080fd5b82359150602083013565ffffffffffff811681146158c357600080fd5b634e487b7160e01b600052601160045260246000fd5b8181038181111561216057612160615bcd565b8082018082111561216057612160615bcd565b634e487b7160e01b600052601260045260246000fd5b600082615c2e57615c2e615c09565b500490565b808202811582820484141761216057612160615bcd565b6001600160a01b03929092168252602082015260400190565b600060208284031215615c7557600080fd5b5051919050565b634e487b7160e01b600052603260045260246000fd5b60006040820184835260206040602085015281855180845260608601915060208701935060005b81811015615cde5784516001600160a01b031683529383019391830191600101615cb9565b5090979650505050505050565b600f82810b9082900b0360016001607f1b0319811260016001607f1b038213171561216057612160615bcd565b600060208284031215615d2a57600080fd5b81516125ff816157d4565b600060018201615d4757615d47615bcd565b5060010190565b6001600160a01b0392831681529116602082015260400190565b60008060408385031215615d7b57600080fd5b8251615d86816157d4565b60208401519092506158c3816157d4565b600060208284031215615da957600080fd5b815167ffffffffffffffff811115615dc057600080fd5b8201601f81018413615dd157600080fd5b8051615ddf615b2882615a8d565b818152856020838501011115615df457600080fd5b6150e4826020830160208601615758565b6001600160a01b0385811682528416602082015260408101839052608060608201819052600090615e389083018461577c565b9695505050505050565b600060208284031215615e5457600080fd5b81516125ff81615725565b600f81810b9083900b0160016001607f1b03811360016001607f1b03198212171561216057612160615bcd565b600081600f0b83600f0b80615ea357615ea3615c09565b60016001607f1b0319821460001982141615615ec157615ec1615bcd565b90059392505050565b600082600f0b82600f0b0280600f0b9150808214614fd457614fd4615bcd565b634e487b7160e01b600052600160045260246000fd5b600060208284031215615f1257600080fd5b81516125ff816158ce565b60008251615f2f818460208701615758565b919091019291505056feddf252ad1be2c89b69c2b068fc378daa952ba7f163c4a11628f55a4df523b3eff8e1a15aba9398e019f0b49df1a4fde98ee17ae345cb5f6b5e2c27f5033e8ce7a264697066735822122002bc500d1824937c5e80fdb1bb185d4e070baa28db46698f49c8ae5a8519eccc64736f6c63430008180033ddf252ad1be2c89b69c2b068fc378daa952ba7f163c4a11628f55a4df523b3ef",
  "deployedBytecode": "0x608060405234801561001057600080fd5b50600436106104805760003560e01c806370a0823111610257578063b45a3c0e11610146578063e58f5947116100c3578063ec32e6df11610087578063ec32e6df14610c65578063f04cb3a814610c78578063f52a36f714610cc7578063f645d4f914610cfd578063fc0c546a14610d2457600080fd5b8063e58f594714610bbc578063e75b1c2e14610bdc578063e7a324dc14610bef578063e7e242d414610c16578063e985e9c514610c2957600080fd5b8063c87b56dd1161010a578063c87b56dd14610b5d578063d1c2babb14610b70578063d9a3495214610b83578063e0514aba14610b96578063e0c11f9a14610ba957600080fd5b8063b45a3c0e14610a94578063b52c05fe14610b1c578063b88d4fde14610b2f578063bfe1092814610b42578063c2c4c5c114610b5557600080fd5b806391ddadf4116101d4578063a22cb46511610198578063a22cb46514610a02578063a738da8214610a15578063a899b36c14610a3e578063b1548afc14610a61578063b2383e5514610a8157600080fd5b806391ddadf4146109d657806395d89b41146104de578063981b24d0146109975780639954a989146109dc5780639d507b8b146109ef57600080fd5b80638ad4c4471161021b5780638ad4c447146109595780638bf9d84c1461096c5780638e539e8c146109975780638fbb38ff146109aa578063900cf0cf146109cd57600080fd5b806370a08231146108ba5780637c728000146108e35780637ecebe0014610913578063834b0b691461093357806385f2aef21461094657600080fd5b8063370fb5fa116103735780634bf5d7e9116102f057806354fd4d50116102b457806354fd4d501461084d5780635594a0451461086e578063572b6c05146108815780635a4f459a146108945780636352211e146108a757600080fd5b80634bf5d7e91461079d5780634d01cb66146107c75780634d6fb775146107d057806350589793146107e3578063515857d41461082257600080fd5b806342842e0e1161033757806342842e0e1461071c578063430c20811461072f57806344acb42a1461074257806346c96aac146107625780634b19becc1461077557600080fd5b8063370fb5fa1461069957806337b1f500146106ac5780633a6396a5146106bf5780633bf0c9fb146106d25780633d085a37146106f957600080fd5b806320606b70116104015780632e720f7d116103c55780632e720f7d1461063e5780632f7f9ba914610651578063313ce5671461066457806333230dc01461067357806335b0f6bd1461068657600080fd5b806320606b70146105b557806323b872dd146105dc57806327a6ee98146105ef5780632d0485ec146106185780632e1a7d4d1461062b57600080fd5b8063095ea7b311610448578063095ea7b31461055e5780630ec84dda1461057157806317d70f7c1461058457806318160ddd1461058d57806319a0a9d51461059557600080fd5b806301ffc9a714610485578063047fc9aa146104c757806306fdde03146104de578063081812fc14610508578063095cf5c614610549575b600080fd5b6104b261049336600461573b565b6001600160e01b03191660009081526007602052604090205460ff1690565b60405190151581526020015b60405180910390f35b6104d060175481565b6040519081526020016104be565b604080518082019091526005815264766542544360d81b60208201525b6040516104be91906157a8565b6105316105163660046157bb565b6000908152601160205260409020546001600160a01b031690565b6040516001600160a01b0390911681526020016104be565b61055c6105573660046157e9565b610d4b565b005b61055c61056c366004615806565b610dcf565b61055c61057f366004615832565b610f10565b6104d060085481565b6104d0610f9d565b6104d06105a33660046157bb565b600a6020526000908152604090205481565b6104d07f8cad95687ba82c2ce50e74f7b754645e5117c3a5bec8151c0726d5857980a86681565b61055c6105ea366004615854565b610fad565b6105316105fd3660046157bb565b600e602052600090815260409020546001600160a01b031681565b61055c610626366004615895565b610fc5565b61055c6106393660046157bb565b61102e565b61055c61064c3660046157e9565b6112e2565b600554610531906001600160a01b031681565b604051601281526020016104be565b61055c6106813660046158dc565b611376565b61055c6106943660046157bb565b6113dc565b61055c6106a73660046157bb565b61164b565b61055c6106ba36600461590a565b611c4e565b6104d06106cd3660046157e9565b611e34565b6105317f000000000000000000000000000000000000000000000000000000000000000081565b6104b26107073660046157e9565b601c6020526000908152604090205460ff1681565b61055c61072a366004615854565b612136565b6104b261073d366004615806565b612151565b610755610750366004615832565b612166565b6040516104be919061592f565b600254610531906001600160a01b031681565b610788610783366004615832565b6121e4565b604080519283526020830191909152016104be565b60408051808201909152600e81526d06d6f64653d74696d657374616d760941b60208201526104fb565b6104d0601d5481565b6104d06107de36600461596e565b612561565b61080b6107f13660046157bb565b60216020526000908152604090205465ffffffffffff1681565b60405165ffffffffffff90911681526020016104be565b6104d0610830366004615832565b600b60209081526000928352604080842090915290825290205481565b6040805180820190915260058152640312e302e360dc1b60208201526104fb565b600454610531906001600160a01b031681565b6104b261088f3660046157e9565b612606565b61055c6108a236600461590a565b612638565b6105316108b53660046157bb565b612693565b6104d06108c83660046157e9565b6001600160a01b031660009081526010602052604090205490565b6109066108f13660046157bb565b60096020526000908152604090205460ff1681565b6040516104be91906159b9565b6104d06109213660046157e9565b60226020526000908152604090205481565b61055c6109413660046159e1565b61269e565b600354610531906001600160a01b031681565b6107556109673660046157bb565b6129df565b6104d061097a366004615806565b601460209081526000928352604080842090915290825290205481565b6104d06109a53660046157bb565b612a70565b6104b26109b83660046157bb565b601e6020526000908152604090205460ff1681565b6104d060165481565b4261080b565b61055c6109ea3660046157e9565b612a7b565b61055c6109fd366004615832565b612bca565b61055c610a103660046158dc565b612d9e565b610531610a233660046157bb565b600d602052600090815260409020546001600160a01b031681565b6104b2610a4c3660046157bb565b600c6020526000908152604090205460ff1681565b6104d0610a6f3660046157bb565b6000908152601f602052604090205490565b61055c610a8f366004615832565b612e49565b610af5610aa23660046157bb565b6040805160608082018352600080835260208084018290529284018190529384526018825292829020825193840183528054600f0b84526001810154918401919091526002015460ff1615159082015290565b604080518251600f0b815260208084015190820152918101511515908201526060016104be565b6104d0610b2a366004615832565b612e85565b61055c610b3d366004615ab5565b612ead565b600154610531906001600160a01b031681565b61055c612fd0565b6104fb610b6b3660046157bb565b613022565b61055c610b7e366004615832565b6130c5565b61055c610b91366004615832565b613524565b6104d0610ba4366004615832565b613556565b61055c610bb7366004615832565b613562565b6104d0610bca3660046157bb565b601a6020526000908152604090205481565b61055c610bea3660046157bb565b613a1f565b6104d07f9947d5709c1682eaa3946b2d84115c9c0d1c946b149d76e69b457458b42ea29e81565b6104d0610c243660046157bb565b613c4e565b6104b2610c37366004615895565b6001600160a01b03918216600090815260126020908152604080832093909416825291909152205460ff1690565b6104d0610c73366004615b64565b613c76565b610c8b610c86366004615b9d565b613c97565b6040516104be9190815181526020808301516001600160a01b031690820152604080830151908201526060918201519181019190915260800190565b610cea610cd53660046157bb565b601b60205260009081526040902054600f0b81565b604051600f9190910b81526020016104be565b6105317f000000000000000000000000000000000000000000000000000000000000000081565b6105317f000000000000000000000000000000000000000000000000000000000000000081565b6003546001600160a01b0316610d5f613d28565b6001600160a01b031614610d8657604051633a7cfa5d60e21b815260040160405180910390fd5b6001600160a01b038116610dad5760405163d92e233d60e01b815260040160405180910390fd5b600380546001600160a01b0319166001600160a01b0392909216919091179055565b6000610dd9613d28565b90506000610de683613d4a565b90506001600160a01b038116610e0f5760405163d92e233d60e01b815260040160405180910390fd5b836001600160a01b0316816001600160a01b031603610e415760405163367558c360e01b815260040160405180910390fd5b6000826001600160a01b0316610e5685613d4a565b6001600160a01b0384811660009081526012602090815260408083208985168452909152902054911691909114915060ff16811582610e93575080155b15610eb15760405163390cdd9b60e21b815260040160405180910390fd5b60008581526011602052604080822080546001600160a01b0319166001600160a01b038a811691821790925591518893918716917f8c5be1e5ebec7d5bd14f71427d1e84f3dd0314c0f7b2291e5b200ac8c7c3b92591a4505050505050565b610f18613d65565b600260008381526009602052604090205460ff166002811115610f3d57610f3d6159a3565b148015610f6557506001546001600160a01b0316610f59613d28565b6001600160a01b031614155b15610f835760405163385296d560e01b815260040160405180910390fd5b610f8f82826000613dc3565b610f996001600055565b5050565b6000610fa84261400c565b905090565b610fc0838383610fbb613d28565b61409c565b505050565b6002546001600160a01b0316610fd9613d28565b6001600160a01b0316146110005760405163c18384c160e01b815260040160405180910390fd5b600280546001600160a01b039384166001600160a01b03199182161790915560018054929093169116179055565b611036613d65565b6000611040613d28565b905061104c81836141b8565b6110695760405163390cdd9b60e21b815260040160405180910390fd5b6000828152601e602052604090205460ff161561109957604051637c9a1cf960e01b815260040160405180910390fd5b60008281526009602052604081205460ff1660028111156110bc576110bc6159a3565b146110da576040516317a66f3760e01b815260040160405180910390fd5b60008281526018602090815260409182902082516060810184528154600f0b81526001820154928101929092526002015460ff161580159282019290925290611136576040516334d10f9560e11b815260040160405180910390fd5b806020015142101561115b5760405163342ad40160e11b815260040160405180910390fd5b600061116d8260000151600f0b614222565b90506111788461424e565b6040805160608101825260008082526020808301828152838501838152898452601890925293909120915182546001600160801b0319166001600160801b039091161782559151600182015590516002909101805460ff19169115159190911790556017546111e78282615be3565b601755604080516060810182526000808252602082018190529181019190915261121490869085906142ec565b6112486001600160a01b037f0000000000000000000000000000000000000000000000000000000000000000168584614ab5565b6040805183815242602082015286916001600160a01b038716917f02f25270a4d87bea75db541cdfe559334a275b4a233520ed6c0a2429667cca94910160405180910390a37f5e2aa66efd74cce82b21852e317e5490d9ecc9e6bb953ae24d90851258cc2f5c816112b98482615be3565b6040805192835260208301919091520160405180910390a1505050506112df6001600055565b50565b6003546001600160a01b03166112f6613d28565b6001600160a01b03161461131d57604051633a7cfa5d60e21b815260040160405180910390fd5b600480546001600160a01b0319166001600160a01b038316179055604080516000815260001960208201527f6bd5c950a8d8df17f772f5af37cb3655737899cbf903264b9795592da439661c910160405180910390a150565b6003546001600160a01b031661138a613d28565b6001600160a01b0316146113b157604051633a7cfa5d60e21b815260040160405180910390fd5b6001600160a01b03919091166000908152601c60205260409020805460ff1916911515919091179055565b60006113e6613d28565b90506113f281836141b8565b61140f5760405163390cdd9b60e21b815260040160405180910390fd5b60008281526009602052604081205460ff166002811115611432576114326159a3565b14611450576040516317a66f3760e01b815260040160405180910390fd5b6000828152601e602052604090205460ff161561148057604051637c9a1cf960e01b815260040160405180910390fd5b60008281526018602090815260409182902082516060810184528154600f0b81526001820154928101929092526002015460ff161515918101829052906114da57604051632188f8ab60e01b815260040160405180910390fd5b60006114ec8260000151600f0b614222565b905080601d60008282546115009190615be3565b9091555062093a80905080611519630784ce0042615bf6565b6115239190615c1f565b61152d9190615c33565b6020830152600060408301819052611546908590614b0b565b60008481526018602090815260409182902082516060810184528154600f0b81526001820154928101929092526002015460ff1615159181019190915261158f908590846142ec565b600084815260186020908152604091829020845181546001600160801b0319166001600160801b03909116178155848201516001820155848301516002909101805460ff19169115159190911790558151838152429181019190915285916001600160a01b038616917f668d293c0a181c1f163fd0d3c757239a9c17bd26c5e483150e374455433b27fa91015b60405180910390a3604051848152600080516020615f5a8339815191529060200160405180910390a150505050565b611653613d65565b6000818152600a60205260409020546002546001600160a01b0316611676613d28565b6001600160a01b03161461169d5760405163c18384c160e01b815260040160405180910390fd5b806000036116be5760405163d7caa26160e01b815260040160405180910390fd5b600160008381526009602052604090205460ff1660028111156116e3576116e36159a3565b1461170157604051630fd82f7760e11b815260040160405180910390fd5b6000818152600d6020908152604080832054600e835281842054868552600b8452828520868652909352818420549151633e491d4760e01b81526001600160a01b039182169491909316928490633e491d4790611784907f0000000000000000000000000000000000000000000000000000000000000000908a90600401615c4a565b602060405180830381865afa1580156117a1573d6000803e3d6000fd5b505050506040513d601f19601f820116820180604052508101906117c59190615c63565b905060006117d38284615bf6565b9050600062093a80806117ea630784ce0042615bf6565b6117f49190615c1f565b6117fe9190615c33565b60408051600180825281830190925291925060009190602080830190803683370190505090507f00000000000000000000000000000000000000000000000000000000000000008160008151811061185857611858615c7c565b6001600160a01b03928316602091820292909201015260405163f5f8d36560e01b81529088169063f5f8d36590611895908c908590600401615c92565b600060405180830381600087803b1580156118af57600080fd5b505af11580156118c3573d6000803e3d6000fd5b50505050600060405180606001604052806118dd86614c73565b600f90810b82526020808301879052600060409384018190528e8152601882528390208351606081018552815490930b83526001810154918301919091526002015460ff1615159181019190915290915061193a908b90836142ec565b60008a8152601860209081526040808320845181546001600160801b0319166001600160801b0390911617815584830151600180830191909155858301516002928301805460ff19169115159190911790558d85529382902082516060810184528154600f0b8082529582015494810194909452015460ff16151590820152906119c386614c73565b600f0b126119d25780516119db565b6119db85614c73565b815182906119ea908390615ceb565b600f0b905250601d548510611a0157601d54611a03565b845b601d6000828254611a149190615be3565b909155505060008a8152601f6020526040812054611a33918790614ca1565b60008a81526018602090815260409182902082516060810184528154600f0b81526001820154928101929092526002015460ff16151591810191909152611a7c908b90836142ec565b60008a815260186020908152604091829020835181546001600160801b0319166001600160801b03909116178155908301516001820155828201516002909101805460ff19169115159190911790555163278afc8b60e21b815260048101889052602481018c90526001600160a01b038a1690639e2bf22c90604401600060405180830381600087803b158015611b1257600080fd5b505af1158015611b26573d6000803e3d6000fd5b505060405163278afc8b60e21b8152600481018a9052602481018e90526001600160a01b038b169250639e2bf22c9150604401600060405180830381600087803b158015611b7357600080fd5b505af1158015611b87573d6000803e3d6000fd5b50505060008c8152600a60209081526040808320839055600b82528083208e845282528083208390558e835260099091529020805460ff1916905550898b611bce81613d4a565b6001600160a01b03167f5319474ec1e9d118585a40e615ea37be254007e6bb5b039756c3813c2d1354898842604051611c11929190918252602082015260400190565b60405180910390a46040518b8152600080516020615f5a8339815191529060200160405180910390a1505050505050505050506112df6001600055565b600260009054906101000a90046001600160a01b03166001600160a01b0316637778960e6040518163ffffffff1660e01b8152600401602060405180830381865afa158015611ca1573d6000803e3d6000fd5b505050506040513d601f19601f82011682018060405250810190611cc59190615d18565b6001600160a01b0316611cd6613d28565b6001600160a01b031614158015611d7c5750600260009054906101000a90046001600160a01b03166001600160a01b0316630c340a246040518163ffffffff1660e01b8152600401602060405180830381865afa158015611d3b573d6000803e3d6000fd5b505050506040513d601f19601f82011682018060405250810190611d5f9190615d18565b6001600160a01b0316611d70613d28565b6001600160a01b031614155b15611d9a5760405163459d6a3f60e01b815260040160405180910390fd5b600260008381526009602052604090205460ff166002811115611dbf57611dbf6159a3565b14611ddd5760405163054b1e0160e51b815260040160405180910390fd5b6000828152600c602052604090205481151560ff909116151503611e1457604051631490ad1160e01b815260040160405180910390fd5b6000918252600c6020526040909120805460ff1916911515919091179055565b6000611e3e613d65565b6000611e48613d28565b6005549091506001600160a01b03808316911614801590611ef15750600260009054906101000a90046001600160a01b03166001600160a01b0316630c340a246040518163ffffffff1660e01b8152600401602060405180830381865afa158015611eb7573d6000803e3d6000fd5b505050506040513d601f19601f82011682018060405250810190611edb9190615d18565b6001600160a01b0316816001600160a01b031614155b15611f0f57604051633bc1d15f60e01b815260040160405180910390fd5b600860008154611f1e90615d35565b91829055509150611f2f8383614d1e565b50611f618260008060405180606001604052806000600f0b815260200160008152602001600115158152506001614d7b565b6000828152600960209081526040808320805460ff1916600217905580516301a15ccf60e31b8152905183926001600160a01b037f00000000000000000000000000000000000000000000000000000000000000001692630d0ae67892600480830193928290030181865afa158015611fde573d6000803e3d6000fd5b505050506040513d601f19601f820116820180604052508101906120029190615d18565b60025460405163dabc8e8360e01b81526001600160a01b039283169263dabc8e8392612056927f00000000000000000000000000000000000000000000000000000000000000009290911690600401615d4e565b60408051808303816000875af1158015612074573d6000803e3d6000fd5b505050506040513d601f19601f820116820180604052508101906120989190615d68565b6000868152600d6020908152604080832080546001600160a01b038088166001600160a01b031992831617909255600e909352928190208054848616931692909217909155519294509092508481169186918816907fae65a147ec014982132ce8b32019735e3c5f41457848d2ce2e2c3e0cbc9df7bc9061211c9087908790615d4e565b60405180910390a45050506121316001600055565b919050565b610fc083838360405180602001604052806000815250612ead565b600061215d83836141b8565b90505b92915050565b61216e6156f0565b600083815260196020526040902082633b9aca00811061219057612190615c7c565b6040805160a081018252600492909202929092018054600f81810b8452600160801b909104900b60208301526001810154928201929092526002820154606082015260039091015460808201529392505050565b6000806121ef613d65565b60006121f9613d28565b9050600061220686613d4a565b90506001600160a01b03811661222f57604051632c2151ef60e11b815260040160405180910390fd5b6001600160a01b0381166000908152601c602052604090205460ff16158015612283575060008052601c6020527fb9c6de81004e18dedadca3e5eabaab449ca91dff6f58efc9461da635fe77f8495460ff16155b156122a157604051633df16fd960e21b815260040160405180910390fd5b60008681526009602052604081205460ff1660028111156122c4576122c46159a3565b146122e2576040516317a66f3760e01b815260040160405180910390fd5b6000868152601e602052604090205460ff161561231257604051637c9a1cf960e01b815260040160405180910390fd5b61231c82876141b8565b6123395760405163390cdd9b60e21b815260040160405180910390fd5b60008681526018602090815260409182902082516060810184528154600f0b8152600182015492810183905260029091015460ff16151592810192909252421080159061238857508060400151155b156123a6576040516307b7d7dd60e51b815260040160405180910390fd5b60006123b187614c73565b905080600f0b6000036123d757604051631f2a200560e01b815260040160405180910390fd5b80600f0b8260000151600f0b1361240157604051636b2f218360e01b815260040160405180910390fd5b61240a8861424e565b6040805160608082018352600080835260208084018281528486018381528e845260188352868420955186546001600160801b0319166001600160801b0390911617865590516001860155516002909401805460ff191694151594909417909355835191820184528082529181018290529182015261248c90899084906142ec565b808260000181815161249e9190615ceb565b600f0b9052506124ae8383614f40565b600f82900b835295506124c18383614f40565b600087815260186020526040902054909550859087908a907f8303de8187a6102fdc3fe20c756dddd68df0ae027b77e2391c19a855e0821f3390889061250990600f0b614222565b61251587600f0b614222565b6020808a0151604080516001600160a01b03909616865291850193909352830152606082015242608082015260a00160405180910390a45050505061255a6001600055565b9250929050565b6040516332b53f5360e11b815260216004820152602060248201526001600160a01b0384166044820152606481018390526084810182905260009073__$d6f092accc63e0bf8f1744f29529542834$__9063656a7ea69060a401602060405180830381865af41580156125d8573d6000803e3d6000fd5b505050506040513d601f19601f820116820180604052508101906125fc9190615c63565b90505b9392505050565b7f00000000000000000000000000000000000000000000000000000000000000006001600160a01b0390811691161490565b6002546001600160a01b031661264c613d28565b6001600160a01b0316146126735760405163c18384c160e01b815260040160405180910390fd5b6000918252601e6020526040909120805460ff1916911515919091179055565b600061216082613d4a565b6fa2a8918ca85bafe22016d0b997e4df60600160ff1b038111156126d5576040516317e97eb760e31b815260040160405180910390fd5b60007f8cad95687ba82c2ce50e74f7b754645e5117c3a5bec8151c0726d5857980a866306001600160a01b03166306fdde036040518163ffffffff1660e01b8152600401600060405180830381865afa158015612736573d6000803e3d6000fd5b505050506040513d6000823e601f3d908101601f1916820160405261275e9190810190615d97565b80519060200120306001600160a01b03166354fd4d506040518163ffffffff1660e01b8152600401600060405180830381865afa1580156127a3573d6000803e3d6000fd5b505050506040513d6000823e601f3d908101601f191682016040526127cb9190810190615d97565b805160209182012060408051808401959095528481019390935260608401524660808401523060a0808501919091528251808503909101815260c0840183528051908201207f9947d5709c1682eaa3946b2d84115c9c0d1c946b149d76e69b457458b42ea29e60e085015261010084018c905261012084018b905261014084018a90526101608085018a90528351808603909101815261018085019093528251929091019190912061190160f01b6101a08401526101a283018290526101c28301819052909250906000906101e20160408051601f198184030181528282528051602091820120600080855291840180845281905260ff8a169284019290925260608301889052608083018790529092509060019060a0016020604051602081039080840390855afa158015612905573d6000803e3d6000fd5b50505060206040510351905061291b818c6141b8565b6129385760405163390cdd9b60e21b815260040160405180910390fd5b6001600160a01b03811661295f57604051638baa579f60e01b815260040160405180910390fd5b6001600160a01b038116600090815260226020526040812080549161298383615d35565b9190505589146129a657604051633ab3447f60e11b815260040160405180910390fd5b874211156129c757604051630819bdcd60e01b815260040160405180910390fd5b6129d18b8b614b0b565b505050505b50505050505050565b612a176040518060a001604052806000600f0b81526020016000600f0b81526020016000815260200160008152602001600081525090565b50600090815260066020908152604091829020825160a0810184528154600f81810b8352600160801b909104900b9281019290925260018101549282019290925260028201546060820152600390910154608082015290565b60006121608261400c565b600260009054906101000a90046001600160a01b03166001600160a01b0316630c340a246040518163ffffffff1660e01b8152600401602060405180830381865afa158015612ace573d6000803e3d6000fd5b505050506040513d601f19601f82011682018060405250810190612af29190615d18565b6001600160a01b0316612b03613d28565b6001600160a01b031614612b2a57604051633b8d9d7560e21b815260040160405180910390fd5b6005546001600160a01b0390811690821603612b595760405163367558c360e01b815260040160405180910390fd5b6001600160a01b038116612b805760405163d92e233d60e01b815260040160405180910390fd5b600580546001600160a01b0319166001600160a01b0383169081179091556040517f1a6ce72407c68def4b7d2e724c896070d89cf2b2a2dd56b6897b5febd88420f590600090a250565b612bd2613d65565b612be3612bdd613d28565b836141b8565b612c005760405163390cdd9b60e21b815260040160405180910390fd5b60008281526009602052604081205460ff166002811115612c2357612c236159a3565b14612c41576040516317a66f3760e01b815260040160405180910390fd5b60008281526018602090815260409182902082516060810184528154600f0b81526001820154928101929092526002015460ff161580159282019290925290612c9d576040516334d10f9560e11b815260040160405180910390fd5b600062093a8080612cae8542615bf6565b612cb89190615c1f565b612cc29190615c33565b905042826020015111612ce8576040516307b7d7dd60e51b815260040160405180910390fd5b60008260000151600f0b13612d105760405163f90e998d60e01b815260040160405180910390fd5b81602001518111612d3457604051638e6b5b6760e01b815260040160405180910390fd5b612d42630784ce0042615bf6565b811115612d625760405163f761f1cd60e01b815260040160405180910390fd5b612d7184600083856003614d7b565b604051848152600080516020615f5a8339815191529060200160405180910390a15050610f996001600055565b6000612da8613d28565b9050806001600160a01b0316836001600160a01b031603612ddc5760405163367558c360e01b815260040160405180910390fd5b6001600160a01b03818116600081815260126020908152604080832094881680845294825291829020805460ff191687151590811790915591519182527f17307eab39ab6107e8899845ad3d59bd9653f200f220920489ca2b5937696c31910160405180910390a3505050565b612e51613d65565b612e5c612bdd613d28565b612e795760405163390cdd9b60e21b815260040160405180910390fd5b610f8f82826002613dc3565b6000612e8f613d65565b612ea18383612e9c613d28565b614fdb565b90506121606001600055565b6000612eb7613d28565b9050612ec58585858461409c565b833b15612fc957604051630a85bd0160e11b81526001600160a01b0385169063150b7a0290612efe908490899088908890600401615e05565b6020604051808303816000875af1925050508015612f39575060408051601f3d908101601f19168201909252612f3691810190615e42565b60015b612f96573d808015612f67576040519150601f19603f3d011682016040523d82523d6000602084013e612f6c565b606091505b508051600003612f8e57604051626b5e2960e61b815260040160405180910390fd5b805181602001fd5b6001600160e01b03198116630a85bd0160e11b14612fc75760405163279929b160e21b815260040160405180910390fd5b505b5050505050565b612fd8613d65565b6040805160608082018352600080835260208084018290528385018290528451928301855281835282018190529281018390526130169291906142ec565b6130206001600055565b565b6060600061302f83613d4a565b6001600160a01b03160361305657604051634a1850bf60e11b815260040160405180910390fd5b6004805460405163c87b56dd60e01b81529182018490526001600160a01b03169063c87b56dd90602401600060405180830381865afa15801561309d573d6000803e3d6000fd5b505050506040513d6000823e601f3d908101601f191682016040526121609190810190615d97565b6130cd613d65565b60006130d7613d28565b6000848152601e602052604090205490915060ff161561310a57604051637c9a1cf960e01b815260040160405180910390fd5b60008381526009602052604081205460ff16600281111561312d5761312d6159a3565b1461314b576040516317a66f3760e01b815260040160405180910390fd5b60008281526009602052604081205460ff16600281111561316e5761316e6159a3565b1461318c576040516317a66f3760e01b815260040160405180910390fd5b8183036131ac576040516349da877960e11b815260040160405180910390fd5b6131b681846141b8565b6131d35760405163390cdd9b60e21b815260040160405180910390fd5b6131dd81836141b8565b6131fa5760405163390cdd9b60e21b815260040160405180910390fd5b60008281526018602090815260409182902082516060810184528154600f0b8152600182015492810183905260029091015460ff16151592810192909252421080159061324957508060400151155b15613267576040516307b7d7dd60e51b815260040160405180910390fd5b60008481526018602090815260409182902082516060810184528154600f0b81526001820154928101929092526002015460ff1615801592820192909252906132c3576040516334d10f9560e11b815260040160405180910390fd5b60008260200151826020015110156132df5782602001516132e5565b81602001515b90506132f08661424e565b6040805160608082018352600080835260208084018281528486018381528c845260188352868420955186546001600160801b0319166001600160801b0390911617865590516001860155516002909401805460ff191694151594909417909355835191820184528082529181018290529182015261337290879084906142ec565b60408051606081018252600080825260208201819052918101919091528251845161339d9190615e5f565b600f0b8152604080850151158015918301919091526133e05782516133c490600f0b614222565b601d60008282546133d59190615bf6565b909155506133e89050565b602081018290525b6000868152601f60205260409020548351613411919061340a90600f0b614222565b6001614ca1565b61341c8685836142ec565b600086815260186020908152604091829020835181546001600160801b0319166001600160801b03909116178155908301516001820155908201516002909101805460ff19169115159190911790558251869088906001600160a01b038816907f986e3c958e3bdf1f58c2150357fc94624dd4e77b08f9802d8e2e885fa0d6a198906134aa90600f0b614222565b88516134b890600f0b614222565b86516134c690600f0b614222565b6020808901516040805195865291850193909352830152606082015242608082015260a00160405180910390a4604051868152600080516020615f5a833981519152906020015b60405180910390a15050505050610f996001600055565b61352f612bdd613d28565b61354c5760405163390cdd9b60e21b815260040160405180910390fd5b610f998282614b0b565b600061215d83836150ed565b61356a613d65565b6002546001600160a01b031661357e613d28565b6001600160a01b0316146135a55760405163c18384c160e01b815260040160405180910390fd5b600260008281526009602052604090205460ff1660028111156135ca576135ca6159a3565b146135e85760405163054b1e0160e51b815260040160405180910390fd5b60008281526009602052604081205460ff16600281111561360b5761360b6159a3565b14613629576040516317a66f3760e01b815260040160405180910390fd5b61363382426150ed565b6000036136535760405163334ab3f560e11b815260040160405180910390fd5b60008281526018602052604090208054600290910154600f9190910b9060ff16156136a65761368481600f0b614222565b601d60008282546136959190615be3565b909155506136a69050836000614b0b565b60008381526018602090815260408083208151606080820184528254600f0b825260018301548286015260029092015460ff161515818401528251918201835284825292810184905290810192909252613702918591906142ec565b60408051606081018252600080825260208083018281528385018381528884526018909252938220925183546001600160801b0319166001600160801b039091161783559251600183015591516002909101805460ff1916911515919091179055613770600f83900b614222565b905080601d60008282546137849190615bf6565b909155505060008381526018602090815260409182902082516060810184528154600f0b80825260018301549382019390935260029091015460ff16151592810192909252839082906137d8908390615e5f565b600f0b9052506000848152601f60205260409020546137f990836001614ca1565b60008481526018602090815260409182902082516060810184528154600f0b81526001820154928101929092526002015460ff16151591810191909152613842908590836142ec565b6000848152601860209081526040808320845181546001600160801b0319166001600160801b0390911617815584830151600180830191909155858301516002909201805460ff19908116931515939093179055898552600b84528285208986528452828520879055898552600a8452828520899055600984528285208054909216179055868352600d9091529081902054905163f320772360e01b815260048101849052602481018790526001600160a01b0390911690819063f320772390604401600060405180830381600087803b15801561391f57600080fd5b505af1158015613933573d6000803e3d6000fd5b5050506000868152600e60205260409081902054905163f320772360e01b815260048101869052602481018990526001600160a01b039091169150819063f320772390604401600060405180830381600087803b15801561399357600080fd5b505af11580156139a7573d6000803e3d6000fd5b5050505085876139b689613d4a565b6001600160a01b03167ff7757ce35992f4ee014dee2e0c97ed6245758960a6ecc9e124897a5fb7b0142387426040516139f9929190918252602082015260400190565b60405180910390a4604051878152600080516020615f5a8339815191529060200161350d565b6000613a29613d28565b9050613a3581836141b8565b613a525760405163390cdd9b60e21b815260040160405180910390fd5b60008281526009602052604081205460ff166002811115613a7557613a756159a3565b14613a93576040516317a66f3760e01b815260040160405180910390fd5b60008281526018602090815260409182902082516060810184528154600f0b81526001820154928101929092526002015460ff161580159282019290925290613aef576040516334d10f9560e11b815260040160405180910390fd5b42816020015111613b13576040516307b7d7dd60e51b815260040160405180910390fd5b60008160000151600f0b13613b3b5760405163f90e998d60e01b815260040160405180910390fd5b6000613b4d8260000151600f0b614222565b905080601d6000828254613b619190615bf6565b90915550506000602080840182905260016040808601829052878452601883529283902083516060810185528154600f0b8152918101549282019290925260029091015460ff16151591810191909152613bbd908590846142ec565b600084815260186020908152604091829020845181546001600160801b0319166001600160801b03909116178155848201516001820155848301516002909101805460ff19169115159190911790558151838152429181019190915285916001600160a01b038616917f793cb7a30a4bb8669ec607dfcbdc93f5a3e9d282f38191fddab43ccaf79efb80910161161c565b600081815260136020526040812054439003613c6c57506000919050565b61216082426150ed565b6000613c80613d65565b613c8b848484614fdb565b90506125ff6001600055565b613ccb60405180608001604052806000815260200160006001600160a01b0316815260200160008152602001600081525090565b5060009182526020808052604080842065ffffffffffff9390931684529181529181902081516080810183528154815260018201546001600160a01b03169381019390935260028101549183019190915260030154606082015290565b6000613d3333612606565b15613d45575060131936013560601c90565b503390565b6000908152600f60205260409020546001600160a01b031690565b600260005403613dbc5760405162461bcd60e51b815260206004820152601f60248201527f5265656e7472616e637947756172643a207265656e7472616e742063616c6c0060448201526064015b60405180910390fd5b6002600055565b60008381526009602052604090205460ff166001816002811115613de957613de96159a3565b03613e0757604051635eb32db160e11b815260040160405180910390fd5b600084815260186020908152604080832081516060810183528154600f0b81526001820154938101939093526002015460ff1615159082015290849003613e6157604051631f2a200560e01b815260040160405180910390fd5b60008160000151600f0b13613e895760405163f90e998d60e01b815260040160405180910390fd5b42816020015111158015613e9f57508060400151155b15613ebd576040516307b7d7dd60e51b815260040160405180910390fd5b806040015115613edf5783601d6000828254613ed99190615bf6565b90915550505b6000858152601f6020526040902054613efa90856001614ca1565b613f08858560008487614d7b565b6002826002811115613f1c57613f1c6159a3565b03613fe4576000858152600d60205260409020546001600160a01b03908116907f000000000000000000000000000000000000000000000000000000000000000090613f6b9082168388615179565b60405163b66503cf60e01b81526001600160a01b0383169063b66503cf90613f999084908a90600401615c4a565b600060405180830381600087803b158015613fb357600080fd5b505af1158015613fc7573d6000803e3d6000fd5b50613fe1925050506001600160a01b038216836000615179565b50505b604051858152600080516020615f5a8339815191529060200160405180910390a15050505050565b601654604051637259b01960e01b8152601b60048201526006602482015260448101919091526064810182905260009073__$227f16069b523eeecbbbd0559d29a49482$__90637259b01990608401602060405180830381865af4158015614078573d6000803e3d6000fd5b505050506040513d601f19601f820116820180604052508101906121609190615c63565b600160008381526009602052604090205460ff1660028111156140c1576140c16159a3565b036140df57604051635eb32db160e11b815260040160405180910390fd5b6140e981836141b8565b6141065760405163390cdd9b60e21b815260040160405180910390fd5b836001600160a01b031661411983613d4a565b6001600160a01b031614614140576040516330cd747160e01b815260040160405180910390fd5b600082815260116020526040902080546001600160a01b0319169055614166848361527c565b614172826000856152fd565b61417c8383615367565b6000828152601360205260408082204390555183916001600160a01b038087169290881691600080516020615f3a83398151915291a450505050565b6000806141c483613d4a565b6000848152601160209081526040808320546001600160a01b0380861680865260128552838620828c1680885295529290942054949550908214939216149060ff16828061420f5750815b806142175750805b979650505050505050565b60008082600f0b12156142475760405162406f5d60e21b815260040160405180910390fd5b50600f0b90565b6000614258613d28565b905061426481836141b8565b6142815760405163390cdd9b60e21b815260040160405180910390fd5b600061428c83613d4a565b600084815260116020526040812080546001600160a01b03191690559091506142b7908490806152fd565b6142c1818461527c565b60405183906000906001600160a01b03841690600080516020615f3a833981519152908390a4505050565b6142f46156f0565b6142fc6156f0565b6016546000908190871561444f57856040015161431a576000614328565b855161432890600f0b614222565b6080850152602087015142108015614347575060008760000151600f0b135b1561439557865161435d90630784ce0090615e8c565b600f0b6020808701919091528701516143809061437b904290615be3565b614c73565b856020015161438f9190615eca565b600f0b85525b4286602001511180156143af575060008660000151600f0b135b156143f85785516143c590630784ce0090615e8c565b600f0b6020808601919091528601516143e39061437b904290615be3565b84602001516143f29190615eca565b600f0b84525b6020808801516000908152601b8252604090205490870151600f9190910b93501561444f5786602001518660200151036144345782915061444f565b6020808701516000908152601b9091526040902054600f0b91505b6040805160a0810182526000808252602082018190524292820192909252436060820152608081019190915281156144d85750600081815260066020908152604091829020825160a0810184528154600f81810b8352600160801b909104900b928101929092526001810154928201929092526002820154606082015260039091015460808201525b60008160400151905060006040518060a001604052808460000151600f0b81526020018460200151600f0b8152602001846040015181526020018460600151815260200184608001518152509050600083604001514211156145715760408401516145439042615be3565b60608501516145529043615be3565b61456490670de0b6b3a7640000615c33565b61456e9190615c1f565b90505b600062093a806145818186615c1f565b61458b9190615c33565b905060005b60ff81101561470a576145a662093a8083615bf6565b91506000428311156145ba574292506145ce565b506000828152601b6020526040902054600f0b5b6145db61437b8785615be3565b87602001516145ea9190615eca565b875188906145f9908390615ceb565b600f0b905250602087018051829190614613908390615e5f565b600f90810b90915288516000910b1215905061462e57600087525b60008760200151600f0b121561464657600060208801525b60408088018490528501519295508592670de0b6b3a76400009061466a9085615be3565b6146749086615c33565b61467e9190615c1f565b856060015161468d9190615bf6565b606088015261469d600189615bf6565b97504283036146b2575043606087015261470a565b6000888152600660209081526040918290208951918a01516001600160801b03908116600160801b02921691909117815590880151600182015560608801516002820155608088015160039091015550600101614590565b50508b1561479957886020015188602001516147269190615ceb565b846020018181516147379190615e5f565b600f0b9052508851885161474b9190615ceb565b8451859061475a908390615e5f565b600f90810b90915260208601516000910b1215905061477b57600060208501525b60008460000151600f0b121561479057600084525b601d5460808501525b846001141580156147c9575042600660006147b5600189615be3565b815260200190815260200160002060010154145b156148335783600660006147de600189615be3565b815260208082019290925260409081016000208351928401516001600160801b03908116600160801b029316929092178255820151600182015560608201516002820155608090910151600390910155614888565b60168590556000858152600660209081526040918290208651918701516001600160801b03908116600160801b0292169190911781559085015160018201556060850151600282015560808501516003909101555b8b15614aa757428b6020015111156148fa5760208901516148a99088615e5f565b96508a602001518a60200151036148cc5760208801516148c99088615ceb565b96505b60208b8101516000908152601b9091526040902080546001600160801b0319166001600160801b0389161790555b428a602001511115614955578a602001518a6020015111156149555760208801516149259087615ceb565b60208b8101516000908152601b9091526040902080546001600160801b0319166001600160801b03831617905595505b426040808a01919091524360608a015260008d8152601a602052205480158015906149a9575060008d8152601960205260409020429082633b9aca00811061499f5761499f615c7c565b6004020160010154145b15614a1f5760008d8152601960205260409020899082633b9aca0081106149d2576149d2615c7c565b825160208401516001600160801b03908116600160801b02911617600491909102919091019081556040820151600182015560608201516002820155608090910151600390910155614aa5565b614a2881615d35565b60008e8152601a6020908152604080832084905560199091529020909150899082633b9aca008110614a5c57614a5c615c7c565b825160208401516001600160801b03908116600160801b029116176004919091029190910190815560408201516001820155606082015160028201556080909101516003909101555b505b505050505050505050505050565b610fc08363a9059cbb60e01b8484604051602401614ad4929190615c4a565b60408051601f198184030181529190526020810180516001600160e01b03166001600160e01b0319909316929092179091526153f9565b60008281526018602090815260409182902082516060810184528154600f0b81526001820154928101929092526002015460ff16151591810182905290614b6557604051632188f8ab60e01b815260040160405180910390fd5b8115801590614b8557506000614b7a83613d4a565b6001600160a01b0316145b15614ba357604051634a1850bf60e11b815260040160405180910390fd5b600083815260136020526040902054439003614bd2576040516342d6fce760e01b815260040160405180910390fd5b828203614bde57600091505b6000838152601f6020526040902054828103614bfa5750505050565b6000614c0c8360000151600f0b614222565b9050614c218585614c1c88613d4a565b6152fd565b614c2d84826001614ca1565b8382614c37613d28565b6001600160a01b03167ff1aa2a9e40138176a3ee6099df056f5c175f8511a0d8b8275d94d1ea5de4677360405160405180910390a45050505050565b600060016001607f1b03821115614c9d576040516393dafdf160e01b815260040160405180910390fd5b5090565b6040516375f199b960e11b815260216004820152602060248201526044810184905260648101839052811515608482015273__$d6f092accc63e0bf8f1744f29529542834$__9063ebe333729060a4015b60006040518083038186803b158015614d0a57600080fd5b505af41580156129d6573d6000803e3d6000fd5b60006001600160a01b038316614d3657614d36615eea565b614d408383615367565b614d4c826000856152fd565b60405182906001600160a01b03851690600090600080516020615f3a833981519152908290a450600192915050565b601754614d888582615bf6565b6017556040805160608101825260008082526020808301828152838501928352875191880151948801511515909252929052600f9190910b8152614dcb86614c73565b81518290614dda908390615e5f565b600f0b9052508415614dee57602081018590525b600087815260186020908152604091829020835181546001600160801b0319166001600160801b03909116178155908301516001820155908201516002909101805460ff1916911515919091179055614e488785836142ec565b6000614e52613d28565b90508615614e8f57614e8f6001600160a01b037f00000000000000000000000000000000000000000000000000000000000000001682308a6154ce565b836003811115614ea157614ea16159a3565b602083810151604080518b8152928301919091524282820152518a916001600160a01b038516917f8835c22a0c751188de86681e15904223c054bedd5c68ec8858945b78312902739181900360600190a47f5e2aa66efd74cce82b21852e317e5490d9ecc9e6bb953ae24d90851258cc2f5c83614f1e8982615bf6565b6040805192835260208301919091520160405180910390a15050505050505050565b6000600860008154614f5190615d35565b91829055506000818152601860209081526040808320865181546001600160801b0319166001600160801b03909116178155868301516001820155868201516002909101805460ff19169115159190911790558051606081018252838152918201839052810191909152909150614fca908290846142ec565b614fd48382614d1e565b5092915050565b60008062093a8080614fed8642615bf6565b614ff79190615c1f565b6150019190615c33565b90508460000361502457604051631f2a200560e01b815260040160405180910390fd5b42811161504457604051638e6b5b6760e01b815260040160405180910390fd5b615052630784ce0042615bf6565b8111156150725760405163f761f1cd60e01b815260040160405180910390fd5b600060086000815461508390615d35565b918290555090506150948482614d1e565b5060008181526018602090815260409182902082516060810184528154600f0b81526001808301549382019390935260029091015460ff161515928101929092526150e491839189918691614d7b565b95945050505050565b604051637b29b3d160e01b8152601a600482015260196024820152604481018390526064810182905260009073__$227f16069b523eeecbbbd0559d29a49482$__90637b29b3d190608401602060405180830381865af4158015615155573d6000803e3d6000fd5b505050506040513d601f19601f8201168201806040525081019061215d9190615c63565b8015806151f25750604051636eb1769f60e11b81526001600160a01b0384169063dd62ed3e906151af9030908690600401615d4e565b602060405180830381865afa1580156151cc573d6000803e3d6000fd5b505050506040513d601f19601f820116820180604052508101906151f09190615c63565b155b61525d5760405162461bcd60e51b815260206004820152603660248201527f5361666545524332303a20617070726f76652066726f6d206e6f6e2d7a65726f60448201527520746f206e6f6e2d7a65726f20616c6c6f77616e636560501b6064820152608401613db3565b610fc08363095ea7b360e01b8484604051602401614ad4929190615c4a565b816001600160a01b031661528f82613d4a565b6001600160a01b0316146152a5576152a5615eea565b6000818152600f6020526040902080546001600160a01b03191690556152cb828261550c565b6001600160a01b03821660009081526010602052604081208054600192906152f4908490615be3565b90915550505050565b60405163690f66bf60e01b8152601860048201526021602482015260206044820152601f60648201526084810184905260a481018390526001600160a01b03821660c482015273__$d6f092accc63e0bf8f1744f29529542834$__9063690f66bf9060e401614cf2565b600061537282613d4a565b6001600160a01b03161461538857615388615eea565b6000818152600f6020908152604080832080546001600160a01b0319166001600160a01b0387169081179091558084526010808452828520805460148652848720818852865284872088905587875260158652938620939093559084529091528054600192906152f4908490615bf6565b600061544e826040518060400160405280602081526020017f5361666545524332303a206c6f772d6c6576656c2063616c6c206661696c6564815250856001600160a01b03166155cb9092919063ffffffff16565b905080516000148061546f57508080602001905181019061546f9190615f00565b610fc05760405162461bcd60e51b815260206004820152602a60248201527f5361666545524332303a204552433230206f7065726174696f6e20646964206e6044820152691bdd081cdd58d8d9595960b21b6064820152608401613db3565b6040516001600160a01b03808516602483015283166044820152606481018290526155069085906323b872dd60e01b90608401614ad4565b50505050565b6001600160a01b03821660009081526010602052604081205461553190600190615be3565b600083815260156020526040902054909150808203615580576001600160a01b038416600090815260146020908152604080832085845282528083208390558583526015909152812055615506565b6001600160a01b039390931660009081526014602090815260408083209383529281528282208054868452848420819055835260159091528282209490945592839055908252812055565b60606125fc848460008585600080866001600160a01b031685876040516155f29190615f1d565b60006040518083038185875af1925050503d806000811461562f576040519150601f19603f3d011682016040523d82523d6000602084013e615634565b606091505b509150915061564587838387615652565b925050505b949350505050565b606083156156c15782516000036156ba576001600160a01b0385163b6156ba5760405162461bcd60e51b815260206004820152601d60248201527f416464726573733a2063616c6c20746f206e6f6e2d636f6e74726163740000006044820152606401613db3565b508161564a565b61564a83838151156156d65781518083602001fd5b8060405162461bcd60e51b8152600401613db391906157a8565b6040518060a001604052806000600f0b81526020016000600f0b81526020016000815260200160008152602001600081525090565b6001600160e01b0319811681146112df57600080fd5b60006020828403121561574d57600080fd5b81356125ff81615725565b60005b8381101561577357818101518382015260200161575b565b50506000910152565b60008151808452615794816020860160208601615758565b601f01601f19169290920160200192915050565b60208152600061215d602083018461577c565b6000602082840312156157cd57600080fd5b5035919050565b6001600160a01b03811681146112df57600080fd5b6000602082840312156157fb57600080fd5b81356125ff816157d4565b6000806040838503121561581957600080fd5b8235615824816157d4565b946020939093013593505050565b6000806040838503121561584557600080fd5b50508035926020909101359150565b60008060006060848603121561586957600080fd5b8335615874816157d4565b92506020840135615884816157d4565b929592945050506040919091013590565b600080604083850312156158a857600080fd5b82356158b3816157d4565b915060208301356158c3816157d4565b809150509250929050565b80151581146112df57600080fd5b600080604083850312156158ef57600080fd5b82356158fa816157d4565b915060208301356158c3816158ce565b6000806040838503121561591d57600080fd5b8235915060208301356158c3816158ce565b60a0810161216082848051600f0b82526020810151600f0b60208301526040810151604083015260608101516060830152608081015160808301525050565b60008060006060848603121561598357600080fd5b833561598e816157d4565b95602085013595506040909401359392505050565b634e487b7160e01b600052602160045260246000fd5b60208101600383106159db57634e487b7160e01b600052602160045260246000fd5b91905290565b600080600080600080600060e0888a0312156159fc57600080fd5b87359650602088013595506040880135945060608801359350608088013560ff81168114615a2957600080fd5b9699959850939692959460a0840135945060c09093013592915050565b634e487b7160e01b600052604160045260246000fd5b604051601f8201601f1916810167ffffffffffffffff81118282101715615a8557615a85615a46565b604052919050565b600067ffffffffffffffff821115615aa757615aa7615a46565b50601f01601f191660200190565b60008060008060808587031215615acb57600080fd5b8435615ad6816157d4565b93506020850135615ae6816157d4565b925060408501359150606085013567ffffffffffffffff811115615b0957600080fd5b8501601f81018713615b1a57600080fd5b8035615b2d615b2882615a8d565b615a5c565b818152886020838501011115615b4257600080fd5b8160208401602083013760006020838301015280935050505092959194509250565b600080600060608486031215615b7957600080fd5b83359250602084013591506040840135615b92816157d4565b809150509250925092565b60008060408385031215615bb057600080fd5b82359150602083013565ffffffffffff811681146158c357600080fd5b634e487b7160e01b600052601160045260246000fd5b8181038181111561216057612160615bcd565b8082018082111561216057612160615bcd565b634e487b7160e01b600052601260045260246000fd5b600082615c2e57615c2e615c09565b500490565b808202811582820484141761216057612160615bcd565b6001600160a01b03929092168252602082015260400190565b600060208284031215615c7557600080fd5b5051919050565b634e487b7160e01b600052603260045260246000fd5b60006040820184835260206040602085015281855180845260608601915060208701935060005b81811015615cde5784516001600160a01b031683529383019391830191600101615cb9565b5090979650505050505050565b600f82810b9082900b0360016001607f1b0319811260016001607f1b038213171561216057612160615bcd565b600060208284031215615d2a57600080fd5b81516125ff816157d4565b600060018201615d4757615d47615bcd565b5060010190565b6001600160a01b0392831681529116602082015260400190565b60008060408385031215615d7b57600080fd5b8251615d86816157d4565b60208401519092506158c3816157d4565b600060208284031215615da957600080fd5b815167ffffffffffffffff811115615dc057600080fd5b8201601f81018413615dd157600080fd5b8051615ddf615b2882615a8d565b818152856020838501011115615df457600080fd5b6150e4826020830160208601615758565b6001600160a01b0385811682528416602082015260408101839052608060608201819052600090615e389083018461577c565b9695505050505050565b600060208284031215615e5457600080fd5b81516125ff81615725565b600f81810b9083900b0160016001607f1b03811360016001607f1b03198212171561216057612160615bcd565b600081600f0b83600f0b80615ea357615ea3615c09565b60016001607f1b0319821460001982141615615ec157615ec1615bcd565b90059392505050565b600082600f0b82600f0b0280600f0b9150808214614fd457614fd4615bcd565b634e487b7160e01b600052600160045260246000fd5b600060208284031215615f1257600080fd5b81516125ff816158ce565b60008251615f2f818460208701615758565b919091019291505056feddf252ad1be2c89b69c2b068fc378daa952ba7f163c4a11628f55a4df523b3eff8e1a15aba9398e019f0b49df1a4fde98ee17ae345cb5f6b5e2c27f5033e8ce7a264697066735822122002bc500d1824937c5e80fdb1bb185d4e070baa28db46698f49c8ae5a8519eccc64736f6c63430008180033",
  "libraries": {
    "BalanceLogicLibrary": "0xf6a1CA09e39B32F2D090C0088510f15fcCE50648",
    "DelegationLogicLibrary": "0x5E9b95a2CD162382fDF7adb6D3Db03cfb708CbA1"
  },
  "devdoc": {
    "events": {
      "Approval(address,address,uint256)": {
        "details": "Emitted when `owner` enables `approved` to manage the `tokenId` token."
      },
      "ApprovalForAll(address,address,bool)": {
        "details": "Emitted when `owner` enables or disables (`approved`) `operator` to manage all of its assets."
      },
      "BatchMetadataUpdate(uint256,uint256)": {
        "details": "This event emits when the metadata of a range of tokens is changed. So that the third-party platforms such as NFT market could timely update the images and related attributes of the NFTs."
      },
      "DelegateChanged(address,uint256,uint256)": {
        "details": "Emitted when an account changes their delegate."
      },
      "DelegateVotesChanged(address,uint256,uint256)": {
        "details": "Emitted when a token transfer or delegate change results in changes to a delegate's number of votes."
      },
      "MetadataUpdate(uint256)": {
        "details": "This event emits when the metadata of a token is changed. So that the third-party platforms such as NFT market could timely update the images and related attributes of the NFT."
      },
      "Transfer(address,address,uint256)": {
        "details": "Emitted when `tokenId` token is transferred from `from` to `to`."
      }
    },
    "kind": "dev",
    "methods": {
      "CLOCK_MODE()": {
        "details": "Description of the clock"
      },
      "approve(address,uint256)": {
        "details": "Gives permission to `to` to transfer `tokenId` token to another account. The approval is cleared when the token is transferred. Only a single account can be approved at a time, so approving the zero address clears previous approvals. Requirements: - The caller must own the token or be an approved operator. - `tokenId` must exist. Emits an {Approval} event."
      },
      "balanceOf(address)": {
        "details": "Returns the number of tokens in ``owner``'s account."
      },
      "balanceOfNFT(uint256)": {
        "details": "Returns 0 if called in the same block as a transfer.",
        "params": {
          "_tokenId": "."
        },
        "returns": {
          "_0": "Voting power"
        }
      },
      "balanceOfNFTAt(uint256,uint256)": {
        "params": {
          "_t": "Timestamp to query voting power",
          "_tokenId": "."
        },
        "returns": {
          "_0": "Voting power"
        }
      },
      "checkpoints(uint256,uint48)": {
        "params": {
          "index": ".",
          "tokenId": "."
        },
        "returns": {
          "_0": "Checkpoint"
        }
      },
      "clock()": {
        "details": "Clock used for flagging checkpoints. Can be overridden to implement timestamp based checkpoints (and voting)."
      },
      "createLock(uint256,uint256)": {
        "params": {
          "_lockDuration": "Number of seconds to lock tokens for (rounded down to nearest week)",
          "_value": "Amount to deposit"
        },
        "returns": {
          "_0": "TokenId of created veNFT"
        }
      },
      "createLockFor(uint256,uint256,address)": {
        "params": {
          "_lockDuration": "Number of seconds to lock tokens for (rounded down to nearest week)",
          "_to": "Address to deposit",
          "_value": "Amount to deposit"
        },
        "returns": {
          "_0": "TokenId of created veNFT"
        }
      },
      "createManagedLockFor(address)": {
        "details": "Throws if address already owns a managed NFT.",
        "returns": {
          "_mTokenId": "managed token id."
        }
      },
      "delegate(uint256,uint256)": {
        "details": "Delegates votes from the sender to `delegatee`."
      },
      "delegateBySig(uint256,uint256,uint256,uint256,uint8,bytes32,bytes32)": {
        "details": "Delegates votes from `delegator` to `delegatee`. Signer must own `delegator`."
      },
      "delegates(uint256)": {
        "details": "Returns the delegate that `tokenId` has chosen. Can never be equal to the delegator's `tokenId`.      Returns 0 if not delegated."
      },
      "depositFor(uint256,uint256)": {
        "details": "Anyone (even a smart contract) can deposit for someone else, but      cannot extend their locktime and deposit for a brand new user",
        "params": {
          "_tokenId": "lock NFT",
          "_value": "Amount to add to user's lock"
        }
      },
      "depositManaged(uint256,uint256)": {
        "details": "Managed nft will remain max-locked as long as there is at least one      deposit or withdrawal per week.      Throws if deposit nft is managed.      Throws if recipient nft is not managed.      Throws if deposit nft is already locked.      Throws if not called by voter.",
        "params": {
          "_mTokenId": "tokenId of managed NFT that will receive the deposit",
          "_tokenId": "tokenId of NFT being deposited"
        }
      },
      "getApproved(uint256)": {
        "details": "Returns the account approved for `tokenId` token. Requirements: - `tokenId` must exist."
      },
      "getPastTotalSupply(uint256)": {
        "details": "Returns the total supply of votes available at a specific moment in the past. If the `clock()` is configured to use block numbers, this will return the value the end of the corresponding block. NOTE: This value is the sum of all available votes, which is not necessarily the sum of all delegated votes. Votes that have not been delegated are still part of total supply, even though they would not participate in a vote."
      },
      "getPastVotes(address,uint256,uint256)": {
        "details": "Returns the amount of votes that `tokenId` had at a specific moment in the past.      If the account passed in is not the owner, returns 0."
      },
      "increaseAmount(uint256,uint256)": {
        "params": {
          "_value": "Amount of tokens to deposit and add to the lock"
        }
      },
      "increaseUnlockTime(uint256,uint256)": {
        "params": {
          "_lockDuration": "New number of seconds until tokens unlock"
        }
      },
      "isApprovedForAll(address,address)": {
        "details": "Returns if the `operator` is allowed to manage all of the assets of `owner`. See {setApprovalForAll}"
      },
      "isApprovedOrOwner(address,uint256)": {
        "params": {
          "_spender": ".",
          "_tokenId": "."
        }
      },
      "lockPermanent(uint256)": {
        "details": "Only callable by unlocked normal veNFTs.",
        "params": {
          "_tokenId": "tokenId to lock."
        }
      },
      "locked(uint256)": {
        "params": {
          "_tokenId": "."
        },
        "returns": {
          "_0": "LockedBalance of _tokenId"
        }
      },
      "merge(uint256,uint256)": {
        "details": "Cannot merge `_from` locks that are permanent or have already voted this epoch.      Cannot merge `_to` locks that have already expired.      This will burn the veNFT. Any rebases or rewards that are unclaimed      will no longer be claimable. Claim all rebases and rewards prior to calling this.",
        "params": {
          "_from": "VeNFT to merge from.",
          "_to": "VeNFT to merge into."
        }
      },
      "name()": {
        "details": "Returns the token collection name."
      },
      "ownerOf(uint256)": {
        "details": "Returns the owner of the `tokenId` token. Requirements: - `tokenId` must exist."
      },
      "safeTransferFrom(address,address,uint256)": {
        "details": "Safely transfers `tokenId` token from `from` to `to`, checking first that contract recipients are aware of the ERC721 protocol to prevent tokens from being forever locked. Requirements: - `from` cannot be the zero address. - `to` cannot be the zero address. - `tokenId` token must exist and be owned by `from`. - If the caller is not `from`, it must have been allowed to move this token by either {approve} or {setApprovalForAll}. - If `to` refers to a smart contract, it must implement {IERC721Receiver-onERC721Received}, which is called upon a safe transfer. Emits a {Transfer} event."
      },
      "safeTransferFrom(address,address,uint256,bytes)": {
        "details": "Safely transfers `tokenId` token from `from` to `to`. Requirements: - `from` cannot be the zero address. - `to` cannot be the zero address. - `tokenId` token must exist and be owned by `from`. - If the caller is not `from`, it must be approved to move this token by either {approve} or {setApprovalForAll}. - If `to` refers to a smart contract, it must implement {IERC721Receiver-onERC721Received}, which is called upon a safe transfer. Emits a {Transfer} event."
      },
      "setApprovalForAll(address,bool)": {
        "details": "Approve or remove `operator` as an operator for the caller. Operators can call {transferFrom} or {safeTransferFrom} for any token owned by the caller. Requirements: - The `operator` cannot be the caller. Emits an {ApprovalForAll} event."
      },
      "setManagedState(uint256,bool)": {
        "params": {
          "_mTokenId": "managed nft state to set",
          "_state": "true => inactive, false => active"
        }
      },
      "setVoterAndDistributor(address,address)": {
        "details": "This is only called once, at setup"
      },
      "split(uint256,uint256)": {
        "details": "This burns the tokenId of the target veNFT         Callable by approved or owner         If this is called by approved, approved will not have permissions to manipulate the newly created veNFTs         Returns the two new split veNFTs to owner         If `from` is permanent, will automatically dedelegate.         This will burn the veNFT. Any rebases or rewards that are unclaimed         will no longer be claimable. Claim all rebases and rewards prior to calling this.",
        "params": {
          "_amount": "Amount to split from veNFT.",
          "_from": "VeNFT to split."
        },
        "returns": {
          "_tokenId1": "Return tokenId of veNFT with oldLocked.amount - `_amount`.",
          "_tokenId2": "Return tokenId of veNFT with `_amount`."
        }
      },
      "supportsInterface(bytes4)": {
        "details": "Returns true if this contract implements the interface defined by `interfaceId`. See the corresponding https://eips.ethereum.org/EIPS/eip-165#how-interfaces-are-identified[EIP section] to learn more about how these ids are created. This function call must use less than 30 000 gas."
      },
      "symbol()": {
        "details": "Returns the token collection symbol."
      },
      "toggleSplit(address,bool)": {
        "details": "Toggle split for address(0) to enable or disable for all.",
        "params": {
          "_account": "Address to toggle split permissions",
          "_bool": "True to allow, false to disallow"
        }
      },
      "tokenURI(uint256)": {
        "details": "Returns the Uniform Resource Identifier (URI) for `tokenId` token."
      },
      "totalSupply()": {
        "returns": {
          "_0": "Total voting power at current timestamp"
        }
      },
      "totalSupplyAt(uint256)": {
        "params": {
          "_t": "Timestamp to query total voting power"
        },
        "returns": {
          "_0": "Total voting power at given timestamp"
        }
      },
      "transferFrom(address,address,uint256)": {
        "details": "Transfers `tokenId` token from `from` to `to`. WARNING: Note that the caller is responsible to confirm that the recipient is capable of receiving ERC721 or else they may be permanently lost. Usage of {safeTransferFrom} prevents loss, though the caller must understand this adds an external call which potentially creates a reentrancy vulnerability. Requirements: - `from` cannot be the zero address. - `to` cannot be the zero address. - `tokenId` token must be owned by `from`. - If the caller is not `from`, it must be approved to move this token by either {approve} or {setApprovalForAll}. Emits a {Transfer} event."
      },
      "unlockPermanent(uint256)": {
        "details": "Only callable by permanently locked veNFTs.      Cannot unlock if already voted this epoch.",
        "params": {
          "_tokenId": "tokenId to unlock."
        }
      },
      "voting(uint256,bool)": {
        "details": "Only callable by voter",
        "params": {
          "_tokenId": ".",
          "_voted": "."
        }
      },
      "withdraw(uint256)": {
        "details": "Only possible if the lock is both expired and not permanent      This will burn the veNFT. Any rebases or rewards that are unclaimed      will no longer be claimable. Claim all rebases and rewards prior to calling this."
      },
      "withdrawManaged(uint256)": {
        "details": "Throws if NFT not locked.      Throws if not called by voter.",
        "params": {
          "_tokenId": "tokenId of NFT being deposited."
        }
      }
    },
    "version": 1
  },
  "userdoc": {
    "kind": "user",
    "methods": {
      "DELEGATION_TYPEHASH()": {
        "notice": "The EIP-712 typehash for the delegation struct used by the contract"
      },
      "DOMAIN_TYPEHASH()": {
        "notice": "The EIP-712 typehash for the contract's domain"
      },
      "artProxy()": {
        "notice": "Address of art proxy used for on-chain art generation"
      },
      "balanceOfNFT(uint256)": {
        "notice": "Get the voting power for _tokenId at the current timestamp"
      },
      "balanceOfNFTAt(uint256,uint256)": {
        "notice": "Get the voting power for _tokenId at a given timestamp"
      },
      "canSplit(address)": {
        "notice": "account -> can split"
      },
      "checkpoint()": {
        "notice": "Record global data to checkpoint"
      },
      "checkpoints(uint256,uint48)": {
        "notice": "A record of delegated token checkpoints for each account, by index"
      },
      "createLock(uint256,uint256)": {
        "notice": "Deposit `_value` tokens for `msg.sender` and lock for `_lockDuration`"
      },
      "createLockFor(uint256,uint256,address)": {
        "notice": "Deposit `_value` tokens for `_to` and lock for `_lockDuration`"
      },
      "createManagedLockFor(address)": {
        "notice": "Create managed NFT (a permanent lock) for use within ecosystem."
      },
      "depositFor(uint256,uint256)": {
        "notice": "Deposit `_value` tokens for `_tokenId` and add to the lock"
      },
      "depositManaged(uint256,uint256)": {
        "notice": "Delegates balance to managed nft         Note that NFTs deposited into a managed NFT will be re-locked         to the maximum lock time on withdrawal.         Permanent locks that are deposited will automatically unlock."
      },
      "distributor()": {
        "notice": "Address of RewardsDistributor.sol"
      },
      "epoch()": {
        "notice": "Total count of epochs witnessed since contract creation"
      },
      "factoryRegistry()": {
        "notice": "Address of FactoryRegistry.sol"
      },
      "forwarder()": {
        "notice": "Address of Meta-tx Forwarder"
      },
      "increaseAmount(uint256,uint256)": {
        "notice": "Deposit `_value` additional tokens for `_tokenId` without modifying the unlock time"
      },
      "increaseUnlockTime(uint256,uint256)": {
        "notice": "Extend the unlock time for `_tokenId`         Cannot extend lock time of permanent locks"
      },
      "isApprovedOrOwner(address,uint256)": {
        "notice": "Check whether spender is owner or an approved user for a given veNFT"
      },
      "lockPermanent(uint256)": {
        "notice": "Permanently lock a veNFT. Voting power will be equal to         `LockedBalance.amount` with no decay. Required to delegate."
      },
      "locked(uint256)": {
        "notice": "Get the LockedBalance (amount, end) of a _tokenId"
      },
      "merge(uint256,uint256)": {
        "notice": "Merges `_from` into `_to`."
      },
      "nonces(address)": {
        "notice": "A record of states for signing / validating signatures"
      },
      "numCheckpoints(uint256)": {
        "notice": "The number of checkpoints for each tokenId"
      },
      "permanentLockBalance()": {
        "notice": "Aggregate permanent locked balances"
      },
      "pointHistory(uint256)": {
        "notice": "Global point history at a given index"
      },
      "setAllowedManager(address)": {
        "notice": "Permit one address to call createManagedLockFor() that is not Voter.governor()"
      },
      "setManagedState(uint256,bool)": {
        "notice": "Set Managed NFT state. Inactive NFTs cannot be deposited into."
      },
      "setVoterAndDistributor(address,address)": {
        "notice": "Set the global state voter and distributor"
      },
      "slopeChanges(uint256)": {
        "notice": "time -> signed slope change"
      },
      "split(uint256,uint256)": {
        "notice": "Splits veNFT into two new veNFTS - one with oldLocked.amount - `_amount`, and the second with `_amount`"
      },
      "supply()": {
        "notice": "Total amount of token() deposited"
      },
      "team()": {
        "notice": "Address of Protocol Team multisig"
      },
      "toggleSplit(address,bool)": {
        "notice": "Toggle split for a specific address."
      },
      "token()": {
        "notice": "Address of token used to create a veNFT"
      },
      "totalSupply()": {
        "notice": "Calculate total voting power at current timestamp"
      },
      "totalSupplyAt(uint256)": {
        "notice": "Calculate total voting power at a given timestamp"
      },
      "unlockPermanent(uint256)": {
        "notice": "Unlock a permanently locked veNFT. Voting power will decay.         Will automatically dedelegate if delegated."
      },
      "userPointHistory(uint256,uint256)": {
        "notice": "User -> UserPoint[userEpoch]"
      },
      "voted(uint256)": {
        "notice": "See if a queried _tokenId has actively voted"
      },
      "voter()": {
        "notice": "Address of Voter.sol"
      },
      "voting(uint256,bool)": {
        "notice": "Set `voted` for _tokenId to true or false"
      },
      "withdraw(uint256)": {
        "notice": "Withdraw all tokens for `_tokenId`"
      },
      "withdrawManaged(uint256)": {
        "notice": "Retrieves locked rewards and withdraws balance from managed nft.         Note that the NFT withdrawn is re-locked to the maximum lock time."
      }
    },
    "version": 1
  },
  "storageLayout": {
    "storage": [
      {
        "astId": 739,
        "contract": "contracts/VeBTC.sol:VeBTC",
        "label": "_status",
        "offset": 0,
        "slot": "0",
        "type": "t_uint256"
      },
      {
        "astId": 17857,
        "contract": "contracts/VeBTC.sol:VeBTC",
        "label": "distributor",
        "offset": 0,
        "slot": "1",
        "type": "t_address"
      },
      {
        "astId": 17860,
        "contract": "contracts/VeBTC.sol:VeBTC",
        "label": "voter",
        "offset": 0,
        "slot": "2",
        "type": "t_address"
      },
      {
        "astId": 17863,
        "contract": "contracts/VeBTC.sol:VeBTC",
        "label": "team",
        "offset": 0,
        "slot": "3",
        "type": "t_address"
      },
      {
        "astId": 17866,
        "contract": "contracts/VeBTC.sol:VeBTC",
        "label": "artProxy",
        "offset": 0,
        "slot": "4",
        "type": "t_address"
      },
      {
        "astId": 17869,
        "contract": "contracts/VeBTC.sol:VeBTC",
        "label": "allowedManager",
        "offset": 0,
        "slot": "5",
        "type": "t_address"
      },
      {
        "astId": 17874,
        "contract": "contracts/VeBTC.sol:VeBTC",
        "label": "_pointHistory",
        "offset": 0,
        "slot": "6",
        "type": "t_mapping(t_uint256,t_struct(GlobalPoint)31122_storage)"
      },
      {
        "astId": 17879,
        "contract": "contracts/VeBTC.sol:VeBTC",
        "label": "supportedInterfaces",
        "offset": 0,
        "slot": "7",
        "type": "t_mapping(t_bytes4,t_bool)"
      },
      {
        "astId": 17902,
        "contract": "contracts/VeBTC.sol:VeBTC",
        "label": "tokenId",
        "offset": 0,
        "slot": "8",
        "type": "t_uint256"
      },
      {
        "astId": 18014,
        "contract": "contracts/VeBTC.sol:VeBTC",
        "label": "escrowType",
        "offset": 0,
        "slot": "9",
        "type": "t_mapping(t_uint256,t_enum(EscrowType)31142)"
      },
      {
        "astId": 18019,
        "contract": "contracts/VeBTC.sol:VeBTC",
        "label": "idToManaged",
        "offset": 0,
        "slot": "10",
        "type": "t_mapping(t_uint256,t_uint256)"
      },
      {
        "astId": 18026,
        "contract": "contracts/VeBTC.sol:VeBTC",
        "label": "weights",
        "offset": 0,
        "slot": "11",
        "type": "t_mapping(t_uint256,t_mapping(t_uint256,t_uint256))"
      },
      {
        "astId": 18031,
        "contract": "contracts/VeBTC.sol:VeBTC",
        "label": "deactivated",
        "offset": 0,
        "slot": "12",
        "type": "t_mapping(t_uint256,t_bool)"
      },
      {
        "astId": 18036,
        "contract": "contracts/VeBTC.sol:VeBTC",
        "label": "managedToLocked",
        "offset": 0,
        "slot": "13",
        "type": "t_mapping(t_uint256,t_address)"
      },
      {
        "astId": 18041,
        "contract": "contracts/VeBTC.sol:VeBTC",
        "label": "managedToFree",
        "offset": 0,
        "slot": "14",
        "type": "t_mapping(t_uint256,t_address)"
      },
      {
        "astId": 18780,
        "contract": "contracts/VeBTC.sol:VeBTC",
        "label": "idToOwner",
        "offset": 0,
        "slot": "15",
        "type": "t_mapping(t_uint256,t_address)"
      },
      {
        "astId": 18785,
        "contract": "contracts/VeBTC.sol:VeBTC",
        "label": "ownerToNFTokenCount",
        "offset": 0,
        "slot": "16",
        "type": "t_mapping(t_address,t_uint256)"
      },
      {
        "astId": 18828,
        "contract": "contracts/VeBTC.sol:VeBTC",
        "label": "idToApprovals",
        "offset": 0,
        "slot": "17",
        "type": "t_mapping(t_uint256,t_address)"
      },
      {
        "astId": 18835,
        "contract": "contracts/VeBTC.sol:VeBTC",
        "label": "ownerToOperators",
        "offset": 0,
        "slot": "18",
        "type": "t_mapping(t_address,t_mapping(t_address,t_bool))"
      },
      {
        "astId": 18839,
        "contract": "contracts/VeBTC.sol:VeBTC",
        "label": "ownershipChange",
        "offset": 0,
        "slot": "19",
        "type": "t_mapping(t_uint256,t_uint256)"
      },
      {
        "astId": 19262,
        "contract": "contracts/VeBTC.sol:VeBTC",
        "label": "ownerToNFTokenIdList",
        "offset": 0,
        "slot": "20",
        "type": "t_mapping(t_address,t_mapping(t_uint256,t_uint256))"
      },
      {
        "astId": 19267,
        "contract": "contracts/VeBTC.sol:VeBTC",
        "label": "tokenToOwnerIndex",
        "offset": 0,
        "slot": "21",
        "type": "t_mapping(t_uint256,t_uint256)"
      },
      {
        "astId": 19569,
        "contract": "contracts/VeBTC.sol:VeBTC",
        "label": "epoch",
        "offset": 0,
        "slot": "22",
        "type": "t_uint256"
      },
      {
        "astId": 19572,
        "contract": "contracts/VeBTC.sol:VeBTC",
        "label": "supply",
        "offset": 0,
        "slot": "23",
        "type": "t_uint256"
      },
      {
        "astId": 19577,
        "contract": "contracts/VeBTC.sol:VeBTC",
        "label": "_locked",
        "offset": 0,
        "slot": "24",
        "type": "t_mapping(t_uint256,t_struct(LockedBalance)31100_storage)"
      },
      {
        "astId": 19584,
        "contract": "contracts/VeBTC.sol:VeBTC",
        "label": "_userPointHistory",
        "offset": 0,
        "slot": "25",
        "type": "t_mapping(t_uint256,t_array(t_struct(UserPoint)31111_storage)1000000000_storage)"
      },
      {
        "astId": 19588,
        "contract": "contracts/VeBTC.sol:VeBTC",
        "label": "userPointEpoch",
        "offset": 0,
        "slot": "26",
        "type": "t_mapping(t_uint256,t_uint256)"
      },
      {
        "astId": 19593,
        "contract": "contracts/VeBTC.sol:VeBTC",
        "label": "slopeChanges",
        "offset": 0,
        "slot": "27",
        "type": "t_mapping(t_uint256,t_int128)"
      },
      {
        "astId": 19598,
        "contract": "contracts/VeBTC.sol:VeBTC",
        "label": "canSplit",
        "offset": 0,
        "slot": "28",
        "type": "t_mapping(t_address,t_bool)"
      },
      {
        "astId": 19601,
        "contract": "contracts/VeBTC.sol:VeBTC",
        "label": "permanentLockBalance",
        "offset": 0,
        "slot": "29",
        "type": "t_uint256"
      },
      {
        "astId": 21716,
        "contract": "contracts/VeBTC.sol:VeBTC",
        "label": "voted",
        "offset": 0,
        "slot": "30",
        "type": "t_mapping(t_uint256,t_bool)"
      },
      {
        "astId": 21781,
        "contract": "contracts/VeBTC.sol:VeBTC",
        "label": "_delegates",
        "offset": 0,
        "slot": "31",
        "type": "t_mapping(t_uint256,t_uint256)"
      },
      {
        "astId": 21789,
        "contract": "contracts/VeBTC.sol:VeBTC",
        "label": "_checkpoints",
        "offset": 0,
        "slot": "32",
        "type": "t_mapping(t_uint256,t_mapping(t_uint48,t_struct(Checkpoint)31132_storage))"
      },
      {
        "astId": 21794,
        "contract": "contracts/VeBTC.sol:VeBTC",
        "label": "numCheckpoints",
        "offset": 0,
        "slot": "33",
        "type": "t_mapping(t_uint256,t_uint48)"
      },
      {
        "astId": 21799,
        "contract": "contracts/VeBTC.sol:VeBTC",
        "label": "nonces",
        "offset": 0,
        "slot": "34",
        "type": "t_mapping(t_address,t_uint256)"
      }
    ],
    "types": {
      "t_address": {
        "encoding": "inplace",
        "label": "address",
        "numberOfBytes": "20"
      },
      "t_array(t_struct(UserPoint)31111_storage)1000000000_storage": {
        "base": "t_struct(UserPoint)31111_storage",
        "encoding": "inplace",
        "label": "struct IVotingEscrow.UserPoint[1000000000]",
        "numberOfBytes": "128000000000"
      },
      "t_bool": {
        "encoding": "inplace",
        "label": "bool",
        "numberOfBytes": "1"
      },
      "t_bytes4": {
        "encoding": "inplace",
        "label": "bytes4",
        "numberOfBytes": "4"
      },
      "t_enum(EscrowType)31142": {
        "encoding": "inplace",
        "label": "enum IVotingEscrow.EscrowType",
        "numberOfBytes": "1"
      },
      "t_int128": {
        "encoding": "inplace",
        "label": "int128",
        "numberOfBytes": "16"
      },
      "t_mapping(t_address,t_bool)": {
        "encoding": "mapping",
        "key": "t_address",
        "label": "mapping(address => bool)",
        "numberOfBytes": "32",
        "value": "t_bool"
      },
      "t_mapping(t_address,t_mapping(t_address,t_bool))": {
        "encoding": "mapping",
        "key": "t_address",
        "label": "mapping(address => mapping(address => bool))",
        "numberOfBytes": "32",
        "value": "t_mapping(t_address,t_bool)"
      },
      "t_mapping(t_address,t_mapping(t_uint256,t_uint256))": {
        "encoding": "mapping",
        "key": "t_address",
        "label": "mapping(address => mapping(uint256 => uint256))",
        "numberOfBytes": "32",
        "value": "t_mapping(t_uint256,t_uint256)"
      },
      "t_mapping(t_address,t_uint256)": {
        "encoding": "mapping",
        "key": "t_address",
        "label": "mapping(address => uint256)",
        "numberOfBytes": "32",
        "value": "t_uint256"
      },
      "t_mapping(t_bytes4,t_bool)": {
        "encoding": "mapping",
        "key": "t_bytes4",
        "label": "mapping(bytes4 => bool)",
        "numberOfBytes": "32",
        "value": "t_bool"
      },
      "t_mapping(t_uint256,t_address)": {
        "encoding": "mapping",
        "key": "t_uint256",
        "label": "mapping(uint256 => address)",
        "numberOfBytes": "32",
        "value": "t_address"
      },
      "t_mapping(t_uint256,t_array(t_struct(UserPoint)31111_storage)1000000000_storage)": {
        "encoding": "mapping",
        "key": "t_uint256",
        "label": "mapping(uint256 => struct IVotingEscrow.UserPoint[1000000000])",
        "numberOfBytes": "32",
        "value": "t_array(t_struct(UserPoint)31111_storage)1000000000_storage"
      },
      "t_mapping(t_uint256,t_bool)": {
        "encoding": "mapping",
        "key": "t_uint256",
        "label": "mapping(uint256 => bool)",
        "numberOfBytes": "32",
        "value": "t_bool"
      },
      "t_mapping(t_uint256,t_enum(EscrowType)31142)": {
        "encoding": "mapping",
        "key": "t_uint256",
        "label": "mapping(uint256 => enum IVotingEscrow.EscrowType)",
        "numberOfBytes": "32",
        "value": "t_enum(EscrowType)31142"
      },
      "t_mapping(t_uint256,t_int128)": {
        "encoding": "mapping",
        "key": "t_uint256",
        "label": "mapping(uint256 => int128)",
        "numberOfBytes": "32",
        "value": "t_int128"
      },
      "t_mapping(t_uint256,t_mapping(t_uint256,t_uint256))": {
        "encoding": "mapping",
        "key": "t_uint256",
        "label": "mapping(uint256 => mapping(uint256 => uint256))",
        "numberOfBytes": "32",
        "value": "t_mapping(t_uint256,t_uint256)"
      },
      "t_mapping(t_uint256,t_mapping(t_uint48,t_struct(Checkpoint)31132_storage))": {
        "encoding": "mapping",
        "key": "t_uint256",
        "label": "mapping(uint256 => mapping(uint48 => struct IVotingEscrow.Checkpoint))",
        "numberOfBytes": "32",
        "value": "t_mapping(t_uint48,t_struct(Checkpoint)31132_storage)"
      },
      "t_mapping(t_uint256,t_struct(GlobalPoint)31122_storage)": {
        "encoding": "mapping",
        "key": "t_uint256",
        "label": "mapping(uint256 => struct IVotingEscrow.GlobalPoint)",
        "numberOfBytes": "32",
        "value": "t_struct(GlobalPoint)31122_storage"
      },
      "t_mapping(t_uint256,t_struct(LockedBalance)31100_storage)": {
        "encoding": "mapping",
        "key": "t_uint256",
        "label": "mapping(uint256 => struct IVotingEscrow.LockedBalance)",
        "numberOfBytes": "32",
        "value": "t_struct(LockedBalance)31100_storage"
      },
      "t_mapping(t_uint256,t_uint256)": {
        "encoding": "mapping",
        "key": "t_uint256",
        "label": "mapping(uint256 => uint256)",
        "numberOfBytes": "32",
        "value": "t_uint256"
      },
      "t_mapping(t_uint256,t_uint48)": {
        "encoding": "mapping",
        "key": "t_uint256",
        "label": "mapping(uint256 => uint48)",
        "numberOfBytes": "32",
        "value": "t_uint48"
      },
      "t_mapping(t_uint48,t_struct(Checkpoint)31132_storage)": {
        "encoding": "mapping",
        "key": "t_uint48",
        "label": "mapping(uint48 => struct IVotingEscrow.Checkpoint)",
        "numberOfBytes": "32",
        "value": "t_struct(Checkpoint)31132_storage"
      },
      "t_struct(Checkpoint)31132_storage": {
        "encoding": "inplace",
        "label": "struct IVotingEscrow.Checkpoint",
        "members": [
          {
            "astId": 31125,
            "contract": "contracts/VeBTC.sol:VeBTC",
            "label": "fromTimestamp",
            "offset": 0,
            "slot": "0",
            "type": "t_uint256"
          },
          {
            "astId": 31127,
            "contract": "contracts/VeBTC.sol:VeBTC",
            "label": "owner",
            "offset": 0,
            "slot": "1",
            "type": "t_address"
          },
          {
            "astId": 31129,
            "contract": "contracts/VeBTC.sol:VeBTC",
            "label": "delegatedBalance",
            "offset": 0,
            "slot": "2",
            "type": "t_uint256"
          },
          {
            "astId": 31131,
            "contract": "contracts/VeBTC.sol:VeBTC",
            "label": "delegatee",
            "offset": 0,
            "slot": "3",
            "type": "t_uint256"
          }
        ],
        "numberOfBytes": "128"
      },
      "t_struct(GlobalPoint)31122_storage": {
        "encoding": "inplace",
        "label": "struct IVotingEscrow.GlobalPoint",
        "members": [
          {
            "astId": 31113,
            "contract": "contracts/VeBTC.sol:VeBTC",
            "label": "bias",
            "offset": 0,
            "slot": "0",
            "type": "t_int128"
          },
          {
            "astId": 31115,
            "contract": "contracts/VeBTC.sol:VeBTC",
            "label": "slope",
            "offset": 16,
            "slot": "0",
            "type": "t_int128"
          },
          {
            "astId": 31117,
            "contract": "contracts/VeBTC.sol:VeBTC",
            "label": "ts",
            "offset": 0,
            "slot": "1",
            "type": "t_uint256"
          },
          {
            "astId": 31119,
            "contract": "contracts/VeBTC.sol:VeBTC",
            "label": "blk",
            "offset": 0,
            "slot": "2",
            "type": "t_uint256"
          },
          {
            "astId": 31121,
            "contract": "contracts/VeBTC.sol:VeBTC",
            "label": "permanentLockBalance",
            "offset": 0,
            "slot": "3",
            "type": "t_uint256"
          }
        ],
        "numberOfBytes": "128"
      },
      "t_struct(LockedBalance)31100_storage": {
        "encoding": "inplace",
        "label": "struct IVotingEscrow.LockedBalance",
        "members": [
          {
            "astId": 31095,
            "contract": "contracts/VeBTC.sol:VeBTC",
            "label": "amount",
            "offset": 0,
            "slot": "0",
            "type": "t_int128"
          },
          {
            "astId": 31097,
            "contract": "contracts/VeBTC.sol:VeBTC",
            "label": "end",
            "offset": 0,
            "slot": "1",
            "type": "t_uint256"
          },
          {
            "astId": 31099,
            "contract": "contracts/VeBTC.sol:VeBTC",
            "label": "isPermanent",
            "offset": 0,
            "slot": "2",
            "type": "t_bool"
          }
        ],
        "numberOfBytes": "96"
      },
      "t_struct(UserPoint)31111_storage": {
        "encoding": "inplace",
        "label": "struct IVotingEscrow.UserPoint",
        "members": [
          {
            "astId": 31102,
            "contract": "contracts/VeBTC.sol:VeBTC",
            "label": "bias",
            "offset": 0,
            "slot": "0",
            "type": "t_int128"
          },
          {
            "astId": 31104,
            "contract": "contracts/VeBTC.sol:VeBTC",
            "label": "slope",
            "offset": 16,
            "slot": "0",
            "type": "t_int128"
          },
          {
            "astId": 31106,
            "contract": "contracts/VeBTC.sol:VeBTC",
            "label": "ts",
            "offset": 0,
            "slot": "1",
            "type": "t_uint256"
          },
          {
            "astId": 31108,
            "contract": "contracts/VeBTC.sol:VeBTC",
            "label": "blk",
            "offset": 0,
            "slot": "2",
            "type": "t_uint256"
          },
          {
            "astId": 31110,
            "contract": "contracts/VeBTC.sol:VeBTC",
            "label": "permanent",
            "offset": 0,
            "slot": "3",
            "type": "t_uint256"
          }
        ],
        "numberOfBytes": "128"
      },
      "t_uint256": {
        "encoding": "inplace",
        "label": "uint256",
        "numberOfBytes": "32"
      },
      "t_uint48": {
        "encoding": "inplace",
        "label": "uint48",
        "numberOfBytes": "6"
      }
    }
  }
}