{
  "address": "0x9A82bE743f0120fA24893b1631B6b2817fD94b1D",
  "abi": [
    {
      "inputs": [
        {
          "internalType": "address",
          "name": "_forwarder",
          "type": "address"
        },
        {
          "internalType": "address",
          "name": "_ve",
          "type": "address"
        },
        {
          "internalType": "address",
          "name": "_factoryRegistry",
          "type": "address"
        }
      ],
      "stateMutability": "nonpayable",
      "type": "constructor"
    },
    {
      "inputs": [],
      "name": "AlreadyVotedOrDeposited",
      "type": "error"
    },
    {
      "inputs": [],
      "name": "DistributeWindow",
      "type": "error"
    },
    {
      "inputs": [],
      "name": "FactoryPathNotApproved",
      "type": "error"
    },
    {
      "inputs": [],
      "name": "GaugeAlreadyKilled",
      "type": "error"
    },
    {
      "inputs": [],
      "name": "GaugeAlreadyRevived",
      "type": "error"
    },
    {
      "inputs": [
        {
          "internalType": "address",
          "name": "_pool",
          "type": "address"
        }
      ],
      "name": "GaugeDoesNotExist",
      "type": "error"
    },
    {
      "inputs": [],
      "name": "GaugeExists",
      "type": "error"
    },
    {
      "inputs": [
        {
          "internalType": "address",
          "name": "_gauge",
          "type": "address"
        }
      ],
      "name": "GaugeNotAlive",
      "type": "error"
    },
    {
      "inputs": [],
      "name": "InactiveManagedNFT",
      "type": "error"
    },
    {
      "inputs": [],
      "name": "MaximumVotingNumberTooLow",
      "type": "error"
    },
    {
      "inputs": [],
      "name": "NonZeroVotes",
      "type": "error"
    },
    {
      "inputs": [],
      "name": "NotAPool",
      "type": "error"
    },
    {
      "inputs": [],
      "name": "NotApprovedOrOwner",
      "type": "error"
    },
    {
      "inputs": [],
      "name": "NotEmergencyCouncil",
      "type": "error"
    },
    {
      "inputs": [],
      "name": "NotGovernor",
      "type": "error"
    },
    {
      "inputs": [],
      "name": "NotMinter",
      "type": "error"
    },
    {
      "inputs": [],
      "name": "NotWhitelistedNFT",
      "type": "error"
    },
    {
      "inputs": [],
      "name": "NotWhitelistedToken",
      "type": "error"
    },
    {
      "inputs": [],
      "name": "SameValue",
      "type": "error"
    },
    {
      "inputs": [],
      "name": "SpecialVotingWindow",
      "type": "error"
    },
    {
      "inputs": [],
      "name": "TooManyPools",
      "type": "error"
    },
    {
      "inputs": [],
      "name": "UnequalLengths",
      "type": "error"
    },
    {
      "inputs": [],
      "name": "ZeroAddress",
      "type": "error"
    },
    {
      "inputs": [],
      "name": "ZeroBalance",
      "type": "error"
    },
    {
      "anonymous": false,
      "inputs": [
        {
          "indexed": true,
          "internalType": "address",
          "name": "voter",
          "type": "address"
        },
        {
          "indexed": true,
          "internalType": "address",
          "name": "pool",
          "type": "address"
        },
        {
          "indexed": true,
          "internalType": "uint256",
          "name": "tokenId",
          "type": "uint256"
        },
        {
          "indexed": false,
          "internalType": "uint256",
          "name": "weight",
          "type": "uint256"
        },
        {
          "indexed": false,
          "internalType": "uint256",
          "name": "totalWeight",
          "type": "uint256"
        },
        {
          "indexed": false,
          "internalType": "uint256",
          "name": "timestamp",
          "type": "uint256"
        }
      ],
      "name": "Abstained",
      "type": "event"
    },
    {
      "anonymous": false,
      "inputs": [
        {
          "indexed": true,
          "internalType": "address",
          "name": "sender",
          "type": "address"
        },
        {
          "indexed": true,
          "internalType": "address",
          "name": "gauge",
          "type": "address"
        },
        {
          "indexed": false,
          "internalType": "uint256",
          "name": "amount",
          "type": "uint256"
        }
      ],
      "name": "DistributeReward",
      "type": "event"
    },
    {
      "anonymous": false,
      "inputs": [
        {
          "indexed": true,
          "internalType": "address",
          "name": "poolFactory",
          "type": "address"
        },
        {
          "indexed": true,
          "internalType": "address",
          "name": "votingRewardsFactory",
          "type": "address"
        },
        {
          "indexed": true,
          "internalType": "address",
          "name": "gaugeFactory",
          "type": "address"
        },
        {
          "indexed": false,
          "internalType": "address",
          "name": "pool",
          "type": "address"
        },
        {
          "indexed": false,
          "internalType": "address",
          "name": "bribeVotingReward",
          "type": "address"
        },
        {
          "indexed": false,
          "internalType": "address",
          "name": "feeVotingReward",
          "type": "address"
        },
        {
          "indexed": false,
          "internalType": "address",
          "name": "gauge",
          "type": "address"
        },
        {
          "indexed": false,
          "internalType": "address",
          "name": "creator",
          "type": "address"
        }
      ],
      "name": "GaugeCreated",
      "type": "event"
    },
    {
      "anonymous": false,
      "inputs": [
        {
          "indexed": true,
          "internalType": "address",
          "name": "gauge",
          "type": "address"
        }
      ],
      "name": "GaugeKilled",
      "type": "event"
    },
    {
      "anonymous": false,
      "inputs": [
        {
          "indexed": true,
          "internalType": "address",
          "name": "gauge",
          "type": "address"
        }
      ],
      "name": "GaugeRevived",
      "type": "event"
    },
    {
      "anonymous": false,
      "inputs": [
        {
          "indexed": true,
          "internalType": "address",
          "name": "sender",
          "type": "address"
        },
        {
          "indexed": true,
          "internalType": "address",
          "name": "reward",
          "type": "address"
        },
        {
          "indexed": false,
          "internalType": "uint256",
          "name": "amount",
          "type": "uint256"
        }
      ],
      "name": "NotifyReward",
      "type": "event"
    },
    {
      "anonymous": false,
      "inputs": [
        {
          "indexed": true,
          "internalType": "address",
          "name": "voter",
          "type": "address"
        },
        {
          "indexed": true,
          "internalType": "address",
          "name": "pool",
          "type": "address"
        },
        {
          "indexed": true,
          "internalType": "uint256",
          "name": "tokenId",
          "type": "uint256"
        },
        {
          "indexed": false,
          "internalType": "uint256",
          "name": "weight",
          "type": "uint256"
        },
        {
          "indexed": false,
          "internalType": "uint256",
          "name": "totalWeight",
          "type": "uint256"
        },
        {
          "indexed": false,
          "internalType": "uint256",
          "name": "timestamp",
          "type": "uint256"
        }
      ],
      "name": "Voted",
      "type": "event"
    },
    {
      "anonymous": false,
      "inputs": [
        {
          "indexed": true,
          "internalType": "address",
          "name": "whitelister",
          "type": "address"
        },
        {
          "indexed": true,
          "internalType": "uint256",
          "name": "tokenId",
          "type": "uint256"
        },
        {
          "indexed": true,
          "internalType": "bool",
          "name": "_bool",
          "type": "bool"
        }
      ],
      "name": "WhitelistNFT",
      "type": "event"
    },
    {
      "anonymous": false,
      "inputs": [
        {
          "indexed": true,
          "internalType": "address",
          "name": "whitelister",
          "type": "address"
        },
        {
          "indexed": true,
          "internalType": "address",
          "name": "token",
          "type": "address"
        },
        {
          "indexed": true,
          "internalType": "bool",
          "name": "_bool",
          "type": "bool"
        }
      ],
      "name": "WhitelistToken",
      "type": "event"
    },
    {
      "inputs": [
        {
          "internalType": "address[]",
          "name": "_bribes",
          "type": "address[]"
        },
        {
          "internalType": "address[][]",
          "name": "_tokens",
          "type": "address[][]"
        },
        {
          "internalType": "uint256",
          "name": "_tokenId",
          "type": "uint256"
        }
      ],
      "name": "claimBribes",
      "outputs": [],
      "stateMutability": "nonpayable",
      "type": "function"
    },
    {
      "inputs": [
        {
          "internalType": "address[]",
          "name": "_fees",
          "type": "address[]"
        },
        {
          "internalType": "address[][]",
          "name": "_tokens",
          "type": "address[][]"
        },
        {
          "internalType": "uint256",
          "name": "_tokenId",
          "type": "uint256"
        }
      ],
      "name": "claimFees",
      "outputs": [],
      "stateMutability": "nonpayable",
      "type": "function"
    },
    {
      "inputs": [
        {
          "internalType": "address[]",
          "name": "_gauges",
          "type": "address[]"
        }
      ],
      "name": "claimRewards",
      "outputs": [],
      "stateMutability": "nonpayable",
      "type": "function"
    },
    {
      "inputs": [
        {
          "internalType": "address",
          "name": "",
          "type": "address"
        }
      ],
      "name": "claimable",
      "outputs": [
        {
          "internalType": "uint256",
          "name": "",
          "type": "uint256"
        }
      ],
      "stateMutability": "view",
      "type": "function"
    },
    {
      "inputs": [
        {
          "internalType": "address",
          "name": "_poolFactory",
          "type": "address"
        },
        {
          "internalType": "address",
          "name": "_votingRewardsFactory",
          "type": "address"
        },
        {
          "internalType": "address",
          "name": "_gaugeFactory",
          "type": "address"
        },
        {
          "internalType": "address",
          "name": "_pool",
          "type": "address"
        }
      ],
      "name": "createGauge",
      "outputs": [
        {
          "internalType": "address",
          "name": "",
          "type": "address"
        }
      ],
      "stateMutability": "nonpayable",
      "type": "function"
    },
    {
      "inputs": [
        {
          "internalType": "uint256",
          "name": "_tokenId",
          "type": "uint256"
        },
        {
          "internalType": "uint256",
          "name": "_mTokenId",
          "type": "uint256"
        }
      ],
      "name": "depositManaged",
      "outputs": [],
      "stateMutability": "nonpayable",
      "type": "function"
    },
    {
      "inputs": [
        {
          "internalType": "address[]",
          "name": "_gauges",
          "type": "address[]"
        }
      ],
      "name": "distribute",
      "outputs": [],
      "stateMutability": "nonpayable",
      "type": "function"
    },
    {
      "inputs": [
        {
          "internalType": "uint256",
          "name": "_start",
          "type": "uint256"
        },
        {
          "internalType": "uint256",
          "name": "_finish",
          "type": "uint256"
        }
      ],
      "name": "distribute",
      "outputs": [],
      "stateMutability": "nonpayable",
      "type": "function"
    },
    {
      "inputs": [],
      "name": "emergencyCouncil",
      "outputs": [
        {
          "internalType": "address",
          "name": "",
          "type": "address"
        }
      ],
      "stateMutability": "view",
      "type": "function"
    },
    {
      "inputs": [],
      "name": "epochGovernor",
      "outputs": [
        {
          "internalType": "address",
          "name": "",
          "type": "address"
        }
      ],
      "stateMutability": "view",
      "type": "function"
    },
    {
      "inputs": [
        {
          "internalType": "uint256",
          "name": "_timestamp",
          "type": "uint256"
        }
      ],
      "name": "epochNext",
      "outputs": [
        {
          "internalType": "uint256",
          "name": "",
          "type": "uint256"
        }
      ],
      "stateMutability": "pure",
      "type": "function"
    },
    {
      "inputs": [
        {
          "internalType": "uint256",
          "name": "_timestamp",
          "type": "uint256"
        }
      ],
      "name": "epochStart",
      "outputs": [
        {
          "internalType": "uint256",
          "name": "",
          "type": "uint256"
        }
      ],
      "stateMutability": "pure",
      "type": "function"
    },
    {
      "inputs": [
        {
          "internalType": "uint256",
          "name": "_timestamp",
          "type": "uint256"
        }
      ],
      "name": "epochVoteEnd",
      "outputs": [
        {
          "internalType": "uint256",
          "name": "",
          "type": "uint256"
        }
      ],
      "stateMutability": "pure",
      "type": "function"
    },
    {
      "inputs": [
        {
          "internalType": "uint256",
          "name": "_timestamp",
          "type": "uint256"
        }
      ],
      "name": "epochVoteStart",
      "outputs": [
        {
          "internalType": "uint256",
          "name": "",
          "type": "uint256"
        }
      ],
      "stateMutability": "pure",
      "type": "function"
    },
    {
      "inputs": [],
      "name": "factoryRegistry",
      "outputs": [
        {
          "internalType": "address",
          "name": "",
          "type": "address"
        }
      ],
      "stateMutability": "view",
      "type": "function"
    },
    {
      "inputs": [],
      "name": "forwarder",
      "outputs": [
        {
          "internalType": "address",
          "name": "",
          "type": "address"
        }
      ],
      "stateMutability": "view",
      "type": "function"
    },
    {
      "inputs": [
        {
          "internalType": "address",
          "name": "",
          "type": "address"
        }
      ],
      "name": "gaugeToBribe",
      "outputs": [
        {
          "internalType": "address",
          "name": "",
          "type": "address"
        }
      ],
      "stateMutability": "view",
      "type": "function"
    },
    {
      "inputs": [
        {
          "internalType": "address",
          "name": "",
          "type": "address"
        }
      ],
      "name": "gaugeToFees",
      "outputs": [
        {
          "internalType": "address",
          "name": "",
          "type": "address"
        }
      ],
      "stateMutability": "view",
      "type": "function"
    },
    {
      "inputs": [
        {
          "internalType": "address",
          "name": "",
          "type": "address"
        }
      ],
      "name": "gauges",
      "outputs": [
        {
          "internalType": "address",
          "name": "",
          "type": "address"
        }
      ],
      "stateMutability": "view",
      "type": "function"
    },
    {
      "inputs": [],
      "name": "governor",
      "outputs": [
        {
          "internalType": "address",
          "name": "",
          "type": "address"
        }
      ],
      "stateMutability": "view",
      "type": "function"
    },
    {
      "inputs": [
        {
          "internalType": "address[]",
          "name": "_tokens",
          "type": "address[]"
        },
        {
          "internalType": "address",
          "name": "_minter",
          "type": "address"
        }
      ],
      "name": "initialize",
      "outputs": [],
      "stateMutability": "nonpayable",
      "type": "function"
    },
    {
      "inputs": [
        {
          "internalType": "address",
          "name": "",
          "type": "address"
        }
      ],
      "name": "isAlive",
      "outputs": [
        {
          "internalType": "bool",
          "name": "",
          "type": "bool"
        }
      ],
      "stateMutability": "view",
      "type": "function"
    },
    {
      "inputs": [
        {
          "internalType": "address",
          "name": "",
          "type": "address"
        }
      ],
      "name": "isGauge",
      "outputs": [
        {
          "internalType": "bool",
          "name": "",
          "type": "bool"
        }
      ],
      "stateMutability": "view",
      "type": "function"
    },
    {
      "inputs": [
        {
          "internalType": "address",
          "name": "forwarder",
          "type": "address"
        }
      ],
      "name": "isTrustedForwarder",
      "outputs": [
        {
          "internalType": "bool",
          "name": "",
          "type": "bool"
        }
      ],
      "stateMutability": "view",
      "type": "function"
    },
    {
      "inputs": [
        {
          "internalType": "uint256",
          "name": "",
          "type": "uint256"
        }
      ],
      "name": "isWhitelistedNFT",
      "outputs": [
        {
          "internalType": "bool",
          "name": "",
          "type": "bool"
        }
      ],
      "stateMutability": "view",
      "type": "function"
    },
    {
      "inputs": [
        {
          "internalType": "address",
          "name": "",
          "type": "address"
        }
      ],
      "name": "isWhitelistedToken",
      "outputs": [
        {
          "internalType": "bool",
          "name": "",
          "type": "bool"
        }
      ],
      "stateMutability": "view",
      "type": "function"
    },
    {
      "inputs": [
        {
          "internalType": "address",
          "name": "_gauge",
          "type": "address"
        }
      ],
      "name": "killGauge",
      "outputs": [],
      "stateMutability": "nonpayable",
      "type": "function"
    },
    {
      "inputs": [
        {
          "internalType": "uint256",
          "name": "",
          "type": "uint256"
        }
      ],
      "name": "lastVoted",
      "outputs": [
        {
          "internalType": "uint256",
          "name": "",
          "type": "uint256"
        }
      ],
      "stateMutability": "view",
      "type": "function"
    },
    {
      "inputs": [],
      "name": "length",
      "outputs": [
        {
          "internalType": "uint256",
          "name": "",
          "type": "uint256"
        }
      ],
      "stateMutability": "view",
      "type": "function"
    },
    {
      "inputs": [],
      "name": "maxVotingNum",
      "outputs": [
        {
          "internalType": "uint256",
          "name": "",
          "type": "uint256"
        }
      ],
      "stateMutability": "view",
      "type": "function"
    },
    {
      "inputs": [],
      "name": "minter",
      "outputs": [
        {
          "internalType": "address",
          "name": "",
          "type": "address"
        }
      ],
      "stateMutability": "view",
      "type": "function"
    },
    {
      "inputs": [
        {
          "internalType": "uint256",
          "name": "_amount",
          "type": "uint256"
        }
      ],
      "name": "notifyRewardAmount",
      "outputs": [],
      "stateMutability": "nonpayable",
      "type": "function"
    },
    {
      "inputs": [
        {
          "internalType": "uint256",
          "name": "_tokenId",
          "type": "uint256"
        }
      ],
      "name": "poke",
      "outputs": [],
      "stateMutability": "nonpayable",
      "type": "function"
    },
    {
      "inputs": [
        {
          "internalType": "address",
          "name": "",
          "type": "address"
        }
      ],
      "name": "poolForGauge",
      "outputs": [
        {
          "internalType": "address",
          "name": "",
          "type": "address"
        }
      ],
      "stateMutability": "view",
      "type": "function"
    },
    {
      "inputs": [
        {
          "internalType": "uint256",
          "name": "",
          "type": "uint256"
        },
        {
          "internalType": "uint256",
          "name": "",
          "type": "uint256"
        }
      ],
      "name": "poolVote",
      "outputs": [
        {
          "internalType": "address",
          "name": "",
          "type": "address"
        }
      ],
      "stateMutability": "view",
      "type": "function"
    },
    {
      "inputs": [
        {
          "internalType": "uint256",
          "name": "",
          "type": "uint256"
        }
      ],
      "name": "pools",
      "outputs": [
        {
          "internalType": "address",
          "name": "",
          "type": "address"
        }
      ],
      "stateMutability": "view",
      "type": "function"
    },
    {
      "inputs": [
        {
          "internalType": "uint256",
          "name": "_tokenId",
          "type": "uint256"
        }
      ],
      "name": "reset",
      "outputs": [],
      "stateMutability": "nonpayable",
      "type": "function"
    },
    {
      "inputs": [
        {
          "internalType": "address",
          "name": "_gauge",
          "type": "address"
        }
      ],
      "name": "reviveGauge",
      "outputs": [],
      "stateMutability": "nonpayable",
      "type": "function"
    },
    {
      "inputs": [
        {
          "internalType": "address",
          "name": "_council",
          "type": "address"
        }
      ],
      "name": "setEmergencyCouncil",
      "outputs": [],
      "stateMutability": "nonpayable",
      "type": "function"
    },
    {
      "inputs": [
        {
          "internalType": "address",
          "name": "_epochGovernor",
          "type": "address"
        }
      ],
      "name": "setEpochGovernor",
      "outputs": [],
      "stateMutability": "nonpayable",
      "type": "function"
    },
    {
      "inputs": [
        {
          "internalType": "address",
          "name": "_governor",
          "type": "address"
        }
      ],
      "name": "setGovernor",
      "outputs": [],
      "stateMutability": "nonpayable",
      "type": "function"
    },
    {
      "inputs": [
        {
          "internalType": "uint256",
          "name": "_maxVotingNum",
          "type": "uint256"
        }
      ],
      "name": "setMaxVotingNum",
      "outputs": [],
      "stateMutability": "nonpayable",
      "type": "function"
    },
    {
      "inputs": [],
      "name": "totalWeight",
      "outputs": [
        {
          "internalType": "uint256",
          "name": "",
          "type": "uint256"
        }
      ],
      "stateMutability": "view",
      "type": "function"
    },
    {
      "inputs": [
        {
          "internalType": "address",
          "name": "_gauge",
          "type": "address"
        }
      ],
      "name": "updateFor",
      "outputs": [],
      "stateMutability": "nonpayable",
      "type": "function"
    },
    {
      "inputs": [
        {
          "internalType": "uint256",
          "name": "start",
          "type": "uint256"
        },
        {
          "internalType": "uint256",
          "name": "end",
          "type": "uint256"
        }
      ],
      "name": "updateFor",
      "outputs": [],
      "stateMutability": "nonpayable",
      "type": "function"
    },
    {
      "inputs": [
        {
          "internalType": "address[]",
          "name": "_gauges",
          "type": "address[]"
        }
      ],
      "name": "updateFor",
      "outputs": [],
      "stateMutability": "nonpayable",
      "type": "function"
    },
    {
      "inputs": [
        {
          "internalType": "uint256",
          "name": "",
          "type": "uint256"
        }
      ],
      "name": "usedWeights",
      "outputs": [
        {
          "internalType": "uint256",
          "name": "",
          "type": "uint256"
        }
      ],
      "stateMutability": "view",
      "type": "function"
    },
    {
      "inputs": [],
      "name": "ve",
      "outputs": [
        {
          "internalType": "address",
          "name": "",
          "type": "address"
        }
      ],
      "stateMutability": "view",
      "type": "function"
    },
    {
      "inputs": [
        {
          "internalType": "uint256",
          "name": "_tokenId",
          "type": "uint256"
        },
        {
          "internalType": "address[]",
          "name": "_poolVote",
          "type": "address[]"
        },
        {
          "internalType": "uint256[]",
          "name": "_weights",
          "type": "uint256[]"
        }
      ],
      "name": "vote",
      "outputs": [],
      "stateMutability": "nonpayable",
      "type": "function"
    },
    {
      "inputs": [
        {
          "internalType": "uint256",
          "name": "",
          "type": "uint256"
        },
        {
          "internalType": "address",
          "name": "",
          "type": "address"
        }
      ],
      "name": "votes",
      "outputs": [
        {
          "internalType": "uint256",
          "name": "",
          "type": "uint256"
        }
      ],
      "stateMutability": "view",
      "type": "function"
    },
    {
      "inputs": [
        {
          "internalType": "address",
          "name": "",
          "type": "address"
        }
      ],
      "name": "weights",
      "outputs": [
        {
          "internalType": "uint256",
          "name": "",
          "type": "uint256"
        }
      ],
      "stateMutability": "view",
      "type": "function"
    },
    {
      "inputs": [
        {
          "internalType": "uint256",
          "name": "_tokenId",
          "type": "uint256"
        },
        {
          "internalType": "bool",
          "name": "_bool",
          "type": "bool"
        }
      ],
      "name": "whitelistNFT",
      "outputs": [],
      "stateMutability": "nonpayable",
      "type": "function"
    },
    {
      "inputs": [
        {
          "internalType": "address",
          "name": "_token",
          "type": "address"
        },
        {
          "internalType": "bool",
          "name": "_bool",
          "type": "bool"
        }
      ],
      "name": "whitelistToken",
      "outputs": [],
      "stateMutability": "nonpayable",
      "type": "function"
    },
    {
      "inputs": [
        {
          "internalType": "uint256",
          "name": "_tokenId",
          "type": "uint256"
        }
      ],
      "name": "withdrawManaged",
      "outputs": [],
      "stateMutability": "nonpayable",
      "type": "function"
    }
  ],
  "transactionHash": "0xd7140f7363654a5a6cee390321123c3d170a0980aa946c0b30f2fa4e38d9909e",
  "args": [
    "0xB57ab578BF20b3e318f3EFAA587C51DBccE5df7a",
    "0xb8f31A249bcb45267d06b9E51252c4793B917Cd0",
    "0x391EcC7ffEFc48cff41D0F2Bb36e38b82180B993"
  ],
  "numDeployments": 1,
  "solcInputHash": "1323dd419c1f876af4efeebab361c06a",
  "bytecode": "0x6101206040523480156200001257600080fd5b50604051620042f2380380620042f2833981016040819052620000359162000169565b6001600160a01b038084166080819052600160005560a05282811660c081905290821660e05260408051637e062a3560e11b8152905163fc0c546a916004808201926020929091908290030181865afa15801562000097573d6000803e3d6000fd5b505050506040513d601f19601f82011682018060405250810190620000bd9190620001b3565b6001600160a01b0316610100526000620000d662000124565b600180546001600160a01b039092166001600160a01b031992831681179091556002805483168217905560038054831682179055600480549092161790555050601e60065550620001d89050565b6080516000906001600160a01b0316330362000147575060131936013560601c90565b503390565b80516001600160a01b03811681146200016457600080fd5b919050565b6000806000606084860312156200017f57600080fd5b6200018a846200014c565b92506200019a602085016200014c565b9150620001aa604085016200014c565b90509250925092565b600060208284031215620001c657600080fd5b620001d1826200014c565b9392505050565b60805160a05160c05160e0516101005161401f620002d360003960008181610e5f01528181610ed40152818161194a01528181611f510152818161297f0152818161305201526130e00152600081816104570152611b880152600081816103be0152818161097f01528181610a7701528181610b7601528181610c4201528181610cce01528181610d5001528181611167015281816113b7015281816115ac0152818161169c0152818161179c0152818161243b015281816124e8015281816125d50152818161265701528181612d3301526135710152600081816107e701528181611e830152611f1901526000610fec015261401f6000f3fe608060405234801561001057600080fd5b50600436106102e25760003560e01c8063880e36fc11610188578063c42cf535116100e4578063e0c11f9a11610092578063e0c11f9a14610780578063e2819d5c14610793578063e586875f146107a6578063e8b3fd57146107b9578063f3594be0146107c2578063f645d4f9146107e2578063f9f031df1461080957600080fd5b8063c42cf535146106bd578063c4f08165146106d0578063c9ff6f4d146106f9578063d23254b41461070c578063d4e2616f14610737578063d560b0d71461075a578063d58b15d41461076d57600080fd5b8063a86a366d11610141578063a86a366d14610602578063aa79979b14610615578063aa9354a314610638578063ab37f4861461064b578063ac4afa381461066e578063b9a09fd514610681578063ba9225f7146106aa57600080fd5b8063880e36fc14610577578063929c8dcd1461058a57806396c82e57146105b3578063992a7933146105bc5780639f06247b146105cf578063a7cac846146105e257600080fd5b80633aae971f116102425780636138889b116101f05780636138889b146104e5578063666256aa146104f85780637625391a1461050b5780637715ee751461051e5780637778960e1461053157806379e93824146105445780637ac09bf71461056457600080fd5b80633aae971f1461043f5780633bf0c9fb146104525780633c6b16ab14610479578063402914f51461048c578063462d0b2e146104ac578063572b6c05146104bf578063598d521b146104d257600080fd5b80631f7b6d321161029f5780631f7b6d32146103a75780631f850716146103b957806330331b2f146103e0578063310bd74b146103f357806332145f9014610406578063370fb5fa1461041957806339e9f3b61461042c57600080fd5b806306d6a1b2146102e757806307546172146103265780630c340a24146103395780630e0a59681461034c5780630ffb1d8b146103615780631703e5f914610374575b600080fd5b6103106102f536600461396a565b6009602052600090815260409020546001600160a01b031681565b60405161031d9190613987565b60405180910390f35b600154610310906001600160a01b031681565b600254610310906001600160a01b031681565b61035f61035a36600461396a565b61081c565b005b61035f61036f3660046139a9565b610828565b61039761038236600461396a565b60146020526000908152604090205460ff1681565b604051901515815260200161031d565b6007545b60405190815260200161031d565b6103107f000000000000000000000000000000000000000000000000000000000000000081565b61035f6103ee3660046139e2565b610871565b61035f6104013660046139e2565b6108f5565b61035f6104143660046139e2565b610a29565b61035f6104273660046139e2565b610b01565b6103ab61043a3660046139e2565b610e02565b600354610310906001600160a01b031681565b6103107f000000000000000000000000000000000000000000000000000000000000000081565b61035f6104873660046139e2565b610e17565b6103ab61049a36600461396a565b60176020526000908152604090205481565b61035f6104ba366004613a46565b610f44565b6103976104cd36600461396a565b610fea565b61035f6104e036600461396a565b61101c565b61035f6104f3366004613b7d565b6110a0565b61035f610506366004613bb1565b611165565b61035f610519366004613c8d565b6112cc565b61035f61052c366004613bb1565b6113b5565b600454610310906001600160a01b031681565b6103ab6105523660046139e2565b600f6020526000908152604090205481565b61035f610572366004613caf565b611515565b6103ab6105853660046139e2565b611895565b61031061059836600461396a565b600b602052600090815260409020546001600160a01b031681565b6103ab60055481565b61035f6105ca36600461396a565b6118a6565b61035f6105dd36600461396a565b6119d7565b6103ab6105f036600461396a565b600c6020526000908152604090205481565b610310610610366004613c8d565b611a98565b61039761062336600461396a565b60116020526000908152604090205460ff1681565b6103ab6106463660046139e2565b611ad0565b61039761065936600461396a565b60126020526000908152604090205460ff1681565b61031061067c3660046139e2565b611adf565b61031061068f36600461396a565b6008602052600090815260409020546001600160a01b031681565b6103106106b8366004613d28565b611b09565b61035f6106cb36600461396a565b612274565b6103106106de36600461396a565b600a602052600090815260409020546001600160a01b031681565b61035f610707366004613c8d565b6122f8565b6103ab61071a366004613d84565b600d60209081526000928352604080842090915290825290205481565b6103976107453660046139e2565b60136020526000908152604090205460ff1681565b61035f610768366004613b7d565b612359565b6103ab61077b3660046139e2565b612390565b61035f61078e366004613c8d565b6123a4565b61035f6107a1366004613da9565b6126e5565b61035f6107b436600461396a565b612777565b6103ab60065481565b6103ab6107d03660046139e2565b60106020526000908152604090205481565b6103107f000000000000000000000000000000000000000000000000000000000000000081565b61035f610817366004613b7d565b6127fb565b61082581612892565b50565b6002546001600160a01b031661083c6129d2565b6001600160a01b03161461086357604051633b8d9d7560e21b815260040160405180910390fd5b61086d82826129f4565b5050565b6002546001600160a01b03166108856129d2565b6001600160a01b0316146108ac57604051633b8d9d7560e21b815260040160405180910390fd5b600a8110156108ce57604051632db4ddc160e11b815260040160405180910390fd5b60065481036108f05760405163c23f6ccb60e01b815260040160405180910390fd5b600655565b60008181526010602052604090205481906109154262093a808106900390565b116109335760405163cade311f60e01b815260040160405180910390fd5b62093a80429081069003610e1001421161096057604051635a780bad60e01b815260040160405180910390fd5b610968612a5d565b60405163430c208160e01b81526001600160a01b037f0000000000000000000000000000000000000000000000000000000000000000169063430c2081906109b69033908690600401613dce565b6020604051808303816000875af11580156109d5573d6000803e3d6000fd5b505050506040513d601f19601f820116820180604052508101906109f99190613de7565b610a165760405163390cdd9b60e21b815260040160405180910390fd5b610a1f82612abb565b61086d6001600055565b610a31612a5d565b62093a80429081069003610e10014211610a5e57604051635a780bad60e01b815260040160405180910390fd5b6040516339f890b560e21b8152600481018290526000907f00000000000000000000000000000000000000000000000000000000000000006001600160a01b03169063e7e242d490602401602060405180830381865afa158015610ac6573d6000803e3d6000fd5b505050506040513d601f19601f82011682018060405250810190610aea9190613e04565b9050610af68282612dd8565b506108256001600055565b610b09612a5d565b6000818152601060205260409020548190610b294262093a808106900390565b11610b475760405163cade311f60e01b815260040160405180910390fd5b62093a80429081069003610e10014211610b7457604051635a780bad60e01b815260040160405180910390fd5b7f00000000000000000000000000000000000000000000000000000000000000006001600160a01b031663430c2081610bab6129d2565b846040518363ffffffff1660e01b8152600401610bc9929190613dce565b6020604051808303816000875af1158015610be8573d6000803e3d6000fd5b505050506040513d601f19601f82011682018060405250810190610c0c9190613de7565b610c295760405163390cdd9b60e21b815260040160405180910390fd5b6040516319a0a9d560e01b8152600481018390526000907f00000000000000000000000000000000000000000000000000000000000000006001600160a01b0316906319a0a9d590602401602060405180830381865afa158015610c91573d6000803e3d6000fd5b505050506040513d601f19601f82011682018060405250810190610cb59190613e04565b604051631b87dafd60e11b8152600481018590529091507f00000000000000000000000000000000000000000000000000000000000000006001600160a01b03169063370fb5fa90602401600060405180830381600087803b158015610d1a57600080fd5b505af1158015610d2e573d6000803e3d6000fd5b5050604051637028a55d60e11b815260048101849052426024820152600092507f00000000000000000000000000000000000000000000000000000000000000006001600160a01b0316915063e0514aba90604401602060405180830381865afa158015610da0573d6000803e3d6000fd5b505050506040513d601f19601f82011682018060405250810190610dc49190613e04565b905080600003610deb57610dd782612abb565b600082815260106020526040812055610df5565b610df58282612dd8565b5050506108256001600055565b600062093a8082068203610e10015b92915050565b6000610e216129d2565b6001549091506001600160a01b03808316911614610e5257604051633e34a41b60e21b815260040160405180910390fd5b610e876001600160a01b037f000000000000000000000000000000000000000000000000000000000000000016823085612f18565b6000610e966005546001612f83565b610ea884670de0b6b3a7640000613e33565b610eb29190613e4a565b90508015610ed2578060156000828254610ecc9190613e6c565b90915550505b7f00000000000000000000000000000000000000000000000000000000000000006001600160a01b0316826001600160a01b03167ff70d5c697de7ea828df48e5c4573cb2194c659f1901f70110c52b066dcf5082685604051610f3791815260200190565b60405180910390a3505050565b6001546001600160a01b0316610f586129d2565b6001600160a01b031614610f7f57604051633e34a41b60e21b815260040160405180910390fd5b8160005b81811015610fc457610fbc858583818110610fa057610fa0613e7f565b9050602002016020810190610fb5919061396a565b60016129f4565b600101610f83565b5050600180546001600160a01b0319166001600160a01b03929092169190911790555050565b7f00000000000000000000000000000000000000000000000000000000000000006001600160a01b0390811691161490565b6002546001600160a01b03166110306129d2565b6001600160a01b03161461105757604051633b8d9d7560e21b815260040160405180910390fd5b6001600160a01b03811661107e5760405163d92e233d60e01b815260040160405180910390fd5b600380546001600160a01b0319166001600160a01b0392909216919091179055565b6110a8612a5d565b600160009054906101000a90046001600160a01b03166001600160a01b031663a83627de6040518163ffffffff1660e01b81526004016020604051808303816000875af11580156110fd573d6000803e3d6000fd5b505050506040513d601f19601f820116820180604052508101906111219190613e04565b50805160005b818110156111595761115183828151811061114457611144613e7f565b6020026020010151612f9b565b600101611127565b50506108256001600055565b7f00000000000000000000000000000000000000000000000000000000000000006001600160a01b031663430c208161119c6129d2565b836040518363ffffffff1660e01b81526004016111ba929190613dce565b6020604051808303816000875af11580156111d9573d6000803e3d6000fd5b505050506040513d601f19601f820116820180604052508101906111fd9190613de7565b61121a5760405163390cdd9b60e21b815260040160405180910390fd5b825160005b818110156112c55784818151811061123957611239613e7f565b60200260200101516001600160a01b031663f5f8d3658486848151811061126257611262613e7f565b60200260200101516040518363ffffffff1660e01b8152600401611287929190613eda565b600060405180830381600087803b1580156112a157600080fd5b505af11580156112b5573d6000803e3d6000fd5b50506001909201915061121f9050565b5050505050565b6112d4612a5d565b600160009054906101000a90046001600160a01b03166001600160a01b031663a83627de6040518163ffffffff1660e01b81526004016020604051808303816000875af1158015611329573d6000803e3d6000fd5b505050506040513d601f19601f8201168201806040525081019061134d9190613e04565b50815b818110156113aa576113a2600860006007848154811061137257611372613e7f565b60009182526020808320909101546001600160a01b03908116845290830193909352604090910190205416612f9b565b600101611350565b5061086d6001600055565b7f00000000000000000000000000000000000000000000000000000000000000006001600160a01b031663430c20816113ec6129d2565b836040518363ffffffff1660e01b815260040161140a929190613dce565b6020604051808303816000875af1158015611429573d6000803e3d6000fd5b505050506040513d601f19601f8201168201806040525081019061144d9190613de7565b61146a5760405163390cdd9b60e21b815260040160405180910390fd5b825160005b818110156112c55784818151811061148957611489613e7f565b60200260200101516001600160a01b031663f5f8d365848684815181106114b2576114b2613e7f565b60200260200101516040518363ffffffff1660e01b81526004016114d7929190613eda565b600060405180830381600087803b1580156114f157600080fd5b505af1158015611505573d6000803e3d6000fd5b50506001909201915061146f9050565b60008581526010602052604090205485906115354262093a808106900390565b116115535760405163cade311f60e01b815260040160405180910390fd5b62093a80429081069003610e1001421161158057604051635a780bad60e01b815260040160405180910390fd5b611588612a5d565b60006115926129d2565b60405163430c208160e01b81529091506001600160a01b037f0000000000000000000000000000000000000000000000000000000000000000169063430c2081906115e39084908b90600401613dce565b6020604051808303816000875af1158015611602573d6000803e3d6000fd5b505050506040513d601f19601f820116820180604052508101906116269190613de7565b6116435760405163390cdd9b60e21b815260040160405180910390fd5b8483146116635760405163332ac86360e21b815260040160405180910390fd5b6006548511156116865760405163ebcfae4b60e01b815260040160405180910390fd5b604051632a266cdb60e21b8152600481018890527f00000000000000000000000000000000000000000000000000000000000000006001600160a01b03169063a899b36c90602401602060405180830381865afa1580156116eb573d6000803e3d6000fd5b505050506040513d601f19601f8201168201806040525081019061170f9190613de7565b1561172d576040516308910b2560e01b815260040160405180910390fd5b4262093a808106810362092c700181118015611758575060008881526013602052604090205460ff16155b1561177657604051630392978d60e41b815260040160405180910390fd5b600088815260106020526040808220839055516339f890b560e21b8152600481018a90527f00000000000000000000000000000000000000000000000000000000000000006001600160a01b03169063e7e242d490602401602060405180830381865afa1580156117eb573d6000803e3d6000fd5b505050506040513d601f19601f8201168201806040525081019061180f9190613e04565b905061188089828a8a8080602002602001604051908101604052809392919081815260200183836020028082843760009201919091525050604080516020808e0282810182019093528d82529093508d92508c91829185019084908082843760009201919091525061316292505050565b50505061188d6001600055565b505050505050565b600062093a80808306830301610e11565b6004546001600160a01b03166118ba6129d2565b6001600160a01b0316146118e15760405163c560129360e01b815260040160405180910390fd5b6001600160a01b03811660009081526014602052604090205460ff1661191a57604051633f88da5160e21b815260040160405180910390fd5b6001600160a01b038116600090815260176020526040902054801561198d57600154611973906001600160a01b037f00000000000000000000000000000000000000000000000000000000000000008116911683613608565b6001600160a01b0382166000908152601760205260408120555b6001600160a01b038216600081815260146020526040808220805460ff19169055517f04a5d3f5d80d22d9345acc80618f4a4e7e663cf9e1aed23b57d975acec002ba79190a25050565b6004546001600160a01b03166119eb6129d2565b6001600160a01b031614611a125760405163c560129360e01b815260040160405180910390fd5b6001600160a01b03811660009081526014602052604090205460ff1615611a4c57604051635f5a482960e11b815260040160405180910390fd5b6001600160a01b038116600081815260146020526040808220805460ff19166001179055517fed18e9faa3dccfd8aa45f69c4de40546b2ca9cccc4538a2323531656516db1aa9190a250565b600e6020528160005260406000208181548110611ab457600080fd5b6000918252602090912001546001600160a01b03169150829050565b600062093a8082068203610e11565b60078181548110611aef57600080fd5b6000918252602090912001546001600160a01b0316905081565b6000611b13612a5d565b6000611b1d6129d2565b6001600160a01b038481166000908152600860205260409020549192501615611b59576040516348fe415b60e11b815260040160405180910390fd5b604051632e0cbb2160e11b81526001600160a01b038781166004830152868116602483015285811660448301527f00000000000000000000000000000000000000000000000000000000000000001690635c19764290606401602060405180830381865afa158015611bcf573d6000803e3d6000fd5b505050506040513d601f19601f82011682018060405250810190611bf39190613de7565b611c1057604051634fe2017f60e01b815260040160405180910390fd5b604080516002808252606082018352600092602083019080368337505060405163e5e31b1360e01b81529192506000916001600160a01b038a16915063e5e31b1390611c60908890600401613987565b602060405180830381865afa158015611c7d573d6000803e3d6000fd5b505050506040513d601f19601f82011682018060405250810190611ca19190613de7565b90506000808215611ddd57866001600160a01b0316630dfe16816040518163ffffffff1660e01b8152600401602060405180830381865afa158015611cea573d6000803e3d6000fd5b505050506040513d601f19601f82011682018060405250810190611d0e9190613ef3565b9150866001600160a01b031663d21220a76040518163ffffffff1660e01b8152600401602060405180830381865afa158015611d4e573d6000803e3d6000fd5b505050506040513d601f19601f82011682018060405250810190611d729190613ef3565b90508184600081518110611d8857611d88613e7f565b60200260200101906001600160a01b031690816001600160a01b0316815250508084600181518110611dbc57611dbc613e7f565b60200260200101906001600160a01b031690816001600160a01b0316815250505b6002546001600160a01b03868116911614611e6f5782611e1057604051632bab424160e01b815260040160405180910390fd5b6001600160a01b03821660009081526012602052604090205460ff161580611e5157506001600160a01b03811660009081526012602052604090205460ff16155b15611e6f576040516365a9cebb60e01b815260040160405180910390fd5b6000808a6001600160a01b0316634c455a977f0000000000000000000000000000000000000000000000000000000000000000886040518363ffffffff1660e01b8152600401611ec0929190613f10565b60408051808303816000875af1158015611ede573d6000803e3d6000fd5b505050506040513d601f19601f82011682018060405250810190611f029190613f34565b6040516322a60f9560e21b81526001600160a01b037f0000000000000000000000000000000000000000000000000000000000000000811660048301528c8116602483015283811660448301527f00000000000000000000000000000000000000000000000000000000000000008116606483015288151560848301529294509092506000918c1690638a983e549060a4016020604051808303816000875af1158015611fb3573d6000803e3d6000fd5b505050506040513d601f19601f82011682018060405250810190611fd79190613ef3565b905082600a6000836001600160a01b03166001600160a01b0316815260200190815260200160002060006101000a8154816001600160a01b0302191690836001600160a01b0316021790555081600b6000836001600160a01b03166001600160a01b0316815260200190815260200160002060006101000a8154816001600160a01b0302191690836001600160a01b0316021790555080600860008c6001600160a01b03166001600160a01b0316815260200190815260200160002060006101000a8154816001600160a01b0302191690836001600160a01b031602179055508960096000836001600160a01b03166001600160a01b0316815260200190815260200160002060006101000a8154816001600160a01b0302191690836001600160a01b03160217905550600160116000836001600160a01b03166001600160a01b0316815260200190815260200160002060006101000a81548160ff021916908315150217905550600160146000836001600160a01b03166001600160a01b0316815260200190815260200160002060006101000a81548160ff02191690831515021790555061218681612892565b60078a9080600181540180825580915050600190039060005260206000200160009091909190916101000a8154816001600160a01b0302191690836001600160a01b031602179055508a6001600160a01b03168c6001600160a01b03168e6001600160a01b03167fef9f7d1ffff3b249c6b9bf2528499e935f7d96bb6d6ec4e7da504d1d3c6279e18d8688878f6040516122519594939291906001600160a01b0395861681529385166020850152918416604084015283166060830152909116608082015260a00190565b60405180910390a497505050505050505061226c6001600055565b949350505050565b6002546001600160a01b03166122886129d2565b6001600160a01b0316146122af57604051633b8d9d7560e21b815260040160405180910390fd5b6001600160a01b0381166122d65760405163d92e233d60e01b815260040160405180910390fd5b600280546001600160a01b0319166001600160a01b0392909216919091179055565b815b818110156123545761234c600860006007848154811061231c5761231c613e7f565b60009182526020808320909101546001600160a01b03908116845290830193909352604090910190205416612892565b6001016122fa565b505050565b805160005b818110156123545761238883828151811061237b5761237b613e7f565b6020026020010151612892565b60010161235e565b600062093a808206820362092c7001610e11565b6123ac612a5d565b60008281526010602052604090205482906123cc4262093a808106900390565b116123ea5760405163cade311f60e01b815260040160405180910390fd5b62093a80429081069003610e1001421161241757604051635a780bad60e01b815260040160405180910390fd5b60006124216129d2565b60405163430c208160e01b81529091506001600160a01b037f0000000000000000000000000000000000000000000000000000000000000000169063430c2081906124729084908890600401613dce565b6020604051808303816000875af1158015612491573d6000803e3d6000fd5b505050506040513d601f19601f820116820180604052508101906124b59190613de7565b6124d25760405163390cdd9b60e21b815260040160405180910390fd5b604051632a266cdb60e21b8152600481018490527f00000000000000000000000000000000000000000000000000000000000000006001600160a01b03169063a899b36c90602401602060405180830381865afa158015612537573d6000803e3d6000fd5b505050506040513d601f19601f8201168201806040525081019061255b9190613de7565b15612579576040516308910b2560e01b815260040160405180910390fd5b4262093a808106810362092c70018111156125a757604051631f3ecf5b60e21b815260040160405180910390fd5b60008581526010602052604090819020829055516370608fcd60e11b815260048101869052602481018590527f00000000000000000000000000000000000000000000000000000000000000006001600160a01b03169063e0c11f9a90604401600060405180830381600087803b15801561262157600080fd5b505af1158015612635573d6000803e3d6000fd5b5050604051637028a55d60e11b815260048101879052426024820152600092507f00000000000000000000000000000000000000000000000000000000000000006001600160a01b0316915063e0514aba90604401602060405180830381865afa1580156126a7573d6000803e3d6000fd5b505050506040513d601f19601f820116820180604052508101906126cb9190613e04565b90506126d78582612dd8565b5050505061086d6001600055565b60006126ef6129d2565b6002549091506001600160a01b0380831691161461272057604051633b8d9d7560e21b815260040160405180910390fd5b600083815260136020526040808220805460ff19168515159081179091559051909185916001600160a01b038516917f8a6ff732c8641e1e34d771e1f8b1673e988c1abdfb694ebdf6c910a5e3d0d85391a4505050565b6004546001600160a01b031661278b6129d2565b6001600160a01b0316146127b25760405163c560129360e01b815260040160405180910390fd5b6001600160a01b0381166127d95760405163d92e233d60e01b815260040160405180910390fd5b600480546001600160a01b0319166001600160a01b0392909216919091179055565b805160005b818110156123545782818151811061281a5761281a613e7f565b60200260200101516001600160a01b031663c00007b06128386129d2565b6040518263ffffffff1660e01b81526004016128549190613987565b600060405180830381600087803b15801561286e57600080fd5b505af1158015612882573d6000803e3d6000fd5b5050600190920191506128009050565b6001600160a01b03808216600090815260096020908152604080832054909316808352600c9091529190205480156129b1576001600160a01b0383166000908152601660205260408120805460155491829055916128f08383613f63565b9050801561188d576000670de0b6b3a764000061290d8387613e33565b6129179190613e4a565b6001600160a01b03881660009081526014602052604090205490915060ff161561296e576001600160a01b03871660009081526017602052604081208054839290612963908490613e6c565b909155506129a89050565b6001546129a8906001600160a01b037f00000000000000000000000000000000000000000000000000000000000000008116911683613608565b50505050505050565b6015546001600160a01b038416600090815260166020526040902055505050565b60006129dd33610fea565b156129ef575060131936013560601c90565b503390565b6001600160a01b0382166000818152601260205260409020805460ff191683151590811790915590612a246129d2565b6001600160a01b03167f44948130cf88523dbc150908a47dd6332c33a01a3869d7f2fa78e51d5a5f9c5760405160405180910390a45050565b600260005403612ab45760405162461bcd60e51b815260206004820152601f60248201527f5265656e7472616e637947756172643a207265656e7472616e742063616c6c0060448201526064015b60405180910390fd5b6002600055565b6000818152600e6020526040812080549091805b82811015612d15576000848281548110612aeb57612aeb613e7f565b6000918252602080832090910154888352600d825260408084206001600160a01b03909216808552919092529120549091508015612d0b576001600160a01b03808316600090815260086020526040902054612b479116612892565b6001600160a01b0382166000908152600c602052604081208054839290612b6f908490613f63565b90915550506000878152600d602090815260408083206001600160a01b038681168552908352818420849055600883528184205481168452600a9092529182902054915163278afc8b60e21b815260048101849052602481018a9052911690639e2bf22c90604401600060405180830381600087803b158015612bf157600080fd5b505af1158015612c05573d6000803e3d6000fd5b505050506001600160a01b0382811660009081526008602090815260408083205484168352600b9091529081902054905163278afc8b60e21b815260048101849052602481018a9052911690639e2bf22c90604401600060405180830381600087803b158015612c7457600080fd5b505af1158015612c88573d6000803e3d6000fd5b505050508084612c989190613e6c565b935086826001600160a01b0316612cad6129d2565b6001600160a01b038581166000908152600c6020908152604091829020548251888152918201524281830152905192909116917fadab630928b1d46214641293704a312ee7ad87e03ae14a7fd95e7308b93998df9181900360600190a45b5050600101612acf565b50604051632d27a2cd60e11b815260048101859052600060248201527f00000000000000000000000000000000000000000000000000000000000000006001600160a01b031690635a4f459a90604401600060405180830381600087803b158015612d7f57600080fd5b505af1158015612d93573d6000803e3d6000fd5b505050508060056000828254612da99190613f63565b90915550506000848152600f60209081526040808320839055600e9091528120612dd291613923565b50505050565b6000828152600e6020908152604080832080548251818502810185019093528083529192909190830182828015612e3857602002820191906000526020600020905b81546001600160a01b03168152600190910190602001808311612e1a575b505050505090506000815190506000816001600160401b03811115612e5f57612e5f613a9c565b604051908082528060200260200182016040528015612e88578160200160208202803683370190505b50905060005b82811015612f0b57600d60008781526020019081526020016000206000858381518110612ebd57612ebd613e7f565b60200260200101516001600160a01b03166001600160a01b0316815260200190815260200160002054828281518110612ef857612ef8613e7f565b6020908102919091010152600101612e8e565b506112c585858584613162565b6040516001600160a01b0380851660248301528316604482015260648101829052612dd29085906323b872dd60e01b906084015b60408051601f198184030181529190526020810180516001600160e01b03166001600160e01b031990931692909217909152613627565b6000818311612f925781612f94565b825b9392505050565b612fa481612892565b6001600160a01b0381166000818152601760209081526040918290205482516302dcc80960e31b815292519093926316e640489260048083019391928290030181865afa158015612ff9573d6000803e3d6000fd5b505050506040513d601f19601f8201168201806040525081019061301d9190613e04565b8111801561302d575062093a8081115b1561086d576001600160a01b03808316600090815260176020526040812055613079907f00000000000000000000000000000000000000000000000000000000000000001683836136fc565b604051633c6b16ab60e01b8152600481018290526001600160a01b03831690633c6b16ab90602401600060405180830381600087803b1580156130bb57600080fd5b505af11580156130cf573d6000803e3d6000fd5b5061310a9250506001600160a01b037f00000000000000000000000000000000000000000000000000000000000000001690508360006136fc565b816001600160a01b031661311c6129d2565b6001600160a01b03167f4fa9693cae526341d334e2862ca2413b2e503f1266255f9e0869fb36e6d89b178360405161315691815260200190565b60405180910390a35050565b61316b84612abb565b815160008080805b848110156131aa5785818151811061318d5761318d613e7f565b6020026020010151846131a09190613e6c565b9350600101613173565b5060005b8481101561354d5760008782815181106131ca576131ca613e7f565b6020908102919091018101516001600160a01b038082166000908152600890935260409092205490925016806132155781604051634c89018560e01b8152600401612aab9190613987565b6001600160a01b03811660009081526014602052604090205460ff1661325057806040516302b0b9ed60e61b8152600401612aab9190613987565b6001600160a01b03811660009081526011602052604090205460ff1615613543576000868b8a868151811061328757613287613e7f565b60200260200101516132999190613e33565b6132a39190613e4a565b60008d8152600d602090815260408083206001600160a01b0388168452909152902054909150156132e75760405163315f6a3d60e01b815260040160405180910390fd5b806000036133085760405163334ab3f560e11b815260040160405180910390fd5b61331182612892565b60008c8152600e6020908152604080832080546001810182559084528284200180546001600160a01b0319166001600160a01b0388169081179091558352600c90915281208054839290613366908490613e6c565b909155505060008c8152600d602090815260408083206001600160a01b03871684529091528120805483929061339d908490613e6c565b90915550506001600160a01b038083166000908152600a60205260409081902054905163f320772360e01b815260048101849052602481018f905291169063f320772390604401600060405180830381600087803b1580156133fe57600080fd5b505af1158015613412573d6000803e3d6000fd5b50505050600b6000836001600160a01b03166001600160a01b0316815260200190815260200160002060009054906101000a90046001600160a01b03166001600160a01b031663f3207723828e6040518363ffffffff1660e01b8152600401613485929190918252602082015260400190565b600060405180830381600087803b15801561349f57600080fd5b505af11580156134b3573d6000803e3d6000fd5b5050505080856134c39190613e6c565b94506134cf8187613e6c565b95508b836001600160a01b03166134e46129d2565b6001600160a01b038681166000908152600c6020908152604091829020548251888152918201524281830152905192909116917f452d440efc30dfa14a0ef803ccb55936af860ec6a6960ed27f129bef913f296a9181900360600190a4505b50506001016131ae565b5080156135d657604051632d27a2cd60e11b815260048101899052600160248201527f00000000000000000000000000000000000000000000000000000000000000006001600160a01b031690635a4f459a90604401600060405180830381600087803b1580156135bd57600080fd5b505af11580156135d1573d6000803e3d6000fd5b505050505b81600560008282546135e89190613e6c565b90915550506000978852600f602052604090972096909655505050505050565b6123548363a9059cbb60e01b8484604051602401612f4c929190613dce565b600061367c826040518060400160405280602081526020017f5361666545524332303a206c6f772d6c6576656c2063616c6c206661696c6564815250856001600160a01b03166138009092919063ffffffff16565b905080516000148061369d57508080602001905181019061369d9190613de7565b6123545760405162461bcd60e51b815260206004820152602a60248201527f5361666545524332303a204552433230206f7065726174696f6e20646964206e6044820152691bdd081cdd58d8d9595960b21b6064820152608401612aab565b8015806137765750604051636eb1769f60e11b81523060048201526001600160a01b03838116602483015284169063dd62ed3e90604401602060405180830381865afa158015613750573d6000803e3d6000fd5b505050506040513d601f19601f820116820180604052508101906137749190613e04565b155b6137e15760405162461bcd60e51b815260206004820152603660248201527f5361666545524332303a20617070726f76652066726f6d206e6f6e2d7a65726f60448201527520746f206e6f6e2d7a65726f20616c6c6f77616e636560501b6064820152608401612aab565b6123548363095ea7b360e01b8484604051602401612f4c929190613dce565b606061226c848460008585600080866001600160a01b031685876040516138279190613f9a565b60006040518083038185875af1925050503d8060008114613864576040519150601f19603f3d011682016040523d82523d6000602084013e613869565b606091505b509150915061387a87838387613885565b979650505050505050565b606083156138f45782516000036138ed576001600160a01b0385163b6138ed5760405162461bcd60e51b815260206004820152601d60248201527f416464726573733a2063616c6c20746f206e6f6e2d636f6e74726163740000006044820152606401612aab565b508161226c565b61226c83838151156139095781518083602001fd5b8060405162461bcd60e51b8152600401612aab9190613fb6565b508054600082559060005260206000209081019061082591905b80821115613951576000815560010161393d565b5090565b6001600160a01b038116811461082557600080fd5b60006020828403121561397c57600080fd5b8135612f9481613955565b6001600160a01b0391909116815260200190565b801515811461082557600080fd5b600080604083850312156139bc57600080fd5b82356139c781613955565b915060208301356139d78161399b565b809150509250929050565b6000602082840312156139f457600080fd5b5035919050565b60008083601f840112613a0d57600080fd5b5081356001600160401b03811115613a2457600080fd5b6020830191508360208260051b8501011115613a3f57600080fd5b9250929050565b600080600060408486031215613a5b57600080fd5b83356001600160401b03811115613a7157600080fd5b613a7d868287016139fb565b9094509250506020840135613a9181613955565b809150509250925092565b634e487b7160e01b600052604160045260246000fd5b604051601f8201601f191681016001600160401b0381118282101715613ada57613ada613a9c565b604052919050565b60006001600160401b03821115613afb57613afb613a9c565b5060051b60200190565b600082601f830112613b1657600080fd5b81356020613b2b613b2683613ae2565b613ab2565b8083825260208201915060208460051b870101935086841115613b4d57600080fd5b602086015b84811015613b72578035613b6581613955565b8352918301918301613b52565b509695505050505050565b600060208284031215613b8f57600080fd5b81356001600160401b03811115613ba557600080fd5b61226c84828501613b05565b600080600060608486031215613bc657600080fd5b83356001600160401b0380821115613bdd57600080fd5b613be987838801613b05565b9450602091508186013581811115613c0057600080fd5b8601601f81018813613c1157600080fd5b8035613c1f613b2682613ae2565b81815260059190911b8201840190848101908a831115613c3e57600080fd5b8584015b83811015613c7657803586811115613c5a5760008081fd5b613c688d8983890101613b05565b845250918601918601613c42565b50979a979950505050604095909501359450505050565b60008060408385031215613ca057600080fd5b50508035926020909101359150565b600080600080600060608688031215613cc757600080fd5b8535945060208601356001600160401b0380821115613ce557600080fd5b613cf189838a016139fb565b90965094506040880135915080821115613d0a57600080fd5b50613d17888289016139fb565b969995985093965092949392505050565b60008060008060808587031215613d3e57600080fd5b8435613d4981613955565b93506020850135613d5981613955565b92506040850135613d6981613955565b91506060850135613d7981613955565b939692955090935050565b60008060408385031215613d9757600080fd5b8235915060208301356139d781613955565b60008060408385031215613dbc57600080fd5b8235915060208301356139d78161399b565b6001600160a01b03929092168252602082015260400190565b600060208284031215613df957600080fd5b8151612f948161399b565b600060208284031215613e1657600080fd5b5051919050565b634e487b7160e01b600052601160045260246000fd5b8082028115828204841417610e1157610e11613e1d565b600082613e6757634e487b7160e01b600052601260045260246000fd5b500490565b80820180821115610e1157610e11613e1d565b634e487b7160e01b600052603260045260246000fd5b60008151808452602080850194506020840160005b83811015613ecf5781516001600160a01b031687529582019590820190600101613eaa565b509495945050505050565b82815260406020820152600061226c6040830184613e95565b600060208284031215613f0557600080fd5b8151612f9481613955565b6001600160a01b038316815260406020820181905260009061226c90830184613e95565b60008060408385031215613f4757600080fd5b8251613f5281613955565b60208401519092506139d781613955565b81810381811115610e1157610e11613e1d565b60005b83811015613f91578181015183820152602001613f79565b50506000910152565b60008251613fac818460208701613f76565b9190910192915050565b6020815260008251806020840152613fd5816040850160208701613f76565b601f01601f1916919091016040019291505056fea264697066735822122015fb5a1f14ea48efac491c42f128ae3b9412c7c8f8a5a48ebb9d025ef29be86764736f6c63430008180033",
  "devdoc": {
    "author": "velodrome.finance, @figs999, @pegahcarter",
    "kind": "dev",
    "methods": {
      "claimBribes(address[],address[][],uint256)": {
        "details": "Utility to help batch bribe claims.",
        "params": {
          "_bribes": "Array of BribeVotingReward contracts to collect from.",
          "_tokenId": "Id of veNFT that you wish to claim bribes for.",
          "_tokens": "Array of tokens that are used as bribes."
        }
      },
      "claimFees(address[],address[][],uint256)": {
        "details": "Utility to help batch fee claims.",
        "params": {
          "_fees": "Array of FeesVotingReward contracts to collect from.",
          "_tokenId": "Id of veNFT that you wish to claim fees for.",
          "_tokens": "Array of tokens that are used as fees."
        }
      },
      "claimRewards(address[])": {
        "params": {
          "_gauges": "Array of gauges to collect emissions from."
        }
      },
      "createGauge(address,address,address,address)": {
        "details": "Governor can create a new gauge for a pool with any address.",
        "params": {
          "_gaugeFactory": ".",
          "_pool": ".",
          "_poolFactory": ".",
          "_votingRewardsFactory": "."
        }
      },
      "depositManaged(uint256,uint256)": {
        "details": "Throws if not approved or owner.      Throws if managed NFT is inactive.      Throws if depositing within privileged window (one hour prior to epoch flip)."
      },
      "distribute(address[])": {
        "details": "Utility to distribute to gauges of pools in array.",
        "params": {
          "_gauges": "Array of gauges to distribute to."
        }
      },
      "distribute(uint256,uint256)": {
        "details": "Utility to distribute to gauges of pools in range _start to _finish.",
        "params": {
          "_finish": "Ending index of gauges to distribute to.",
          "_start": "Starting index of gauges to distribute to."
        }
      },
      "initialize(address[],address)": {
        "details": "requires initialization with at least rewardToken"
      },
      "killGauge(address)": {
        "details": "Throws if not called by emergency council.      Throws if gauge already killed.",
        "params": {
          "_gauge": "."
        }
      },
      "notifyRewardAmount(uint256)": {
        "details": "Assumes totalWeight != 0 (Will never be zero as long as users are voting).      Throws if not called by minter.",
        "params": {
          "_amount": "Amount of rewards to distribute."
        }
      },
      "poke(uint256)": {
        "params": {
          "_tokenId": "Id of veNFT whose balance you wish to update."
        }
      },
      "reset(uint256)": {
        "params": {
          "_tokenId": "Id of veNFT you are reseting."
        }
      },
      "reviveGauge(address)": {
        "details": "Throws if not called by emergency council.      Throws if gauge is not killed.",
        "params": {
          "_gauge": "."
        }
      },
      "setEmergencyCouncil(address)": {
        "details": "Throws if not called by emergency council.",
        "params": {
          "_emergencyCouncil": "."
        }
      },
      "setEpochGovernor(address)": {
        "details": "Throws if not called by governor.",
        "params": {
          "_epochGovernor": "."
        }
      },
      "setGovernor(address)": {
        "details": "Throws if not called by governor.",
        "params": {
          "_governor": "."
        }
      },
      "setMaxVotingNum(uint256)": {
        "details": "Throws if not called by governor.      Throws if _maxVotingNum is too low.      Throws if the values are the same.",
        "params": {
          "_maxVotingNum": "."
        }
      },
      "updateFor(address)": {
        "details": "Update claims to emissions for single gauge",
        "params": {
          "_gauge": "."
        }
      },
      "updateFor(address[])": {
        "details": "Update claims to emissions for an array of gauges.",
        "params": {
          "_gauges": "Array of gauges to update emissions for."
        }
      },
      "updateFor(uint256,uint256)": {
        "details": "Update claims to emissions for gauges based on their pool id as stored in Voter.",
        "params": {
          "_end": "Ending index of pools.",
          "_start": "Starting index of pools."
        }
      },
      "vote(uint256,address[],uint256[])": {
        "details": "Weights are distributed proportional to the sum of the weights in the array.      Throws if length of _poolVote and _weights do not match.",
        "params": {
          "_poolVote": "Array of pools you are voting for.",
          "_tokenId": "Id of veNFT you are voting with.",
          "_weights": "Weights of pools."
        }
      },
      "whitelistNFT(uint256,bool)": {
        "details": "Throws if not called by governor.      Throws if already whitelisted.",
        "params": {
          "_bool": ".",
          "_tokenId": "."
        }
      },
      "whitelistToken(address,bool)": {
        "details": "Throws if not called by governor.",
        "params": {
          "_bool": ".",
          "_token": "."
        }
      }
    },
    "stateVariables": {
      "claimable": {
        "details": "Gauge => Amount claimable"
      },
      "gaugeToBribe": {
        "details": "Gauge => Bribes Voting Reward"
      },
      "gaugeToFees": {
        "details": "Gauge => Fees Voting Reward"
      },
      "gauges": {
        "details": "Pool => Gauge"
      },
      "index": {
        "details": "Accumulated distributions per vote"
      },
      "isAlive": {
        "details": "Gauge => Liveness status"
      },
      "isGauge": {
        "details": "Address => Gauge"
      },
      "isWhitelistedNFT": {
        "details": "TokenId => Whitelisted status"
      },
      "isWhitelistedToken": {
        "details": "Token => Whitelisted status"
      },
      "lastVoted": {
        "details": "Nft => Timestamp of last vote (ensures single vote per epoch)"
      },
      "maxVotingNum": {
        "details": "Most number of pools one voter can vote for at once"
      },
      "poolForGauge": {
        "details": "Gauge => Pool"
      },
      "poolVote": {
        "details": "NFT => List of pools voted for by NFT"
      },
      "pools": {
        "details": "All pools viable for incentives"
      },
      "supplyIndex": {
        "details": "Gauge => Accumulated gauge distributions"
      },
      "totalWeight": {
        "details": "Total Voting Weights"
      },
      "usedWeights": {
        "details": "NFT => Total voting weight of NFT"
      },
      "votes": {
        "details": "NFT => Pool => Votes"
      },
      "weights": {
        "details": "Pool => Weights"
      }
    },
    "title": "Protocol Voter",
    "version": 1
  },
  "userdoc": {
    "kind": "user",
    "methods": {
      "claimBribes(address[],address[][],uint256)": {
        "notice": "Claim bribes for a given NFT."
      },
      "claimFees(address[],address[][],uint256)": {
        "notice": "Claim fees for a given NFT."
      },
      "claimRewards(address[])": {
        "notice": "Claim emissions from gauges."
      },
      "createGauge(address,address,address,address)": {
        "notice": "Create a new gauge (unpermissioned)."
      },
      "depositManaged(uint256,uint256)": {
        "notice": "Called by users to deposit into a managed NFT.         Can only vote or deposit into a managed NFT once per epoch.         Note that NFTs deposited into a managed NFT will be re-locked         to the maximum lock time on withdrawal."
      },
      "emergencyCouncil()": {
        "notice": "credibly neutral party similar to Curve's Emergency DAO"
      },
      "epochGovernor()": {
        "notice": "Custom Epoch Governor using ve for vote weights."
      },
      "factoryRegistry()": {
        "notice": "Factory registry for valid pool / gauge / rewards factories"
      },
      "forwarder()": {
        "notice": "Store trusted forwarder address to pass into factories"
      },
      "governor()": {
        "notice": "Standard OZ IGovernor using ve for vote weights."
      },
      "killGauge(address)": {
        "notice": "Kills a gauge. The gauge will not receive any new emissions and cannot be deposited into.         Can still withdraw from gauge."
      },
      "length()": {
        "notice": "Number of pools with a Gauge"
      },
      "minter()": {
        "notice": "Address of Minter.sol"
      },
      "notifyRewardAmount(uint256)": {
        "notice": "Called by Minter to distribute weekly emissions rewards for disbursement amongst gauges."
      },
      "poke(uint256)": {
        "notice": "Called by users to update voting balances in voting rewards contracts."
      },
      "reset(uint256)": {
        "notice": "Called by users to reset voting state. Required if you wish to make changes to         veNFT state (e.g. merge, split, deposit into managed etc).         Cannot reset in the same epoch that you voted in.         Can vote or deposit into a managed NFT again after reset."
      },
      "reviveGauge(address)": {
        "notice": "Revives a killed gauge. Gauge will can receive emissions and deposits again."
      },
      "setEmergencyCouncil(address)": {
        "notice": "Set new emergency council."
      },
      "setEpochGovernor(address)": {
        "notice": "Set new epoch based governor."
      },
      "setGovernor(address)": {
        "notice": "Set new governor."
      },
      "setMaxVotingNum(uint256)": {
        "notice": "Set maximum number of gauges that can be voted for."
      },
      "ve()": {
        "notice": "The ve token that governs these contracts"
      },
      "vote(uint256,address[],uint256[])": {
        "notice": "Called by users to vote for pools. Votes distributed proportionally based on weights.         Can only vote or deposit into a managed NFT once per epoch.         Can only vote for gauges that have not been killed."
      },
      "whitelistNFT(uint256,bool)": {
        "notice": "Whitelist (or unwhitelist) token id for voting in last hour prior to epoch flip."
      },
      "whitelistToken(address,bool)": {
        "notice": "Whitelist (or unwhitelist) token for use in bribes."
      },
      "withdrawManaged(uint256)": {
        "notice": "Called by users to withdraw from a managed NFT.         Cannot do it in the same epoch that you deposited into a managed NFT.         Can vote or deposit into a managed NFT again after withdrawing.         Note that the NFT withdrawn is re-locked to the maximum lock time."
      }
    },
    "notice": "Manage votes, emission distribution, and gauge creation within the Protocol's ecosystem.         Also provides support for depositing and withdrawing from managed veNFTs.",
    "version": 1
  },
  "storageLayout": {
    "storage": [
      {
        "astId": 739,
        "contract": "contracts/Voter.sol:Voter",
        "label": "_status",
        "offset": 0,
        "slot": "0",
        "type": "t_uint256"
      },
      {
        "astId": 15745,
        "contract": "contracts/Voter.sol:Voter",
        "label": "minter",
        "offset": 0,
        "slot": "1",
        "type": "t_address"
      },
      {
        "astId": 15748,
        "contract": "contracts/Voter.sol:Voter",
        "label": "governor",
        "offset": 0,
        "slot": "2",
        "type": "t_address"
      },
      {
        "astId": 15751,
        "contract": "contracts/Voter.sol:Voter",
        "label": "epochGovernor",
        "offset": 0,
        "slot": "3",
        "type": "t_address"
      },
      {
        "astId": 15754,
        "contract": "contracts/Voter.sol:Voter",
        "label": "emergencyCouncil",
        "offset": 0,
        "slot": "4",
        "type": "t_address"
      },
      {
        "astId": 15757,
        "contract": "contracts/Voter.sol:Voter",
        "label": "totalWeight",
        "offset": 0,
        "slot": "5",
        "type": "t_uint256"
      },
      {
        "astId": 15760,
        "contract": "contracts/Voter.sol:Voter",
        "label": "maxVotingNum",
        "offset": 0,
        "slot": "6",
        "type": "t_uint256"
      },
      {
        "astId": 15767,
        "contract": "contracts/Voter.sol:Voter",
        "label": "pools",
        "offset": 0,
        "slot": "7",
        "type": "t_array(t_address)dyn_storage"
      },
      {
        "astId": 15772,
        "contract": "contracts/Voter.sol:Voter",
        "label": "gauges",
        "offset": 0,
        "slot": "8",
        "type": "t_mapping(t_address,t_address)"
      },
      {
        "astId": 15777,
        "contract": "contracts/Voter.sol:Voter",
        "label": "poolForGauge",
        "offset": 0,
        "slot": "9",
        "type": "t_mapping(t_address,t_address)"
      },
      {
        "astId": 15782,
        "contract": "contracts/Voter.sol:Voter",
        "label": "gaugeToFees",
        "offset": 0,
        "slot": "10",
        "type": "t_mapping(t_address,t_address)"
      },
      {
        "astId": 15787,
        "contract": "contracts/Voter.sol:Voter",
        "label": "gaugeToBribe",
        "offset": 0,
        "slot": "11",
        "type": "t_mapping(t_address,t_address)"
      },
      {
        "astId": 15792,
        "contract": "contracts/Voter.sol:Voter",
        "label": "weights",
        "offset": 0,
        "slot": "12",
        "type": "t_mapping(t_address,t_uint256)"
      },
      {
        "astId": 15799,
        "contract": "contracts/Voter.sol:Voter",
        "label": "votes",
        "offset": 0,
        "slot": "13",
        "type": "t_mapping(t_uint256,t_mapping(t_address,t_uint256))"
      },
      {
        "astId": 15805,
        "contract": "contracts/Voter.sol:Voter",
        "label": "poolVote",
        "offset": 0,
        "slot": "14",
        "type": "t_mapping(t_uint256,t_array(t_address)dyn_storage)"
      },
      {
        "astId": 15810,
        "contract": "contracts/Voter.sol:Voter",
        "label": "usedWeights",
        "offset": 0,
        "slot": "15",
        "type": "t_mapping(t_uint256,t_uint256)"
      },
      {
        "astId": 15815,
        "contract": "contracts/Voter.sol:Voter",
        "label": "lastVoted",
        "offset": 0,
        "slot": "16",
        "type": "t_mapping(t_uint256,t_uint256)"
      },
      {
        "astId": 15820,
        "contract": "contracts/Voter.sol:Voter",
        "label": "isGauge",
        "offset": 0,
        "slot": "17",
        "type": "t_mapping(t_address,t_bool)"
      },
      {
        "astId": 15825,
        "contract": "contracts/Voter.sol:Voter",
        "label": "isWhitelistedToken",
        "offset": 0,
        "slot": "18",
        "type": "t_mapping(t_address,t_bool)"
      },
      {
        "astId": 15830,
        "contract": "contracts/Voter.sol:Voter",
        "label": "isWhitelistedNFT",
        "offset": 0,
        "slot": "19",
        "type": "t_mapping(t_uint256,t_bool)"
      },
      {
        "astId": 15835,
        "contract": "contracts/Voter.sol:Voter",
        "label": "isAlive",
        "offset": 0,
        "slot": "20",
        "type": "t_mapping(t_address,t_bool)"
      },
      {
        "astId": 15838,
        "contract": "contracts/Voter.sol:Voter",
        "label": "index",
        "offset": 0,
        "slot": "21",
        "type": "t_uint256"
      },
      {
        "astId": 15843,
        "contract": "contracts/Voter.sol:Voter",
        "label": "supplyIndex",
        "offset": 0,
        "slot": "22",
        "type": "t_mapping(t_address,t_uint256)"
      },
      {
        "astId": 15848,
        "contract": "contracts/Voter.sol:Voter",
        "label": "claimable",
        "offset": 0,
        "slot": "23",
        "type": "t_mapping(t_address,t_uint256)"
      }
    ],
    "types": {
      "t_address": {
        "encoding": "inplace",
        "label": "address",
        "numberOfBytes": "20"
      },
      "t_array(t_address)dyn_storage": {
        "base": "t_address",
        "encoding": "dynamic_array",
        "label": "address[]",
        "numberOfBytes": "32"
      },
      "t_bool": {
        "encoding": "inplace",
        "label": "bool",
        "numberOfBytes": "1"
      },
      "t_mapping(t_address,t_address)": {
        "encoding": "mapping",
        "key": "t_address",
        "label": "mapping(address => address)",
        "numberOfBytes": "32",
        "value": "t_address"
      },
      "t_mapping(t_address,t_bool)": {
        "encoding": "mapping",
        "key": "t_address",
        "label": "mapping(address => bool)",
        "numberOfBytes": "32",
        "value": "t_bool"
      },
      "t_mapping(t_address,t_uint256)": {
        "encoding": "mapping",
        "key": "t_address",
        "label": "mapping(address => uint256)",
        "numberOfBytes": "32",
        "value": "t_uint256"
      },
      "t_mapping(t_uint256,t_array(t_address)dyn_storage)": {
        "encoding": "mapping",
        "key": "t_uint256",
        "label": "mapping(uint256 => address[])",
        "numberOfBytes": "32",
        "value": "t_array(t_address)dyn_storage"
      },
      "t_mapping(t_uint256,t_bool)": {
        "encoding": "mapping",
        "key": "t_uint256",
        "label": "mapping(uint256 => bool)",
        "numberOfBytes": "32",
        "value": "t_bool"
      },
      "t_mapping(t_uint256,t_mapping(t_address,t_uint256))": {
        "encoding": "mapping",
        "key": "t_uint256",
        "label": "mapping(uint256 => mapping(address => uint256))",
        "numberOfBytes": "32",
        "value": "t_mapping(t_address,t_uint256)"
      },
      "t_mapping(t_uint256,t_uint256)": {
        "encoding": "mapping",
        "key": "t_uint256",
        "label": "mapping(uint256 => uint256)",
        "numberOfBytes": "32",
        "value": "t_uint256"
      },
      "t_uint256": {
        "encoding": "inplace",
        "label": "uint256",
        "numberOfBytes": "32"
      }
    }
  }
}