{
  "address": "0xA71d3E51669674fFcbDe9164e19A6D041285D9b7",
  "abi": [
    {
      "inputs": [
        {
          "internalType": "address",
          "name": "_ve",
          "type": "address"
        }
      ],
      "stateMutability": "nonpayable",
      "type": "constructor"
    },
    {
      "inputs": [],
      "name": "NotDepositor",
      "type": "error"
    },
    {
      "inputs": [],
      "name": "NotManagedOrNormalNFT",
      "type": "error"
    },
    {
      "inputs": [],
      "name": "UpdatePeriod",
      "type": "error"
    },
    {
      "anonymous": false,
      "inputs": [
        {
          "indexed": false,
          "internalType": "uint256",
          "name": "time",
          "type": "uint256"
        },
        {
          "indexed": false,
          "internalType": "uint256",
          "name": "tokens",
          "type": "uint256"
        }
      ],
      "name": "CheckpointToken",
      "type": "event"
    },
    {
      "anonymous": false,
      "inputs": [
        {
          "indexed": true,
          "internalType": "uint256",
          "name": "tokenId",
          "type": "uint256"
        },
        {
          "indexed": true,
          "internalType": "uint256",
          "name": "epochStart",
          "type": "uint256"
        },
        {
          "indexed": true,
          "internalType": "uint256",
          "name": "epochEnd",
          "type": "uint256"
        },
        {
          "indexed": false,
          "internalType": "uint256",
          "name": "amount",
          "type": "uint256"
        }
      ],
      "name": "Claimed",
      "type": "event"
    },
    {
      "inputs": [],
      "name": "checkpointToken",
      "outputs": [],
      "stateMutability": "nonpayable",
      "type": "function"
    },
    {
      "inputs": [
        {
          "internalType": "uint256",
          "name": "_tokenId",
          "type": "uint256"
        }
      ],
      "name": "claim",
      "outputs": [
        {
          "internalType": "uint256",
          "name": "",
          "type": "uint256"
        }
      ],
      "stateMutability": "nonpayable",
      "type": "function"
    },
    {
      "inputs": [
        {
          "internalType": "uint256[]",
          "name": "_tokenIds",
          "type": "uint256[]"
        }
      ],
      "name": "claimMany",
      "outputs": [
        {
          "internalType": "bool",
          "name": "",
          "type": "bool"
        }
      ],
      "stateMutability": "nonpayable",
      "type": "function"
    },
    {
      "inputs": [
        {
          "internalType": "uint256",
          "name": "_tokenId",
          "type": "uint256"
        }
      ],
      "name": "claimable",
      "outputs": [
        {
          "internalType": "uint256",
          "name": "claimable_",
          "type": "uint256"
        }
      ],
      "stateMutability": "view",
      "type": "function"
    },
    {
      "inputs": [],
      "name": "depositor",
      "outputs": [
        {
          "internalType": "address",
          "name": "",
          "type": "address"
        }
      ],
      "stateMutability": "view",
      "type": "function"
    },
    {
      "inputs": [],
      "name": "lastTokenTime",
      "outputs": [
        {
          "internalType": "uint256",
          "name": "",
          "type": "uint256"
        }
      ],
      "stateMutability": "view",
      "type": "function"
    },
    {
      "inputs": [
        {
          "internalType": "address",
          "name": "_depositor",
          "type": "address"
        }
      ],
      "name": "setDepositor",
      "outputs": [],
      "stateMutability": "nonpayable",
      "type": "function"
    },
    {
      "inputs": [],
      "name": "startTime",
      "outputs": [
        {
          "internalType": "uint256",
          "name": "",
          "type": "uint256"
        }
      ],
      "stateMutability": "view",
      "type": "function"
    },
    {
      "inputs": [
        {
          "internalType": "uint256",
          "name": "",
          "type": "uint256"
        }
      ],
      "name": "timeCursorOf",
      "outputs": [
        {
          "internalType": "uint256",
          "name": "",
          "type": "uint256"
        }
      ],
      "stateMutability": "view",
      "type": "function"
    },
    {
      "inputs": [],
      "name": "token",
      "outputs": [
        {
          "internalType": "address",
          "name": "",
          "type": "address"
        }
      ],
      "stateMutability": "view",
      "type": "function"
    },
    {
      "inputs": [],
      "name": "tokenLastBalance",
      "outputs": [
        {
          "internalType": "uint256",
          "name": "",
          "type": "uint256"
        }
      ],
      "stateMutability": "view",
      "type": "function"
    },
    {
      "inputs": [
        {
          "internalType": "uint256",
          "name": "",
          "type": "uint256"
        }
      ],
      "name": "tokensPerWeek",
      "outputs": [
        {
          "internalType": "uint256",
          "name": "",
          "type": "uint256"
        }
      ],
      "stateMutability": "view",
      "type": "function"
    },
    {
      "inputs": [],
      "name": "ve",
      "outputs": [
        {
          "internalType": "contract IVotingEscrow",
          "name": "",
          "type": "address"
        }
      ],
      "stateMutability": "view",
      "type": "function"
    },
    {
      "inputs": [],
      "name": "week",
      "outputs": [
        {
          "internalType": "uint256",
          "name": "",
          "type": "uint256"
        }
      ],
      "stateMutability": "pure",
      "type": "function"
    }
  ],
  "transactionHash": "0x551bed49fe3166b7cc8b4ac03630bccffa776111c35de82ed833803971a93734",
  "args": [
    "0x08C6F456724a8Fe9C48c20430819c07A2A4b186E"
  ],
  "numDeployments": 1,
  "solcInputHash": "2799ce436a196df11f1ef308a2a7561c",
  "bytecode": "0x60a06040523480156200001157600080fd5b5060405162001d8938038062001d898339810160408190526200003491620004ef565b600062093a8062000046814262000521565b62000052919062000544565b600081815560028290556001600160a01b038416608081905260408051637e062a3560e11b815290519394509192909163fc0c546a9160048083019260209291908290030181865afa158015620000ad573d6000803e3d6000fd5b505050506040513d601f19601f82011682018060405250810190620000d39190620004ef565b66038d7ea4c6800380546001600160a01b0383166001600160a01b0319918216811790925566038d7ea4c680048054909116331790559091506200011b908460001962000124565b50505062000627565b801580620001a25750604051636eb1769f60e11b81523060048201526001600160a01b03838116602483015284169063dd62ed3e90604401602060405180830381865afa1580156200017a573d6000803e3d6000fd5b505050506040513d601f19601f82011682018060405250810190620001a0919062000570565b155b6200021a5760405162461bcd60e51b815260206004820152603660248201527f5361666545524332303a20617070726f76652066726f6d206e6f6e2d7a65726f60448201527f20746f206e6f6e2d7a65726f20616c6c6f77616e63650000000000000000000060648201526084015b60405180910390fd5b604080516001600160a01b038416602482015260448082018490528251808303909101815260649091019091526020810180516001600160e01b0390811663095ea7b360e01b17909152620002729185916200027716565b505050565b6040805180820190915260208082527f5361666545524332303a206c6f772d6c6576656c2063616c6c206661696c656490820152600090620002c6906001600160a01b0385169084906200034b565b9050805160001480620002ea575080806020019051810190620002ea91906200058a565b620002725760405162461bcd60e51b815260206004820152602a60248201527f5361666545524332303a204552433230206f7065726174696f6e20646964206e6044820152691bdd081cdd58d8d9595960b21b606482015260840162000211565b60606200035c848460008562000364565b949350505050565b606082471015620003c75760405162461bcd60e51b815260206004820152602660248201527f416464726573733a20696e73756666696369656e742062616c616e636520666f6044820152651c8818d85b1b60d21b606482015260840162000211565b600080866001600160a01b03168587604051620003e59190620005d4565b60006040518083038185875af1925050503d806000811462000424576040519150601f19603f3d011682016040523d82523d6000602084013e62000429565b606091505b5090925090506200043d8783838762000448565b979650505050505050565b60608315620004bc578251600003620004b4576001600160a01b0385163b620004b45760405162461bcd60e51b815260206004820152601d60248201527f416464726573733a2063616c6c20746f206e6f6e2d636f6e7472616374000000604482015260640162000211565b50816200035c565b6200035c8383815115620004d35781518083602001fd5b8060405162461bcd60e51b8152600401620002119190620005f2565b6000602082840312156200050257600080fd5b81516001600160a01b03811681146200051a57600080fd5b9392505050565b6000826200053f57634e487b7160e01b600052601260045260246000fd5b500490565b80820281158282048414176200056a57634e487b7160e01b600052601160045260246000fd5b92915050565b6000602082840312156200058357600080fd5b5051919050565b6000602082840312156200059d57600080fd5b815180151581146200051a57600080fd5b60005b83811015620005cb578181015183820152602001620005b1565b50506000910152565b60008251620005e8818460208701620005ae565b9190910192915050565b602081526000825180602084015262000613816040850160208701620005ae565b601f01601f19169190910160400192915050565b6080516116f3620006966000396000818160d4015281816102e2015281816103d0015281816104790152818161052f015281816106f0015281816107cd015281816108760152818161092c01528181610e0201528181610eb201528181610f8a015261103c01526116f36000f3fe608060405234801561001057600080fd5b50600436106100ca5760003560e01c8063925489a81161007c578063925489a814610188578063939ea66b146101ab578063bee5dc32146101b4578063c7c4ff46146101be578063d1d58b25146101d7578063f2c098b7146101ea578063fc0c546a146101fd57600080fd5b80631f850716146100cf578063379607f5146101135780634607bf60146101345780634995b4581461015457806378e979251461015d578063899519be146101665780638ec8468a14610179575b600080fd5b6100f67f000000000000000000000000000000000000000000000000000000000000000081565b6040516001600160a01b0390911681526020015b60405180910390f35b610126610121366004611349565b610216565b60405190815260200161010a565b610126610142366004611349565b60016020526000908152604090205481565b62093a80610126565b61012660005481565b610126610174366004611349565b6105bb565b61012666038d7ea4c680055481565b61019b610196366004611362565b6105d8565b604051901515815260200161010a565b61012660025481565b6101bc6109dd565b005b66038d7ea4c68004546100f6906001600160a01b031681565b6101266101e5366004611349565b610a18565b6101bc6101f83660046113ef565b610a4d565b66038d7ea4c68003546100f6906001600160a01b031681565b600062093a806102268142611429565b610230919061144b565b66038d7ea4c6800460009054906101000a90046001600160a01b03166001600160a01b0316630a441f7b6040518163ffffffff1660e01b8152600401602060405180830381865afa158015610289573d6000803e3d6000fd5b505050506040513d601f19601f820116820180604052508101906102ad9190611462565b10156102cc5760405163465a1c3560e01b815260040160405180910390fd5b600160405161f8e560ef1b8152600481018490527f00000000000000000000000000000000000000000000000000000000000000006001600160a01b031690637c72800090602401602060405180830381865afa158015610331573d6000803e3d6000fd5b505050506040513d601f19601f820116820180604052508101906103559190611491565b60028111156103665761036661147b565b0361038457604051635eb32db160e11b815260040160405180910390fd5b600254429062093a806103978183611429565b6103a1919061144b565b905060006103af8583610aa6565b905080156105b357604051635a2d1e0760e11b8152600481018690526000907f00000000000000000000000000000000000000000000000000000000000000006001600160a01b03169063b45a3c0e90602401606060405180830381865afa15801561041f573d6000803e3d6000fd5b505050506040513d601f19601f8201168201806040525081019061044391906114d9565b90508060200151841015801561045b57508060400151155b15610512576040516331a9108f60e11b8152600481018790526000907f00000000000000000000000000000000000000000000000000000000000000006001600160a01b031690636352211e90602401602060405180830381865afa1580156104c8573d6000803e3d6000fd5b505050506040513d601f19601f820116820180604052508101906104ec919061154c565b66038d7ea4c680035490915061050c906001600160a01b03168285610b28565b50610594565b60405163076426ed60e11b815260048101879052602481018390527f00000000000000000000000000000000000000000000000000000000000000006001600160a01b031690630ec84dda90604401600060405180830381600087803b15801561057b57600080fd5b505af115801561058f573d6000803e3d6000fd5b505050505b8166038d7ea4c6800560008282546105ac9190611569565b9091555050505b949350505050565b60038166038d7ea4c6800081106105d157600080fd5b0154905081565b600062093a806105e88142611429565b6105f2919061144b565b66038d7ea4c6800460009054906101000a90046001600160a01b03166001600160a01b0316630a441f7b6040518163ffffffff1660e01b8152600401602060405180830381865afa15801561064b573d6000803e3d6000fd5b505050506040513d601f19601f8201168201806040525081019061066f9190611462565b101561068e5760405163465a1c3560e01b815260040160405180910390fd5b600254429062093a806106a18183611429565b6106ab919061144b565b9050600084815b818110156109a95760008888838181106106ce576106ce61157c565b602002919091013591506001905060405161f8e560ef1b8152600481018390527f00000000000000000000000000000000000000000000000000000000000000006001600160a01b031690637c72800090602401602060405180830381865afa15801561073f573d6000803e3d6000fd5b505050506040513d601f19601f820116820180604052508101906107639190611491565b60028111156107745761077461147b565b0361079257604051635eb32db160e11b815260040160405180910390fd5b806000036107a057506109a9565b60006107ac8287610aa6565b9050801561099f57604051635a2d1e0760e11b8152600481018390526000907f00000000000000000000000000000000000000000000000000000000000000006001600160a01b03169063b45a3c0e90602401606060405180830381865afa15801561081c573d6000803e3d6000fd5b505050506040513d601f19601f8201168201806040525081019061084091906114d9565b90508060200151881015801561085857508060400151155b1561090f576040516331a9108f60e11b8152600481018490526000907f00000000000000000000000000000000000000000000000000000000000000006001600160a01b031690636352211e90602401602060405180830381865afa1580156108c5573d6000803e3d6000fd5b505050506040513d601f19601f820116820180604052508101906108e9919061154c565b66038d7ea4c6800354909150610909906001600160a01b03168285610b28565b50610991565b60405163076426ed60e11b815260048101849052602481018390527f00000000000000000000000000000000000000000000000000000000000000006001600160a01b031690630ec84dda90604401600060405180830381600087803b15801561097857600080fd5b505af115801561098c573d6000803e3d6000fd5b505050505b61099b8287611592565b9550505b50506001016106b2565b5081156109ce578166038d7ea4c6800560008282546109c89190611569565b90915550505b60019450505050505b92915050565b66038d7ea4c68004546001600160a01b03163314610a0e57604051633cc50b4560e01b815260040160405180910390fd5b610a16610b7f565b565b60008062093a8080600254610a2d9190611429565b610a37919061144b565b9050610a438382610dd5565b5090949350505050565b66038d7ea4c68004546001600160a01b03163314610a7e57604051633cc50b4560e01b815260040160405180910390fd5b66038d7ea4c6800480546001600160a01b0319166001600160a01b0392909216919091179055565b600080600080610ab68686610dd5565b60008981526001602052604081208290559295509093509150839003610ae257600093505050506109d7565b8082877fcae2990aa9af8eb1c64713b7eddb3a80bf18e49a94a13fe0d0002b5d61d58f0086604051610b1691815260200190565b60405180910390a45090949350505050565b604080516001600160a01b038416602482015260448082018490528251808303909101815260649091019091526020810180516001600160e01b031663a9059cbb60e01b179052610b7a90849061114c565b505050565b66038d7ea4c68003546040516370a0823160e01b81523060048201526000916001600160a01b0316906370a0823190602401602060405180830381865afa158015610bce573d6000803e3d6000fd5b505050506040513d601f19601f82011682018060405250810190610bf29190611462565b9050600066038d7ea4c680055482610c0a9190611569565b66038d7ea4c680058390556002549091506000610c278242611569565b426002559050600062093a80610c3d8185611429565b610c47919061144b565b9050600042815b6014811015610d9257610c6462093a8085611592565b925082821015610ced5784158015610c7b57508582145b15610cb5578660038566038d7ea4c680008110610c9a57610c9a61157c565b016000828254610caa9190611592565b90915550610d929050565b84610cc08784611569565b610cca908961144b565b610cd49190611429565b60038566038d7ea4c680008110610c9a57610c9a61157c565b84158015610cfa57508583145b15610d34578660038566038d7ea4c680008110610d1957610d1961157c565b016000828254610d299190611592565b90915550610d829050565b84610d3f8785611569565b610d49908961144b565b610d539190611429565b60038566038d7ea4c680008110610d6c57610d6c61157c565b016000828254610d7c9190611592565b90915550505b9194508492508291600101610c4e565b5060408051828152602081018890527fce749457b74e10f393f2c6b1ce4261b78791376db5a3f501477a809f03f500d6910160405180910390a150505050505050565b600080548382526001602052604080832054905163e58f594760e01b8152600481018690529091829184907f00000000000000000000000000000000000000000000000000000000000000006001600160a01b03169063e58f594790602401602060405180830381865afa158015610e51573d6000803e3d6000fd5b505050506040513d601f19601f82011682018060405250810190610e759190611462565b905080600003610e8a57600094505050611145565b82600003610f4c576040516322565a1560e11b815260048101889052600160248201526000907f00000000000000000000000000000000000000000000000000000000000000006001600160a01b0316906344acb42a9060440160a060405180830381865afa158015610f01573d6000803e3d6000fd5b505050506040513d601f19601f82011682018060405250810190610f2591906115a5565b905062093a80808260400151610f3b9190611429565b610f45919061144b565b9350839450505b858310610f5e57600094505050611145565b81831015610f6a578192505b60005b603281101561114157868410156111415760006001600160a01b037f00000000000000000000000000000000000000000000000000000000000000001663e0514aba8a6001610fbf62093a808a611592565b610fc99190611569565b6040516001600160e01b031960e085901b16815260048101929092526024820152604401602060405180830381865afa15801561100a573d6000803e3d6000fd5b505050506040513d601f19601f8201168201806040525081019061102e9190611462565b905060006001600160a01b037f00000000000000000000000000000000000000000000000000000000000000001663981b24d0600161107062093a808a611592565b61107a9190611569565b6040518263ffffffff1660e01b815260040161109891815260200190565b602060405180830381865afa1580156110b5573d6000803e3d6000fd5b505050506040513d601f19601f820116820180604052508101906110d99190611462565b905080156110e757806110ea565b60015b90508060038766038d7ea4c6800081106111065761110661157c565b0154611112908461144b565b61111c9190611429565b6111269089611592565b975061113562093a8087611592565b95505050600101610f6d565b5050505b9250925092565b60006111a1826040518060400160405280602081526020017f5361666545524332303a206c6f772d6c6576656c2063616c6c206661696c6564815250856001600160a01b03166112269092919063ffffffff16565b90508051600014806111c25750808060200190518101906111c2919061162f565b610b7a5760405162461bcd60e51b815260206004820152602a60248201527f5361666545524332303a204552433230206f7065726174696f6e20646964206e6044820152691bdd081cdd58d8d9595960b21b60648201526084015b60405180910390fd5b60606105b3848460008585600080866001600160a01b0316858760405161124d919061166e565b60006040518083038185875af1925050503d806000811461128a576040519150601f19603f3d011682016040523d82523d6000602084013e61128f565b606091505b50915091506112a0878383876112ab565b979650505050505050565b6060831561131a578251600003611313576001600160a01b0385163b6113135760405162461bcd60e51b815260206004820152601d60248201527f416464726573733a2063616c6c20746f206e6f6e2d636f6e7472616374000000604482015260640161121d565b50816105b3565b6105b3838381511561132f5781518083602001fd5b8060405162461bcd60e51b815260040161121d919061168a565b60006020828403121561135b57600080fd5b5035919050565b6000806020838503121561137557600080fd5b823567ffffffffffffffff8082111561138d57600080fd5b818501915085601f8301126113a157600080fd5b8135818111156113b057600080fd5b8660208260051b85010111156113c557600080fd5b60209290920196919550909350505050565b6001600160a01b03811681146113ec57600080fd5b50565b60006020828403121561140157600080fd5b813561140c816113d7565b9392505050565b634e487b7160e01b600052601160045260246000fd5b60008261144657634e487b7160e01b600052601260045260246000fd5b500490565b80820281158282048414176109d7576109d7611413565b60006020828403121561147457600080fd5b5051919050565b634e487b7160e01b600052602160045260246000fd5b6000602082840312156114a357600080fd5b81516003811061140c57600080fd5b8051600f81900b81146114c457600080fd5b919050565b805180151581146114c457600080fd5b6000606082840312156114eb57600080fd5b6040516060810181811067ffffffffffffffff8211171561151c57634e487b7160e01b600052604160045260246000fd5b604052611528836114b2565b815260208301516020820152611540604084016114c9565b60408201529392505050565b60006020828403121561155e57600080fd5b815161140c816113d7565b818103818111156109d7576109d7611413565b634e487b7160e01b600052603260045260246000fd5b808201808211156109d7576109d7611413565b600060a082840312156115b757600080fd5b60405160a0810181811067ffffffffffffffff821117156115e857634e487b7160e01b600052604160045260246000fd5b6040526115f4836114b2565b8152611602602084016114b2565b60208201526040830151604082015260608301516060820152608083015160808201528091505092915050565b60006020828403121561164157600080fd5b61140c826114c9565b60005b8381101561166557818101518382015260200161164d565b50506000910152565b6000825161168081846020870161164a565b9190910192915050565b60208152600082518060208401526116a981604085016020870161164a565b601f01601f1916919091016040019291505056fea26469706673582212202da388d221fde23160d3994fd479b43101bd0f7f5cb702016d7dcca6d61c85cd64736f6c63430008180033",
  "devdoc": {
    "kind": "dev",
    "methods": {
      "claim(uint256)": {
        "details": "Allows claiming of rebases up to 50 epochs old      `Splitter.updatePeriod()` must be called before claiming",
        "params": {
          "tokenId": "The token ID to claim for"
        },
        "returns": {
          "_0": "The amount of rebases claimed"
        }
      },
      "claimMany(uint256[])": {
        "details": "`Splitter.updatePeriod()` must be called before claiming",
        "params": {
          "tokenIds": "The token IDs to claim for"
        },
        "returns": {
          "_0": "Whether or not the claim succeeded"
        }
      },
      "claimable(uint256)": {
        "details": "Allows claiming of rebases up to 50 epochs old",
        "params": {
          "tokenId": "The token ID to check"
        },
        "returns": {
          "claimable_": "The amount of rebases claimable for the given token ID"
        }
      },
      "setDepositor(address)": {
        "details": "Callable once by Splitter only, Splitter is immutable"
      }
    },
    "version": 1
  },
  "userdoc": {
    "kind": "user",
    "methods": {
      "checkpointToken()": {
        "notice": "Called by Splitter to notify Distributor of rebases"
      },
      "claim(uint256)": {
        "notice": "Claims rebases for a given token ID"
      },
      "claimMany(uint256[])": {
        "notice": "Claims rebases for a list of token IDs"
      },
      "claimable(uint256)": {
        "notice": "Returns the amount of rebases claimable for a given token ID"
      },
      "depositor()": {
        "notice": "Address of Splitter.sol         Authorized caller of checkpointToken()"
      },
      "lastTokenTime()": {
        "notice": "The last timestamp Splitter has called checkpointToken()"
      },
      "setDepositor(address)": {
        "notice": "Used to set splitter once on initialization"
      },
      "startTime()": {
        "notice": "Timestamp of contract creation"
      },
      "timeCursorOf(uint256)": {
        "notice": "Timestamp of most recent claim of tokenId"
      },
      "token()": {
        "notice": "Address of token used for distributions"
      },
      "tokenLastBalance()": {
        "notice": "Amount of token in contract when checkpointToken() was last called"
      },
      "ve()": {
        "notice": "Interface of VotingEscrow.sol"
      },
      "week()": {
        "notice": "7 days in seconds"
      }
    },
    "version": 1
  },
  "storageLayout": {
    "storage": [
      {
        "astId": 13817,
        "contract": "contracts/RewardsDistributor.sol:RewardsDistributor",
        "label": "startTime",
        "offset": 0,
        "slot": "0",
        "type": "t_uint256"
      },
      {
        "astId": 13822,
        "contract": "contracts/RewardsDistributor.sol:RewardsDistributor",
        "label": "timeCursorOf",
        "offset": 0,
        "slot": "1",
        "type": "t_mapping(t_uint256,t_uint256)"
      },
      {
        "astId": 13825,
        "contract": "contracts/RewardsDistributor.sol:RewardsDistributor",
        "label": "lastTokenTime",
        "offset": 0,
        "slot": "2",
        "type": "t_uint256"
      },
      {
        "astId": 13829,
        "contract": "contracts/RewardsDistributor.sol:RewardsDistributor",
        "label": "tokensPerWeek",
        "offset": 0,
        "slot": "3",
        "type": "t_array(t_uint256)1000000000000000_storage"
      },
      {
        "astId": 13836,
        "contract": "contracts/RewardsDistributor.sol:RewardsDistributor",
        "label": "token",
        "offset": 0,
        "slot": "1000000000000003",
        "type": "t_address"
      },
      {
        "astId": 13839,
        "contract": "contracts/RewardsDistributor.sol:RewardsDistributor",
        "label": "depositor",
        "offset": 0,
        "slot": "1000000000000004",
        "type": "t_address"
      },
      {
        "astId": 13842,
        "contract": "contracts/RewardsDistributor.sol:RewardsDistributor",
        "label": "tokenLastBalance",
        "offset": 0,
        "slot": "1000000000000005",
        "type": "t_uint256"
      }
    ],
    "types": {
      "t_address": {
        "encoding": "inplace",
        "label": "address",
        "numberOfBytes": "20"
      },
      "t_array(t_uint256)1000000000000000_storage": {
        "base": "t_uint256",
        "encoding": "inplace",
        "label": "uint256[1000000000000000]",
        "numberOfBytes": "32000000000000000"
      },
      "t_mapping(t_uint256,t_uint256)": {
        "encoding": "mapping",
        "key": "t_uint256",
        "label": "mapping(uint256 => uint256)",
        "numberOfBytes": "32",
        "value": "t_uint256"
      },
      "t_uint256": {
        "encoding": "inplace",
        "label": "uint256",
        "numberOfBytes": "32"
      }
    }
  }
}