{
  "address": "0x265054F72bAD343FDEE3e018269cbB899e2E2ec5",
  "abi": [
    {
      "inputs": [
        {
          "internalType": "address",
          "name": "_fallbackPoolFactory",
          "type": "address"
        },
        {
          "internalType": "address",
          "name": "_fallbackVotingRewardsFactory",
          "type": "address"
        },
        {
          "internalType": "address",
          "name": "_fallbackGaugeFactory",
          "type": "address"
        },
        {
          "internalType": "address",
          "name": "_newManagedRewardsFactory",
          "type": "address"
        }
      ],
      "stateMutability": "nonpayable",
      "type": "constructor"
    },
    {
      "inputs": [],
      "name": "FallbackFactory",
      "type": "error"
    },
    {
      "inputs": [],
      "name": "InvalidFactoriesToPoolFactory",
      "type": "error"
    },
    {
      "inputs": [],
      "name": "PathAlreadyApproved",
      "type": "error"
    },
    {
      "inputs": [],
      "name": "PathNotApproved",
      "type": "error"
    },
    {
      "inputs": [],
      "name": "SameAddress",
      "type": "error"
    },
    {
      "inputs": [],
      "name": "ZeroAddress",
      "type": "error"
    },
    {
      "anonymous": false,
      "inputs": [
        {
          "indexed": true,
          "internalType": "address",
          "name": "poolFactory",
          "type": "address"
        },
        {
          "indexed": true,
          "internalType": "address",
          "name": "votingRewardsFactory",
          "type": "address"
        },
        {
          "indexed": true,
          "internalType": "address",
          "name": "gaugeFactory",
          "type": "address"
        }
      ],
      "name": "Approve",
      "type": "event"
    },
    {
      "anonymous": false,
      "inputs": [
        {
          "indexed": true,
          "internalType": "address",
          "name": "previousOwner",
          "type": "address"
        },
        {
          "indexed": true,
          "internalType": "address",
          "name": "newOwner",
          "type": "address"
        }
      ],
      "name": "OwnershipTransferred",
      "type": "event"
    },
    {
      "anonymous": false,
      "inputs": [
        {
          "indexed": true,
          "internalType": "address",
          "name": "_newRewardsFactory",
          "type": "address"
        }
      ],
      "name": "SetManagedRewardsFactory",
      "type": "event"
    },
    {
      "anonymous": false,
      "inputs": [
        {
          "indexed": true,
          "internalType": "address",
          "name": "poolFactory",
          "type": "address"
        },
        {
          "indexed": true,
          "internalType": "address",
          "name": "votingRewardsFactory",
          "type": "address"
        },
        {
          "indexed": true,
          "internalType": "address",
          "name": "gaugeFactory",
          "type": "address"
        }
      ],
      "name": "Unapprove",
      "type": "event"
    },
    {
      "inputs": [
        {
          "internalType": "address",
          "name": "poolFactory",
          "type": "address"
        },
        {
          "internalType": "address",
          "name": "votingRewardsFactory",
          "type": "address"
        },
        {
          "internalType": "address",
          "name": "gaugeFactory",
          "type": "address"
        }
      ],
      "name": "approve",
      "outputs": [],
      "stateMutability": "nonpayable",
      "type": "function"
    },
    {
      "inputs": [
        {
          "internalType": "address",
          "name": "poolFactory",
          "type": "address"
        }
      ],
      "name": "factoriesToPoolFactory",
      "outputs": [
        {
          "internalType": "address",
          "name": "votingRewardsFactory",
          "type": "address"
        },
        {
          "internalType": "address",
          "name": "gaugeFactory",
          "type": "address"
        }
      ],
      "stateMutability": "view",
      "type": "function"
    },
    {
      "inputs": [],
      "name": "fallbackPoolFactory",
      "outputs": [
        {
          "internalType": "address",
          "name": "",
          "type": "address"
        }
      ],
      "stateMutability": "view",
      "type": "function"
    },
    {
      "inputs": [
        {
          "internalType": "address",
          "name": "poolFactory",
          "type": "address"
        }
      ],
      "name": "isPoolFactoryApproved",
      "outputs": [
        {
          "internalType": "bool",
          "name": "",
          "type": "bool"
        }
      ],
      "stateMutability": "view",
      "type": "function"
    },
    {
      "inputs": [],
      "name": "managedRewardsFactory",
      "outputs": [
        {
          "internalType": "address",
          "name": "",
          "type": "address"
        }
      ],
      "stateMutability": "view",
      "type": "function"
    },
    {
      "inputs": [],
      "name": "owner",
      "outputs": [
        {
          "internalType": "address",
          "name": "",
          "type": "address"
        }
      ],
      "stateMutability": "view",
      "type": "function"
    },
    {
      "inputs": [],
      "name": "poolFactories",
      "outputs": [
        {
          "internalType": "address[]",
          "name": "",
          "type": "address[]"
        }
      ],
      "stateMutability": "view",
      "type": "function"
    },
    {
      "inputs": [],
      "name": "poolFactoriesLength",
      "outputs": [
        {
          "internalType": "uint256",
          "name": "",
          "type": "uint256"
        }
      ],
      "stateMutability": "view",
      "type": "function"
    },
    {
      "inputs": [],
      "name": "renounceOwnership",
      "outputs": [],
      "stateMutability": "nonpayable",
      "type": "function"
    },
    {
      "inputs": [
        {
          "internalType": "address",
          "name": "_newManagedRewardsFactory",
          "type": "address"
        }
      ],
      "name": "setManagedRewardsFactory",
      "outputs": [],
      "stateMutability": "nonpayable",
      "type": "function"
    },
    {
      "inputs": [
        {
          "internalType": "address",
          "name": "newOwner",
          "type": "address"
        }
      ],
      "name": "transferOwnership",
      "outputs": [],
      "stateMutability": "nonpayable",
      "type": "function"
    },
    {
      "inputs": [
        {
          "internalType": "address",
          "name": "poolFactory",
          "type": "address"
        }
      ],
      "name": "unapprove",
      "outputs": [],
      "stateMutability": "nonpayable",
      "type": "function"
    }
  ],
  "transactionHash": "0x5e5b5160351a2c294b60afc67f2883d4b87e41e362f016798eaa8a7e2d8fb477",
  "args": [
    "0x83FE469C636C4081b87bA5b3Ae9991c6Ed104248",
    "0xC67913137429985416DbCe28D9fa9ec960BA47BF",
    "0xfa4FC53BEB5B7721d173342FfC24058e9D47a1Ff",
    "0xd040Def4bC6372Cd27b433288008aDCe7c9de71C"
  ],
  "numDeployments": 1,
  "solcInputHash": "2799ce436a196df11f1ef308a2a7561c",
  "bytecode": "0x60a06040523480156200001157600080fd5b5060405162000f1838038062000f18833981016040819052620000349162000449565b6200003f336200006e565b6001600160a01b03841660805262000059848484620000be565b620000648162000295565b50505050620004a6565b600080546001600160a01b038381166001600160a01b0319831681178455604051919092169283917f8be0079c531659141344cd1fd0a4f28419497f9722a3daafe3b4186f6b6457e09190a35050565b620000c862000341565b6001600160a01b0383161580620000e657506001600160a01b038216155b80620000f957506001600160a01b038116155b15620001185760405163d92e233d60e01b815260040160405180910390fd5b62000125600284620003a2565b1562000144576040516362cee17560e11b815260040160405180910390fd5b6001600160a01b038084166000908152600460209081526040918290208251808401909352805484168084526001909101549093169082015290620001e5576040805180820182526001600160a01b03808616825284811660208084019182528883166000908152600490915293909320915182549082166001600160a01b0319918216178355925160019092018054929091169190921617905562000237565b80516001600160a01b03848116911614158062000218575080602001516001600160a01b0316826001600160a01b031614155b156200023757604051630358043160e01b815260040160405180910390fd5b62000244600285620003c9565b50816001600160a01b0316836001600160a01b0316856001600160a01b03167f5abe7702ac48299ef7647755d7af6d6a6beecd1c584bbb6fa55b7a882490efc760405160405180910390a450505050565b6200029f62000341565b6001546001600160a01b0390811690821603620002cf5760405163367558c360e01b815260040160405180910390fd5b6001600160a01b038116620002f75760405163d92e233d60e01b815260040160405180910390fd5b600180546001600160a01b0319166001600160a01b0383169081179091556040517f3123bae5152a999decbb5b69306adb30fa19885cf983c49427fd5b4594dcb03790600090a250565b6000546001600160a01b03163314620003a05760405162461bcd60e51b815260206004820181905260248201527f4f776e61626c653a2063616c6c6572206973206e6f7420746865206f776e6572604482015260640160405180910390fd5b565b6001600160a01b038116600090815260018301602052604081205415155b90505b92915050565b6000620003c0836001600160a01b03841660008181526001830160205260408120546200042357508154600181810184556000848152602080822090930184905584548482528286019093526040902091909155620003c3565b506000620003c3565b80516001600160a01b03811681146200044457600080fd5b919050565b600080600080608085870312156200046057600080fd5b6200046b856200042c565b93506200047b602086016200042c565b92506200048b604086016200042c565b91506200049b606086016200042c565b905092959194509250565b608051610a4f620004c96000396000818161014a01526105710152610a4f6000f3fe608060405234801561001057600080fd5b50600436106100b45760003560e01c8063715018a611610071578063715018a6146101815780638da5cb5b146101895780639b140a851461019a578063d1ea0a1d146101ad578063f2fde38b146101d0578063fbf1f78a146101e357600080fd5b806306121cd5146100b95780630cb299c9146100d75780630d0ae678146100ed5780631217afdb1461011257806356d9cb6414610145578063640769391461016c575b600080fd5b6100c16101f6565b6040516100ce9190610905565b60405180910390f35b6100df610207565b6040519081526020016100ce565b6001546001600160a01b03165b6040516001600160a01b0390911681526020016100ce565b61012561012036600461096e565b610213565b604080516001600160a01b039384168152929091166020830152016100ce565b6100fa7f000000000000000000000000000000000000000000000000000000000000000081565b61017f61017a36600461096e565b610251565b005b61017f6102f9565b6000546001600160a01b03166100fa565b61017f6101a8366004610989565b61030d565b6101c06101bb36600461096e565b6104d6565b60405190151581526020016100ce565b61017f6101de36600461096e565b6104e9565b61017f6101f136600461096e565b610567565b60606102026002610654565b905090565b60006102026002610668565b6001600160a01b0390811660009081526004602090815260409182902082518084019093528054841680845260019091015490931691018190529091565b610259610672565b6001546001600160a01b03908116908216036102885760405163367558c360e01b815260040160405180910390fd5b6001600160a01b0381166102af5760405163d92e233d60e01b815260040160405180910390fd5b600180546001600160a01b0319166001600160a01b0383169081179091556040517f3123bae5152a999decbb5b69306adb30fa19885cf983c49427fd5b4594dcb03790600090a250565b610301610672565b61030b60006106cc565b565b610315610672565b6001600160a01b038316158061033257506001600160a01b038216155b8061034457506001600160a01b038116155b156103625760405163d92e233d60e01b815260040160405180910390fd5b61036d60028461071c565b1561038b576040516362cee17560e11b815260040160405180910390fd5b6001600160a01b03808416600090815260046020908152604091829020825180840190935280548416808452600190910154909316908201529061042a576040805180820182526001600160a01b03808616825284811660208084019182528883166000908152600490915293909320915182549082166001600160a01b0319918216178355925160019092018054929091169190921617905561047a565b80516001600160a01b03848116911614158061045c575080602001516001600160a01b0316826001600160a01b031614155b1561047a57604051630358043160e01b815260040160405180910390fd5b61048560028561073d565b50816001600160a01b0316836001600160a01b0316856001600160a01b03167f5abe7702ac48299ef7647755d7af6d6a6beecd1c584bbb6fa55b7a882490efc760405160405180910390a450505050565b60006104e360028361071c565b92915050565b6104f1610672565b6001600160a01b03811661055b5760405162461bcd60e51b815260206004820152602660248201527f4f776e61626c653a206e6577206f776e657220697320746865207a65726f206160448201526564647265737360d01b60648201526084015b60405180910390fd5b610564816106cc565b50565b61056f610672565b7f00000000000000000000000000000000000000000000000000000000000000006001600160a01b0316816001600160a01b0316036105c157604051630a235adf60e11b815260040160405180910390fd5b6105cc60028261071c565b6105e95760405163d38afd6560e01b815260040160405180910390fd5b6105f4600282610752565b5060008061060183610213565b91509150806001600160a01b0316826001600160a01b0316846001600160a01b03167fbbbf8609bccd24696f7d2d86357dbd1a55ff9b79853a72ea11b1c0968ada177660405160405180910390a4505050565b6060600061066183610767565b9392505050565b60006104e3825490565b6000546001600160a01b0316331461030b5760405162461bcd60e51b815260206004820181905260248201527f4f776e61626c653a2063616c6c6572206973206e6f7420746865206f776e65726044820152606401610552565b600080546001600160a01b038381166001600160a01b0319831681178455604051919092169283917f8be0079c531659141344cd1fd0a4f28419497f9722a3daafe3b4186f6b6457e09190a35050565b6001600160a01b031660009081526001919091016020526040902054151590565b6000610661836001600160a01b0384166107c3565b6000610661836001600160a01b038416610812565b6060816000018054806020026020016040519081016040528092919081815260200182805480156107b757602002820191906000526020600020905b8154815260200190600101908083116107a3575b50505050509050919050565b600081815260018301602052604081205461080a575081546001818101845560008481526020808220909301849055845484825282860190935260409020919091556104e3565b5060006104e3565b600081815260018301602052604081205480156108fb5760006108366001836109cc565b855490915060009061084a906001906109cc565b90508181146108af57600086600001828154811061086a5761086a6109ed565b906000526020600020015490508087600001848154811061088d5761088d6109ed565b6000918252602080832090910192909255918252600188019052604090208390555b85548690806108c0576108c0610a03565b6001900381819060005260206000200160009055905585600101600086815260200190815260200160002060009055600193505050506104e3565b60009150506104e3565b6020808252825182820181905260009190848201906040850190845b818110156109465783516001600160a01b031683529284019291840191600101610921565b50909695505050505050565b80356001600160a01b038116811461096957600080fd5b919050565b60006020828403121561098057600080fd5b61066182610952565b60008060006060848603121561099e57600080fd5b6109a784610952565b92506109b560208501610952565b91506109c360408501610952565b90509250925092565b818103818111156104e357634e487b7160e01b600052601160045260246000fd5b634e487b7160e01b600052603260045260246000fd5b634e487b7160e01b600052603160045260246000fdfea2646970667358221220fdde1a2f4109c7dc77276d6d0292ec82f6c7cb26ff3c805ffdfbc91354614e1764736f6c63430008180033",
  "devdoc": {
    "author": "Carter Carlson (@pegahcarter)",
    "kind": "dev",
    "methods": {
      "approve(address,address,address)": {
        "details": "Callable by onlyOwner",
        "params": {
          "gaugeFactory": ".",
          "poolFactory": ".",
          "votingRewardsFactory": "."
        }
      },
      "isPoolFactoryApproved(address)": {
        "params": {
          "poolFactory": "."
        },
        "returns": {
          "_0": "True if PoolFactory is approved, else false"
        }
      },
      "owner()": {
        "details": "Returns the address of the current owner."
      },
      "poolFactories()": {
        "details": "The same PoolFactory address cannot be used twice",
        "returns": {
          "_0": "Array of PoolFactory addresses"
        }
      },
      "renounceOwnership()": {
        "details": "Leaves the contract without owner. It will not be possible to call `onlyOwner` functions. Can only be called by the current owner. NOTE: Renouncing ownership will leave the contract without an owner, thereby disabling any functionality that is only available to the owner."
      },
      "setManagedRewardsFactory(address)": {
        "details": "Callable by onlyOwner",
        "params": {
          "_newManagedRewardsFactory": "address of new managedRewardsFactory"
        }
      },
      "transferOwnership(address)": {
        "details": "Transfers ownership of the contract to a new account (`newOwner`). Can only be called by the current owner."
      },
      "unapprove(address)": {
        "details": "Callable by onlyOwner",
        "params": {
          "poolFactory": "."
        }
      }
    },
    "stateVariables": {
      "_factoriesToPoolsFactory": {
        "details": "the factories linked to the poolFactory"
      },
      "_managedRewardsFactory": {
        "details": "factory to create free and locked rewards for a managed veNFT"
      },
      "_poolFactories": {
        "details": "Array of poolFactories used to create a gauge and votingRewards"
      },
      "fallbackPoolFactory": {
        "details": "The protocol will always have a usable poolFactory, votingRewardsFactory, and gaugeFactory.  The votingRewardsFactory"
      }
    },
    "title": "Protocol Factory Registry",
    "version": 1
  },
  "userdoc": {
    "kind": "user",
    "methods": {
      "approve(address,address,address)": {
        "notice": "Approve a set of factories used in the Protocol.         Router.sol is able to swap any poolFactories currently approved.         Cannot approve address(0) factories.         Cannot aprove path that is already approved.         Each poolFactory has one unique set and maintains state.  In the case a poolFactory is unapproved             and then re-approved, the same set of factories must be used.  In other words, you cannot overwrite             the factories tied to a poolFactory address.         VotingRewardsFactories and GaugeFactories may use the same address across multiple poolFactories."
      },
      "factoriesToPoolFactory(address)": {
        "notice": "Get the factories correlated to a poolFactory.         Once set, this can never be modified.         Returns the correlated factories even after an approved poolFactory is unapproved."
      },
      "isPoolFactoryApproved(address)": {
        "notice": "Check if a PoolFactory is approved within the factory registry.  Router uses this method to         ensure a pool swapped from is approved."
      },
      "managedRewardsFactory()": {
        "notice": "Factory to create free and locked rewards for a managed veNFT"
      },
      "poolFactories()": {
        "notice": "Get all PoolFactories approved by the registry"
      },
      "poolFactoriesLength()": {
        "notice": "Get the length of the poolFactories array"
      },
      "setManagedRewardsFactory(address)": {
        "notice": "Set the rewards factory address"
      },
      "unapprove(address)": {
        "notice": "Unapprove a set of factories used in the Protocol.         While a poolFactory is unapproved, Router.sol cannot swap with pools made from the corresponding factory         Can only unapprove an approved path.         Cannot unapprove the fallback path (core v2 factories)."
      }
    },
    "notice": "Protocol Factory Registry to swap and create gauges",
    "version": 1
  },
  "storageLayout": {
    "storage": [
      {
        "astId": 980,
        "contract": "contracts/factories/FactoryRegistry.sol:FactoryRegistry",
        "label": "_owner",
        "offset": 0,
        "slot": "0",
        "type": "t_address"
      },
      {
        "astId": 21461,
        "contract": "contracts/factories/FactoryRegistry.sol:FactoryRegistry",
        "label": "_managedRewardsFactory",
        "offset": 0,
        "slot": "1",
        "type": "t_address"
      },
      {
        "astId": 21468,
        "contract": "contracts/factories/FactoryRegistry.sol:FactoryRegistry",
        "label": "_poolFactories",
        "offset": 0,
        "slot": "2",
        "type": "t_struct(AddressSet)9402_storage"
      },
      {
        "astId": 21479,
        "contract": "contracts/factories/FactoryRegistry.sol:FactoryRegistry",
        "label": "_factoriesToPoolsFactory",
        "offset": 0,
        "slot": "4",
        "type": "t_mapping(t_address,t_struct(FactoriesToPoolFactory)21473_storage)"
      }
    ],
    "types": {
      "t_address": {
        "encoding": "inplace",
        "label": "address",
        "numberOfBytes": "20"
      },
      "t_array(t_bytes32)dyn_storage": {
        "base": "t_bytes32",
        "encoding": "dynamic_array",
        "label": "bytes32[]",
        "numberOfBytes": "32"
      },
      "t_bytes32": {
        "encoding": "inplace",
        "label": "bytes32",
        "numberOfBytes": "32"
      },
      "t_mapping(t_address,t_struct(FactoriesToPoolFactory)21473_storage)": {
        "encoding": "mapping",
        "key": "t_address",
        "label": "mapping(address => struct FactoryRegistry.FactoriesToPoolFactory)",
        "numberOfBytes": "32",
        "value": "t_struct(FactoriesToPoolFactory)21473_storage"
      },
      "t_mapping(t_bytes32,t_uint256)": {
        "encoding": "mapping",
        "key": "t_bytes32",
        "label": "mapping(bytes32 => uint256)",
        "numberOfBytes": "32",
        "value": "t_uint256"
      },
      "t_struct(AddressSet)9402_storage": {
        "encoding": "inplace",
        "label": "struct EnumerableSet.AddressSet",
        "members": [
          {
            "astId": 9401,
            "contract": "contracts/factories/FactoryRegistry.sol:FactoryRegistry",
            "label": "_inner",
            "offset": 0,
            "slot": "0",
            "type": "t_struct(Set)9087_storage"
          }
        ],
        "numberOfBytes": "64"
      },
      "t_struct(FactoriesToPoolFactory)21473_storage": {
        "encoding": "inplace",
        "label": "struct FactoryRegistry.FactoriesToPoolFactory",
        "members": [
          {
            "astId": 21470,
            "contract": "contracts/factories/FactoryRegistry.sol:FactoryRegistry",
            "label": "votingRewardsFactory",
            "offset": 0,
            "slot": "0",
            "type": "t_address"
          },
          {
            "astId": 21472,
            "contract": "contracts/factories/FactoryRegistry.sol:FactoryRegistry",
            "label": "gaugeFactory",
            "offset": 0,
            "slot": "1",
            "type": "t_address"
          }
        ],
        "numberOfBytes": "64"
      },
      "t_struct(Set)9087_storage": {
        "encoding": "inplace",
        "label": "struct EnumerableSet.Set",
        "members": [
          {
            "astId": 9082,
            "contract": "contracts/factories/FactoryRegistry.sol:FactoryRegistry",
            "label": "_values",
            "offset": 0,
            "slot": "0",
            "type": "t_array(t_bytes32)dyn_storage"
          },
          {
            "astId": 9086,
            "contract": "contracts/factories/FactoryRegistry.sol:FactoryRegistry",
            "label": "_indexes",
            "offset": 0,
            "slot": "1",
            "type": "t_mapping(t_bytes32,t_uint256)"
          }
        ],
        "numberOfBytes": "64"
      },
      "t_uint256": {
        "encoding": "inplace",
        "label": "uint256",
        "numberOfBytes": "32"
      }
    }
  }
}