{
  "address": "0xDC1FECa3181C5075D78a57600834b57B476eDC54",
  "abi": [
    {
      "anonymous": false,
      "inputs": [
        {
          "indexed": true,
          "internalType": "address",
          "name": "voter",
          "type": "address"
        },
        {
          "indexed": true,
          "internalType": "address",
          "name": "lockedManagedReward",
          "type": "address"
        },
        {
          "indexed": true,
          "internalType": "address",
          "name": "freeManagedReward",
          "type": "address"
        }
      ],
      "name": "ManagedRewardCreated",
      "type": "event"
    },
    {
      "inputs": [
        {
          "internalType": "address",
          "name": "_forwarder",
          "type": "address"
        },
        {
          "internalType": "address",
          "name": "_voter",
          "type": "address"
        }
      ],
      "name": "createRewards",
      "outputs": [
        {
          "internalType": "address",
          "name": "lockedManagedReward",
          "type": "address"
        },
        {
          "internalType": "address",
          "name": "freeManagedReward",
          "type": "address"
        }
      ],
      "stateMutability": "nonpayable",
      "type": "function"
    }
  ],
  "transactionHash": "0x94849b8e81e75818281c6a4082eaca03f63facdfb48f3fbe1f1309750f04f4e9",
  "args": [],
  "numDeployments": 1,
  "solcInputHash": "2799ce436a196df11f1ef308a2a7561c",
  "bytecode": "0x608060405234801561001057600080fd5b50613659806100206000396000f3fe608060405234801561001057600080fd5b506004361061002b5760003560e01c8063dabc8e8314610030575b600080fd5b61004361003e366004610154565b61005a565b604051610051929190610187565b60405180910390f35b600080838360405161006b9061011e565b610076929190610187565b604051809103906000f080158015610092573d6000803e3d6000fd5b50915083836040516100a39061012b565b6100ae929190610187565b604051809103906000f0801580156100ca573d6000803e3d6000fd5b509050806001600160a01b0316826001600160a01b0316846001600160a01b03167f951f6f2ffc705efc870b0c6023fb94c7edece24c87077884b6d08a5cd44e6aa760405160405180910390a49250929050565b611a2d806101a283390190565b611a5580611bcf83390190565b80356001600160a01b038116811461014f57600080fd5b919050565b6000806040838503121561016757600080fd5b61017083610138565b915061017e60208401610138565b90509250929050565b6001600160a01b039283168152911660208201526040019056fe60e06040523480156200001157600080fd5b5060405162001a2d38038062001a2d833981016040819052620000349162000240565b6001600160a01b038083166080526001600055811660a081905260408051630fc2838b60e11b81529051849284928492849291631f8507169160048083019260209291908290030181865afa15801562000092573d6000803e3d6000fd5b505050506040513d601f19601f82011682018060405250810190620000b8919062000278565b6001600160a01b031660c0816001600160a01b03168152505050506000816001600160a01b0316631f8507166040518163ffffffff1660e01b8152600401602060405180830381865afa15801562000114573d6000803e3d6000fd5b505050506040513d601f19601f820116820180604052508101906200013a919062000278565b90506000816001600160a01b031663fc0c546a6040518163ffffffff1660e01b8152600401602060405180830381865afa1580156200017d573d6000803e3d6000fd5b505050506040513d601f19601f82011682018060405250810190620001a3919062000278565b6006805460018082019092557ff652222313e28459528d920b65115c16c04f3efc82aaedc97be59f3f377c0d3f0180546001600160a01b03199081166001600160a01b03948516908117909255600091825260076020526040909120805460ff1916831790558154169390911692909217909155506200029d9350505050565b80516001600160a01b03811681146200023b57600080fd5b919050565b600080604083850312156200025457600080fd5b6200025f8362000223565b91506200026f6020840162000223565b90509250929050565b6000602082840312156200028b57600080fd5b620002968262000223565b9392505050565b60805160a05160c051611744620002e9600039600081816101780152818161095e015281816109b001528181610b8e0152610c02015260006101dd015260006105bf01526117446000f3fe608060405234801561001057600080fd5b506004361061014d5760003560e01c806392777b29116100c3578063e8111a121161007c578063e8111a121461034d578063f25e55a514610356578063f301af4214610381578063f320772314610394578063f5f8d365146103a7578063f7412baf146103ba57600080fd5b806392777b29146102bf5780639cc7f708146102ea5780639e2bf22c1461030a578063a28d4c9c1461031f578063b66503cf14610332578063e68863961461034557600080fd5b806346c96aac1161011557806346c96aac146101d857806349dcc204146101ff5780634d5ce038146102465780635058979314610279578063572b6c051461029957806376f4be36146102ac57600080fd5b80630fb5a6b41461015257806318160ddd1461016a5780631f850716146101735780633e491d47146101b2578063456cb7c6146101c5575b600080fd5b62093a805b6040519081526020015b60405180910390f35b61015760025481565b61019a7f000000000000000000000000000000000000000000000000000000000000000081565b6040516001600160a01b039091168152602001610161565b6101576101c0366004611466565b6103e1565b60015461019a906001600160a01b031681565b61019a7f000000000000000000000000000000000000000000000000000000000000000081565b61023161020d366004611492565b60086020908152600092835260408084209091529082529020805460019091015482565b60408051928352602083019190915201610161565b6102696102543660046114b4565b60076020526000908152604090205460ff1681565b6040519015158152602001610161565b6101576102873660046114d1565b60096020526000908152604090205481565b6102696102a73660046114b4565b6105bd565b6101576102ba3660046114d1565b6105ef565b6101576102cd366004611466565b600460209081526000928352604080842090915290825290205481565b6101576102f83660046114d1565b60036020526000908152604090205481565b61031d610318366004611492565b610723565b005b61015761032d366004611492565b610803565b61031d610340366004611466565b610948565b600654610157565b610157600b5481565b610157610364366004611466565b600560209081526000928352604080842090915290825290205481565b61019a61038f3660046114d1565b610a7b565b61031d6103a2366004611492565b610aa5565b61031d6103b5366004611500565b610b78565b6102316103c83660046114d1565b600a602052600090815260409020805460019091015482565b60008181526009602052604081205481036103fe575060006105b7565b6001600160a01b038316600090815260056020908152604080832085845290915281205460019062093a8081069003826104388683610803565b600087815260086020908152604080832084845282529182902082518084019093528054808452600190910154918301919091529192509061048390849062093a8081069003610cd8565b9250600062093a8061049a854283810690036115e7565b6104a491906115fa565b905080156105ae5760005b818110156105ac576104d48960016104ca62093a808961161c565b61032d91906115e7565b60008a815260086020908152604080832084845282528083208151808301909252805482526001908101549282019290925292965091945061054891600a919061052f9061052562093a808b61161c565b6102ba91906115e7565b8152602001908152602001600020600101546001610cd8565b6001600160a01b038b16600090815260046020908152604080832089845282529091205490850151919750879161057f919061162f565b61058991906115fa565b610593908861161c565b96506105a262093a808661161c565b94506001016104af565b505b50939450505050505b92915050565b7f00000000000000000000000000000000000000000000000000000000000000006001600160a01b0390811691161490565b600b546000908082036106055750600092915050565b82600a60006106156001856115e7565b8152602001908152602001600020600001541161063e576106376001826115e7565b9392505050565b60008052600a6020527f13da86008ba1c6922daee3e07db95305ef49ebced9f5467a0b8613fcc6b343e3548310156106795750600092915050565b6000806106876001846115e7565b90505b8181111561071b57600060026106a084846115e7565b6106aa91906115fa565b6106b490836115e7565b6000818152600a60209081526040918290208251808401909352805480845260019091015491830191909152919250908790036106f5575095945050505050565b805187111561070657819350610714565b6107116001836115e7565b92505b505061068a565b509392505050565b600061072d610cee565b6001549091506001600160a01b0380831691161461075e5760405163ea8e4eb560e01b815260040160405180910390fd5b826002600082825461077091906115e7565b9091555050600082815260036020526040812080548592906107939084906115e7565b90915550506000828152600360205260409020546107b2908390610d10565b6107ba610e1a565b81816001600160a01b03167ff279e6a1f5e320cca91135676d9cb6e44ca8a08c0b88342bcdb1144f6511b568856040516107f691815260200190565b60405180910390a3505050565b6000828152600960205260408120548082036108235760009150506105b7565b6000848152600860205260408120849161083e6001856115e7565b81526020019081526020016000206000015411610868576108606001826115e7565b9150506105b7565b60008481526008602090815260408083208380529091529020548310156108935760009150506105b7565b6000806108a16001846115e7565b90505b8181111561093f57600060026108ba84846115e7565b6108c491906115fa565b6108ce90836115e7565b6000888152600860209081526040808320848452825291829020825180840190935280548084526001909101549183019190915291925090879003610919575093506105b792505050565b805187111561092a57819350610938565b6109356001836115e7565b92505b50506108a4565b50949350505050565b610950610ed2565b600061095a610cee565b90507f00000000000000000000000000000000000000000000000000000000000000006001600160a01b0316816001600160a01b0316146109ae576040516306b746df60e51b815260040160405180910390fd5b7f00000000000000000000000000000000000000000000000000000000000000006001600160a01b031663fc0c546a6040518163ffffffff1660e01b8152600401602060405180830381865afa158015610a0c573d6000803e3d6000fd5b505050506040513d601f19601f82011682018060405250810190610a309190611646565b6001600160a01b0316836001600160a01b031614610a6157604051630b9eb1c560e41b815260040160405180910390fd5b610a6c818484610f30565b50610a776001600055565b5050565b60068181548110610a8b57600080fd5b6000918252602090912001546001600160a01b0316905081565b6000610aaf610cee565b6001549091506001600160a01b03808316911614610ae05760405163ea8e4eb560e01b815260040160405180910390fd5b8260026000828254610af2919061161c565b909155505060008281526003602052604081208054859290610b1590849061161c565b9091555050600082815260036020526040902054610b34908390610d10565b610b3c610e1a565b81816001600160a01b03167f90890809c654f11d6e72a28fa60149770a0d11ec6c92319d6ceb2bb0a4ea1a15856040516107f691815260200190565b610b80610ed2565b6000610b8a610cee565b90507f00000000000000000000000000000000000000000000000000000000000000006001600160a01b0316816001600160a01b031614610bde576040516306b746df60e51b815260040160405180910390fd5b8151600114610c005760405163801f099f60e01b815260040160405180910390fd5b7f00000000000000000000000000000000000000000000000000000000000000006001600160a01b031663fc0c546a6040518163ffffffff1660e01b8152600401602060405180830381865afa158015610c5e573d6000803e3d6000fd5b505050506040513d601f19601f82011682018060405250810190610c829190611646565b6001600160a01b031682600081518110610c9e57610c9e611663565b60200260200101516001600160a01b031614610ccd57604051630b9eb1c560e41b815260040160405180910390fd5b610a6c81848461100a565b6000818311610ce75781610637565b5090919050565b6000610cf9336105bd565b15610d0b575060131936013560601c90565b503390565b600082815260096020526040902054428115801590610d6e575062093a80810681036000858152600860205260408120610d6c91610d4f6001876115e7565b81526020019081526020016000206000015462093a808106900390565b145b15610dc4576040805180820182528281526020808201869052600087815260089091529182209091610da16001866115e7565b815260208082019290925260400160002082518155910151600190910155610e14565b6040805180820182528281526020808201868152600088815260088352848120878252909252929020905181559051600191820155610e0490839061161c565b6000858152600960205260409020555b50505050565b600b54428115801590610e44575062093a8081068103610e42600a6000610d4f6001876115e7565b145b15610e8f57604080518082019091528181526002546020820152600a6000610e6d6001866115e7565b8152602080820192909252604001600020825181559101516001909101555050565b60408051808201825282815260025460208083019182526000868152600a90915292909220905181559051600191820155610ecb90839061161c565b600b555050565b600260005403610f295760405162461bcd60e51b815260206004820152601f60248201527f5265656e7472616e637947756172643a207265656e7472616e742063616c6c0060448201526064015b60405180910390fd5b6002600055565b80600003610f5157604051631f2a200560e01b815260040160405180910390fd5b610f666001600160a01b038316843084611139565b6000610f774262093a808106900390565b6001600160a01b0384166000908152600460209081526040808320848452909152812080549293508492909190610faf90849061161c565b9250508190555080836001600160a01b0316856001600160a01b03167f52977ea98a2220a03ee9ba5cb003ada08d394ea10155483c95dc2dc77a7eb24b85604051610ffc91815260200190565b60405180910390a450505050565b805160005b8181101561113257600061103c84838151811061102e5761102e611663565b6020026020010151866103e1565b9050426005600086858151811061105557611055611663565b6020908102919091018101516001600160a01b03168252818101929092526040908101600090812089825290925290205580156110c3576110c386828685815181106110a3576110a3611663565b60200260200101516001600160a01b03166111a49092919063ffffffff16565b8382815181106110d5576110d5611663565b60200260200101516001600160a01b0316866001600160a01b03167f9aa05b3d70a9e3e2f004f039648839560576334fb45c81f91b6db03ad9e2efc98360405161112191815260200190565b60405180910390a35060010161100f565b5050505050565b6040516001600160a01b0380851660248301528316604482015260648101829052610e149085906323b872dd60e01b906084015b60408051601f198184030181529190526020810180516001600160e01b03166001600160e01b0319909316929092179091526111d9565b6040516001600160a01b0383166024820152604481018290526111d490849063a9059cbb60e01b9060640161116d565b505050565b600061122e826040518060400160405280602081526020017f5361666545524332303a206c6f772d6c6576656c2063616c6c206661696c6564815250856001600160a01b03166112ae9092919063ffffffff16565b905080516000148061124f57508080602001905181019061124f9190611679565b6111d45760405162461bcd60e51b815260206004820152602a60248201527f5361666545524332303a204552433230206f7065726174696f6e20646964206e6044820152691bdd081cdd58d8d9595960b21b6064820152608401610f20565b60606112bd84846000856112c5565b949350505050565b6060824710156113265760405162461bcd60e51b815260206004820152602660248201527f416464726573733a20696e73756666696369656e742062616c616e636520666f6044820152651c8818d85b1b60d21b6064820152608401610f20565b600080866001600160a01b0316858760405161134291906116bf565b60006040518083038185875af1925050503d806000811461137f576040519150601f19603f3d011682016040523d82523d6000602084013e611384565b606091505b5091509150611395878383876113a0565b979650505050505050565b6060831561140f578251600003611408576001600160a01b0385163b6114085760405162461bcd60e51b815260206004820152601d60248201527f416464726573733a2063616c6c20746f206e6f6e2d636f6e74726163740000006044820152606401610f20565b50816112bd565b6112bd83838151156114245781518083602001fd5b8060405162461bcd60e51b8152600401610f2091906116db565b6001600160a01b038116811461145357600080fd5b50565b80356114618161143e565b919050565b6000806040838503121561147957600080fd5b82356114848161143e565b946020939093013593505050565b600080604083850312156114a557600080fd5b50508035926020909101359150565b6000602082840312156114c657600080fd5b81356106378161143e565b6000602082840312156114e357600080fd5b5035919050565b634e487b7160e01b600052604160045260246000fd5b6000806040838503121561151357600080fd5b8235915060208084013567ffffffffffffffff8082111561153357600080fd5b818601915086601f83011261154757600080fd5b813581811115611559576115596114ea565b8060051b604051601f19603f8301168101818110858211171561157e5761157e6114ea565b60405291825284820192508381018501918983111561159c57600080fd5b938501935b828510156115c1576115b285611456565b845293850193928501926115a1565b8096505050505050509250929050565b634e487b7160e01b600052601160045260246000fd5b818103818111156105b7576105b76115d1565b60008261161757634e487b7160e01b600052601260045260246000fd5b500490565b808201808211156105b7576105b76115d1565b80820281158282048414176105b7576105b76115d1565b60006020828403121561165857600080fd5b81516106378161143e565b634e487b7160e01b600052603260045260246000fd5b60006020828403121561168b57600080fd5b8151801515811461063757600080fd5b60005b838110156116b657818101518382015260200161169e565b50506000910152565b600082516116d181846020870161169b565b9190910192915050565b60208152600082518060208401526116fa81604085016020870161169b565b601f01601f1916919091016040019291505056fea2646970667358221220550bb590e6c36d493193d8de3ed071f632b1d2fdfe60c17eee5ee4d119ccc7c064736f6c6343000818003360e06040523480156200001157600080fd5b5060405162001a5538038062001a55833981016040819052620000349162000240565b6001600160a01b038083166080526001600055811660a081905260408051630fc2838b60e11b81529051849284928492849291631f8507169160048083019260209291908290030181865afa15801562000092573d6000803e3d6000fd5b505050506040513d601f19601f82011682018060405250810190620000b8919062000278565b6001600160a01b031660c0816001600160a01b03168152505050506000816001600160a01b0316631f8507166040518163ffffffff1660e01b8152600401602060405180830381865afa15801562000114573d6000803e3d6000fd5b505050506040513d601f19601f820116820180604052508101906200013a919062000278565b90506000816001600160a01b031663fc0c546a6040518163ffffffff1660e01b8152600401602060405180830381865afa1580156200017d573d6000803e3d6000fd5b505050506040513d601f19601f82011682018060405250810190620001a3919062000278565b6006805460018082019092557ff652222313e28459528d920b65115c16c04f3efc82aaedc97be59f3f377c0d3f0180546001600160a01b03199081166001600160a01b03948516908117909255600091825260076020526040909120805460ff1916831790558154169390911692909217909155506200029d9350505050565b80516001600160a01b03811681146200023b57600080fd5b919050565b600080604083850312156200025457600080fd5b6200025f8362000223565b91506200026f6020840162000223565b90509250929050565b6000602082840312156200028b57600080fd5b620002968262000223565b9392505050565b60805160a05160c051611773620002e26000396000818161017801528181610bab0152610c870152600081816101dd015261099c015260006105bf01526117736000f3fe608060405234801561001057600080fd5b506004361061014d5760003560e01c806392777b29116100c3578063e8111a121161007c578063e8111a121461034d578063f25e55a514610356578063f301af4214610381578063f320772314610394578063f5f8d365146103a7578063f7412baf146103ba57600080fd5b806392777b29146102bf5780639cc7f708146102ea5780639e2bf22c1461030a578063a28d4c9c1461031f578063b66503cf14610332578063e68863961461034557600080fd5b806346c96aac1161011557806346c96aac146101d857806349dcc204146101ff5780634d5ce038146102465780635058979314610279578063572b6c051461029957806376f4be36146102ac57600080fd5b80630fb5a6b41461015257806318160ddd1461016a5780631f850716146101735780633e491d47146101b2578063456cb7c6146101c5575b600080fd5b62093a805b6040519081526020015b60405180910390f35b61015760025481565b61019a7f000000000000000000000000000000000000000000000000000000000000000081565b6040516001600160a01b039091168152602001610161565b6101576101c0366004611495565b6103e1565b60015461019a906001600160a01b031681565b61019a7f000000000000000000000000000000000000000000000000000000000000000081565b61023161020d3660046114c1565b60086020908152600092835260408084209091529082529020805460019091015482565b60408051928352602083019190915201610161565b6102696102543660046114e3565b60076020526000908152604090205460ff1681565b6040519015158152602001610161565b610157610287366004611500565b60096020526000908152604090205481565b6102696102a73660046114e3565b6105bd565b6101576102ba366004611500565b6105ef565b6101576102cd366004611495565b600460209081526000928352604080842090915290825290205481565b6101576102f8366004611500565b60036020526000908152604090205481565b61031d6103183660046114c1565b610723565b005b61015761032d3660046114c1565b610803565b61031d610340366004611495565b610948565b600654610157565b610157600b5481565b610157610364366004611495565b600560209081526000928352604080842090915290825290205481565b61019a61038f366004611500565b610aa4565b61031d6103a23660046114c1565b610ace565b61031d6103b536600461152f565b610ba1565b6102316103c8366004611500565b600a602052600090815260409020805460019091015482565b60008181526009602052604081205481036103fe575060006105b7565b6001600160a01b038316600090815260056020908152604080832085845290915281205460019062093a8081069003826104388683610803565b600087815260086020908152604080832084845282529182902082518084019093528054808452600190910154918301919091529192509061048390849062093a8081069003610d07565b9250600062093a8061049a85428381069003611616565b6104a49190611629565b905080156105ae5760005b818110156105ac576104d48960016104ca62093a808961164b565b61032d9190611616565b60008a815260086020908152604080832084845282528083208151808301909252805482526001908101549282019290925292965091945061054891600a919061052f9061052562093a808b61164b565b6102ba9190611616565b8152602001908152602001600020600101546001610d07565b6001600160a01b038b16600090815260046020908152604080832089845282529091205490850151919750879161057f919061165e565b6105899190611629565b610593908861164b565b96506105a262093a808661164b565b94506001016104af565b505b50939450505050505b92915050565b7f00000000000000000000000000000000000000000000000000000000000000006001600160a01b0390811691161490565b600b546000908082036106055750600092915050565b82600a6000610615600185611616565b8152602001908152602001600020600001541161063e57610637600182611616565b9392505050565b60008052600a6020527f13da86008ba1c6922daee3e07db95305ef49ebced9f5467a0b8613fcc6b343e3548310156106795750600092915050565b600080610687600184611616565b90505b8181111561071b57600060026106a08484611616565b6106aa9190611629565b6106b49083611616565b6000818152600a60209081526040918290208251808401909352805480845260019091015491830191909152919250908790036106f5575095945050505050565b805187111561070657819350610714565b610711600183611616565b92505b505061068a565b509392505050565b600061072d610d1d565b6001549091506001600160a01b0380831691161461075e5760405163ea8e4eb560e01b815260040160405180910390fd5b82600260008282546107709190611616565b909155505060008281526003602052604081208054859290610793908490611616565b90915550506000828152600360205260409020546107b2908390610d3f565b6107ba610e49565b81816001600160a01b03167ff279e6a1f5e320cca91135676d9cb6e44ca8a08c0b88342bcdb1144f6511b568856040516107f691815260200190565b60405180910390a3505050565b6000828152600960205260408120548082036108235760009150506105b7565b6000848152600860205260408120849161083e600185611616565b8152602001908152602001600020600001541161086857610860600182611616565b9150506105b7565b60008481526008602090815260408083208380529091529020548310156108935760009150506105b7565b6000806108a1600184611616565b90505b8181111561093f57600060026108ba8484611616565b6108c49190611629565b6108ce9083611616565b6000888152600860209081526040808320848452825291829020825180840190935280548084526001909101549183019190915291925090879003610919575093506105b792505050565b805187111561092a57819350610938565b610935600183611616565b92505b50506108a4565b50949350505050565b610950610f01565b600061095a610d1d565b6001600160a01b03841660009081526007602052604090205490915060ff16610a8a5760405163559bfa4360e11b81526001600160a01b0384811660048301527f0000000000000000000000000000000000000000000000000000000000000000169063ab37f48690602401602060405180830381865afa1580156109e3573d6000803e3d6000fd5b505050506040513d601f19601f82011682018060405250810190610a079190611675565b610a2457604051630b094f2760e31b815260040160405180910390fd5b6001600160a01b0383166000818152600760205260408120805460ff191660019081179091556006805491820181559091527ff652222313e28459528d920b65115c16c04f3efc82aaedc97be59f3f377c0d3f0180546001600160a01b03191690911790555b610a95818484610f5f565b50610aa06001600055565b5050565b60068181548110610ab457600080fd5b6000918252602090912001546001600160a01b0316905081565b6000610ad8610d1d565b6001549091506001600160a01b03808316911614610b095760405163ea8e4eb560e01b815260040160405180910390fd5b8260026000828254610b1b919061164b565b909155505060008281526003602052604081208054859290610b3e90849061164b565b9091555050600082815260036020526040902054610b5d908390610d3f565b610b65610e49565b81816001600160a01b03167f90890809c654f11d6e72a28fa60149770a0d11ec6c92319d6ceb2bb0a4ea1a15856040516107f691815260200190565b610ba9610f01565b7f00000000000000000000000000000000000000000000000000000000000000006001600160a01b031663430c2081610be0610d1d565b6040516001600160e01b031960e084901b1681526001600160a01b039091166004820152602481018590526044016020604051808303816000875af1158015610c2d573d6000803e3d6000fd5b505050506040513d601f19601f82011682018060405250810190610c519190611675565b610c6e5760405163ea8e4eb560e01b815260040160405180910390fd5b6040516331a9108f60e11b8152600481018390526000907f00000000000000000000000000000000000000000000000000000000000000006001600160a01b031690636352211e90602401602060405180830381865afa158015610cd6573d6000803e3d6000fd5b505050506040513d601f19601f82011682018060405250810190610cfa9190611697565b9050610a95818484611039565b6000818311610d165781610637565b5090919050565b6000610d28336105bd565b15610d3a575060131936013560601c90565b503390565b600082815260096020526040902054428115801590610d9d575062093a80810681036000858152600860205260408120610d9b91610d7e600187611616565b81526020019081526020016000206000015462093a808106900390565b145b15610df3576040805180820182528281526020808201869052600087815260089091529182209091610dd0600186611616565b815260208082019290925260400160002082518155910151600190910155610e43565b6040805180820182528281526020808201868152600088815260088352848120878252909252929020905181559051600191820155610e3390839061164b565b6000858152600960205260409020555b50505050565b600b54428115801590610e73575062093a8081068103610e71600a6000610d7e600187611616565b145b15610ebe57604080518082019091528181526002546020820152600a6000610e9c600186611616565b8152602080820192909252604001600020825181559101516001909101555050565b60408051808201825282815260025460208083019182526000868152600a90915292909220905181559051600191820155610efa90839061164b565b600b555050565b600260005403610f585760405162461bcd60e51b815260206004820152601f60248201527f5265656e7472616e637947756172643a207265656e7472616e742063616c6c0060448201526064015b60405180910390fd5b6002600055565b80600003610f8057604051631f2a200560e01b815260040160405180910390fd5b610f956001600160a01b038316843084611168565b6000610fa64262093a808106900390565b6001600160a01b0384166000908152600460209081526040808320848452909152812080549293508492909190610fde90849061164b565b9250508190555080836001600160a01b0316856001600160a01b03167f52977ea98a2220a03ee9ba5cb003ada08d394ea10155483c95dc2dc77a7eb24b8560405161102b91815260200190565b60405180910390a450505050565b805160005b8181101561116157600061106b84838151811061105d5761105d6116b4565b6020026020010151866103e1565b90504260056000868581518110611084576110846116b4565b6020908102919091018101516001600160a01b03168252818101929092526040908101600090812089825290925290205580156110f2576110f286828685815181106110d2576110d26116b4565b60200260200101516001600160a01b03166111d39092919063ffffffff16565b838281518110611104576111046116b4565b60200260200101516001600160a01b0316866001600160a01b03167f9aa05b3d70a9e3e2f004f039648839560576334fb45c81f91b6db03ad9e2efc98360405161115091815260200190565b60405180910390a35060010161103e565b5050505050565b6040516001600160a01b0380851660248301528316604482015260648101829052610e439085906323b872dd60e01b906084015b60408051601f198184030181529190526020810180516001600160e01b03166001600160e01b031990931692909217909152611208565b6040516001600160a01b03831660248201526044810182905261120390849063a9059cbb60e01b9060640161119c565b505050565b600061125d826040518060400160405280602081526020017f5361666545524332303a206c6f772d6c6576656c2063616c6c206661696c6564815250856001600160a01b03166112dd9092919063ffffffff16565b905080516000148061127e57508080602001905181019061127e9190611675565b6112035760405162461bcd60e51b815260206004820152602a60248201527f5361666545524332303a204552433230206f7065726174696f6e20646964206e6044820152691bdd081cdd58d8d9595960b21b6064820152608401610f4f565b60606112ec84846000856112f4565b949350505050565b6060824710156113555760405162461bcd60e51b815260206004820152602660248201527f416464726573733a20696e73756666696369656e742062616c616e636520666f6044820152651c8818d85b1b60d21b6064820152608401610f4f565b600080866001600160a01b0316858760405161137191906116ee565b60006040518083038185875af1925050503d80600081146113ae576040519150601f19603f3d011682016040523d82523d6000602084013e6113b3565b606091505b50915091506113c4878383876113cf565b979650505050505050565b6060831561143e578251600003611437576001600160a01b0385163b6114375760405162461bcd60e51b815260206004820152601d60248201527f416464726573733a2063616c6c20746f206e6f6e2d636f6e74726163740000006044820152606401610f4f565b50816112ec565b6112ec83838151156114535781518083602001fd5b8060405162461bcd60e51b8152600401610f4f919061170a565b6001600160a01b038116811461148257600080fd5b50565b80356114908161146d565b919050565b600080604083850312156114a857600080fd5b82356114b38161146d565b946020939093013593505050565b600080604083850312156114d457600080fd5b50508035926020909101359150565b6000602082840312156114f557600080fd5b81356106378161146d565b60006020828403121561151257600080fd5b5035919050565b634e487b7160e01b600052604160045260246000fd5b6000806040838503121561154257600080fd5b8235915060208084013567ffffffffffffffff8082111561156257600080fd5b818601915086601f83011261157657600080fd5b81358181111561158857611588611519565b8060051b604051601f19603f830116810181811085821117156115ad576115ad611519565b6040529182528482019250838101850191898311156115cb57600080fd5b938501935b828510156115f0576115e185611485565b845293850193928501926115d0565b8096505050505050509250929050565b634e487b7160e01b600052601160045260246000fd5b818103818111156105b7576105b7611600565b60008261164657634e487b7160e01b600052601260045260246000fd5b500490565b808201808211156105b7576105b7611600565b80820281158282048414176105b7576105b7611600565b60006020828403121561168757600080fd5b8151801515811461063757600080fd5b6000602082840312156116a957600080fd5b81516106378161146d565b634e487b7160e01b600052603260045260246000fd5b60005b838110156116e55781810151838201526020016116cd565b50506000910152565b600082516117008184602087016116ca565b9190910192915050565b60208152600082518060208401526117298160408501602087016116ca565b601f01601f1916919091016040019291505056fea2646970667358221220054ba333205a5d390e349fd3f73ea63e8557ab35b97623a4cc7fa99a0895e99a64736f6c63430008180033a2646970667358221220904ec9e72a2426f0c9a48d35ac0d00194f3538054a86e3cf69ad1bd2a0670eee64736f6c63430008180033",
  "devdoc": {
    "kind": "dev",
    "methods": {
      "createRewards(address,address)": {
        "params": {
          "_forwarder": "Address of trusted forwarder",
          "_voter": "Address of Voter.sol"
        },
        "returns": {
          "freeManagedReward": "  Address of FreeManagedReward contract created",
          "lockedManagedReward": "Address of LockedManagedReward contract created"
        }
      }
    },
    "version": 1
  },
  "userdoc": {
    "kind": "user",
    "methods": {
      "createRewards(address,address)": {
        "notice": "creates a LockedManagedReward and a FreeManagedReward contract for a managed veNFT"
      }
    },
    "version": 1
  },
  "storageLayout": {
    "storage": [],
    "types": null
  }
}