{
  "address": "0xC56FDD4f7D85E80497706C7711a3b9e957a330f5",
  "abi": [
    {
      "inputs": [],
      "stateMutability": "nonpayable",
      "type": "constructor"
    },
    {
      "inputs": [],
      "name": "BelowMinimumK",
      "type": "error"
    },
    {
      "inputs": [],
      "name": "DepositsNotEqual",
      "type": "error"
    },
    {
      "inputs": [],
      "name": "FactoryAlreadySet",
      "type": "error"
    },
    {
      "inputs": [],
      "name": "InsufficientInputAmount",
      "type": "error"
    },
    {
      "inputs": [],
      "name": "InsufficientLiquidity",
      "type": "error"
    },
    {
      "inputs": [],
      "name": "InsufficientLiquidityBurned",
      "type": "error"
    },
    {
      "inputs": [],
      "name": "InsufficientLiquidityMinted",
      "type": "error"
    },
    {
      "inputs": [],
      "name": "InsufficientOutputAmount",
      "type": "error"
    },
    {
      "inputs": [],
      "name": "InvalidShortString",
      "type": "error"
    },
    {
      "inputs": [],
      "name": "InvalidTo",
      "type": "error"
    },
    {
      "inputs": [],
      "name": "IsPaused",
      "type": "error"
    },
    {
      "inputs": [],
      "name": "K",
      "type": "error"
    },
    {
      "inputs": [],
      "name": "NotEmergencyCouncil",
      "type": "error"
    },
    {
      "inputs": [
        {
          "internalType": "string",
          "name": "str",
          "type": "string"
        }
      ],
      "name": "StringTooLong",
      "type": "error"
    },
    {
      "anonymous": false,
      "inputs": [
        {
          "indexed": true,
          "internalType": "address",
          "name": "owner",
          "type": "address"
        },
        {
          "indexed": true,
          "internalType": "address",
          "name": "spender",
          "type": "address"
        },
        {
          "indexed": false,
          "internalType": "uint256",
          "name": "value",
          "type": "uint256"
        }
      ],
      "name": "Approval",
      "type": "event"
    },
    {
      "anonymous": false,
      "inputs": [
        {
          "indexed": true,
          "internalType": "address",
          "name": "sender",
          "type": "address"
        },
        {
          "indexed": true,
          "internalType": "address",
          "name": "to",
          "type": "address"
        },
        {
          "indexed": false,
          "internalType": "uint256",
          "name": "amount0",
          "type": "uint256"
        },
        {
          "indexed": false,
          "internalType": "uint256",
          "name": "amount1",
          "type": "uint256"
        }
      ],
      "name": "Burn",
      "type": "event"
    },
    {
      "anonymous": false,
      "inputs": [
        {
          "indexed": true,
          "internalType": "address",
          "name": "sender",
          "type": "address"
        },
        {
          "indexed": true,
          "internalType": "address",
          "name": "recipient",
          "type": "address"
        },
        {
          "indexed": false,
          "internalType": "uint256",
          "name": "amount0",
          "type": "uint256"
        },
        {
          "indexed": false,
          "internalType": "uint256",
          "name": "amount1",
          "type": "uint256"
        }
      ],
      "name": "Claim",
      "type": "event"
    },
    {
      "anonymous": false,
      "inputs": [],
      "name": "EIP712DomainChanged",
      "type": "event"
    },
    {
      "anonymous": false,
      "inputs": [
        {
          "indexed": true,
          "internalType": "address",
          "name": "sender",
          "type": "address"
        },
        {
          "indexed": false,
          "internalType": "uint256",
          "name": "amount0",
          "type": "uint256"
        },
        {
          "indexed": false,
          "internalType": "uint256",
          "name": "amount1",
          "type": "uint256"
        }
      ],
      "name": "Fees",
      "type": "event"
    },
    {
      "anonymous": false,
      "inputs": [
        {
          "indexed": true,
          "internalType": "address",
          "name": "sender",
          "type": "address"
        },
        {
          "indexed": false,
          "internalType": "uint256",
          "name": "amount0",
          "type": "uint256"
        },
        {
          "indexed": false,
          "internalType": "uint256",
          "name": "amount1",
          "type": "uint256"
        }
      ],
      "name": "Mint",
      "type": "event"
    },
    {
      "anonymous": false,
      "inputs": [
        {
          "indexed": true,
          "internalType": "address",
          "name": "sender",
          "type": "address"
        },
        {
          "indexed": true,
          "internalType": "address",
          "name": "to",
          "type": "address"
        },
        {
          "indexed": false,
          "internalType": "uint256",
          "name": "amount0In",
          "type": "uint256"
        },
        {
          "indexed": false,
          "internalType": "uint256",
          "name": "amount1In",
          "type": "uint256"
        },
        {
          "indexed": false,
          "internalType": "uint256",
          "name": "amount0Out",
          "type": "uint256"
        },
        {
          "indexed": false,
          "internalType": "uint256",
          "name": "amount1Out",
          "type": "uint256"
        }
      ],
      "name": "Swap",
      "type": "event"
    },
    {
      "anonymous": false,
      "inputs": [
        {
          "indexed": false,
          "internalType": "uint256",
          "name": "reserve0",
          "type": "uint256"
        },
        {
          "indexed": false,
          "internalType": "uint256",
          "name": "reserve1",
          "type": "uint256"
        }
      ],
      "name": "Sync",
      "type": "event"
    },
    {
      "anonymous": false,
      "inputs": [
        {
          "indexed": true,
          "internalType": "address",
          "name": "from",
          "type": "address"
        },
        {
          "indexed": true,
          "internalType": "address",
          "name": "to",
          "type": "address"
        },
        {
          "indexed": false,
          "internalType": "uint256",
          "name": "value",
          "type": "uint256"
        }
      ],
      "name": "Transfer",
      "type": "event"
    },
    {
      "inputs": [],
      "name": "DOMAIN_SEPARATOR",
      "outputs": [
        {
          "internalType": "bytes32",
          "name": "",
          "type": "bytes32"
        }
      ],
      "stateMutability": "view",
      "type": "function"
    },
    {
      "inputs": [],
      "name": "PERIOD_SIZE",
      "outputs": [
        {
          "internalType": "uint256",
          "name": "",
          "type": "uint256"
        }
      ],
      "stateMutability": "view",
      "type": "function"
    },
    {
      "inputs": [
        {
          "internalType": "address",
          "name": "owner",
          "type": "address"
        },
        {
          "internalType": "address",
          "name": "spender",
          "type": "address"
        }
      ],
      "name": "allowance",
      "outputs": [
        {
          "internalType": "uint256",
          "name": "",
          "type": "uint256"
        }
      ],
      "stateMutability": "view",
      "type": "function"
    },
    {
      "inputs": [
        {
          "internalType": "address",
          "name": "spender",
          "type": "address"
        },
        {
          "internalType": "uint256",
          "name": "amount",
          "type": "uint256"
        }
      ],
      "name": "approve",
      "outputs": [
        {
          "internalType": "bool",
          "name": "",
          "type": "bool"
        }
      ],
      "stateMutability": "nonpayable",
      "type": "function"
    },
    {
      "inputs": [
        {
          "internalType": "address",
          "name": "account",
          "type": "address"
        }
      ],
      "name": "balanceOf",
      "outputs": [
        {
          "internalType": "uint256",
          "name": "",
          "type": "uint256"
        }
      ],
      "stateMutability": "view",
      "type": "function"
    },
    {
      "inputs": [],
      "name": "blockTimestampLast",
      "outputs": [
        {
          "internalType": "uint256",
          "name": "",
          "type": "uint256"
        }
      ],
      "stateMutability": "view",
      "type": "function"
    },
    {
      "inputs": [
        {
          "internalType": "address",
          "name": "to",
          "type": "address"
        }
      ],
      "name": "burn",
      "outputs": [
        {
          "internalType": "uint256",
          "name": "amount0",
          "type": "uint256"
        },
        {
          "internalType": "uint256",
          "name": "amount1",
          "type": "uint256"
        }
      ],
      "stateMutability": "nonpayable",
      "type": "function"
    },
    {
      "inputs": [],
      "name": "claimFees",
      "outputs": [
        {
          "internalType": "uint256",
          "name": "claimed0",
          "type": "uint256"
        },
        {
          "internalType": "uint256",
          "name": "claimed1",
          "type": "uint256"
        }
      ],
      "stateMutability": "nonpayable",
      "type": "function"
    },
    {
      "inputs": [
        {
          "internalType": "address",
          "name": "",
          "type": "address"
        }
      ],
      "name": "claimable0",
      "outputs": [
        {
          "internalType": "uint256",
          "name": "",
          "type": "uint256"
        }
      ],
      "stateMutability": "view",
      "type": "function"
    },
    {
      "inputs": [
        {
          "internalType": "address",
          "name": "",
          "type": "address"
        }
      ],
      "name": "claimable1",
      "outputs": [
        {
          "internalType": "uint256",
          "name": "",
          "type": "uint256"
        }
      ],
      "stateMutability": "view",
      "type": "function"
    },
    {
      "inputs": [],
      "name": "currentCumulativePrices",
      "outputs": [
        {
          "internalType": "uint256",
          "name": "reserve0Cumulative",
          "type": "uint256"
        },
        {
          "internalType": "uint256",
          "name": "reserve1Cumulative",
          "type": "uint256"
        },
        {
          "internalType": "uint256",
          "name": "blockTimestamp",
          "type": "uint256"
        }
      ],
      "stateMutability": "view",
      "type": "function"
    },
    {
      "inputs": [],
      "name": "decimals",
      "outputs": [
        {
          "internalType": "uint8",
          "name": "",
          "type": "uint8"
        }
      ],
      "stateMutability": "view",
      "type": "function"
    },
    {
      "inputs": [
        {
          "internalType": "address",
          "name": "spender",
          "type": "address"
        },
        {
          "internalType": "uint256",
          "name": "subtractedValue",
          "type": "uint256"
        }
      ],
      "name": "decreaseAllowance",
      "outputs": [
        {
          "internalType": "bool",
          "name": "",
          "type": "bool"
        }
      ],
      "stateMutability": "nonpayable",
      "type": "function"
    },
    {
      "inputs": [],
      "name": "eip712Domain",
      "outputs": [
        {
          "internalType": "bytes1",
          "name": "fields",
          "type": "bytes1"
        },
        {
          "internalType": "string",
          "name": "name",
          "type": "string"
        },
        {
          "internalType": "string",
          "name": "version",
          "type": "string"
        },
        {
          "internalType": "uint256",
          "name": "chainId",
          "type": "uint256"
        },
        {
          "internalType": "address",
          "name": "verifyingContract",
          "type": "address"
        },
        {
          "internalType": "bytes32",
          "name": "salt",
          "type": "bytes32"
        },
        {
          "internalType": "uint256[]",
          "name": "extensions",
          "type": "uint256[]"
        }
      ],
      "stateMutability": "view",
      "type": "function"
    },
    {
      "inputs": [],
      "name": "factory",
      "outputs": [
        {
          "internalType": "address",
          "name": "",
          "type": "address"
        }
      ],
      "stateMutability": "view",
      "type": "function"
    },
    {
      "inputs": [
        {
          "internalType": "uint256",
          "name": "amountIn",
          "type": "uint256"
        },
        {
          "internalType": "address",
          "name": "tokenIn",
          "type": "address"
        }
      ],
      "name": "getAmountOut",
      "outputs": [
        {
          "internalType": "uint256",
          "name": "",
          "type": "uint256"
        }
      ],
      "stateMutability": "view",
      "type": "function"
    },
    {
      "inputs": [],
      "name": "getK",
      "outputs": [
        {
          "internalType": "uint256",
          "name": "",
          "type": "uint256"
        }
      ],
      "stateMutability": "nonpayable",
      "type": "function"
    },
    {
      "inputs": [],
      "name": "getReserves",
      "outputs": [
        {
          "internalType": "uint256",
          "name": "_reserve0",
          "type": "uint256"
        },
        {
          "internalType": "uint256",
          "name": "_reserve1",
          "type": "uint256"
        },
        {
          "internalType": "uint256",
          "name": "_blockTimestampLast",
          "type": "uint256"
        }
      ],
      "stateMutability": "view",
      "type": "function"
    },
    {
      "inputs": [
        {
          "internalType": "address",
          "name": "spender",
          "type": "address"
        },
        {
          "internalType": "uint256",
          "name": "addedValue",
          "type": "uint256"
        }
      ],
      "name": "increaseAllowance",
      "outputs": [
        {
          "internalType": "bool",
          "name": "",
          "type": "bool"
        }
      ],
      "stateMutability": "nonpayable",
      "type": "function"
    },
    {
      "inputs": [],
      "name": "index0",
      "outputs": [
        {
          "internalType": "uint256",
          "name": "",
          "type": "uint256"
        }
      ],
      "stateMutability": "view",
      "type": "function"
    },
    {
      "inputs": [],
      "name": "index1",
      "outputs": [
        {
          "internalType": "uint256",
          "name": "",
          "type": "uint256"
        }
      ],
      "stateMutability": "view",
      "type": "function"
    },
    {
      "inputs": [
        {
          "internalType": "address",
          "name": "_token0",
          "type": "address"
        },
        {
          "internalType": "address",
          "name": "_token1",
          "type": "address"
        },
        {
          "internalType": "bool",
          "name": "_stable",
          "type": "bool"
        }
      ],
      "name": "initialize",
      "outputs": [],
      "stateMutability": "nonpayable",
      "type": "function"
    },
    {
      "inputs": [],
      "name": "lastObservation",
      "outputs": [
        {
          "components": [
            {
              "internalType": "uint256",
              "name": "timestamp",
              "type": "uint256"
            },
            {
              "internalType": "uint256",
              "name": "reserve0Cumulative",
              "type": "uint256"
            },
            {
              "internalType": "uint256",
              "name": "reserve1Cumulative",
              "type": "uint256"
            }
          ],
          "internalType": "struct IPool.Observation",
          "name": "",
          "type": "tuple"
        }
      ],
      "stateMutability": "view",
      "type": "function"
    },
    {
      "inputs": [],
      "name": "metadata",
      "outputs": [
        {
          "internalType": "uint256",
          "name": "dec0",
          "type": "uint256"
        },
        {
          "internalType": "uint256",
          "name": "dec1",
          "type": "uint256"
        },
        {
          "internalType": "uint256",
          "name": "r0",
          "type": "uint256"
        },
        {
          "internalType": "uint256",
          "name": "r1",
          "type": "uint256"
        },
        {
          "internalType": "bool",
          "name": "st",
          "type": "bool"
        },
        {
          "internalType": "address",
          "name": "t0",
          "type": "address"
        },
        {
          "internalType": "address",
          "name": "t1",
          "type": "address"
        }
      ],
      "stateMutability": "view",
      "type": "function"
    },
    {
      "inputs": [
        {
          "internalType": "address",
          "name": "to",
          "type": "address"
        }
      ],
      "name": "mint",
      "outputs": [
        {
          "internalType": "uint256",
          "name": "liquidity",
          "type": "uint256"
        }
      ],
      "stateMutability": "nonpayable",
      "type": "function"
    },
    {
      "inputs": [],
      "name": "name",
      "outputs": [
        {
          "internalType": "string",
          "name": "",
          "type": "string"
        }
      ],
      "stateMutability": "view",
      "type": "function"
    },
    {
      "inputs": [
        {
          "internalType": "address",
          "name": "owner",
          "type": "address"
        }
      ],
      "name": "nonces",
      "outputs": [
        {
          "internalType": "uint256",
          "name": "",
          "type": "uint256"
        }
      ],
      "stateMutability": "view",
      "type": "function"
    },
    {
      "inputs": [],
      "name": "observationLength",
      "outputs": [
        {
          "internalType": "uint256",
          "name": "",
          "type": "uint256"
        }
      ],
      "stateMutability": "view",
      "type": "function"
    },
    {
      "inputs": [
        {
          "internalType": "uint256",
          "name": "",
          "type": "uint256"
        }
      ],
      "name": "observations",
      "outputs": [
        {
          "internalType": "uint256",
          "name": "timestamp",
          "type": "uint256"
        },
        {
          "internalType": "uint256",
          "name": "reserve0Cumulative",
          "type": "uint256"
        },
        {
          "internalType": "uint256",
          "name": "reserve1Cumulative",
          "type": "uint256"
        }
      ],
      "stateMutability": "view",
      "type": "function"
    },
    {
      "inputs": [],
      "name": "periodSize",
      "outputs": [
        {
          "internalType": "uint256",
          "name": "",
          "type": "uint256"
        }
      ],
      "stateMutability": "view",
      "type": "function"
    },
    {
      "inputs": [
        {
          "internalType": "address",
          "name": "owner",
          "type": "address"
        },
        {
          "internalType": "address",
          "name": "spender",
          "type": "address"
        },
        {
          "internalType": "uint256",
          "name": "value",
          "type": "uint256"
        },
        {
          "internalType": "uint256",
          "name": "deadline",
          "type": "uint256"
        },
        {
          "internalType": "uint8",
          "name": "v",
          "type": "uint8"
        },
        {
          "internalType": "bytes32",
          "name": "r",
          "type": "bytes32"
        },
        {
          "internalType": "bytes32",
          "name": "s",
          "type": "bytes32"
        }
      ],
      "name": "permit",
      "outputs": [],
      "stateMutability": "nonpayable",
      "type": "function"
    },
    {
      "inputs": [],
      "name": "poolFees",
      "outputs": [
        {
          "internalType": "address",
          "name": "",
          "type": "address"
        }
      ],
      "stateMutability": "view",
      "type": "function"
    },
    {
      "inputs": [
        {
          "internalType": "address",
          "name": "tokenIn",
          "type": "address"
        },
        {
          "internalType": "uint256",
          "name": "amountIn",
          "type": "uint256"
        },
        {
          "internalType": "uint256",
          "name": "points",
          "type": "uint256"
        }
      ],
      "name": "prices",
      "outputs": [
        {
          "internalType": "uint256[]",
          "name": "",
          "type": "uint256[]"
        }
      ],
      "stateMutability": "view",
      "type": "function"
    },
    {
      "inputs": [
        {
          "internalType": "address",
          "name": "tokenIn",
          "type": "address"
        },
        {
          "internalType": "uint256",
          "name": "amountIn",
          "type": "uint256"
        },
        {
          "internalType": "uint256",
          "name": "granularity",
          "type": "uint256"
        }
      ],
      "name": "quote",
      "outputs": [
        {
          "internalType": "uint256",
          "name": "amountOut",
          "type": "uint256"
        }
      ],
      "stateMutability": "view",
      "type": "function"
    },
    {
      "inputs": [],
      "name": "reserve0",
      "outputs": [
        {
          "internalType": "uint256",
          "name": "",
          "type": "uint256"
        }
      ],
      "stateMutability": "view",
      "type": "function"
    },
    {
      "inputs": [],
      "name": "reserve0CumulativeLast",
      "outputs": [
        {
          "internalType": "uint256",
          "name": "",
          "type": "uint256"
        }
      ],
      "stateMutability": "view",
      "type": "function"
    },
    {
      "inputs": [],
      "name": "reserve1",
      "outputs": [
        {
          "internalType": "uint256",
          "name": "",
          "type": "uint256"
        }
      ],
      "stateMutability": "view",
      "type": "function"
    },
    {
      "inputs": [],
      "name": "reserve1CumulativeLast",
      "outputs": [
        {
          "internalType": "uint256",
          "name": "",
          "type": "uint256"
        }
      ],
      "stateMutability": "view",
      "type": "function"
    },
    {
      "inputs": [
        {
          "internalType": "address",
          "name": "tokenIn",
          "type": "address"
        },
        {
          "internalType": "uint256",
          "name": "amountIn",
          "type": "uint256"
        },
        {
          "internalType": "uint256",
          "name": "points",
          "type": "uint256"
        },
        {
          "internalType": "uint256",
          "name": "window",
          "type": "uint256"
        }
      ],
      "name": "sample",
      "outputs": [
        {
          "internalType": "uint256[]",
          "name": "",
          "type": "uint256[]"
        }
      ],
      "stateMutability": "view",
      "type": "function"
    },
    {
      "inputs": [
        {
          "internalType": "string",
          "name": "__name",
          "type": "string"
        }
      ],
      "name": "setName",
      "outputs": [],
      "stateMutability": "nonpayable",
      "type": "function"
    },
    {
      "inputs": [
        {
          "internalType": "string",
          "name": "__symbol",
          "type": "string"
        }
      ],
      "name": "setSymbol",
      "outputs": [],
      "stateMutability": "nonpayable",
      "type": "function"
    },
    {
      "inputs": [
        {
          "internalType": "address",
          "name": "to",
          "type": "address"
        }
      ],
      "name": "skim",
      "outputs": [],
      "stateMutability": "nonpayable",
      "type": "function"
    },
    {
      "inputs": [],
      "name": "stable",
      "outputs": [
        {
          "internalType": "bool",
          "name": "",
          "type": "bool"
        }
      ],
      "stateMutability": "view",
      "type": "function"
    },
    {
      "inputs": [
        {
          "internalType": "address",
          "name": "",
          "type": "address"
        }
      ],
      "name": "supplyIndex0",
      "outputs": [
        {
          "internalType": "uint256",
          "name": "",
          "type": "uint256"
        }
      ],
      "stateMutability": "view",
      "type": "function"
    },
    {
      "inputs": [
        {
          "internalType": "address",
          "name": "",
          "type": "address"
        }
      ],
      "name": "supplyIndex1",
      "outputs": [
        {
          "internalType": "uint256",
          "name": "",
          "type": "uint256"
        }
      ],
      "stateMutability": "view",
      "type": "function"
    },
    {
      "inputs": [
        {
          "internalType": "uint256",
          "name": "amount0Out",
          "type": "uint256"
        },
        {
          "internalType": "uint256",
          "name": "amount1Out",
          "type": "uint256"
        },
        {
          "internalType": "address",
          "name": "to",
          "type": "address"
        },
        {
          "internalType": "bytes",
          "name": "data",
          "type": "bytes"
        }
      ],
      "name": "swap",
      "outputs": [],
      "stateMutability": "nonpayable",
      "type": "function"
    },
    {
      "inputs": [],
      "name": "symbol",
      "outputs": [
        {
          "internalType": "string",
          "name": "",
          "type": "string"
        }
      ],
      "stateMutability": "view",
      "type": "function"
    },
    {
      "inputs": [],
      "name": "sync",
      "outputs": [],
      "stateMutability": "nonpayable",
      "type": "function"
    },
    {
      "inputs": [],
      "name": "token0",
      "outputs": [
        {
          "internalType": "address",
          "name": "",
          "type": "address"
        }
      ],
      "stateMutability": "view",
      "type": "function"
    },
    {
      "inputs": [],
      "name": "token1",
      "outputs": [
        {
          "internalType": "address",
          "name": "",
          "type": "address"
        }
      ],
      "stateMutability": "view",
      "type": "function"
    },
    {
      "inputs": [],
      "name": "tokens",
      "outputs": [
        {
          "internalType": "address",
          "name": "",
          "type": "address"
        },
        {
          "internalType": "address",
          "name": "",
          "type": "address"
        }
      ],
      "stateMutability": "view",
      "type": "function"
    },
    {
      "inputs": [],
      "name": "totalSupply",
      "outputs": [
        {
          "internalType": "uint256",
          "name": "",
          "type": "uint256"
        }
      ],
      "stateMutability": "view",
      "type": "function"
    },
    {
      "inputs": [
        {
          "internalType": "address",
          "name": "to",
          "type": "address"
        },
        {
          "internalType": "uint256",
          "name": "amount",
          "type": "uint256"
        }
      ],
      "name": "transfer",
      "outputs": [
        {
          "internalType": "bool",
          "name": "",
          "type": "bool"
        }
      ],
      "stateMutability": "nonpayable",
      "type": "function"
    },
    {
      "inputs": [
        {
          "internalType": "address",
          "name": "from",
          "type": "address"
        },
        {
          "internalType": "address",
          "name": "to",
          "type": "address"
        },
        {
          "internalType": "uint256",
          "name": "amount",
          "type": "uint256"
        }
      ],
      "name": "transferFrom",
      "outputs": [
        {
          "internalType": "bool",
          "name": "",
          "type": "bool"
        }
      ],
      "stateMutability": "nonpayable",
      "type": "function"
    }
  ],
  "transactionHash": "0xc24df01acfe657e34e60fe1cebf491f0dda1e1ae03962e4aaacddc16485e115e",
  "args": [],
  "numDeployments": 1,
  "solcInputHash": "2799ce436a196df11f1ef308a2a7561c",
  "bytecode": "0x61016060405260006019556000601a553480156200001c57600080fd5b50604080516020808201835260008083528351808501855260018152603160f81b81840152845180840186528281528551938401909552908252919283929160036200006983826200026a565b5060046200007882826200026a565b506200008a915083905060056200013e565b610120526200009b8160066200013e565b61014052815160208084019190912060e052815190820120610100524660a0526200012960e05161010051604080517f8b73c3c69bb8fe3d512ecc4cf759cc79239f7b179b0ffacaa9a75d522b39400f60208201529081019290925260608201524660808201523060a082015260009060c00160405160208183030381529060405280519060200120905090565b60805250503060c052506001600955620003ac565b60006020835110156200015e57620001568362000177565b905062000171565b816200016b84826200026a565b5060ff90505b92915050565b600080829050601f81511115620001ae578260405163305a27a960e01b8152600401620001a5919062000336565b60405180910390fd5b8051620001bb8262000387565b179392505050565b634e487b7160e01b600052604160045260246000fd5b600181811c90821680620001ee57607f821691505b6020821081036200020f57634e487b7160e01b600052602260045260246000fd5b50919050565b601f82111562000265576000816000526020600020601f850160051c81016020861015620002405750805b601f850160051c820191505b8181101562000261578281556001016200024c565b5050505b505050565b81516001600160401b03811115620002865762000286620001c3565b6200029e81620002978454620001d9565b8462000215565b602080601f831160018114620002d65760008415620002bd5750858301515b600019600386901b1c1916600185901b17855562000261565b600085815260208120601f198616915b828110156200030757888601518255948401946001909101908401620002e6565b5085821015620003265787850151600019600388901b60f8161c191681555b5050505050600190811b01905550565b60006020808352835180602085015260005b81811015620003665785810183015185820160400152820162000348565b506000604082860101526040601f19601f8301168501019250505092915050565b805160208083015191908110156200020f5760001960209190910360031b1b16919050565b60805160a05160c05160e051610100516101205161014051615275620004076000396000611631015260006116040152600061327d01526000613255015260006131ad015260006131d80152600061320301526152756000f3fe60806040523480156200001157600080fd5b5060043610620003215760003560e01c80638a7b8cf211620001a9578063c45a015511620000f7578063e4463eb2116200009e578063e4463eb214620007c2578063e4bbb5a814620007cb578063ebeb31db14620007e2578063ee39e7a014620007eb578063f140a35a14620007f5578063fc9654ab146200080c578063fff6cae9146200081657600080fd5b8063c45a01551462000741578063c47f00271462000755578063c5700a02146200076c578063d21220a71462000776578063d294f093146200078a578063d505accf1462000794578063dd62ed3e14620007ab57600080fd5b8063a457c2d7116200015c578063a457c2d714620006c7578063a9059cbb14620006de578063b84c824614620006f5578063bc25cf77146200070c578063bda39cad1462000723578063bf944dbc146200072d578063c245febc146200073757600080fd5b80638a7b8cf2146200060c57806395d89b4114620006395780639d63848a14620006435780639e8cc04b146200066a5780639f767c881462000681578063a1ac4d1314620006a457600080fd5b806332c0defd11620002735780635881c475116200021a5780635881c475146200055a5780635a76f25e14620005715780636a627842146200057b57806370a0823114620005925780637ecebe0014620005a957806384b0196e14620005c057806389afcb4414620005df57600080fd5b806332c0defd146200048b5780633358095914620004955780633644e51514620004a9578063392f37e914620004b3578063395093511462000516578063443cb4bc146200052d5780634d5a9f8a146200053757600080fd5b806318160ddd11620002d857806318160ddd14620003f85780631df8c717146200040b578063205aabf1146200041557806322be3de1146200043857806323b872dd146200044d578063252c09d71462000464578063313ce567146200047b57600080fd5b8063022c0d9f146200032657806306fdde03146200033f5780630902f1ac1462000361578063095ea7b314620003875780630dfe168114620003af57806313345fe114620003d2575b600080fd5b6200033d6200033736600462004146565b62000820565b005b6200034962000ec6565b60405162000358919062004209565b60405180910390f35b6014546015546016545b6040805193845260208401929092529082015260600162000358565b6200039e620003983660046200421e565b62000f60565b604051901515815260200162000358565b600d54620003c3906001600160a01b031681565b6040516200035891906200424d565b620003e9620003e336600462004261565b62000f7c565b604051620003589190620042dd565b6002545b60405190815260200162000358565b6200036b620011a8565b620003fc62000426366004620042f2565b601c6020526000908152604090205481565b600c546200039e90600160a01b900460ff1681565b6200039e6200045e36600462004312565b62001223565b6200036b6200047536600462004358565b6200124d565b6040516012815260200162000358565b620003fc60195481565b600f54620003c3906001600160a01b031681565b620003fc62001281565b601254601354601454601554600c54600d54600e54604080519788526020880196909652948601939093526060850191909152600160a01b900460ff16151560808401526001600160a01b0390811660a08401521660c082015260e00162000358565b6200039e620005273660046200421e565b62001292565b620003fc60145481565b620003fc62000548366004620042f2565b601d6020526000908152604090205481565b620003e96200056b36600462004372565b620012ba565b620003fc60155481565b620003fc6200058c366004620042f2565b620012cb565b620003fc620005a3366004620042f2565b620015bb565b620003fc620005ba366004620042f2565b620015d6565b620005ca620015f5565b604051620003589796959493929190620043aa565b620005f6620005f0366004620042f2565b62001682565b6040805192835260208301919091520162000358565b620006166200199a565b604080518251815260208084015190820152918101519082015260600162000358565b6200034962001a20565b600d54600e54604080516001600160a01b0393841681529290911660208301520162000358565b620003fc6200067b36600462004372565b62001a31565b620003fc62000692366004620042f2565b601b6020526000908152604090205481565b620003fc620006b5366004620042f2565b601e6020526000908152604090205481565b6200039e620006d83660046200421e565b62001aa3565b6200039e620006ef3660046200421e565b62001b33565b6200033d6200070636600462004420565b62001b43565b6200033d6200071d366004620042f2565b62001c03565b620003fc601a5481565b620003fc60175481565b620003fc60185481565b601054620003c3906001600160a01b031681565b6200033d6200076636600462004420565b62001d5c565b620003fc60165481565b600e54620003c3906001600160a01b031681565b620005f662001e17565b6200033d620007a536600462004475565b62001f42565b620003fc620007bc366004620044ed565b620020b2565b610708620003fc565b6200033d620007dc3660046200453a565b620020dd565b601154620003fc565b620003fc6200258b565b620003fc620008063660046200458c565b620025b7565b620003fc61070881565b6200033d62002687565b6200082a62002799565b601060009054906101000a90046001600160a01b03166001600160a01b031663b187bd266040518163ffffffff1660e01b8152600401602060405180830381865afa1580156200087e573d6000803e3d6000fd5b505050506040513d601f19601f82011682018060405250810190620008a49190620045b4565b15620008c357604051631309a56360e01b815260040160405180910390fd5b84158015620008d0575083155b15620008ef576040516342301c2360e01b815260040160405180910390fd5b6014546015548187101580620009055750808610155b15620009245760405163bb55fd2760e01b815260040160405180910390fd5b600d54600e5460009182916001600160a01b0391821691908116908916821480620009605750806001600160a01b0316896001600160a01b0316145b156200097f57604051630521f43160e31b815260040160405180910390fd5b8a156200099c576200099c6001600160a01b0383168a8d620027f4565b8915620009b957620009b96001600160a01b0382168a8c620027f4565b861562000a2b57604051639a7bff7960e01b81526001600160a01b038a1690639a7bff7990620009f69033908f908f908e908e90600401620045d4565b600060405180830381600087803b15801562000a1157600080fd5b505af115801562000a26573d6000803e3d6000fd5b505050505b6040516370a0823160e01b81526001600160a01b038316906370a082319062000a599030906004016200424d565b602060405180830381865afa15801562000a77573d6000803e3d6000fd5b505050506040513d601f19601f8201168201806040525081019062000a9d919062004620565b6040516370a0823160e01b81529094506001600160a01b038216906370a082319062000ace9030906004016200424d565b602060405180830381865afa15801562000aec573d6000803e3d6000fd5b505050506040513d601f19601f8201168201806040525081019062000b12919062004620565b925050506000898562000b26919062004650565b831162000b3557600062000b4d565b62000b418a8662004650565b62000b4d908462004650565b9050600062000b5d8a8662004650565b831162000b6c57600062000b84565b62000b788a8662004650565b62000b84908462004650565b90508115801562000b93575080155b1562000bb25760405163098fb56160e01b815260040160405180910390fd5b600d54600e546001600160a01b039182169116831562000c7757601054600c5460405163cc56b2c560e01b815262000c7792612710926001600160a01b039091169163cc56b2c59162000c15913091600160a01b900460ff169060040162004666565b602060405180830381865afa15801562000c33573d6000803e3d6000fd5b505050506040513d601f19601f8201168201806040525081019062000c59919062004620565b62000c65908762004681565b62000c719190620046b1565b62002848565b821562000d2957601054600c5460405163cc56b2c560e01b815262000d2992612710926001600160a01b039091169163cc56b2c59162000cc7913091600160a01b900460ff169060040162004666565b602060405180830381865afa15801562000ce5573d6000803e3d6000fd5b505050506040513d601f19601f8201168201806040525081019062000d0b919062004620565b62000d17908662004681565b62000d239190620046b1565b62002902565b6040516370a0823160e01b81526001600160a01b038316906370a082319062000d579030906004016200424d565b602060405180830381865afa15801562000d75573d6000803e3d6000fd5b505050506040513d601f19601f8201168201806040525081019062000d9b919062004620565b6040516370a0823160e01b81529096506001600160a01b038216906370a082319062000dcc9030906004016200424d565b602060405180830381865afa15801562000dea573d6000803e3d6000fd5b505050506040513d601f19601f8201168201806040525081019062000e10919062004620565b945062000e1e8888620029b6565b62000e2a8787620029b6565b101562000e4a5760405163a932492f60e01b815260040160405180910390fd5b505062000e5a8484888862002ad5565b60408051838152602081018390528082018d9052606081018c905290516001600160a01b038b169133917fb3e2773606abfd36b5bd91394b3a54d1398336c65005baf7bf7a05efeffaf75b9181900360800190a350505050505062000ebf6001600955565b5050505050565b6060600a805462000ed790620046d4565b80601f016020809104026020016040519081016040528092919081815260200182805462000f0590620046d4565b801562000f565780601f1062000f2a5761010080835404028352916020019162000f56565b820191906000526020600020905b81548152906001019060200180831162000f3857829003601f168201915b5050505050905090565b60003362000f7081858562002c7b565b60019150505b92915050565b60606000836001600160401b0381111562000f9b5762000f9b6200470a565b60405190808252806020026020018201604052801562000fc5578160200160208202803683370190505b5060115490915060009062000fdd9060019062004650565b9050600062000fed858762004681565b62000ff9908362004650565b90506000805b83831015620011985762001014878462004720565b91506000601184815481106200102e576200102e62004736565b9060005260206000209060030201600001546011848154811062001056576200105662004736565b90600052602060002090600302016000015462001074919062004650565b9050600081601186815481106200108f576200108f62004736565b90600052602060002090600302016001015460118681548110620010b757620010b762004736565b906000526020600020906003020160010154620010d5919062004650565b620010e19190620046b1565b905060008260118781548110620010fc57620010fc62004736565b9060005260206000209060030201600201546011878154811062001124576200112462004736565b90600052602060002090600302016002015462001142919062004650565b6200114e9190620046b1565b90506200115e8c8e848462002da3565b88858151811062001173576200117362004736565b602090810291909101015250505060010162001190878462004720565b925062000fff565b509293505050505b949350505050565b6017546018544260008080620011c76014546015546016549192909190565b9250925092508381146200121b576000620011e3828662004650565b9050620011f1818562004681565b620011fd908862004720565b96506200120b818462004681565b62001217908762004720565b9550505b505050909192565b6000336200123385828562002f78565b6200124085858562002ff9565b60019150505b9392505050565b601181815481106200125e57600080fd5b600091825260209091206003909102018054600182015460029092015490925083565b60006200128d620031a0565b905090565b60003362000f70818585620012a88383620020b2565b620012b4919062004720565b62002c7b565b6060620011a0848484600162000f7c565b6000620012d762002799565b601454601554600d546040516370a0823160e01b81526000916001600160a01b0316906370a0823190620013109030906004016200424d565b602060405180830381865afa1580156200132e573d6000803e3d6000fd5b505050506040513d601f19601f8201168201806040525081019062001354919062004620565b600e546040516370a0823160e01b81529192506000916001600160a01b03909116906370a08231906200138c9030906004016200424d565b602060405180830381865afa158015620013aa573d6000803e3d6000fd5b505050506040513d601f19601f82011682018060405250810190620013d0919062004620565b90506000620013e0858462004650565b90506000620013f0858462004650565b90506000620013fe60025490565b905080600003620014ee576103e8620014226200141c848662004681565b620032ce565b6200142e919062004650565b97506200143f60016103e8620033d3565b600c54600160a01b900460ff1615620014e8576013546200146983670de0b6b3a764000062004681565b620014759190620046b1565b6012546200148c85670de0b6b3a764000062004681565b620014989190620046b1565b14620014b7576040516305026bfd60e11b815260040160405180910390fd5b6402540be400620014c98484620029b6565b11620014e8576040516321c69d6f60e11b815260040160405180910390fd5b6200152d565b6200152a87620014ff838662004681565b6200150b9190620046b1565b8762001518848662004681565b620015249190620046b1565b62003493565b97505b876000036200154f57604051633489be7560e21b815260040160405180910390fd5b6200155b8989620033d3565b620015698585898962002ad5565b604080518481526020810184905233917f4c209b5fc8ad50758f13e2e1088ba56a560dff690a1c6fef26394f4c03821c4f910160405180910390a250505050505050620015b66001600955565b919050565b6001600160a01b031660009081526020819052604090205490565b6001600160a01b03811660009081526007602052604081205462000f76565b6000606080828080836200162b7f00000000000000000000000000000000000000000000000000000000000000006005620034ab565b620016587f00000000000000000000000000000000000000000000000000000000000000006006620034ab565b60408051600080825260208201909252600f60f81b9b939a50919850469750309650945092509050565b6000806200168f62002799565b601454601554600d54600e546040516370a0823160e01b81526001600160a01b03928316929091169060009083906370a0823190620016d39030906004016200424d565b602060405180830381865afa158015620016f1573d6000803e3d6000fd5b505050506040513d601f19601f8201168201806040525081019062001717919062004620565b90506000826001600160a01b03166370a08231306040518263ffffffff1660e01b81526004016200174991906200424d565b602060405180830381865afa15801562001767573d6000803e3d6000fd5b505050506040513d601f19601f820116820180604052508101906200178d919062004620565b905060006200179c30620015bb565b90506000620017aa60025490565b905080620017b9858462004681565b620017c59190620046b1565b995080620017d4848462004681565b620017e09190620046b1565b9850891580620017ee575088155b156200180d5760405163749383ad60e01b815260040160405180910390fd5b6200181930836200355b565b6200182f6001600160a01b0387168c8c620027f4565b620018456001600160a01b0386168c8b620027f4565b6040516370a0823160e01b81526001600160a01b038716906370a0823190620018739030906004016200424d565b602060405180830381865afa15801562001891573d6000803e3d6000fd5b505050506040513d601f19601f82011682018060405250810190620018b7919062004620565b6040516370a0823160e01b81529094506001600160a01b038616906370a0823190620018e89030906004016200424d565b602060405180830381865afa15801562001906573d6000803e3d6000fd5b505050506040513d601f19601f820116820180604052508101906200192c919062004620565b92506200193c84848a8a62002ad5565b604080518b8152602081018b90526001600160a01b038d169133917f5d624aa9c148153ab3446c1b154f660ee7701e549fe9b62dab7171b1c80e6fa2910160405180910390a35050505050505050620019956001600955565b915091565b620019bf60405180606001604052806000815260200160008152602001600081525090565b60118054620019d19060019062004650565b81548110620019e457620019e462004736565b90600052602060002090600302016040518060600160405290816000820154815260200160018201548152602001600282015481525050905090565b6060600b805462000ed790620046d4565b60008062001a43858585600162000f7c565b8051909150600090815b8181101562001a8b5783818151811062001a6b5762001a6b62004736565b60200260200101518362001a80919062004720565b925060010162001a4d565b5062001a988583620046b1565b979650505050505050565b6000338162001ab38286620020b2565b90508381101562001b195760405162461bcd60e51b815260206004820152602560248201527f45524332303a2064656372656173656420616c6c6f77616e63652062656c6f77604482015264207a65726f60d81b60648201526084015b60405180910390fd5b62001b28828686840362002c7b565b506001949350505050565b60003362000f7081858562002ff9565b600c60009054906101000a90046001600160a01b03166001600160a01b0316637778960e6040518163ffffffff1660e01b8152600401602060405180830381865afa15801562001b97573d6000803e3d6000fd5b505050506040513d601f19601f8201168201806040525081019062001bbd91906200474c565b6001600160a01b0316336001600160a01b03161462001bef5760405163c560129360e01b815260040160405180910390fd5b600b62001bfe828483620047d5565b505050565b62001c0d62002799565b600d54600e546014546040516370a0823160e01b81526001600160a01b03938416939092169162001cb491859185906370a082319062001c529030906004016200424d565b602060405180830381865afa15801562001c70573d6000803e3d6000fd5b505050506040513d601f19601f8201168201806040525081019062001c96919062004620565b62001ca2919062004650565b6001600160a01b0385169190620027f4565b62001d4c83601554836001600160a01b03166370a08231306040518263ffffffff1660e01b815260040162001cea91906200424d565b602060405180830381865afa15801562001d08573d6000803e3d6000fd5b505050506040513d601f19601f8201168201806040525081019062001d2e919062004620565b62001d3a919062004650565b6001600160a01b0384169190620027f4565b505062001d596001600955565b50565b600c60009054906101000a90046001600160a01b03166001600160a01b0316637778960e6040518163ffffffff1660e01b8152600401602060405180830381865afa15801562001db0573d6000803e3d6000fd5b505050506040513d601f19601f8201168201806040525081019062001dd691906200474c565b6001600160a01b0316336001600160a01b03161462001e085760405163c560129360e01b815260040160405180910390fd5b600a62001bfe828483620047d5565b6000803362001e26816200368e565b6001600160a01b0381166000908152601d6020908152604080832054601e9092529091205490935091508215158062001e5f5750600082115b1562001f3d576001600160a01b038181166000818152601d60209081526040808320839055601e90915280822091909155600f54905163299e7ae760e11b8152600481019290925260248201869052604482018590529091169063533cf5ce90606401600060405180830381600087803b15801562001edd57600080fd5b505af115801562001ef2573d6000803e3d6000fd5b505060408051868152602081018690526001600160a01b03851693508392507f865ca08d59f5cb456e85cd2f7ef63664ea4f73327414e9d8152c4158b0e94645910160405180910390a35b509091565b8342111562001f945760405162461bcd60e51b815260206004820152601d60248201527f45524332305065726d69743a206578706972656420646561646c696e65000000604482015260640162001b10565b60007f6e71edae12b1b97f4d1f60370fef10105fa2faae0126114a169c64845d6126c988888862001fc58c620037f7565b6040805160208101969096526001600160a01b0394851690860152929091166060840152608083015260a082015260c0810186905260e001604051602081830303815290604052805190602001209050600062002022826200381f565b9050600062002034828787876200384f565b9050896001600160a01b0316816001600160a01b031614620020995760405162461bcd60e51b815260206004820152601e60248201527f45524332305065726d69743a20696e76616c6964207369676e61747572650000604482015260640162001b10565b620020a68a8a8a62002c7b565b50505050505050505050565b6001600160a01b03918216600090815260016020908152604080832093909416825291909152205490565b6010546001600160a01b03161562002108576040516302a98a3760e31b815260040160405180910390fd5b601080546001600160a01b03191633908117909155604080516311b25aab60e21b815290516346c96aac916004808201926020929091908290030181865afa15801562002159573d6000803e3d6000fd5b505050506040513d601f19601f820116820180604052508101906200217f91906200474c565b600c80546001600160a01b039283166001600160a81b031990911617600160a01b84151502179055600e80546001600160a01b031990811685841617909155600d805490911691851691909117905560405183908390620021e090620040d7565b6001600160a01b03928316815291166020820152604001604051809103906000f08015801562002214573d6000803e3d6000fd5b50600f60006101000a8154816001600160a01b0302191690836001600160a01b031602179055506000836001600160a01b03166395d89b416040518163ffffffff1660e01b8152600401600060405180830381865afa1580156200227c573d6000803e3d6000fd5b505050506040513d6000823e601f3d908101601f19168201604052620022a691908101906200489d565b90506000836001600160a01b03166395d89b416040518163ffffffff1660e01b8152600401600060405180830381865afa158015620022e9573d6000803e3d6000fd5b505050506040513d6000823e601f3d908101601f191682016040526200231391908101906200489d565b905082156200238c578181604051602001620023319291906200494a565b604051602081830303815290604052600a9081620023509190620049a3565b5081816040516020016200236692919062004a6b565b604051602081830303815290604052600b9081620023859190620049a3565b50620023f7565b8181604051602001620023a192919062004abc565b604051602081830303815290604052600a9081620023c09190620049a3565b508181604051602001620023d692919062004b17565b604051602081830303815290604052600b9081620023f59190620049a3565b505b846001600160a01b031663313ce5676040518163ffffffff1660e01b8152600401602060405180830381865afa15801562002436573d6000803e3d6000fd5b505050506040513d601f19601f820116820180604052508101906200245c919062004b39565b6200246990600a62004c56565b601281905550836001600160a01b031663313ce5676040518163ffffffff1660e01b8152600401602060405180830381865afa158015620024ae573d6000803e3d6000fd5b505050506040513d601f19601f82011682018060405250810190620024d4919062004b39565b620024e190600a62004c56565b60135550506040805160608101825242815260006020820181815292820181815260118054600181018255925291517f31ecc21a745e3968a04e9570e4425bc18fa8019c68028196b546d1669c200c6860039092029182015591517f31ecc21a745e3968a04e9570e4425bc18fa8019c68028196b546d1669c200c69830155517f31ecc21a745e3968a04e9570e4425bc18fa8019c68028196b546d1669c200c6a90910155505050565b60006200259762002799565b620025a7601454601554620029b6565b9050620025b46001600955565b90565b601454601554601054600c5460405163cc56b2c560e01b81526000949392612710926001600160a01b039091169163cc56b2c59162002606913091600160a01b900460ff169060040162004666565b602060405180830381865afa15801562002624573d6000803e3d6000fd5b505050506040513d601f19601f820116820180604052508101906200264a919062004620565b62002656908762004681565b620026629190620046b1565b6200266e908662004650565b94506200267e8585848462002da3565b95945050505050565b6200269162002799565b600d546040516370a0823160e01b81526200278c916001600160a01b0316906370a0823190620026c69030906004016200424d565b602060405180830381865afa158015620026e4573d6000803e3d6000fd5b505050506040513d601f19601f820116820180604052508101906200270a919062004620565b600e546040516370a0823160e01b81526001600160a01b03909116906370a08231906200273c9030906004016200424d565b602060405180830381865afa1580156200275a573d6000803e3d6000fd5b505050506040513d601f19601f8201168201806040525081019062002780919062004620565b60145460155462002ad5565b620027976001600955565b565b600260095403620027ed5760405162461bcd60e51b815260206004820152601f60248201527f5265656e7472616e637947756172643a207265656e7472616e742063616c6c00604482015260640162001b10565b6002600955565b604080516001600160a01b038416602482015260448082018490528251808303909101815260649091019091526020810180516001600160e01b031663a9059cbb60e01b17905262001bfe9084906200387b565b80600003620028545750565b600f54600d5462002873916001600160a01b03918216911683620027f4565b60006200287f60025490565b6200289383670de0b6b3a764000062004681565b6200289f9190620046b1565b90508015620028c2578060196000828254620028bc919062004720565b90915550505b604080518381526000602082015233917f112c256902bf554b6ed882d2936687aaeb4225e8cd5b51303c90ca6cf43a860291015b60405180910390a25050565b806000036200290e5750565b600f54600e546200292d916001600160a01b03918216911683620027f4565b60006200293960025490565b6200294d83670de0b6b3a764000062004681565b620029599190620046b1565b905080156200297c5780601a600082825462002976919062004720565b90915550505b60408051600081526020810184905233917f112c256902bf554b6ed882d2936687aaeb4225e8cd5b51303c90ca6cf43a86029101620028f6565b600c54600090600160a01b900460ff161562002ac157601254600090620029e685670de0b6b3a764000062004681565b620029f29190620046b1565b9050600060135484670de0b6b3a764000062002a0f919062004681565b62002a1b9190620046b1565b90506000670de0b6b3a764000062002a34838562004681565b62002a409190620046b1565b90506000670de0b6b3a764000062002a59848062004681565b62002a659190620046b1565b670de0b6b3a764000062002a7a868062004681565b62002a869190620046b1565b62002a92919062004720565b9050670de0b6b3a764000062002aa9828462004681565b62002ab59190620046b1565b94505050505062000f76565b62002acd828462004681565b905062000f76565b601654429060009062002ae9908362004650565b905060008111801562002afb57508315155b801562002b0757508215155b1562002b575762002b19818562004681565b6017600082825462002b2c919062004720565b9091555062002b3e9050818462004681565b6018600082825462002b51919062004720565b90915550505b600062002b636200199a565b805190915062002b74908462004650565b915061070882111562002c2a5760408051606081018252848152601754602082019081526018549282019283526011805460018101825560009190915291517f31ecc21a745e3968a04e9570e4425bc18fa8019c68028196b546d1669c200c68600390930292830155517f31ecc21a745e3968a04e9570e4425bc18fa8019c68028196b546d1669c200c6982015590517f31ecc21a745e3968a04e9570e4425bc18fa8019c68028196b546d1669c200c6a909101555b60148790556015869055601683905560408051888152602081018890527fcf2aa50876cdfbb541206f89af0ee78d44a2abf8d328e37fa4917f982149848a910160405180910390a150505050505050565b6001600160a01b03831662002cdf5760405162461bcd60e51b8152602060048201526024808201527f45524332303a20617070726f76652066726f6d20746865207a65726f206164646044820152637265737360e01b606482015260840162001b10565b6001600160a01b03821662002d425760405162461bcd60e51b815260206004820152602260248201527f45524332303a20617070726f766520746f20746865207a65726f206164647265604482015261737360f01b606482015260840162001b10565b6001600160a01b0383811660008181526001602090815260408083209487168084529482529182902085905590518481527f8c5be1e5ebec7d5bd14f71427d1e84f3dd0314c0f7b2291e5b200ac8c7c3b925910160405180910390a3505050565b600c54600090600160a01b900460ff161562002f1f57600062002dc78484620029b6565b60125490915062002de185670de0b6b3a764000062004681565b62002ded9190620046b1565b60135490945062002e0784670de0b6b3a764000062004681565b62002e139190620046b1565b600d5490935060009081906001600160a01b0388811691161462002e3957848662002e3c565b85855b600d5491935091506001600160a01b0388811691161462002e805760135462002e6e89670de0b6b3a764000062004681565b62002e7a9190620046b1565b62002ea3565b60125462002e9789670de0b6b3a764000062004681565b62002ea39190620046b1565b9750600062002ebf62002eb7848b62004720565b858462003957565b62002ecb908362004650565b600d54909150670de0b6b3a7640000906001600160a01b038a811691161462002ef75760125462002efb565b6013545b62002f07908362004681565b62002f139190620046b1565b945050505050620011a0565b600d5460009081906001600160a01b0387811691161462002f4257838562002f45565b84845b909250905062002f56878362004720565b62002f62828962004681565b62002f6e9190620046b1565b92505050620011a0565b600062002f868484620020b2565b9050600019811462002ff3578181101562002fe45760405162461bcd60e51b815260206004820152601d60248201527f45524332303a20696e73756666696369656e7420616c6c6f77616e6365000000604482015260640162001b10565b62002ff3848484840362002c7b565b50505050565b6001600160a01b0383166200305f5760405162461bcd60e51b815260206004820152602560248201527f45524332303a207472616e736665722066726f6d20746865207a65726f206164604482015264647265737360d81b606482015260840162001b10565b6001600160a01b038216620030c35760405162461bcd60e51b815260206004820152602360248201527f45524332303a207472616e7366657220746f20746865207a65726f206164647260448201526265737360e81b606482015260840162001b10565b620030d083838362003af1565b6001600160a01b038316600090815260208190526040902054818110156200314a5760405162461bcd60e51b815260206004820152602660248201527f45524332303a207472616e7366657220616d6f756e7420657863656564732062604482015265616c616e636560d01b606482015260840162001b10565b6001600160a01b038481166000818152602081815260408083208787039055938716808352918490208054870190559251858152909260008051602062005220833981519152910160405180910390a362002ff3565b6000306001600160a01b037f000000000000000000000000000000000000000000000000000000000000000016148015620031fa57507f000000000000000000000000000000000000000000000000000000000000000046145b156200322557507f000000000000000000000000000000000000000000000000000000000000000090565b6200128d604080517f8b73c3c69bb8fe3d512ecc4cf759cc79239f7b179b0ffacaa9a75d522b39400f60208201527f0000000000000000000000000000000000000000000000000000000000000000918101919091527f000000000000000000000000000000000000000000000000000000000000000060608201524660808201523060a082015260009060c00160405160208183030381529060405280519060200120905090565b600081600003620032e157506000919050565b60006001620032f08462003b07565b901c6001901b905060018184816200330c576200330c6200469b565b048201901c905060018184816200332757620033276200469b565b048201901c905060018184816200334257620033426200469b565b048201901c905060018184816200335d576200335d6200469b565b048201901c905060018184816200337857620033786200469b565b048201901c905060018184816200339357620033936200469b565b048201901c90506001818481620033ae57620033ae6200469b565b048201901c90506200124681828581620033cc57620033cc6200469b565b0462003493565b6001600160a01b0382166200342b5760405162461bcd60e51b815260206004820152601f60248201527f45524332303a206d696e7420746f20746865207a65726f206164647265737300604482015260640162001b10565b620034396000838362003af1565b80600260008282546200344d919062004720565b90915550506001600160a01b0382166000818152602081815260408083208054860190555184815260008051602062005220833981519152910160405180910390a35050565b6000818310620034a4578162001246565b5090919050565b606060ff8314620034c15762002acd8362003ba3565b818054620034cf90620046d4565b80601f0160208091040260200160405190810160405280929190818152602001828054620034fd90620046d4565b80156200354e5780601f1062003522576101008083540402835291602001916200354e565b820191906000526020600020905b8154815290600101906020018083116200353057829003601f168201915b5050505050905062000f76565b6001600160a01b038216620035bd5760405162461bcd60e51b815260206004820152602160248201527f45524332303a206275726e2066726f6d20746865207a65726f206164647265736044820152607360f81b606482015260840162001b10565b620035cb8260008362003af1565b6001600160a01b03821660009081526020819052604090205481811015620036415760405162461bcd60e51b815260206004820152602260248201527f45524332303a206275726e20616d6f756e7420657863656564732062616c616e604482015261636560f01b606482015260840162001b10565b6001600160a01b03831660008181526020818152604080832086860390556002805487900390555185815291929160008051602062005220833981519152910160405180910390a3505050565b60006200369b82620015bb565b90508015620037c5576001600160a01b0382166000908152601b602090815260408083208054601c8085529285208054601954601a54948190559490955282905593620036e9858462004650565b90506000620036f9858462004650565b905081156200375b576000670de0b6b3a764000062003719848a62004681565b620037259190620046b1565b6001600160a01b038a166000908152601d60205260408120805492935083929091906200375490849062004720565b9091555050505b8015620037bb576000670de0b6b3a764000062003779838a62004681565b620037859190620046b1565b6001600160a01b038a166000908152601e6020526040812080549293508392909190620037b490849062004720565b9091555050505b5050505050505050565b6019546001600160a01b0383166000908152601b6020908152604080832093909355601a54601c909152919020555050565b6001600160a01b03811660009081526007602052604090208054600181018255905b50919050565b600062000f766200382f620031a0565b8360405161190160f01b8152600281019290925260228201526042902090565b6000806000620038628787878762003be4565b91509150620038718162003ca3565b5095945050505050565b6000620038d2826040518060400160405280602081526020017f5361666545524332303a206c6f772d6c6576656c2063616c6c206661696c6564815250856001600160a01b031662003dfb9092919063ffffffff16565b9050805160001480620038f6575080806020019051810190620038f69190620045b4565b62001bfe5760405162461bcd60e51b815260206004820152602a60248201527f5361666545524332303a204552433230206f7065726174696f6e20646964206e6044820152691bdd081cdd58d8d9595960b21b606482015260840162001b10565b6000805b60ff81101562003ac257600062003973868562003e0c565b90508481101562003a285760006200398c878662003ea5565b62003998838862004650565b620039ac90670de0b6b3a764000062004681565b620039b89190620046b1565b90508060000362003a1357858203620039d75784935050505062001246565b85620039f088620039ea88600162004720565b620029b6565b111562003a0f5762003a0485600162004720565b935050505062001246565b5060015b62003a1f818662004720565b94505062003ab8565b600062003a36878662003ea5565b62003a42878462004650565b62003a5690670de0b6b3a764000062004681565b62003a629190620046b1565b90508060000362003aa8578582148062003a9257508562003a908862003a8a60018962004650565b62003e0c565b105b1562003aa45784935050505062001246565b5060015b62003ab4818662004650565b9450505b506001016200395b565b5060405162461bcd60e51b8152602060048201526002602482015261217960f01b604482015260640162001b10565b62003afc836200368e565b62001bfe826200368e565b600080608083901c1562003b1d57608092831c92015b604083901c1562003b3057604092831c92015b602083901c1562003b4357602092831c92015b601083901c1562003b5657601092831c92015b600883901c1562003b6957600892831c92015b600483901c1562003b7c57600492831c92015b600283901c1562003b8f57600292831c92015b600183901c1562000f765760010192915050565b6060600062003bb28362003f35565b604080516020808252818301909252919250600091906020820181803683375050509182525060208101929092525090565b6000806fa2a8918ca85bafe22016d0b997e4df60600160ff1b0383111562003c13575060009050600362003c9a565b6040805160008082526020820180845289905260ff881692820192909252606081018690526080810185905260019060a0016020604051602081039080840390855afa15801562003c68573d6000803e3d6000fd5b5050604051601f1901519150506001600160a01b03811662003c935760006001925092505062003c9a565b9150600090505b94509492505050565b600081600481111562003cba5762003cba62004c67565b0362003cc35750565b600181600481111562003cda5762003cda62004c67565b0362003d245760405162461bcd60e51b815260206004820152601860248201527745434453413a20696e76616c6964207369676e617475726560401b604482015260640162001b10565b600281600481111562003d3b5762003d3b62004c67565b0362003d8a5760405162461bcd60e51b815260206004820152601f60248201527f45434453413a20696e76616c6964207369676e6174757265206c656e67746800604482015260640162001b10565b600381600481111562003da15762003da162004c67565b0362001d595760405162461bcd60e51b815260206004820152602260248201527f45434453413a20696e76616c6964207369676e6174757265202773272076616c604482015261756560f01b606482015260840162001b10565b6060620011a0848460008562003f5e565b600080670de0b6b3a764000062003e24848662004681565b62003e309190620046b1565b90506000670de0b6b3a764000062003e49858062004681565b62003e559190620046b1565b670de0b6b3a764000062003e6a878062004681565b62003e769190620046b1565b62003e82919062004720565b9050670de0b6b3a764000062003e99828462004681565b6200267e9190620046b1565b6000670de0b6b3a7640000838162003ebe828062004681565b62003eca9190620046b1565b62003ed6919062004681565b62003ee29190620046b1565b670de0b6b3a76400008062003ef8858062004681565b62003f049190620046b1565b62003f1186600362004681565b62003f1d919062004681565b62003f299190620046b1565b62001246919062004720565b600060ff8216601f81111562000f7657604051632cd44ac360e21b815260040160405180910390fd5b60608247101562003fc15760405162461bcd60e51b815260206004820152602660248201527f416464726573733a20696e73756666696369656e742062616c616e636520666f6044820152651c8818d85b1b60d21b606482015260840162001b10565b600080866001600160a01b0316858760405162003fdf919062004c7d565b60006040518083038185875af1925050503d80600081146200401e576040519150601f19603f3d011682016040523d82523d6000602084013e62004023565b606091505b509150915062001a988783838760608315620040a45782516000036200409c576001600160a01b0385163b6200409c5760405162461bcd60e51b815260206004820152601d60248201527f416464726573733a2063616c6c20746f206e6f6e2d636f6e7472616374000000604482015260640162001b10565b5081620011a0565b620011a08383815115620040bb5781518083602001fd5b8060405162461bcd60e51b815260040162001b10919062004209565b6105848062004c9c83390190565b6001600160a01b038116811462001d5957600080fd5b60008083601f8401126200410e57600080fd5b5081356001600160401b038111156200412657600080fd5b6020830191508360208285010111156200413f57600080fd5b9250929050565b6000806000806000608086880312156200415f57600080fd5b853594506020860135935060408601356200417a81620040e5565b925060608601356001600160401b038111156200419657600080fd5b620041a488828901620040fb565b969995985093965092949392505050565b60005b83811015620041d2578181015183820152602001620041b8565b50506000910152565b60008151808452620041f5816020860160208601620041b5565b601f01601f19169290920160200192915050565b602081526000620012466020830184620041db565b600080604083850312156200423257600080fd5b82356200423f81620040e5565b946020939093013593505050565b6001600160a01b0391909116815260200190565b600080600080608085870312156200427857600080fd5b84356200428581620040e5565b966020860135965060408601359560600135945092505050565b60008151808452602080850194506020840160005b83811015620042d257815187529582019590820190600101620042b4565b509495945050505050565b6020815260006200124660208301846200429f565b6000602082840312156200430557600080fd5b81356200124681620040e5565b6000806000606084860312156200432857600080fd5b83356200433581620040e5565b925060208401356200434781620040e5565b929592945050506040919091013590565b6000602082840312156200436b57600080fd5b5035919050565b6000806000606084860312156200438857600080fd5b83356200439581620040e5565b95602085013595506040909401359392505050565b60ff60f81b8816815260e060208201526000620043cb60e0830189620041db565b8281036040840152620043df8189620041db565b606084018890526001600160a01b038716608085015260a0840186905283810360c085015290506200441281856200429f565b9a9950505050505050505050565b600080602083850312156200443457600080fd5b82356001600160401b038111156200444b57600080fd5b6200445985828601620040fb565b90969095509350505050565b60ff8116811462001d5957600080fd5b600080600080600080600060e0888a0312156200449157600080fd5b87356200449e81620040e5565b96506020880135620044b081620040e5565b955060408801359450606088013593506080880135620044d08162004465565b9699959850939692959460a0840135945060c09093013592915050565b600080604083850312156200450157600080fd5b82356200450e81620040e5565b915060208301356200452081620040e5565b809150509250929050565b801515811462001d5957600080fd5b6000806000606084860312156200455057600080fd5b83356200455d81620040e5565b925060208401356200456f81620040e5565b9150604084013562004581816200452b565b809150509250925092565b60008060408385031215620045a057600080fd5b8235915060208301356200452081620040e5565b600060208284031215620045c757600080fd5b815162001246816200452b565b60018060a01b038616815284602082015283604082015260806060820152816080820152818360a0830137600081830160a090810191909152601f909201601f19160101949350505050565b6000602082840312156200463357600080fd5b5051919050565b634e487b7160e01b600052601160045260246000fd5b8181038181111562000f765762000f766200463a565b6001600160a01b039290921682521515602082015260400190565b808202811582820484141762000f765762000f766200463a565b634e487b7160e01b600052601260045260246000fd5b600082620046cf57634e487b7160e01b600052601260045260246000fd5b500490565b600181811c90821680620046e957607f821691505b6020821081036200381957634e487b7160e01b600052602260045260246000fd5b634e487b7160e01b600052604160045260246000fd5b8082018082111562000f765762000f766200463a565b634e487b7160e01b600052603260045260246000fd5b6000602082840312156200475f57600080fd5b81516200124681620040e5565b601f82111562001bfe576000816000526020600020601f850160051c81016020861015620047975750805b601f850160051c820191505b81811015620047b857828155600101620047a3565b505050505050565b600019600383901b1c191660019190911b1790565b6001600160401b03831115620047ef57620047ef6200470a565b6200480783620048008354620046d4565b836200476c565b6000601f8411600181146200483a5760008515620048255750838201355b620048318682620047c0565b84555062000ebf565b600083815260209020601f19861690835b828110156200486d57868501358255602094850194600190920191016200484b565b50868210156200488b5760001960f88860031b161c19848701351681555b505060018560011b0183555050505050565b600060208284031215620048b057600080fd5b81516001600160401b0380821115620048c857600080fd5b818401915084601f830112620048dd57600080fd5b815181811115620048f257620048f26200470a565b604051601f8201601f19908116603f011681019083821181831017156200491d576200491d6200470a565b816040528281528760208487010111156200493757600080fd5b62001a98836020830160208801620041b5565b6c029ba30b136329020a6a690169609d1b8152600083516200497481600d850160208801620041b5565b602f60f81b600d9184019182015283516200499781600e840160208801620041b5565b01600e01949350505050565b81516001600160401b03811115620049bf57620049bf6200470a565b620049d781620049d08454620046d4565b846200476c565b602080601f83116001811462004a0b5760008415620049f65750858301515b62004a028582620047c0565b865550620047b8565b600085815260208120601f198616915b8281101562004a3c5788860151825594840194600190910190840162004a1b565b508582101562004a5b5787850151600019600388901b60f8161c191681555b5050505050600190811b01905550565b6473414d4d2d60d81b81526000835162004a8d816005850160208801620041b5565b602f60f81b600591840191820152835162004ab0816006840160208801620041b5565b01600601949350505050565b6e02b37b630ba34b6329020a6a690169608d1b81526000835162004ae881600f850160208801620041b5565b602f60f81b600f91840191820152835162004b0b816010840160208801620041b5565b01601001949350505050565b6476414d4d2d60d81b81526000835162004a8d816005850160208801620041b5565b60006020828403121562004b4c57600080fd5b8151620012468162004465565b600181815b8085111562004b9a57816000190482111562004b7e5762004b7e6200463a565b8085161562004b8c57918102915b93841c939080029062004b5e565b509250929050565b60008262004bb35750600162000f76565b8162004bc25750600062000f76565b816001811462004bdb576002811462004be65762004c06565b600191505062000f76565b60ff84111562004bfa5762004bfa6200463a565b50506001821b62000f76565b5060208310610133831016604e8410600b841016171562004c2b575081810a62000f76565b62004c37838362004b59565b806000190482111562004c4e5762004c4e6200463a565b029392505050565b60006200124660ff84168362004ba2565b634e487b7160e01b600052602160045260246000fd5b6000825162004c91818460208701620041b5565b919091019291505056fe60e060405234801561001057600080fd5b5060405161058438038061058483398101604081905261002f91610066565b336080526001600160a01b0391821660a0521660c052610099565b80516001600160a01b038116811461006157600080fd5b919050565b6000806040838503121561007957600080fd5b6100828361004a565b91506100906020840161004a565b90509250929050565b60805160a05160c0516104bf6100c5600039600060db0152600060a101526000605001526104bf6000f3fe608060405234801561001057600080fd5b506004361061002b5760003560e01c8063533cf5ce14610030575b600080fd5b61004361003e3660046103ac565b610045565b005b336001600160a01b037f0000000000000000000000000000000000000000000000000000000000000000161461008e57604051636f61f64160e01b815260040160405180910390fd5b81156100c8576100c86001600160a01b037f0000000000000000000000000000000000000000000000000000000000000000168484610107565b8015610102576101026001600160a01b037f0000000000000000000000000000000000000000000000000000000000000000168483610107565b505050565b604080516001600160a01b03848116602483015260448083018590528351808403909101815260649092018352602080830180516001600160e01b031663a9059cbb60e01b17905283518085019094528084527f5361666545524332303a206c6f772d6c6576656c2063616c6c206661696c6564908401526101029286929160009161019791851690849061021c565b90508051600014806101b85750808060200190518101906101b891906103ed565b6101025760405162461bcd60e51b815260206004820152602a60248201527f5361666545524332303a204552433230206f7065726174696f6e20646964206e6044820152691bdd081cdd58d8d9595960b21b60648201526084015b60405180910390fd5b606061022b8484600085610233565b949350505050565b6060824710156102945760405162461bcd60e51b815260206004820152602660248201527f416464726573733a20696e73756666696369656e742062616c616e636520666f6044820152651c8818d85b1b60d21b6064820152608401610213565b600080866001600160a01b031685876040516102b0919061043a565b60006040518083038185875af1925050503d80600081146102ed576040519150601f19603f3d011682016040523d82523d6000602084013e6102f2565b606091505b50915091506103038783838761030e565b979650505050505050565b6060831561037d578251600003610376576001600160a01b0385163b6103765760405162461bcd60e51b815260206004820152601d60248201527f416464726573733a2063616c6c20746f206e6f6e2d636f6e74726163740000006044820152606401610213565b508161022b565b61022b83838151156103925781518083602001fd5b8060405162461bcd60e51b81526004016102139190610456565b6000806000606084860312156103c157600080fd5b83356001600160a01b03811681146103d857600080fd5b95602085013595506040909401359392505050565b6000602082840312156103ff57600080fd5b8151801515811461040f57600080fd5b9392505050565b60005b83811015610431578181015183820152602001610419565b50506000910152565b6000825161044c818460208701610416565b9190910192915050565b6020815260008251806020840152610475816040850160208701610416565b601f01601f1916919091016040019291505056fea26469706673582212201a061f7df876cfaa6cae85f30c20fa6524797db9aada87376497c39268a15ddc64736f6c63430008180033ddf252ad1be2c89b69c2b068fc378daa952ba7f163c4a11628f55a4df523b3efa2646970667358221220dea228366aef9023916819fe1465856336ad2aa223f3df2a2a210916c7e731e164736f6c63430008180033",
  "devdoc": {
    "author": "velodrome.finance, @figs999, @pegahcarter",
    "events": {
      "Approval(address,address,uint256)": {
        "details": "Emitted when the allowance of a `spender` for an `owner` is set by a call to {approve}. `value` is the new allowance."
      },
      "EIP712DomainChanged()": {
        "details": "MAY be emitted to signal that the domain could have changed."
      },
      "Transfer(address,address,uint256)": {
        "details": "Emitted when `value` tokens are moved from one account (`from`) to another (`to`). Note that `value` may be zero."
      }
    },
    "kind": "dev",
    "methods": {
      "DOMAIN_SEPARATOR()": {
        "details": "See {IERC20Permit-DOMAIN_SEPARATOR}."
      },
      "allowance(address,address)": {
        "details": "See {IERC20-allowance}."
      },
      "approve(address,uint256)": {
        "details": "See {IERC20-approve}. NOTE: If `amount` is the maximum `uint256`, the allowance is not updated on `transferFrom`. This is semantically equivalent to an infinite approval. Requirements: - `spender` cannot be the zero address."
      },
      "balanceOf(address)": {
        "details": "See {IERC20-balanceOf}."
      },
      "burn(address)": {
        "params": {
          "to": "Address to receive token0 and token1 from burning the pool token"
        },
        "returns": {
          "amount0": "Amount of token0 returned",
          "amount1": "Amount of token1 returned"
        }
      },
      "decimals()": {
        "details": "Returns the number of decimals used to get its user representation. For example, if `decimals` equals `2`, a balance of `505` tokens should be displayed to a user as `5.05` (`505 / 10 ** 2`). Tokens usually opt for a value of 18, imitating the relationship between Ether and Wei. This is the default value returned by this function, unless it's overridden. NOTE: This information is only used for _display_ purposes: it in no way affects any of the arithmetic of the contract, including {IERC20-balanceOf} and {IERC20-transfer}."
      },
      "decreaseAllowance(address,uint256)": {
        "details": "Atomically decreases the allowance granted to `spender` by the caller. This is an alternative to {approve} that can be used as a mitigation for problems described in {IERC20-approve}. Emits an {Approval} event indicating the updated allowance. Requirements: - `spender` cannot be the zero address. - `spender` must have allowance for the caller of at least `subtractedValue`."
      },
      "eip712Domain()": {
        "details": "See {EIP-5267}. _Available since v4.9._"
      },
      "getAmountOut(uint256,address)": {
        "params": {
          "amountIn": "Amount of token in",
          "tokenIn": "Address of token"
        },
        "returns": {
          "_0": "Amount out"
        }
      },
      "getReserves()": {
        "returns": {
          "_blockTimestampLast": ".",
          "_reserve0": ".",
          "_reserve1": "."
        }
      },
      "increaseAllowance(address,uint256)": {
        "details": "Atomically increases the allowance granted to `spender` by the caller. This is an alternative to {approve} that can be used as a mitigation for problems described in {IERC20-approve}. Emits an {Approval} event indicating the updated allowance. Requirements: - `spender` cannot be the zero address."
      },
      "initialize(address,address,bool)": {
        "params": {
          "_stable": "True if stable, false if volatile",
          "_token0": "Address of token0",
          "_token1": "Address of token1"
        }
      },
      "mint(address)": {
        "params": {
          "to": "Address to receive the minted LP token"
        },
        "returns": {
          "liquidity": "  Amount of LP token minted"
        }
      },
      "name()": {
        "details": "Returns the name of the token."
      },
      "nonces(address)": {
        "details": "See {IERC20Permit-nonces}."
      },
      "permit(address,address,uint256,uint256,uint8,bytes32,bytes32)": {
        "details": "See {IERC20Permit-permit}."
      },
      "prices(address,uint256,uint256)": {
        "params": {
          "amountIn": ".",
          "points": "Number of points to return",
          "tokenIn": "."
        },
        "returns": {
          "_0": "Array of TWAP prices"
        }
      },
      "quote(address,uint256,uint256)": {
        "params": {
          "amountIn": ".",
          "granularity": ".",
          "tokenIn": "."
        },
        "returns": {
          "amountOut": "."
        }
      },
      "sample(address,uint256,uint256,uint256)": {
        "params": {
          "amountIn": ".",
          "points": ".",
          "tokenIn": ".",
          "window": "."
        },
        "returns": {
          "_0": "Array of TWAP prices"
        }
      },
      "setName(string)": {
        "params": {
          "__name": "String of new name"
        }
      },
      "setSymbol(string)": {
        "params": {
          "__symbol": "String of new symbol"
        }
      },
      "skim(address)": {
        "params": {
          "to": "Address to receive any skimmed rewards"
        }
      },
      "swap(uint256,uint256,address,bytes)": {
        "params": {
          "amount0Out": "Amount of token0 to send to `to`",
          "amount1Out": "Amount of token1 to send to `to`",
          "data": "Additional calldata for flashloans",
          "to": "Address to receive the swapped output"
        }
      },
      "symbol()": {
        "details": "Returns the symbol of the token, usually a shorter version of the name."
      },
      "totalSupply()": {
        "details": "See {IERC20-totalSupply}."
      },
      "transfer(address,uint256)": {
        "details": "See {IERC20-transfer}. Requirements: - `to` cannot be the zero address. - the caller must have a balance of at least `amount`."
      },
      "transferFrom(address,address,uint256)": {
        "details": "See {IERC20-transferFrom}. Emits an {Approval} event indicating the updated allowance. This is not required by the EIP. See the note at the beginning of {ERC20}. NOTE: Does not update the allowance if the current allowance is the maximum `uint256`. Requirements: - `from` and `to` cannot be the zero address. - `from` must have a balance of at least `amount`. - the caller must have allowance for ``from``'s tokens of at least `amount`."
      }
    },
    "title": "Pool",
    "version": 1
  },
  "userdoc": {
    "kind": "user",
    "methods": {
      "blockTimestampLast()": {
        "notice": "Timestamp of last update to pool"
      },
      "burn(address)": {
        "notice": "This low-level function should be called from a contract which performs important safety checks         standard uniswap v2 implementation"
      },
      "claimFees()": {
        "notice": "Claim accumulated but unclaimed fees (claimable0 and claimable1)"
      },
      "claimable0(address)": {
        "notice": "Amount of unclaimed, but claimable tokens from fees of token0 for an LP"
      },
      "claimable1(address)": {
        "notice": "Amount of unclaimed, but claimable tokens from fees of token1 for an LP"
      },
      "currentCumulativePrices()": {
        "notice": "Produces the cumulative price using counterfactuals to save gas and avoid a call to sync."
      },
      "factory()": {
        "notice": "Address of PoolFactory that created this contract"
      },
      "getAmountOut(uint256,address)": {
        "notice": "Get the amount of tokenOut given the amount of tokenIn"
      },
      "getK()": {
        "notice": "Returns the value of K in the Pool, based on its reserves."
      },
      "getReserves()": {
        "notice": "Update reserves and, on the first call per block, price accumulators"
      },
      "index0()": {
        "notice": "Accumulated fees of token0 (global)"
      },
      "index1()": {
        "notice": "Accumulated fees of token1 (global)"
      },
      "initialize(address,address,bool)": {
        "notice": "Called on pool creation by PoolFactory"
      },
      "lastObservation()": {
        "notice": "Get the value of the most recent observation"
      },
      "metadata()": {
        "notice": "Returns the decimal (dec), reserves (r), stable (st), and tokens (t) of token0 and token1"
      },
      "mint(address)": {
        "notice": "This low-level function should be called by addLiquidity functions in Router.sol, which performs important safety checks         standard uniswap v2 implementation"
      },
      "observationLength()": {
        "notice": "Get the number of observations recorded"
      },
      "periodSize()": {
        "notice": "Capture oracle reading every 30 minutes (1800 seconds)"
      },
      "poolFees()": {
        "notice": "Address of linked PoolFees.sol"
      },
      "prices(address,uint256,uint256)": {
        "notice": "Returns a memory set of TWAP prices         Same as calling sample(tokenIn, amountIn, points, 1)"
      },
      "quote(address,uint256,uint256)": {
        "notice": "Provides twap price with user configured granularity, up to the full window size"
      },
      "reserve0()": {
        "notice": "Amount of token0 in pool"
      },
      "reserve0CumulativeLast()": {
        "notice": "Cumulative of reserve0 factoring in time elapsed"
      },
      "reserve1()": {
        "notice": "Amount of token1 in pool"
      },
      "reserve1CumulativeLast()": {
        "notice": "Cumulative of reserve1 factoring in time elapsed"
      },
      "sample(address,uint256,uint256,uint256)": {
        "notice": "Same as prices with with an additional window argument.         Window = 2 means 2 * 30min (or 1 hr) between observations"
      },
      "setName(string)": {
        "notice": "Set pool name         Only callable by Voter.emergencyCouncil()"
      },
      "setSymbol(string)": {
        "notice": "Set pool symbol         Only callable by Voter.emergencyCouncil()"
      },
      "skim(address)": {
        "notice": "Force balances to match reserves"
      },
      "stable()": {
        "notice": "True if pool is stable, false if volatile"
      },
      "supplyIndex0(address)": {
        "notice": "Get an LP's relative index0 to index0"
      },
      "supplyIndex1(address)": {
        "notice": "Get an LP's relative index1 to index1"
      },
      "swap(uint256,uint256,address,bytes)": {
        "notice": "This low-level function should be called from a contract which performs important safety checks"
      },
      "sync()": {
        "notice": "Force reserves to match balances"
      },
      "token0()": {
        "notice": "Address of token in the pool with the lower address value"
      },
      "token1()": {
        "notice": "Address of token in the pool with the higher address value"
      },
      "tokens()": {
        "notice": "Returns [token0, token1]"
      }
    },
    "notice": "Protocol token pool, either stable or volatile",
    "version": 1
  },
  "storageLayout": {
    "storage": [
      {
        "astId": 1434,
        "contract": "contracts/Pool.sol:Pool",
        "label": "_balances",
        "offset": 0,
        "slot": "0",
        "type": "t_mapping(t_address,t_uint256)"
      },
      {
        "astId": 1440,
        "contract": "contracts/Pool.sol:Pool",
        "label": "_allowances",
        "offset": 0,
        "slot": "1",
        "type": "t_mapping(t_address,t_mapping(t_address,t_uint256))"
      },
      {
        "astId": 1442,
        "contract": "contracts/Pool.sol:Pool",
        "label": "_totalSupply",
        "offset": 0,
        "slot": "2",
        "type": "t_uint256"
      },
      {
        "astId": 1444,
        "contract": "contracts/Pool.sol:Pool",
        "label": "_name",
        "offset": 0,
        "slot": "3",
        "type": "t_string_storage"
      },
      {
        "astId": 1446,
        "contract": "contracts/Pool.sol:Pool",
        "label": "_symbol",
        "offset": 0,
        "slot": "4",
        "type": "t_string_storage"
      },
      {
        "astId": 6015,
        "contract": "contracts/Pool.sol:Pool",
        "label": "_nameFallback",
        "offset": 0,
        "slot": "5",
        "type": "t_string_storage"
      },
      {
        "astId": 6017,
        "contract": "contracts/Pool.sol:Pool",
        "label": "_versionFallback",
        "offset": 0,
        "slot": "6",
        "type": "t_string_storage"
      },
      {
        "astId": 2106,
        "contract": "contracts/Pool.sol:Pool",
        "label": "_nonces",
        "offset": 0,
        "slot": "7",
        "type": "t_mapping(t_address,t_struct(Counter)4779_storage)"
      },
      {
        "astId": 2114,
        "contract": "contracts/Pool.sol:Pool",
        "label": "_PERMIT_TYPEHASH_DEPRECATED_SLOT",
        "offset": 0,
        "slot": "8",
        "type": "t_bytes32"
      },
      {
        "astId": 1323,
        "contract": "contracts/Pool.sol:Pool",
        "label": "_status",
        "offset": 0,
        "slot": "9",
        "type": "t_uint256"
      },
      {
        "astId": 11472,
        "contract": "contracts/Pool.sol:Pool",
        "label": "_name",
        "offset": 0,
        "slot": "10",
        "type": "t_string_storage"
      },
      {
        "astId": 11474,
        "contract": "contracts/Pool.sol:Pool",
        "label": "_symbol",
        "offset": 0,
        "slot": "11",
        "type": "t_string_storage"
      },
      {
        "astId": 11476,
        "contract": "contracts/Pool.sol:Pool",
        "label": "_voter",
        "offset": 0,
        "slot": "12",
        "type": "t_address"
      },
      {
        "astId": 11479,
        "contract": "contracts/Pool.sol:Pool",
        "label": "stable",
        "offset": 20,
        "slot": "12",
        "type": "t_bool"
      },
      {
        "astId": 11492,
        "contract": "contracts/Pool.sol:Pool",
        "label": "token0",
        "offset": 0,
        "slot": "13",
        "type": "t_address"
      },
      {
        "astId": 11495,
        "contract": "contracts/Pool.sol:Pool",
        "label": "token1",
        "offset": 0,
        "slot": "14",
        "type": "t_address"
      },
      {
        "astId": 11498,
        "contract": "contracts/Pool.sol:Pool",
        "label": "poolFees",
        "offset": 0,
        "slot": "15",
        "type": "t_address"
      },
      {
        "astId": 11501,
        "contract": "contracts/Pool.sol:Pool",
        "label": "factory",
        "offset": 0,
        "slot": "16",
        "type": "t_address"
      },
      {
        "astId": 11508,
        "contract": "contracts/Pool.sol:Pool",
        "label": "observations",
        "offset": 0,
        "slot": "17",
        "type": "t_array(t_struct(Observation)28935_storage)dyn_storage"
      },
      {
        "astId": 11510,
        "contract": "contracts/Pool.sol:Pool",
        "label": "decimals0",
        "offset": 0,
        "slot": "18",
        "type": "t_uint256"
      },
      {
        "astId": 11512,
        "contract": "contracts/Pool.sol:Pool",
        "label": "decimals1",
        "offset": 0,
        "slot": "19",
        "type": "t_uint256"
      },
      {
        "astId": 11515,
        "contract": "contracts/Pool.sol:Pool",
        "label": "reserve0",
        "offset": 0,
        "slot": "20",
        "type": "t_uint256"
      },
      {
        "astId": 11518,
        "contract": "contracts/Pool.sol:Pool",
        "label": "reserve1",
        "offset": 0,
        "slot": "21",
        "type": "t_uint256"
      },
      {
        "astId": 11521,
        "contract": "contracts/Pool.sol:Pool",
        "label": "blockTimestampLast",
        "offset": 0,
        "slot": "22",
        "type": "t_uint256"
      },
      {
        "astId": 11524,
        "contract": "contracts/Pool.sol:Pool",
        "label": "reserve0CumulativeLast",
        "offset": 0,
        "slot": "23",
        "type": "t_uint256"
      },
      {
        "astId": 11527,
        "contract": "contracts/Pool.sol:Pool",
        "label": "reserve1CumulativeLast",
        "offset": 0,
        "slot": "24",
        "type": "t_uint256"
      },
      {
        "astId": 11531,
        "contract": "contracts/Pool.sol:Pool",
        "label": "index0",
        "offset": 0,
        "slot": "25",
        "type": "t_uint256"
      },
      {
        "astId": 11535,
        "contract": "contracts/Pool.sol:Pool",
        "label": "index1",
        "offset": 0,
        "slot": "26",
        "type": "t_uint256"
      },
      {
        "astId": 11540,
        "contract": "contracts/Pool.sol:Pool",
        "label": "supplyIndex0",
        "offset": 0,
        "slot": "27",
        "type": "t_mapping(t_address,t_uint256)"
      },
      {
        "astId": 11545,
        "contract": "contracts/Pool.sol:Pool",
        "label": "supplyIndex1",
        "offset": 0,
        "slot": "28",
        "type": "t_mapping(t_address,t_uint256)"
      },
      {
        "astId": 11550,
        "contract": "contracts/Pool.sol:Pool",
        "label": "claimable0",
        "offset": 0,
        "slot": "29",
        "type": "t_mapping(t_address,t_uint256)"
      },
      {
        "astId": 11555,
        "contract": "contracts/Pool.sol:Pool",
        "label": "claimable1",
        "offset": 0,
        "slot": "30",
        "type": "t_mapping(t_address,t_uint256)"
      }
    ],
    "types": {
      "t_address": {
        "encoding": "inplace",
        "label": "address",
        "numberOfBytes": "20"
      },
      "t_array(t_struct(Observation)28935_storage)dyn_storage": {
        "base": "t_struct(Observation)28935_storage",
        "encoding": "dynamic_array",
        "label": "struct IPool.Observation[]",
        "numberOfBytes": "32"
      },
      "t_bool": {
        "encoding": "inplace",
        "label": "bool",
        "numberOfBytes": "1"
      },
      "t_bytes32": {
        "encoding": "inplace",
        "label": "bytes32",
        "numberOfBytes": "32"
      },
      "t_mapping(t_address,t_mapping(t_address,t_uint256))": {
        "encoding": "mapping",
        "key": "t_address",
        "label": "mapping(address => mapping(address => uint256))",
        "numberOfBytes": "32",
        "value": "t_mapping(t_address,t_uint256)"
      },
      "t_mapping(t_address,t_struct(Counter)4779_storage)": {
        "encoding": "mapping",
        "key": "t_address",
        "label": "mapping(address => struct Counters.Counter)",
        "numberOfBytes": "32",
        "value": "t_struct(Counter)4779_storage"
      },
      "t_mapping(t_address,t_uint256)": {
        "encoding": "mapping",
        "key": "t_address",
        "label": "mapping(address => uint256)",
        "numberOfBytes": "32",
        "value": "t_uint256"
      },
      "t_string_storage": {
        "encoding": "bytes",
        "label": "string",
        "numberOfBytes": "32"
      },
      "t_struct(Counter)4779_storage": {
        "encoding": "inplace",
        "label": "struct Counters.Counter",
        "members": [
          {
            "astId": 4778,
            "contract": "contracts/Pool.sol:Pool",
            "label": "_value",
            "offset": 0,
            "slot": "0",
            "type": "t_uint256"
          }
        ],
        "numberOfBytes": "32"
      },
      "t_struct(Observation)28935_storage": {
        "encoding": "inplace",
        "label": "struct IPool.Observation",
        "members": [
          {
            "astId": 28930,
            "contract": "contracts/Pool.sol:Pool",
            "label": "timestamp",
            "offset": 0,
            "slot": "0",
            "type": "t_uint256"
          },
          {
            "astId": 28932,
            "contract": "contracts/Pool.sol:Pool",
            "label": "reserve0Cumulative",
            "offset": 0,
            "slot": "1",
            "type": "t_uint256"
          },
          {
            "astId": 28934,
            "contract": "contracts/Pool.sol:Pool",
            "label": "reserve1Cumulative",
            "offset": 0,
            "slot": "2",
            "type": "t_uint256"
          }
        ],
        "numberOfBytes": "96"
      },
      "t_uint256": {
        "encoding": "inplace",
        "label": "uint256",
        "numberOfBytes": "32"
      }
    }
  }
}