{
  "address": "0x72F8dd7F44fFa19E45955aa20A5486E8EB255738",
  "abi": [
    {
      "inputs": [
        {
          "internalType": "address",
          "name": "_forwarder",
          "type": "address"
        },
        {
          "internalType": "address",
          "name": "_ve",
          "type": "address"
        },
        {
          "internalType": "address",
          "name": "_factoryRegistry",
          "type": "address"
        }
      ],
      "stateMutability": "nonpayable",
      "type": "constructor"
    },
    {
      "inputs": [],
      "name": "AlreadyVotedOrDeposited",
      "type": "error"
    },
    {
      "inputs": [],
      "name": "DistributeWindow",
      "type": "error"
    },
    {
      "inputs": [],
      "name": "FactoryPathNotApproved",
      "type": "error"
    },
    {
      "inputs": [],
      "name": "GaugeAlreadyKilled",
      "type": "error"
    },
    {
      "inputs": [],
      "name": "GaugeAlreadyRevived",
      "type": "error"
    },
    {
      "inputs": [
        {
          "internalType": "address",
          "name": "_pool",
          "type": "address"
        }
      ],
      "name": "GaugeDoesNotExist",
      "type": "error"
    },
    {
      "inputs": [],
      "name": "GaugeExists",
      "type": "error"
    },
    {
      "inputs": [
        {
          "internalType": "address",
          "name": "_gauge",
          "type": "address"
        }
      ],
      "name": "GaugeNotAlive",
      "type": "error"
    },
    {
      "inputs": [],
      "name": "InactiveManagedNFT",
      "type": "error"
    },
    {
      "inputs": [],
      "name": "MaximumVotingNumberTooLow",
      "type": "error"
    },
    {
      "inputs": [],
      "name": "NonZeroVotes",
      "type": "error"
    },
    {
      "inputs": [],
      "name": "NotAPool",
      "type": "error"
    },
    {
      "inputs": [],
      "name": "NotApprovedOrOwner",
      "type": "error"
    },
    {
      "inputs": [],
      "name": "NotEmergencyCouncil",
      "type": "error"
    },
    {
      "inputs": [],
      "name": "NotGovernor",
      "type": "error"
    },
    {
      "inputs": [],
      "name": "NotSplitter",
      "type": "error"
    },
    {
      "inputs": [],
      "name": "NotWhitelistedNFT",
      "type": "error"
    },
    {
      "inputs": [],
      "name": "NotWhitelistedToken",
      "type": "error"
    },
    {
      "inputs": [],
      "name": "SameValue",
      "type": "error"
    },
    {
      "inputs": [],
      "name": "SpecialVotingWindow",
      "type": "error"
    },
    {
      "inputs": [],
      "name": "TooManyPools",
      "type": "error"
    },
    {
      "inputs": [],
      "name": "UnequalLengths",
      "type": "error"
    },
    {
      "inputs": [],
      "name": "ZeroAddress",
      "type": "error"
    },
    {
      "inputs": [],
      "name": "ZeroBalance",
      "type": "error"
    },
    {
      "anonymous": false,
      "inputs": [
        {
          "indexed": true,
          "internalType": "address",
          "name": "voter",
          "type": "address"
        },
        {
          "indexed": true,
          "internalType": "address",
          "name": "pool",
          "type": "address"
        },
        {
          "indexed": true,
          "internalType": "uint256",
          "name": "tokenId",
          "type": "uint256"
        },
        {
          "indexed": false,
          "internalType": "uint256",
          "name": "weight",
          "type": "uint256"
        },
        {
          "indexed": false,
          "internalType": "uint256",
          "name": "totalWeight",
          "type": "uint256"
        },
        {
          "indexed": false,
          "internalType": "uint256",
          "name": "timestamp",
          "type": "uint256"
        }
      ],
      "name": "Abstained",
      "type": "event"
    },
    {
      "anonymous": false,
      "inputs": [
        {
          "indexed": true,
          "internalType": "address",
          "name": "sender",
          "type": "address"
        },
        {
          "indexed": true,
          "internalType": "address",
          "name": "gauge",
          "type": "address"
        },
        {
          "indexed": false,
          "internalType": "uint256",
          "name": "amount",
          "type": "uint256"
        }
      ],
      "name": "DistributeReward",
      "type": "event"
    },
    {
      "anonymous": false,
      "inputs": [
        {
          "indexed": true,
          "internalType": "address",
          "name": "poolFactory",
          "type": "address"
        },
        {
          "indexed": true,
          "internalType": "address",
          "name": "votingRewardsFactory",
          "type": "address"
        },
        {
          "indexed": true,
          "internalType": "address",
          "name": "gaugeFactory",
          "type": "address"
        },
        {
          "indexed": false,
          "internalType": "address",
          "name": "pool",
          "type": "address"
        },
        {
          "indexed": false,
          "internalType": "address",
          "name": "bribeVotingReward",
          "type": "address"
        },
        {
          "indexed": false,
          "internalType": "address",
          "name": "feeVotingReward",
          "type": "address"
        },
        {
          "indexed": false,
          "internalType": "address",
          "name": "gauge",
          "type": "address"
        },
        {
          "indexed": false,
          "internalType": "address",
          "name": "creator",
          "type": "address"
        }
      ],
      "name": "GaugeCreated",
      "type": "event"
    },
    {
      "anonymous": false,
      "inputs": [
        {
          "indexed": true,
          "internalType": "address",
          "name": "gauge",
          "type": "address"
        }
      ],
      "name": "GaugeKilled",
      "type": "event"
    },
    {
      "anonymous": false,
      "inputs": [
        {
          "indexed": true,
          "internalType": "address",
          "name": "gauge",
          "type": "address"
        }
      ],
      "name": "GaugeRevived",
      "type": "event"
    },
    {
      "anonymous": false,
      "inputs": [
        {
          "indexed": true,
          "internalType": "address",
          "name": "sender",
          "type": "address"
        },
        {
          "indexed": true,
          "internalType": "address",
          "name": "reward",
          "type": "address"
        },
        {
          "indexed": false,
          "internalType": "uint256",
          "name": "amount",
          "type": "uint256"
        }
      ],
      "name": "NotifyReward",
      "type": "event"
    },
    {
      "anonymous": false,
      "inputs": [
        {
          "indexed": true,
          "internalType": "address",
          "name": "voter",
          "type": "address"
        },
        {
          "indexed": true,
          "internalType": "address",
          "name": "pool",
          "type": "address"
        },
        {
          "indexed": true,
          "internalType": "uint256",
          "name": "tokenId",
          "type": "uint256"
        },
        {
          "indexed": false,
          "internalType": "uint256",
          "name": "weight",
          "type": "uint256"
        },
        {
          "indexed": false,
          "internalType": "uint256",
          "name": "totalWeight",
          "type": "uint256"
        },
        {
          "indexed": false,
          "internalType": "uint256",
          "name": "timestamp",
          "type": "uint256"
        }
      ],
      "name": "Voted",
      "type": "event"
    },
    {
      "anonymous": false,
      "inputs": [
        {
          "indexed": true,
          "internalType": "address",
          "name": "whitelister",
          "type": "address"
        },
        {
          "indexed": true,
          "internalType": "uint256",
          "name": "tokenId",
          "type": "uint256"
        },
        {
          "indexed": true,
          "internalType": "bool",
          "name": "_bool",
          "type": "bool"
        }
      ],
      "name": "WhitelistNFT",
      "type": "event"
    },
    {
      "anonymous": false,
      "inputs": [
        {
          "indexed": true,
          "internalType": "address",
          "name": "whitelister",
          "type": "address"
        },
        {
          "indexed": true,
          "internalType": "address",
          "name": "token",
          "type": "address"
        },
        {
          "indexed": true,
          "internalType": "bool",
          "name": "_bool",
          "type": "bool"
        }
      ],
      "name": "WhitelistToken",
      "type": "event"
    },
    {
      "inputs": [
        {
          "internalType": "address[]",
          "name": "_bribes",
          "type": "address[]"
        },
        {
          "internalType": "address[][]",
          "name": "_tokens",
          "type": "address[][]"
        },
        {
          "internalType": "uint256",
          "name": "_tokenId",
          "type": "uint256"
        }
      ],
      "name": "claimBribes",
      "outputs": [],
      "stateMutability": "nonpayable",
      "type": "function"
    },
    {
      "inputs": [
        {
          "internalType": "address[]",
          "name": "_fees",
          "type": "address[]"
        },
        {
          "internalType": "address[][]",
          "name": "_tokens",
          "type": "address[][]"
        },
        {
          "internalType": "uint256",
          "name": "_tokenId",
          "type": "uint256"
        }
      ],
      "name": "claimFees",
      "outputs": [],
      "stateMutability": "nonpayable",
      "type": "function"
    },
    {
      "inputs": [
        {
          "internalType": "address[]",
          "name": "_gauges",
          "type": "address[]"
        }
      ],
      "name": "claimRewards",
      "outputs": [],
      "stateMutability": "nonpayable",
      "type": "function"
    },
    {
      "inputs": [
        {
          "internalType": "address",
          "name": "",
          "type": "address"
        }
      ],
      "name": "claimable",
      "outputs": [
        {
          "internalType": "uint256",
          "name": "",
          "type": "uint256"
        }
      ],
      "stateMutability": "view",
      "type": "function"
    },
    {
      "inputs": [
        {
          "internalType": "address",
          "name": "_poolFactory",
          "type": "address"
        },
        {
          "internalType": "address",
          "name": "_pool",
          "type": "address"
        }
      ],
      "name": "createGauge",
      "outputs": [
        {
          "internalType": "address",
          "name": "",
          "type": "address"
        }
      ],
      "stateMutability": "nonpayable",
      "type": "function"
    },
    {
      "inputs": [
        {
          "internalType": "uint256",
          "name": "_tokenId",
          "type": "uint256"
        },
        {
          "internalType": "uint256",
          "name": "_mTokenId",
          "type": "uint256"
        }
      ],
      "name": "depositManaged",
      "outputs": [],
      "stateMutability": "nonpayable",
      "type": "function"
    },
    {
      "inputs": [
        {
          "internalType": "address[]",
          "name": "_gauges",
          "type": "address[]"
        }
      ],
      "name": "distribute",
      "outputs": [],
      "stateMutability": "nonpayable",
      "type": "function"
    },
    {
      "inputs": [
        {
          "internalType": "uint256",
          "name": "_start",
          "type": "uint256"
        },
        {
          "internalType": "uint256",
          "name": "_finish",
          "type": "uint256"
        }
      ],
      "name": "distribute",
      "outputs": [],
      "stateMutability": "nonpayable",
      "type": "function"
    },
    {
      "inputs": [],
      "name": "emergencyCouncil",
      "outputs": [
        {
          "internalType": "address",
          "name": "",
          "type": "address"
        }
      ],
      "stateMutability": "view",
      "type": "function"
    },
    {
      "inputs": [],
      "name": "epochGovernor",
      "outputs": [
        {
          "internalType": "address",
          "name": "",
          "type": "address"
        }
      ],
      "stateMutability": "view",
      "type": "function"
    },
    {
      "inputs": [
        {
          "internalType": "uint256",
          "name": "_timestamp",
          "type": "uint256"
        }
      ],
      "name": "epochNext",
      "outputs": [
        {
          "internalType": "uint256",
          "name": "",
          "type": "uint256"
        }
      ],
      "stateMutability": "pure",
      "type": "function"
    },
    {
      "inputs": [
        {
          "internalType": "uint256",
          "name": "_timestamp",
          "type": "uint256"
        }
      ],
      "name": "epochStart",
      "outputs": [
        {
          "internalType": "uint256",
          "name": "",
          "type": "uint256"
        }
      ],
      "stateMutability": "pure",
      "type": "function"
    },
    {
      "inputs": [
        {
          "internalType": "uint256",
          "name": "_timestamp",
          "type": "uint256"
        }
      ],
      "name": "epochVoteEnd",
      "outputs": [
        {
          "internalType": "uint256",
          "name": "",
          "type": "uint256"
        }
      ],
      "stateMutability": "pure",
      "type": "function"
    },
    {
      "inputs": [
        {
          "internalType": "uint256",
          "name": "_timestamp",
          "type": "uint256"
        }
      ],
      "name": "epochVoteStart",
      "outputs": [
        {
          "internalType": "uint256",
          "name": "",
          "type": "uint256"
        }
      ],
      "stateMutability": "pure",
      "type": "function"
    },
    {
      "inputs": [],
      "name": "factoryRegistry",
      "outputs": [
        {
          "internalType": "address",
          "name": "",
          "type": "address"
        }
      ],
      "stateMutability": "view",
      "type": "function"
    },
    {
      "inputs": [],
      "name": "forwarder",
      "outputs": [
        {
          "internalType": "address",
          "name": "",
          "type": "address"
        }
      ],
      "stateMutability": "view",
      "type": "function"
    },
    {
      "inputs": [
        {
          "internalType": "address",
          "name": "",
          "type": "address"
        }
      ],
      "name": "gaugeToBribe",
      "outputs": [
        {
          "internalType": "address",
          "name": "",
          "type": "address"
        }
      ],
      "stateMutability": "view",
      "type": "function"
    },
    {
      "inputs": [
        {
          "internalType": "address",
          "name": "",
          "type": "address"
        }
      ],
      "name": "gaugeToFees",
      "outputs": [
        {
          "internalType": "address",
          "name": "",
          "type": "address"
        }
      ],
      "stateMutability": "view",
      "type": "function"
    },
    {
      "inputs": [
        {
          "internalType": "address",
          "name": "",
          "type": "address"
        }
      ],
      "name": "gauges",
      "outputs": [
        {
          "internalType": "address",
          "name": "",
          "type": "address"
        }
      ],
      "stateMutability": "view",
      "type": "function"
    },
    {
      "inputs": [],
      "name": "governor",
      "outputs": [
        {
          "internalType": "address",
          "name": "",
          "type": "address"
        }
      ],
      "stateMutability": "view",
      "type": "function"
    },
    {
      "inputs": [
        {
          "internalType": "address[]",
          "name": "_tokens",
          "type": "address[]"
        },
        {
          "internalType": "address",
          "name": "_splitter",
          "type": "address"
        }
      ],
      "name": "initialize",
      "outputs": [],
      "stateMutability": "nonpayable",
      "type": "function"
    },
    {
      "inputs": [
        {
          "internalType": "address",
          "name": "",
          "type": "address"
        }
      ],
      "name": "isAlive",
      "outputs": [
        {
          "internalType": "bool",
          "name": "",
          "type": "bool"
        }
      ],
      "stateMutability": "view",
      "type": "function"
    },
    {
      "inputs": [
        {
          "internalType": "address",
          "name": "",
          "type": "address"
        }
      ],
      "name": "isGauge",
      "outputs": [
        {
          "internalType": "bool",
          "name": "",
          "type": "bool"
        }
      ],
      "stateMutability": "view",
      "type": "function"
    },
    {
      "inputs": [
        {
          "internalType": "address",
          "name": "forwarder",
          "type": "address"
        }
      ],
      "name": "isTrustedForwarder",
      "outputs": [
        {
          "internalType": "bool",
          "name": "",
          "type": "bool"
        }
      ],
      "stateMutability": "view",
      "type": "function"
    },
    {
      "inputs": [
        {
          "internalType": "uint256",
          "name": "",
          "type": "uint256"
        }
      ],
      "name": "isWhitelistedNFT",
      "outputs": [
        {
          "internalType": "bool",
          "name": "",
          "type": "bool"
        }
      ],
      "stateMutability": "view",
      "type": "function"
    },
    {
      "inputs": [
        {
          "internalType": "address",
          "name": "",
          "type": "address"
        }
      ],
      "name": "isWhitelistedToken",
      "outputs": [
        {
          "internalType": "bool",
          "name": "",
          "type": "bool"
        }
      ],
      "stateMutability": "view",
      "type": "function"
    },
    {
      "inputs": [
        {
          "internalType": "address",
          "name": "_gauge",
          "type": "address"
        }
      ],
      "name": "killGauge",
      "outputs": [],
      "stateMutability": "nonpayable",
      "type": "function"
    },
    {
      "inputs": [
        {
          "internalType": "uint256",
          "name": "",
          "type": "uint256"
        }
      ],
      "name": "lastVoted",
      "outputs": [
        {
          "internalType": "uint256",
          "name": "",
          "type": "uint256"
        }
      ],
      "stateMutability": "view",
      "type": "function"
    },
    {
      "inputs": [],
      "name": "length",
      "outputs": [
        {
          "internalType": "uint256",
          "name": "",
          "type": "uint256"
        }
      ],
      "stateMutability": "view",
      "type": "function"
    },
    {
      "inputs": [],
      "name": "maxVotingNum",
      "outputs": [
        {
          "internalType": "uint256",
          "name": "",
          "type": "uint256"
        }
      ],
      "stateMutability": "view",
      "type": "function"
    },
    {
      "inputs": [
        {
          "internalType": "uint256",
          "name": "_amount",
          "type": "uint256"
        }
      ],
      "name": "notifyRewardAmount",
      "outputs": [],
      "stateMutability": "nonpayable",
      "type": "function"
    },
    {
      "inputs": [
        {
          "internalType": "uint256",
          "name": "_tokenId",
          "type": "uint256"
        }
      ],
      "name": "poke",
      "outputs": [],
      "stateMutability": "nonpayable",
      "type": "function"
    },
    {
      "inputs": [
        {
          "internalType": "address",
          "name": "",
          "type": "address"
        }
      ],
      "name": "poolForGauge",
      "outputs": [
        {
          "internalType": "address",
          "name": "",
          "type": "address"
        }
      ],
      "stateMutability": "view",
      "type": "function"
    },
    {
      "inputs": [
        {
          "internalType": "uint256",
          "name": "",
          "type": "uint256"
        },
        {
          "internalType": "uint256",
          "name": "",
          "type": "uint256"
        }
      ],
      "name": "poolVote",
      "outputs": [
        {
          "internalType": "address",
          "name": "",
          "type": "address"
        }
      ],
      "stateMutability": "view",
      "type": "function"
    },
    {
      "inputs": [
        {
          "internalType": "uint256",
          "name": "",
          "type": "uint256"
        }
      ],
      "name": "pools",
      "outputs": [
        {
          "internalType": "address",
          "name": "",
          "type": "address"
        }
      ],
      "stateMutability": "view",
      "type": "function"
    },
    {
      "inputs": [
        {
          "internalType": "uint256",
          "name": "_tokenId",
          "type": "uint256"
        }
      ],
      "name": "reset",
      "outputs": [],
      "stateMutability": "nonpayable",
      "type": "function"
    },
    {
      "inputs": [
        {
          "internalType": "address",
          "name": "_gauge",
          "type": "address"
        }
      ],
      "name": "reviveGauge",
      "outputs": [],
      "stateMutability": "nonpayable",
      "type": "function"
    },
    {
      "inputs": [
        {
          "internalType": "address",
          "name": "_council",
          "type": "address"
        }
      ],
      "name": "setEmergencyCouncil",
      "outputs": [],
      "stateMutability": "nonpayable",
      "type": "function"
    },
    {
      "inputs": [
        {
          "internalType": "address",
          "name": "_epochGovernor",
          "type": "address"
        }
      ],
      "name": "setEpochGovernor",
      "outputs": [],
      "stateMutability": "nonpayable",
      "type": "function"
    },
    {
      "inputs": [
        {
          "internalType": "address",
          "name": "_governor",
          "type": "address"
        }
      ],
      "name": "setGovernor",
      "outputs": [],
      "stateMutability": "nonpayable",
      "type": "function"
    },
    {
      "inputs": [
        {
          "internalType": "uint256",
          "name": "_maxVotingNum",
          "type": "uint256"
        }
      ],
      "name": "setMaxVotingNum",
      "outputs": [],
      "stateMutability": "nonpayable",
      "type": "function"
    },
    {
      "inputs": [],
      "name": "splitter",
      "outputs": [
        {
          "internalType": "address",
          "name": "",
          "type": "address"
        }
      ],
      "stateMutability": "view",
      "type": "function"
    },
    {
      "inputs": [],
      "name": "totalWeight",
      "outputs": [
        {
          "internalType": "uint256",
          "name": "",
          "type": "uint256"
        }
      ],
      "stateMutability": "view",
      "type": "function"
    },
    {
      "inputs": [
        {
          "internalType": "address",
          "name": "_gauge",
          "type": "address"
        }
      ],
      "name": "updateFor",
      "outputs": [],
      "stateMutability": "nonpayable",
      "type": "function"
    },
    {
      "inputs": [
        {
          "internalType": "uint256",
          "name": "start",
          "type": "uint256"
        },
        {
          "internalType": "uint256",
          "name": "end",
          "type": "uint256"
        }
      ],
      "name": "updateFor",
      "outputs": [],
      "stateMutability": "nonpayable",
      "type": "function"
    },
    {
      "inputs": [
        {
          "internalType": "address[]",
          "name": "_gauges",
          "type": "address[]"
        }
      ],
      "name": "updateFor",
      "outputs": [],
      "stateMutability": "nonpayable",
      "type": "function"
    },
    {
      "inputs": [
        {
          "internalType": "uint256",
          "name": "",
          "type": "uint256"
        }
      ],
      "name": "usedWeights",
      "outputs": [
        {
          "internalType": "uint256",
          "name": "",
          "type": "uint256"
        }
      ],
      "stateMutability": "view",
      "type": "function"
    },
    {
      "inputs": [],
      "name": "ve",
      "outputs": [
        {
          "internalType": "address",
          "name": "",
          "type": "address"
        }
      ],
      "stateMutability": "view",
      "type": "function"
    },
    {
      "inputs": [
        {
          "internalType": "uint256",
          "name": "_tokenId",
          "type": "uint256"
        },
        {
          "internalType": "address[]",
          "name": "_poolVote",
          "type": "address[]"
        },
        {
          "internalType": "uint256[]",
          "name": "_weights",
          "type": "uint256[]"
        }
      ],
      "name": "vote",
      "outputs": [],
      "stateMutability": "nonpayable",
      "type": "function"
    },
    {
      "inputs": [
        {
          "internalType": "uint256",
          "name": "",
          "type": "uint256"
        },
        {
          "internalType": "address",
          "name": "",
          "type": "address"
        }
      ],
      "name": "votes",
      "outputs": [
        {
          "internalType": "uint256",
          "name": "",
          "type": "uint256"
        }
      ],
      "stateMutability": "view",
      "type": "function"
    },
    {
      "inputs": [
        {
          "internalType": "address",
          "name": "",
          "type": "address"
        }
      ],
      "name": "weights",
      "outputs": [
        {
          "internalType": "uint256",
          "name": "",
          "type": "uint256"
        }
      ],
      "stateMutability": "view",
      "type": "function"
    },
    {
      "inputs": [
        {
          "internalType": "uint256",
          "name": "_tokenId",
          "type": "uint256"
        },
        {
          "internalType": "bool",
          "name": "_bool",
          "type": "bool"
        }
      ],
      "name": "whitelistNFT",
      "outputs": [],
      "stateMutability": "nonpayable",
      "type": "function"
    },
    {
      "inputs": [
        {
          "internalType": "address",
          "name": "_token",
          "type": "address"
        },
        {
          "internalType": "bool",
          "name": "_bool",
          "type": "bool"
        }
      ],
      "name": "whitelistToken",
      "outputs": [],
      "stateMutability": "nonpayable",
      "type": "function"
    },
    {
      "inputs": [
        {
          "internalType": "uint256",
          "name": "_tokenId",
          "type": "uint256"
        }
      ],
      "name": "withdrawManaged",
      "outputs": [],
      "stateMutability": "nonpayable",
      "type": "function"
    }
  ],
  "transactionHash": "0xd05cd19c493b0fc81be6613e2721e9bf9204484f2e3e082cb410104cd2ad97d6",
  "args": [
    "0x5fA3D34F6c1537A0393098F0e124064B66cE8E24",
    "0xB63fcCd03521Cf21907627bd7fA465C129479231",
    "0x1Ecd87C8D510A7390a561AE0Ac54FBe7e5125BcF"
  ],
  "numDeployments": 1,
  "solcInputHash": "ba27fe5e205cd6b887b14614de0cce2b",
  "bytecode": "0x6101206040523480156200001257600080fd5b506040516200439638038062004396833981016040819052620000359162000169565b6001600160a01b038084166080819052600160005560a05282811660c081905290821660e05260408051637e062a3560e11b8152905163fc0c546a916004808201926020929091908290030181865afa15801562000097573d6000803e3d6000fd5b505050506040513d601f19601f82011682018060405250810190620000bd9190620001b3565b6001600160a01b0316610100526000620000d662000124565b600180546001600160a01b039092166001600160a01b031992831681179091556002805483168217905560038054831682179055600480549092161790555050601e60065550620001d89050565b6080516000906001600160a01b0316330362000147575060131936013560601c90565b503390565b80516001600160a01b03811681146200016457600080fd5b919050565b6000806000606084860312156200017f57600080fd5b6200018a846200014c565b92506200019a602085016200014c565b9150620001aa604085016200014c565b90509250925092565b600060208284031215620001c657600080fd5b620001d1826200014c565b9392505050565b60805160a05160c05160e051610100516140bc620002da60003960008181610e5f01528181610ed4015281816119e801528181612113015281816129dd015281816130b0015261313e0152600081816104440152818161154301526116140152600081816103ab0152818161097f01528181610a7701528181610b7601528181610c4201528181610cce01528181610d5001528181611167015281816113b701528181611d7501528181611e6501528181611f65015281816124990152818161254601528181612633015281816126b501528181612d9101526135cf0152600081816107e70152818161191a01526119b001526000610fec01526140bc6000f3fe608060405234801561001057600080fd5b50600436106102e25760003560e01c80637ac09bf711610188578063c42cf535116100e4578063e0c11f9a11610092578063e0c11f9a14610780578063e2819d5c14610793578063e586875f146107a6578063e8b3fd57146107b9578063f3594be0146107c2578063f645d4f9146107e2578063f9f031df1461080957600080fd5b8063c42cf535146106bd578063c4f08165146106d0578063c9ff6f4d146106f9578063d23254b41461070c578063d4e2616f14610737578063d560b0d71461075a578063d58b15d41461076d57600080fd5b8063a7cac84611610141578063a7cac846146105f5578063a86a366d14610615578063aa79979b14610628578063aa9354a31461064b578063ab37f4861461065e578063ac4afa3814610681578063b9a09fd51461069457600080fd5b80637ac09bf714610577578063880e36fc1461058a578063929c8dcd1461059d57806396c82e57146105c6578063992a7933146105cf5780639f06247b146105e257600080fd5b80633bf0c9fb116102425780636138889b116101f05780636138889b146104e5578063666256aa146104f85780637625391a1461050b5780637715ee751461051e5780637778960e14610531578063794cea3c1461054457806379e938241461055757600080fd5b80633bf0c9fb1461043f5780633c6b16ab146104665780633cd8045e14610479578063402914f51461048c578063462d0b2e146104ac578063572b6c05146104bf578063598d521b146104d257600080fd5b80631f8507161161029f5780631f850716146103a657806330331b2f146103cd578063310bd74b146103e057806332145f90146103f3578063370fb5fa1461040657806339e9f3b6146104195780633aae971f1461042c57600080fd5b806306d6a1b2146102e75780630c340a24146103265780630e0a5968146103395780630ffb1d8b1461034e5780631703e5f9146103615780631f7b6d3214610394575b600080fd5b6103106102f5366004613a35565b6009602052600090815260409020546001600160a01b031681565b60405161031d9190613a52565b60405180910390f35b600254610310906001600160a01b031681565b61034c610347366004613a35565b61081c565b005b61034c61035c366004613a74565b610828565b61038461036f366004613a35565b60146020526000908152604090205460ff1681565b604051901515815260200161031d565b6007545b60405190815260200161031d565b6103107f000000000000000000000000000000000000000000000000000000000000000081565b61034c6103db366004613aad565b610871565b61034c6103ee366004613aad565b6108f5565b61034c610401366004613aad565b610a29565b61034c610414366004613aad565b610b01565b610398610427366004613aad565b610e02565b600354610310906001600160a01b031681565b6103107f000000000000000000000000000000000000000000000000000000000000000081565b61034c610474366004613aad565b610e17565b600154610310906001600160a01b031681565b61039861049a366004613a35565b60176020526000908152604090205481565b61034c6104ba366004613b11565b610f44565b6103846104cd366004613a35565b610fea565b61034c6104e0366004613a35565b61101c565b61034c6104f3366004613c48565b6110a0565b61034c610506366004613c7c565b611165565b61034c610519366004613d58565b6112cc565b61034c61052c366004613c7c565b6113b5565b600454610310906001600160a01b031681565b610310610552366004613d7a565b611515565b610398610565366004613aad565b600f6020526000908152604090205481565b61034c610585366004613da8565b611cde565b610398610598366004613aad565b61205e565b6103106105ab366004613a35565b600b602052600090815260409020546001600160a01b031681565b61039860055481565b61034c6105dd366004613a35565b61206f565b61034c6105f0366004613a35565b6121a0565b610398610603366004613a35565b600c6020526000908152604090205481565b610310610623366004613d58565b612261565b610384610636366004613a35565b60116020526000908152604090205460ff1681565b610398610659366004613aad565b612299565b61038461066c366004613a35565b60126020526000908152604090205460ff1681565b61031061068f366004613aad565b6122a8565b6103106106a2366004613a35565b6008602052600090815260409020546001600160a01b031681565b61034c6106cb366004613a35565b6122d2565b6103106106de366004613a35565b600a602052600090815260409020546001600160a01b031681565b61034c610707366004613d58565b612356565b61039861071a366004613e21565b600d60209081526000928352604080842090915290825290205481565b610384610745366004613aad565b60136020526000908152604090205460ff1681565b61034c610768366004613c48565b6123b7565b61039861077b366004613aad565b6123ee565b61034c61078e366004613d58565b612402565b61034c6107a1366004613e46565b612743565b61034c6107b4366004613a35565b6127d5565b61039860065481565b6103986107d0366004613aad565b60106020526000908152604090205481565b6103107f000000000000000000000000000000000000000000000000000000000000000081565b61034c610817366004613c48565b612859565b610825816128f0565b50565b6002546001600160a01b031661083c612a30565b6001600160a01b03161461086357604051633b8d9d7560e21b815260040160405180910390fd5b61086d8282612a52565b5050565b6002546001600160a01b0316610885612a30565b6001600160a01b0316146108ac57604051633b8d9d7560e21b815260040160405180910390fd5b600a8110156108ce57604051632db4ddc160e11b815260040160405180910390fd5b60065481036108f05760405163c23f6ccb60e01b815260040160405180910390fd5b600655565b60008181526010602052604090205481906109154262093a808106900390565b116109335760405163cade311f60e01b815260040160405180910390fd5b62093a80429081069003610e1001421161096057604051635a780bad60e01b815260040160405180910390fd5b610968612abb565b60405163430c208160e01b81526001600160a01b037f0000000000000000000000000000000000000000000000000000000000000000169063430c2081906109b69033908690600401613e6b565b6020604051808303816000875af11580156109d5573d6000803e3d6000fd5b505050506040513d601f19601f820116820180604052508101906109f99190613e84565b610a165760405163390cdd9b60e21b815260040160405180910390fd5b610a1f82612b19565b61086d6001600055565b610a31612abb565b62093a80429081069003610e10014211610a5e57604051635a780bad60e01b815260040160405180910390fd5b6040516339f890b560e21b8152600481018290526000907f00000000000000000000000000000000000000000000000000000000000000006001600160a01b03169063e7e242d490602401602060405180830381865afa158015610ac6573d6000803e3d6000fd5b505050506040513d601f19601f82011682018060405250810190610aea9190613ea1565b9050610af68282612e36565b506108256001600055565b610b09612abb565b6000818152601060205260409020548190610b294262093a808106900390565b11610b475760405163cade311f60e01b815260040160405180910390fd5b62093a80429081069003610e10014211610b7457604051635a780bad60e01b815260040160405180910390fd5b7f00000000000000000000000000000000000000000000000000000000000000006001600160a01b031663430c2081610bab612a30565b846040518363ffffffff1660e01b8152600401610bc9929190613e6b565b6020604051808303816000875af1158015610be8573d6000803e3d6000fd5b505050506040513d601f19601f82011682018060405250810190610c0c9190613e84565b610c295760405163390cdd9b60e21b815260040160405180910390fd5b6040516319a0a9d560e01b8152600481018390526000907f00000000000000000000000000000000000000000000000000000000000000006001600160a01b0316906319a0a9d590602401602060405180830381865afa158015610c91573d6000803e3d6000fd5b505050506040513d601f19601f82011682018060405250810190610cb59190613ea1565b604051631b87dafd60e11b8152600481018590529091507f00000000000000000000000000000000000000000000000000000000000000006001600160a01b03169063370fb5fa90602401600060405180830381600087803b158015610d1a57600080fd5b505af1158015610d2e573d6000803e3d6000fd5b5050604051637028a55d60e11b815260048101849052426024820152600092507f00000000000000000000000000000000000000000000000000000000000000006001600160a01b0316915063e0514aba90604401602060405180830381865afa158015610da0573d6000803e3d6000fd5b505050506040513d601f19601f82011682018060405250810190610dc49190613ea1565b905080600003610deb57610dd782612b19565b600082815260106020526040812055610df5565b610df58282612e36565b5050506108256001600055565b600062093a8082068203610e10015b92915050565b6000610e21612a30565b6001549091506001600160a01b03808316911614610e525760405163e5eca0d160e01b815260040160405180910390fd5b610e876001600160a01b037f000000000000000000000000000000000000000000000000000000000000000016823085612f76565b6000610e966005546001612fe1565b610ea884670de0b6b3a7640000613ed0565b610eb29190613ee7565b90508015610ed2578060156000828254610ecc9190613f09565b90915550505b7f00000000000000000000000000000000000000000000000000000000000000006001600160a01b0316826001600160a01b03167ff70d5c697de7ea828df48e5c4573cb2194c659f1901f70110c52b066dcf5082685604051610f3791815260200190565b60405180910390a3505050565b6001546001600160a01b0316610f58612a30565b6001600160a01b031614610f7f5760405163e5eca0d160e01b815260040160405180910390fd5b8160005b81811015610fc457610fbc858583818110610fa057610fa0613f1c565b9050602002016020810190610fb59190613a35565b6001612a52565b600101610f83565b5050600180546001600160a01b0319166001600160a01b03929092169190911790555050565b7f00000000000000000000000000000000000000000000000000000000000000006001600160a01b0390811691161490565b6002546001600160a01b0316611030612a30565b6001600160a01b03161461105757604051633b8d9d7560e21b815260040160405180910390fd5b6001600160a01b03811661107e5760405163d92e233d60e01b815260040160405180910390fd5b600380546001600160a01b0319166001600160a01b0392909216919091179055565b6110a8612abb565b600160009054906101000a90046001600160a01b03166001600160a01b031663a83627de6040518163ffffffff1660e01b81526004016020604051808303816000875af11580156110fd573d6000803e3d6000fd5b505050506040513d601f19601f820116820180604052508101906111219190613ea1565b50805160005b818110156111595761115183828151811061114457611144613f1c565b6020026020010151612ff9565b600101611127565b50506108256001600055565b7f00000000000000000000000000000000000000000000000000000000000000006001600160a01b031663430c208161119c612a30565b836040518363ffffffff1660e01b81526004016111ba929190613e6b565b6020604051808303816000875af11580156111d9573d6000803e3d6000fd5b505050506040513d601f19601f820116820180604052508101906111fd9190613e84565b61121a5760405163390cdd9b60e21b815260040160405180910390fd5b825160005b818110156112c55784818151811061123957611239613f1c565b60200260200101516001600160a01b031663f5f8d3658486848151811061126257611262613f1c565b60200260200101516040518363ffffffff1660e01b8152600401611287929190613f77565b600060405180830381600087803b1580156112a157600080fd5b505af11580156112b5573d6000803e3d6000fd5b50506001909201915061121f9050565b5050505050565b6112d4612abb565b600160009054906101000a90046001600160a01b03166001600160a01b031663a83627de6040518163ffffffff1660e01b81526004016020604051808303816000875af1158015611329573d6000803e3d6000fd5b505050506040513d601f19601f8201168201806040525081019061134d9190613ea1565b50815b818110156113aa576113a2600860006007848154811061137257611372613f1c565b60009182526020808320909101546001600160a01b03908116845290830193909352604090910190205416612ff9565b600101611350565b5061086d6001600055565b7f00000000000000000000000000000000000000000000000000000000000000006001600160a01b031663430c20816113ec612a30565b836040518363ffffffff1660e01b815260040161140a929190613e6b565b6020604051808303816000875af1158015611429573d6000803e3d6000fd5b505050506040513d601f19601f8201168201806040525081019061144d9190613e84565b61146a5760405163390cdd9b60e21b815260040160405180910390fd5b825160005b818110156112c55784818151811061148957611489613f1c565b60200260200101516001600160a01b031663f5f8d365848684815181106114b2576114b2613f1c565b60200260200101516040518363ffffffff1660e01b81526004016114d7929190613f77565b600060405180830381600087803b1580156114f157600080fd5b505af1158015611505573d6000803e3d6000fd5b50506001909201915061146f9050565b600061151f612abb565b6000611529612a30565b60405163d1ea0a1d60e01b81529091506001600160a01b037f0000000000000000000000000000000000000000000000000000000000000000169063d1ea0a1d90611578908790600401613a52565b602060405180830381865afa158015611595573d6000803e3d6000fd5b505050506040513d601f19601f820116820180604052508101906115b99190613e84565b6115d657604051634fe2017f60e01b815260040160405180910390fd5b6001600160a01b03838116600090815260086020526040902054161561160f576040516348fe415b60e11b815260040160405180910390fd5b6000807f00000000000000000000000000000000000000000000000000000000000000006001600160a01b0316631217afdb876040518263ffffffff1660e01b815260040161165e9190613a52565b6040805180830381865afa15801561167a573d6000803e3d6000fd5b505050506040513d601f19601f8201168201806040525081019061169e9190613f90565b604080516002808252606082018352939550919350600092906020830190803683375050604051635b16ebb760e01b81529192506000916001600160a01b038a169150635b16ebb7906116f5908a90600401613a52565b602060405180830381865afa158015611712573d6000803e3d6000fd5b505050506040513d601f19601f820116820180604052508101906117369190613e84565b9050600080821561187257886001600160a01b0316630dfe16816040518163ffffffff1660e01b8152600401602060405180830381865afa15801561177f573d6000803e3d6000fd5b505050506040513d601f19601f820116820180604052508101906117a39190613fbf565b9150886001600160a01b031663d21220a76040518163ffffffff1660e01b8152600401602060405180830381865afa1580156117e3573d6000803e3d6000fd5b505050506040513d601f19601f820116820180604052508101906118079190613fbf565b9050818460008151811061181d5761181d613f1c565b60200260200101906001600160a01b031690816001600160a01b031681525050808460018151811061185157611851613f1c565b60200260200101906001600160a01b031690816001600160a01b0316815250505b6002546001600160a01b0388811691161461190457826118a557604051632bab424160e01b815260040160405180910390fd5b6001600160a01b03821660009081526012602052604090205460ff1615806118e657506001600160a01b03811660009081526012602052604090205460ff16155b15611904576040516365a9cebb60e01b815260040160405180910390fd5b5050600080856001600160a01b0316634c455a977f0000000000000000000000000000000000000000000000000000000000000000866040518363ffffffff1660e01b8152600401611957929190613fdc565b60408051808303816000875af1158015611975573d6000803e3d6000fd5b505050506040513d601f19601f820116820180604052508101906119999190613f90565b6040516322a60f9560e21b81526001600160a01b037f0000000000000000000000000000000000000000000000000000000000000000811660048301528c8116602483015283811660448301527f0000000000000000000000000000000000000000000000000000000000000000811660648301528615156084830152929450909250600091871690638a983e549060a4016020604051808303816000875af1158015611a4a573d6000803e3d6000fd5b505050506040513d601f19601f82011682018060405250810190611a6e9190613fbf565b905082600a6000836001600160a01b03166001600160a01b0316815260200190815260200160002060006101000a8154816001600160a01b0302191690836001600160a01b0316021790555081600b6000836001600160a01b03166001600160a01b0316815260200190815260200160002060006101000a8154816001600160a01b0302191690836001600160a01b0316021790555080600860008c6001600160a01b03166001600160a01b0316815260200190815260200160002060006101000a8154816001600160a01b0302191690836001600160a01b031602179055508960096000836001600160a01b03166001600160a01b0316815260200190815260200160002060006101000a8154816001600160a01b0302191690836001600160a01b03160217905550600160116000836001600160a01b03166001600160a01b0316815260200190815260200160002060006101000a81548160ff021916908315150217905550600160146000836001600160a01b03166001600160a01b0316815260200190815260200160002060006101000a81548160ff021916908315150217905550611c1d816128f0565b600780546001810182556000919091527fa66cc928b5edb82af9bd49922954155ab7b0942694bea4ce44661d9a8736c6880180546001600160a01b0319166001600160a01b038c811691821790925560408051918252848316602083015285831690820152828216606082015289821660808201528782169189811691908e16907fef9f7d1ffff3b249c6b9bf2528499e935f7d96bb6d6ec4e7da504d1d3c6279e19060a00160405180910390a4975050505050505050610e116001600055565b6000858152601060205260409020548590611cfe4262093a808106900390565b11611d1c5760405163cade311f60e01b815260040160405180910390fd5b62093a80429081069003610e10014211611d4957604051635a780bad60e01b815260040160405180910390fd5b611d51612abb565b6000611d5b612a30565b60405163430c208160e01b81529091506001600160a01b037f0000000000000000000000000000000000000000000000000000000000000000169063430c208190611dac9084908b90600401613e6b565b6020604051808303816000875af1158015611dcb573d6000803e3d6000fd5b505050506040513d601f19601f82011682018060405250810190611def9190613e84565b611e0c5760405163390cdd9b60e21b815260040160405180910390fd5b848314611e2c5760405163332ac86360e21b815260040160405180910390fd5b600654851115611e4f5760405163ebcfae4b60e01b815260040160405180910390fd5b604051632a266cdb60e21b8152600481018890527f00000000000000000000000000000000000000000000000000000000000000006001600160a01b03169063a899b36c90602401602060405180830381865afa158015611eb4573d6000803e3d6000fd5b505050506040513d601f19601f82011682018060405250810190611ed89190613e84565b15611ef6576040516308910b2560e01b815260040160405180910390fd5b4262093a808106810362092c700181118015611f21575060008881526013602052604090205460ff16155b15611f3f57604051630392978d60e41b815260040160405180910390fd5b600088815260106020526040808220839055516339f890b560e21b8152600481018a90527f00000000000000000000000000000000000000000000000000000000000000006001600160a01b03169063e7e242d490602401602060405180830381865afa158015611fb4573d6000803e3d6000fd5b505050506040513d601f19601f82011682018060405250810190611fd89190613ea1565b905061204989828a8a8080602002602001604051908101604052809392919081815260200183836020028082843760009201919091525050604080516020808e0282810182019093528d82529093508d92508c9182918501908490808284376000920191909152506131c092505050565b5050506120566001600055565b505050505050565b600062093a80808306830301610e11565b6004546001600160a01b0316612083612a30565b6001600160a01b0316146120aa5760405163c560129360e01b815260040160405180910390fd5b6001600160a01b03811660009081526014602052604090205460ff166120e357604051633f88da5160e21b815260040160405180910390fd5b6001600160a01b03811660009081526017602052604090205480156121565760015461213c906001600160a01b037f00000000000000000000000000000000000000000000000000000000000000008116911683613666565b6001600160a01b0382166000908152601760205260408120555b6001600160a01b038216600081815260146020526040808220805460ff19169055517f04a5d3f5d80d22d9345acc80618f4a4e7e663cf9e1aed23b57d975acec002ba79190a25050565b6004546001600160a01b03166121b4612a30565b6001600160a01b0316146121db5760405163c560129360e01b815260040160405180910390fd5b6001600160a01b03811660009081526014602052604090205460ff161561221557604051635f5a482960e11b815260040160405180910390fd5b6001600160a01b038116600081815260146020526040808220805460ff19166001179055517fed18e9faa3dccfd8aa45f69c4de40546b2ca9cccc4538a2323531656516db1aa9190a250565b600e602052816000526040600020818154811061227d57600080fd5b6000918252602090912001546001600160a01b03169150829050565b600062093a8082068203610e11565b600781815481106122b857600080fd5b6000918252602090912001546001600160a01b0316905081565b6002546001600160a01b03166122e6612a30565b6001600160a01b03161461230d57604051633b8d9d7560e21b815260040160405180910390fd5b6001600160a01b0381166123345760405163d92e233d60e01b815260040160405180910390fd5b600280546001600160a01b0319166001600160a01b0392909216919091179055565b815b818110156123b2576123aa600860006007848154811061237a5761237a613f1c565b60009182526020808320909101546001600160a01b039081168452908301939093526040909101902054166128f0565b600101612358565b505050565b805160005b818110156123b2576123e68382815181106123d9576123d9613f1c565b60200260200101516128f0565b6001016123bc565b600062093a808206820362092c7001610e11565b61240a612abb565b600082815260106020526040902054829061242a4262093a808106900390565b116124485760405163cade311f60e01b815260040160405180910390fd5b62093a80429081069003610e1001421161247557604051635a780bad60e01b815260040160405180910390fd5b600061247f612a30565b60405163430c208160e01b81529091506001600160a01b037f0000000000000000000000000000000000000000000000000000000000000000169063430c2081906124d09084908890600401613e6b565b6020604051808303816000875af11580156124ef573d6000803e3d6000fd5b505050506040513d601f19601f820116820180604052508101906125139190613e84565b6125305760405163390cdd9b60e21b815260040160405180910390fd5b604051632a266cdb60e21b8152600481018490527f00000000000000000000000000000000000000000000000000000000000000006001600160a01b03169063a899b36c90602401602060405180830381865afa158015612595573d6000803e3d6000fd5b505050506040513d601f19601f820116820180604052508101906125b99190613e84565b156125d7576040516308910b2560e01b815260040160405180910390fd5b4262093a808106810362092c700181111561260557604051631f3ecf5b60e21b815260040160405180910390fd5b60008581526010602052604090819020829055516370608fcd60e11b815260048101869052602481018590527f00000000000000000000000000000000000000000000000000000000000000006001600160a01b03169063e0c11f9a90604401600060405180830381600087803b15801561267f57600080fd5b505af1158015612693573d6000803e3d6000fd5b5050604051637028a55d60e11b815260048101879052426024820152600092507f00000000000000000000000000000000000000000000000000000000000000006001600160a01b0316915063e0514aba90604401602060405180830381865afa158015612705573d6000803e3d6000fd5b505050506040513d601f19601f820116820180604052508101906127299190613ea1565b90506127358582612e36565b5050505061086d6001600055565b600061274d612a30565b6002549091506001600160a01b0380831691161461277e57604051633b8d9d7560e21b815260040160405180910390fd5b600083815260136020526040808220805460ff19168515159081179091559051909185916001600160a01b038516917f8a6ff732c8641e1e34d771e1f8b1673e988c1abdfb694ebdf6c910a5e3d0d85391a4505050565b6004546001600160a01b03166127e9612a30565b6001600160a01b0316146128105760405163c560129360e01b815260040160405180910390fd5b6001600160a01b0381166128375760405163d92e233d60e01b815260040160405180910390fd5b600480546001600160a01b0319166001600160a01b0392909216919091179055565b805160005b818110156123b25782818151811061287857612878613f1c565b60200260200101516001600160a01b031663c00007b0612896612a30565b6040518263ffffffff1660e01b81526004016128b29190613a52565b600060405180830381600087803b1580156128cc57600080fd5b505af11580156128e0573d6000803e3d6000fd5b50506001909201915061285e9050565b6001600160a01b03808216600090815260096020908152604080832054909316808352600c909152919020548015612a0f576001600160a01b03831660009081526016602052604081208054601554918290559161294e8383614000565b90508015612056576000670de0b6b3a764000061296b8387613ed0565b6129759190613ee7565b6001600160a01b03881660009081526014602052604090205490915060ff16156129cc576001600160a01b038716600090815260176020526040812080548392906129c1908490613f09565b90915550612a069050565b600154612a06906001600160a01b037f00000000000000000000000000000000000000000000000000000000000000008116911683613666565b50505050505050565b6015546001600160a01b038416600090815260166020526040902055505050565b6000612a3b33610fea565b15612a4d575060131936013560601c90565b503390565b6001600160a01b0382166000818152601260205260409020805460ff191683151590811790915590612a82612a30565b6001600160a01b03167f44948130cf88523dbc150908a47dd6332c33a01a3869d7f2fa78e51d5a5f9c5760405160405180910390a45050565b600260005403612b125760405162461bcd60e51b815260206004820152601f60248201527f5265656e7472616e637947756172643a207265656e7472616e742063616c6c0060448201526064015b60405180910390fd5b6002600055565b6000818152600e6020526040812080549091805b82811015612d73576000848281548110612b4957612b49613f1c565b6000918252602080832090910154888352600d825260408084206001600160a01b03909216808552919092529120549091508015612d69576001600160a01b03808316600090815260086020526040902054612ba591166128f0565b6001600160a01b0382166000908152600c602052604081208054839290612bcd908490614000565b90915550506000878152600d602090815260408083206001600160a01b038681168552908352818420849055600883528184205481168452600a9092529182902054915163278afc8b60e21b815260048101849052602481018a9052911690639e2bf22c90604401600060405180830381600087803b158015612c4f57600080fd5b505af1158015612c63573d6000803e3d6000fd5b505050506001600160a01b0382811660009081526008602090815260408083205484168352600b9091529081902054905163278afc8b60e21b815260048101849052602481018a9052911690639e2bf22c90604401600060405180830381600087803b158015612cd257600080fd5b505af1158015612ce6573d6000803e3d6000fd5b505050508084612cf69190613f09565b935086826001600160a01b0316612d0b612a30565b6001600160a01b038581166000908152600c6020908152604091829020548251888152918201524281830152905192909116917fadab630928b1d46214641293704a312ee7ad87e03ae14a7fd95e7308b93998df9181900360600190a45b5050600101612b2d565b50604051632d27a2cd60e11b815260048101859052600060248201527f00000000000000000000000000000000000000000000000000000000000000006001600160a01b031690635a4f459a90604401600060405180830381600087803b158015612ddd57600080fd5b505af1158015612df1573d6000803e3d6000fd5b505050508060056000828254612e079190614000565b90915550506000848152600f60209081526040808320839055600e9091528120612e30916139ee565b50505050565b6000828152600e6020908152604080832080548251818502810185019093528083529192909190830182828015612e9657602002820191906000526020600020905b81546001600160a01b03168152600190910190602001808311612e78575b505050505090506000815190506000816001600160401b03811115612ebd57612ebd613b67565b604051908082528060200260200182016040528015612ee6578160200160208202803683370190505b50905060005b82811015612f6957600d60008781526020019081526020016000206000858381518110612f1b57612f1b613f1c565b60200260200101516001600160a01b03166001600160a01b0316815260200190815260200160002054828281518110612f5657612f56613f1c565b6020908102919091010152600101612eec565b506112c5858585846131c0565b6040516001600160a01b0380851660248301528316604482015260648101829052612e309085906323b872dd60e01b906084015b60408051601f198184030181529190526020810180516001600160e01b03166001600160e01b031990931692909217909152613685565b6000818311612ff05781612ff2565b825b9392505050565b613002816128f0565b6001600160a01b0381166000818152601760209081526040918290205482516302dcc80960e31b815292519093926316e640489260048083019391928290030181865afa158015613057573d6000803e3d6000fd5b505050506040513d601f19601f8201168201806040525081019061307b9190613ea1565b8111801561308b575062093a8081115b1561086d576001600160a01b038083166000908152601760205260408120556130d7907f000000000000000000000000000000000000000000000000000000000000000016838361375a565b604051633c6b16ab60e01b8152600481018290526001600160a01b03831690633c6b16ab90602401600060405180830381600087803b15801561311957600080fd5b505af115801561312d573d6000803e3d6000fd5b506131689250506001600160a01b037f000000000000000000000000000000000000000000000000000000000000000016905083600061375a565b816001600160a01b031661317a612a30565b6001600160a01b03167f4fa9693cae526341d334e2862ca2413b2e503f1266255f9e0869fb36e6d89b17836040516131b491815260200190565b60405180910390a35050565b6131c984612b19565b815160008080805b84811015613208578581815181106131eb576131eb613f1c565b6020026020010151846131fe9190613f09565b93506001016131d1565b5060005b848110156135ab57600087828151811061322857613228613f1c565b6020908102919091018101516001600160a01b038082166000908152600890935260409092205490925016806132735781604051634c89018560e01b8152600401612b099190613a52565b6001600160a01b03811660009081526014602052604090205460ff166132ae57806040516302b0b9ed60e61b8152600401612b099190613a52565b6001600160a01b03811660009081526011602052604090205460ff16156135a1576000868b8a86815181106132e5576132e5613f1c565b60200260200101516132f79190613ed0565b6133019190613ee7565b60008d8152600d602090815260408083206001600160a01b0388168452909152902054909150156133455760405163315f6a3d60e01b815260040160405180910390fd5b806000036133665760405163334ab3f560e11b815260040160405180910390fd5b61336f826128f0565b60008c8152600e6020908152604080832080546001810182559084528284200180546001600160a01b0319166001600160a01b0388169081179091558352600c909152812080548392906133c4908490613f09565b909155505060008c8152600d602090815260408083206001600160a01b0387168452909152812080548392906133fb908490613f09565b90915550506001600160a01b038083166000908152600a60205260409081902054905163f320772360e01b815260048101849052602481018f905291169063f320772390604401600060405180830381600087803b15801561345c57600080fd5b505af1158015613470573d6000803e3d6000fd5b50505050600b6000836001600160a01b03166001600160a01b0316815260200190815260200160002060009054906101000a90046001600160a01b03166001600160a01b031663f3207723828e6040518363ffffffff1660e01b81526004016134e3929190918252602082015260400190565b600060405180830381600087803b1580156134fd57600080fd5b505af1158015613511573d6000803e3d6000fd5b5050505080856135219190613f09565b945061352d8187613f09565b95508b836001600160a01b0316613542612a30565b6001600160a01b038681166000908152600c6020908152604091829020548251888152918201524281830152905192909116917f452d440efc30dfa14a0ef803ccb55936af860ec6a6960ed27f129bef913f296a9181900360600190a4505b505060010161320c565b50801561363457604051632d27a2cd60e11b815260048101899052600160248201527f00000000000000000000000000000000000000000000000000000000000000006001600160a01b031690635a4f459a90604401600060405180830381600087803b15801561361b57600080fd5b505af115801561362f573d6000803e3d6000fd5b505050505b81600560008282546136469190613f09565b90915550506000978852600f602052604090972096909655505050505050565b6123b28363a9059cbb60e01b8484604051602401612faa929190613e6b565b60006136da826040518060400160405280602081526020017f5361666545524332303a206c6f772d6c6576656c2063616c6c206661696c6564815250856001600160a01b031661385e9092919063ffffffff16565b90508051600014806136fb5750808060200190518101906136fb9190613e84565b6123b25760405162461bcd60e51b815260206004820152602a60248201527f5361666545524332303a204552433230206f7065726174696f6e20646964206e6044820152691bdd081cdd58d8d9595960b21b6064820152608401612b09565b8015806137d45750604051636eb1769f60e11b81523060048201526001600160a01b03838116602483015284169063dd62ed3e90604401602060405180830381865afa1580156137ae573d6000803e3d6000fd5b505050506040513d601f19601f820116820180604052508101906137d29190613ea1565b155b61383f5760405162461bcd60e51b815260206004820152603660248201527f5361666545524332303a20617070726f76652066726f6d206e6f6e2d7a65726f60448201527520746f206e6f6e2d7a65726f20616c6c6f77616e636560501b6064820152608401612b09565b6123b28363095ea7b360e01b8484604051602401612faa929190613e6b565b606061386d8484600085613875565b949350505050565b6060824710156138d65760405162461bcd60e51b815260206004820152602660248201527f416464726573733a20696e73756666696369656e742062616c616e636520666f6044820152651c8818d85b1b60d21b6064820152608401612b09565b600080866001600160a01b031685876040516138f29190614037565b60006040518083038185875af1925050503d806000811461392f576040519150601f19603f3d011682016040523d82523d6000602084013e613934565b606091505b509150915061394587838387613950565b979650505050505050565b606083156139bf5782516000036139b8576001600160a01b0385163b6139b85760405162461bcd60e51b815260206004820152601d60248201527f416464726573733a2063616c6c20746f206e6f6e2d636f6e74726163740000006044820152606401612b09565b508161386d565b61386d83838151156139d45781518083602001fd5b8060405162461bcd60e51b8152600401612b099190614053565b508054600082559060005260206000209081019061082591905b80821115613a1c5760008155600101613a08565b5090565b6001600160a01b038116811461082557600080fd5b600060208284031215613a4757600080fd5b8135612ff281613a20565b6001600160a01b0391909116815260200190565b801515811461082557600080fd5b60008060408385031215613a8757600080fd5b8235613a9281613a20565b91506020830135613aa281613a66565b809150509250929050565b600060208284031215613abf57600080fd5b5035919050565b60008083601f840112613ad857600080fd5b5081356001600160401b03811115613aef57600080fd5b6020830191508360208260051b8501011115613b0a57600080fd5b9250929050565b600080600060408486031215613b2657600080fd5b83356001600160401b03811115613b3c57600080fd5b613b4886828701613ac6565b9094509250506020840135613b5c81613a20565b809150509250925092565b634e487b7160e01b600052604160045260246000fd5b604051601f8201601f191681016001600160401b0381118282101715613ba557613ba5613b67565b604052919050565b60006001600160401b03821115613bc657613bc6613b67565b5060051b60200190565b600082601f830112613be157600080fd5b81356020613bf6613bf183613bad565b613b7d565b8083825260208201915060208460051b870101935086841115613c1857600080fd5b602086015b84811015613c3d578035613c3081613a20565b8352918301918301613c1d565b509695505050505050565b600060208284031215613c5a57600080fd5b81356001600160401b03811115613c7057600080fd5b61386d84828501613bd0565b600080600060608486031215613c9157600080fd5b83356001600160401b0380821115613ca857600080fd5b613cb487838801613bd0565b9450602091508186013581811115613ccb57600080fd5b8601601f81018813613cdc57600080fd5b8035613cea613bf182613bad565b81815260059190911b8201840190848101908a831115613d0957600080fd5b8584015b83811015613d4157803586811115613d255760008081fd5b613d338d8983890101613bd0565b845250918601918601613d0d565b50979a979950505050604095909501359450505050565b60008060408385031215613d6b57600080fd5b50508035926020909101359150565b60008060408385031215613d8d57600080fd5b8235613d9881613a20565b91506020830135613aa281613a20565b600080600080600060608688031215613dc057600080fd5b8535945060208601356001600160401b0380821115613dde57600080fd5b613dea89838a01613ac6565b90965094506040880135915080821115613e0357600080fd5b50613e1088828901613ac6565b969995985093965092949392505050565b60008060408385031215613e3457600080fd5b823591506020830135613aa281613a20565b60008060408385031215613e5957600080fd5b823591506020830135613aa281613a66565b6001600160a01b03929092168252602082015260400190565b600060208284031215613e9657600080fd5b8151612ff281613a66565b600060208284031215613eb357600080fd5b5051919050565b634e487b7160e01b600052601160045260246000fd5b8082028115828204841417610e1157610e11613eba565b600082613f0457634e487b7160e01b600052601260045260246000fd5b500490565b80820180821115610e1157610e11613eba565b634e487b7160e01b600052603260045260246000fd5b60008151808452602080850194506020840160005b83811015613f6c5781516001600160a01b031687529582019590820190600101613f47565b509495945050505050565b82815260406020820152600061386d6040830184613f32565b60008060408385031215613fa357600080fd5b8251613fae81613a20565b6020840151909250613aa281613a20565b600060208284031215613fd157600080fd5b8151612ff281613a20565b6001600160a01b038316815260406020820181905260009061386d90830184613f32565b81810381811115610e1157610e11613eba565b60005b8381101561402e578181015183820152602001614016565b50506000910152565b60008251614049818460208701614013565b9190910192915050565b6020815260008251806020840152614072816040850160208701614013565b601f01601f1916919091016040019291505056fea2646970667358221220f34d43889e6b28a77bed06da9450f1da1a0fa82c2127de9d48de1d5ec6bebc7a64736f6c63430008180033",
  "devdoc": {
    "author": "velodrome.finance, @figs999, @pegahcarter",
    "kind": "dev",
    "methods": {
      "claimBribes(address[],address[][],uint256)": {
        "details": "Utility to help batch bribe claims.",
        "params": {
          "_bribes": "Array of BribeVotingReward contracts to collect from.",
          "_tokenId": "Id of veNFT that you wish to claim bribes for.",
          "_tokens": "Array of tokens that are used as bribes."
        }
      },
      "claimFees(address[],address[][],uint256)": {
        "details": "Utility to help batch fee claims.",
        "params": {
          "_fees": "Array of FeesVotingReward contracts to collect from.",
          "_tokenId": "Id of veNFT that you wish to claim fees for.",
          "_tokens": "Array of tokens that are used as fees."
        }
      },
      "claimRewards(address[])": {
        "params": {
          "_gauges": "Array of gauges to collect emissions from."
        }
      },
      "createGauge(address,address)": {
        "details": "Governor can create a new gauge for a pool with any address.",
        "params": {
          "_pool": ".",
          "_poolFactory": "."
        }
      },
      "depositManaged(uint256,uint256)": {
        "details": "Throws if not approved or owner.      Throws if managed NFT is inactive.      Throws if depositing within privileged window (one hour prior to epoch flip)."
      },
      "distribute(address[])": {
        "details": "Utility to distribute to gauges of pools in array.",
        "params": {
          "_gauges": "Array of gauges to distribute to."
        }
      },
      "distribute(uint256,uint256)": {
        "details": "Utility to distribute to gauges of pools in range _start to _finish.",
        "params": {
          "_finish": "Ending index of gauges to distribute to.",
          "_start": "Starting index of gauges to distribute to."
        }
      },
      "initialize(address[],address)": {
        "details": "requires initialization with at least rewardToken"
      },
      "killGauge(address)": {
        "details": "Throws if not called by emergency council.      Throws if gauge already killed.",
        "params": {
          "_gauge": "."
        }
      },
      "notifyRewardAmount(uint256)": {
        "details": "Assumes totalWeight != 0 (Will never be zero as long as users are voting).      Throws if not called by splitter.",
        "params": {
          "_amount": "Amount of rewards to distribute."
        }
      },
      "poke(uint256)": {
        "params": {
          "_tokenId": "Id of veNFT whose balance you wish to update."
        }
      },
      "reset(uint256)": {
        "params": {
          "_tokenId": "Id of veNFT you are reseting."
        }
      },
      "reviveGauge(address)": {
        "details": "Throws if not called by emergency council.      Throws if gauge is not killed.",
        "params": {
          "_gauge": "."
        }
      },
      "setEmergencyCouncil(address)": {
        "details": "Throws if not called by emergency council.",
        "params": {
          "_emergencyCouncil": "."
        }
      },
      "setEpochGovernor(address)": {
        "details": "Throws if not called by governor.",
        "params": {
          "_epochGovernor": "."
        }
      },
      "setGovernor(address)": {
        "details": "Throws if not called by governor.",
        "params": {
          "_governor": "."
        }
      },
      "setMaxVotingNum(uint256)": {
        "details": "Throws if not called by governor.      Throws if _maxVotingNum is too low.      Throws if the values are the same.",
        "params": {
          "_maxVotingNum": "."
        }
      },
      "updateFor(address)": {
        "details": "Update claims to emissions for single gauge",
        "params": {
          "_gauge": "."
        }
      },
      "updateFor(address[])": {
        "details": "Update claims to emissions for an array of gauges.",
        "params": {
          "_gauges": "Array of gauges to update emissions for."
        }
      },
      "updateFor(uint256,uint256)": {
        "details": "Update claims to emissions for gauges based on their pool id as stored in Voter.",
        "params": {
          "_end": "Ending index of pools.",
          "_start": "Starting index of pools."
        }
      },
      "vote(uint256,address[],uint256[])": {
        "details": "Weights are distributed proportional to the sum of the weights in the array.      Throws if length of _poolVote and _weights do not match.",
        "params": {
          "_poolVote": "Array of pools you are voting for.",
          "_tokenId": "Id of veNFT you are voting with.",
          "_weights": "Weights of pools."
        }
      },
      "whitelistNFT(uint256,bool)": {
        "details": "Throws if not called by governor.      Throws if already whitelisted.",
        "params": {
          "_bool": ".",
          "_tokenId": "."
        }
      },
      "whitelistToken(address,bool)": {
        "details": "Throws if not called by governor.",
        "params": {
          "_bool": ".",
          "_token": "."
        }
      }
    },
    "stateVariables": {
      "claimable": {
        "details": "Gauge => Amount claimable"
      },
      "gaugeToBribe": {
        "details": "Gauge => Bribes Voting Reward"
      },
      "gaugeToFees": {
        "details": "Gauge => Fees Voting Reward"
      },
      "gauges": {
        "details": "Pool => Gauge"
      },
      "index": {
        "details": "Accumulated distributions per vote"
      },
      "isAlive": {
        "details": "Gauge => Liveness status"
      },
      "isGauge": {
        "details": "Address => Gauge"
      },
      "isWhitelistedNFT": {
        "details": "TokenId => Whitelisted status"
      },
      "isWhitelistedToken": {
        "details": "Token => Whitelisted status"
      },
      "lastVoted": {
        "details": "Nft => Timestamp of last vote (ensures single vote per epoch)"
      },
      "maxVotingNum": {
        "details": "Most number of pools one voter can vote for at once"
      },
      "poolForGauge": {
        "details": "Gauge => Pool"
      },
      "poolVote": {
        "details": "NFT => List of pools voted for by NFT"
      },
      "pools": {
        "details": "All pools viable for incentives"
      },
      "supplyIndex": {
        "details": "Gauge => Accumulated gauge distributions"
      },
      "totalWeight": {
        "details": "Total Voting Weights"
      },
      "usedWeights": {
        "details": "NFT => Total voting weight of NFT"
      },
      "votes": {
        "details": "NFT => Pool => Votes"
      },
      "weights": {
        "details": "Pool => Weights"
      }
    },
    "title": "Protocol Voter",
    "version": 1
  },
  "userdoc": {
    "kind": "user",
    "methods": {
      "claimBribes(address[],address[][],uint256)": {
        "notice": "Claim bribes for a given NFT."
      },
      "claimFees(address[],address[][],uint256)": {
        "notice": "Claim fees for a given NFT."
      },
      "claimRewards(address[])": {
        "notice": "Claim emissions from gauges."
      },
      "createGauge(address,address)": {
        "notice": "Create a new gauge (unpermissioned)."
      },
      "depositManaged(uint256,uint256)": {
        "notice": "Called by users to deposit into a managed NFT.         Can only vote or deposit into a managed NFT once per epoch.         Note that NFTs deposited into a managed NFT will be re-locked         to the maximum lock time on withdrawal."
      },
      "emergencyCouncil()": {
        "notice": "credibly neutral party similar to Curve's Emergency DAO"
      },
      "epochGovernor()": {
        "notice": "Custom Epoch Governor using ve for vote weights."
      },
      "factoryRegistry()": {
        "notice": "Factory registry for valid pool / gauge / rewards factories"
      },
      "forwarder()": {
        "notice": "Store trusted forwarder address to pass into factories"
      },
      "governor()": {
        "notice": "Standard OZ IGovernor using ve for vote weights."
      },
      "killGauge(address)": {
        "notice": "Kills a gauge. The gauge will not receive any new emissions and cannot be deposited into.         Can still withdraw from gauge."
      },
      "length()": {
        "notice": "Number of pools with a Gauge"
      },
      "notifyRewardAmount(uint256)": {
        "notice": "Called by Splitter to distribute weekly emissions rewards for disbursement amongst gauges."
      },
      "poke(uint256)": {
        "notice": "Called by users to update voting balances in voting rewards contracts."
      },
      "reset(uint256)": {
        "notice": "Called by users to reset voting state. Required if you wish to make changes to         veNFT state (e.g. merge, split, deposit into managed etc).         Cannot reset in the same epoch that you voted in.         Can vote or deposit into a managed NFT again after reset."
      },
      "reviveGauge(address)": {
        "notice": "Revives a killed gauge. Gauge will can receive emissions and deposits again."
      },
      "setEmergencyCouncil(address)": {
        "notice": "Set new emergency council."
      },
      "setEpochGovernor(address)": {
        "notice": "Set new epoch based governor."
      },
      "setGovernor(address)": {
        "notice": "Set new governor."
      },
      "setMaxVotingNum(uint256)": {
        "notice": "Set maximum number of gauges that can be voted for."
      },
      "splitter()": {
        "notice": "Address of a splitter contract"
      },
      "ve()": {
        "notice": "The ve token that governs these contracts"
      },
      "vote(uint256,address[],uint256[])": {
        "notice": "Called by users to vote for pools. Votes distributed proportionally based on weights.         Can only vote or deposit into a managed NFT once per epoch.         Can only vote for gauges that have not been killed."
      },
      "whitelistNFT(uint256,bool)": {
        "notice": "Whitelist (or unwhitelist) token id for voting in last hour prior to epoch flip."
      },
      "whitelistToken(address,bool)": {
        "notice": "Whitelist (or unwhitelist) token for use in bribes."
      },
      "withdrawManaged(uint256)": {
        "notice": "Called by users to withdraw from a managed NFT.         Cannot do it in the same epoch that you deposited into a managed NFT.         Can vote or deposit into a managed NFT again after withdrawing.         Note that the NFT withdrawn is re-locked to the maximum lock time."
      }
    },
    "notice": "Manage votes, emission distribution, and gauge creation within the Protocol's ecosystem.         Also provides support for depositing and withdrawing from managed veNFTs.",
    "version": 1
  },
  "storageLayout": {
    "storage": [
      {
        "astId": 2014,
        "contract": "contracts/Voter.sol:Voter",
        "label": "_status",
        "offset": 0,
        "slot": "0",
        "type": "t_uint256"
      },
      {
        "astId": 11602,
        "contract": "contracts/Voter.sol:Voter",
        "label": "splitter",
        "offset": 0,
        "slot": "1",
        "type": "t_address"
      },
      {
        "astId": 11605,
        "contract": "contracts/Voter.sol:Voter",
        "label": "governor",
        "offset": 0,
        "slot": "2",
        "type": "t_address"
      },
      {
        "astId": 11608,
        "contract": "contracts/Voter.sol:Voter",
        "label": "epochGovernor",
        "offset": 0,
        "slot": "3",
        "type": "t_address"
      },
      {
        "astId": 11611,
        "contract": "contracts/Voter.sol:Voter",
        "label": "emergencyCouncil",
        "offset": 0,
        "slot": "4",
        "type": "t_address"
      },
      {
        "astId": 11614,
        "contract": "contracts/Voter.sol:Voter",
        "label": "totalWeight",
        "offset": 0,
        "slot": "5",
        "type": "t_uint256"
      },
      {
        "astId": 11617,
        "contract": "contracts/Voter.sol:Voter",
        "label": "maxVotingNum",
        "offset": 0,
        "slot": "6",
        "type": "t_uint256"
      },
      {
        "astId": 11624,
        "contract": "contracts/Voter.sol:Voter",
        "label": "pools",
        "offset": 0,
        "slot": "7",
        "type": "t_array(t_address)dyn_storage"
      },
      {
        "astId": 11629,
        "contract": "contracts/Voter.sol:Voter",
        "label": "gauges",
        "offset": 0,
        "slot": "8",
        "type": "t_mapping(t_address,t_address)"
      },
      {
        "astId": 11634,
        "contract": "contracts/Voter.sol:Voter",
        "label": "poolForGauge",
        "offset": 0,
        "slot": "9",
        "type": "t_mapping(t_address,t_address)"
      },
      {
        "astId": 11639,
        "contract": "contracts/Voter.sol:Voter",
        "label": "gaugeToFees",
        "offset": 0,
        "slot": "10",
        "type": "t_mapping(t_address,t_address)"
      },
      {
        "astId": 11644,
        "contract": "contracts/Voter.sol:Voter",
        "label": "gaugeToBribe",
        "offset": 0,
        "slot": "11",
        "type": "t_mapping(t_address,t_address)"
      },
      {
        "astId": 11649,
        "contract": "contracts/Voter.sol:Voter",
        "label": "weights",
        "offset": 0,
        "slot": "12",
        "type": "t_mapping(t_address,t_uint256)"
      },
      {
        "astId": 11656,
        "contract": "contracts/Voter.sol:Voter",
        "label": "votes",
        "offset": 0,
        "slot": "13",
        "type": "t_mapping(t_uint256,t_mapping(t_address,t_uint256))"
      },
      {
        "astId": 11662,
        "contract": "contracts/Voter.sol:Voter",
        "label": "poolVote",
        "offset": 0,
        "slot": "14",
        "type": "t_mapping(t_uint256,t_array(t_address)dyn_storage)"
      },
      {
        "astId": 11667,
        "contract": "contracts/Voter.sol:Voter",
        "label": "usedWeights",
        "offset": 0,
        "slot": "15",
        "type": "t_mapping(t_uint256,t_uint256)"
      },
      {
        "astId": 11672,
        "contract": "contracts/Voter.sol:Voter",
        "label": "lastVoted",
        "offset": 0,
        "slot": "16",
        "type": "t_mapping(t_uint256,t_uint256)"
      },
      {
        "astId": 11677,
        "contract": "contracts/Voter.sol:Voter",
        "label": "isGauge",
        "offset": 0,
        "slot": "17",
        "type": "t_mapping(t_address,t_bool)"
      },
      {
        "astId": 11682,
        "contract": "contracts/Voter.sol:Voter",
        "label": "isWhitelistedToken",
        "offset": 0,
        "slot": "18",
        "type": "t_mapping(t_address,t_bool)"
      },
      {
        "astId": 11687,
        "contract": "contracts/Voter.sol:Voter",
        "label": "isWhitelistedNFT",
        "offset": 0,
        "slot": "19",
        "type": "t_mapping(t_uint256,t_bool)"
      },
      {
        "astId": 11692,
        "contract": "contracts/Voter.sol:Voter",
        "label": "isAlive",
        "offset": 0,
        "slot": "20",
        "type": "t_mapping(t_address,t_bool)"
      },
      {
        "astId": 11695,
        "contract": "contracts/Voter.sol:Voter",
        "label": "index",
        "offset": 0,
        "slot": "21",
        "type": "t_uint256"
      },
      {
        "astId": 11700,
        "contract": "contracts/Voter.sol:Voter",
        "label": "supplyIndex",
        "offset": 0,
        "slot": "22",
        "type": "t_mapping(t_address,t_uint256)"
      },
      {
        "astId": 11705,
        "contract": "contracts/Voter.sol:Voter",
        "label": "claimable",
        "offset": 0,
        "slot": "23",
        "type": "t_mapping(t_address,t_uint256)"
      }
    ],
    "types": {
      "t_address": {
        "encoding": "inplace",
        "label": "address",
        "numberOfBytes": "20"
      },
      "t_array(t_address)dyn_storage": {
        "base": "t_address",
        "encoding": "dynamic_array",
        "label": "address[]",
        "numberOfBytes": "32"
      },
      "t_bool": {
        "encoding": "inplace",
        "label": "bool",
        "numberOfBytes": "1"
      },
      "t_mapping(t_address,t_address)": {
        "encoding": "mapping",
        "key": "t_address",
        "label": "mapping(address => address)",
        "numberOfBytes": "32",
        "value": "t_address"
      },
      "t_mapping(t_address,t_bool)": {
        "encoding": "mapping",
        "key": "t_address",
        "label": "mapping(address => bool)",
        "numberOfBytes": "32",
        "value": "t_bool"
      },
      "t_mapping(t_address,t_uint256)": {
        "encoding": "mapping",
        "key": "t_address",
        "label": "mapping(address => uint256)",
        "numberOfBytes": "32",
        "value": "t_uint256"
      },
      "t_mapping(t_uint256,t_array(t_address)dyn_storage)": {
        "encoding": "mapping",
        "key": "t_uint256",
        "label": "mapping(uint256 => address[])",
        "numberOfBytes": "32",
        "value": "t_array(t_address)dyn_storage"
      },
      "t_mapping(t_uint256,t_bool)": {
        "encoding": "mapping",
        "key": "t_uint256",
        "label": "mapping(uint256 => bool)",
        "numberOfBytes": "32",
        "value": "t_bool"
      },
      "t_mapping(t_uint256,t_mapping(t_address,t_uint256))": {
        "encoding": "mapping",
        "key": "t_uint256",
        "label": "mapping(uint256 => mapping(address => uint256))",
        "numberOfBytes": "32",
        "value": "t_mapping(t_address,t_uint256)"
      },
      "t_mapping(t_uint256,t_uint256)": {
        "encoding": "mapping",
        "key": "t_uint256",
        "label": "mapping(uint256 => uint256)",
        "numberOfBytes": "32",
        "value": "t_uint256"
      },
      "t_uint256": {
        "encoding": "inplace",
        "label": "uint256",
        "numberOfBytes": "32"
      }
    }
  }
}