{
  "address": "0x12fda93041aD8aB6d133aE4d038b5159033d937a",
  "abi": [
    {
      "inputs": [
        {
          "internalType": "address",
          "name": "_forwarder",
          "type": "address"
        },
        {
          "internalType": "contract IVotes",
          "name": "_ve",
          "type": "address"
        },
        {
          "internalType": "address",
          "name": "_splitter",
          "type": "address"
        }
      ],
      "stateMutability": "nonpayable",
      "type": "constructor"
    },
    {
      "inputs": [],
      "name": "InvalidShortString",
      "type": "error"
    },
    {
      "inputs": [
        {
          "internalType": "string",
          "name": "str",
          "type": "string"
        }
      ],
      "name": "StringTooLong",
      "type": "error"
    },
    {
      "anonymous": false,
      "inputs": [],
      "name": "EIP712DomainChanged",
      "type": "event"
    },
    {
      "anonymous": false,
      "inputs": [
        {
          "indexed": false,
          "internalType": "uint256",
          "name": "proposalId",
          "type": "uint256"
        }
      ],
      "name": "ProposalCanceled",
      "type": "event"
    },
    {
      "anonymous": false,
      "inputs": [
        {
          "indexed": false,
          "internalType": "uint256",
          "name": "proposalId",
          "type": "uint256"
        },
        {
          "indexed": false,
          "internalType": "address",
          "name": "proposer",
          "type": "address"
        },
        {
          "indexed": false,
          "internalType": "address[]",
          "name": "targets",
          "type": "address[]"
        },
        {
          "indexed": false,
          "internalType": "uint256[]",
          "name": "values",
          "type": "uint256[]"
        },
        {
          "indexed": false,
          "internalType": "string[]",
          "name": "signatures",
          "type": "string[]"
        },
        {
          "indexed": false,
          "internalType": "bytes[]",
          "name": "calldatas",
          "type": "bytes[]"
        },
        {
          "indexed": false,
          "internalType": "uint256",
          "name": "voteStart",
          "type": "uint256"
        },
        {
          "indexed": false,
          "internalType": "uint256",
          "name": "voteEnd",
          "type": "uint256"
        },
        {
          "indexed": false,
          "internalType": "string",
          "name": "description",
          "type": "string"
        }
      ],
      "name": "ProposalCreated",
      "type": "event"
    },
    {
      "anonymous": false,
      "inputs": [
        {
          "indexed": false,
          "internalType": "uint256",
          "name": "proposalId",
          "type": "uint256"
        }
      ],
      "name": "ProposalExecuted",
      "type": "event"
    },
    {
      "anonymous": false,
      "inputs": [
        {
          "indexed": true,
          "internalType": "address",
          "name": "voter",
          "type": "address"
        },
        {
          "indexed": true,
          "internalType": "uint256",
          "name": "tokenId",
          "type": "uint256"
        },
        {
          "indexed": false,
          "internalType": "uint256",
          "name": "proposalId",
          "type": "uint256"
        },
        {
          "indexed": false,
          "internalType": "uint8",
          "name": "support",
          "type": "uint8"
        },
        {
          "indexed": false,
          "internalType": "uint256",
          "name": "weight",
          "type": "uint256"
        },
        {
          "indexed": false,
          "internalType": "string",
          "name": "reason",
          "type": "string"
        }
      ],
      "name": "VoteCast",
      "type": "event"
    },
    {
      "anonymous": false,
      "inputs": [
        {
          "indexed": true,
          "internalType": "address",
          "name": "voter",
          "type": "address"
        },
        {
          "indexed": true,
          "internalType": "uint256",
          "name": "tokenId",
          "type": "uint256"
        },
        {
          "indexed": false,
          "internalType": "uint256",
          "name": "proposalId",
          "type": "uint256"
        },
        {
          "indexed": false,
          "internalType": "uint8",
          "name": "support",
          "type": "uint8"
        },
        {
          "indexed": false,
          "internalType": "uint256",
          "name": "weight",
          "type": "uint256"
        },
        {
          "indexed": false,
          "internalType": "string",
          "name": "reason",
          "type": "string"
        },
        {
          "indexed": false,
          "internalType": "bytes",
          "name": "params",
          "type": "bytes"
        }
      ],
      "name": "VoteCastWithParams",
      "type": "event"
    },
    {
      "inputs": [],
      "name": "BALLOT_TYPEHASH",
      "outputs": [
        {
          "internalType": "bytes32",
          "name": "",
          "type": "bytes32"
        }
      ],
      "stateMutability": "view",
      "type": "function"
    },
    {
      "inputs": [],
      "name": "CLOCK_MODE",
      "outputs": [
        {
          "internalType": "string",
          "name": "",
          "type": "string"
        }
      ],
      "stateMutability": "view",
      "type": "function"
    },
    {
      "inputs": [],
      "name": "COUNTING_MODE",
      "outputs": [
        {
          "internalType": "string",
          "name": "",
          "type": "string"
        }
      ],
      "stateMutability": "pure",
      "type": "function"
    },
    {
      "inputs": [],
      "name": "EXTENDED_BALLOT_TYPEHASH",
      "outputs": [
        {
          "internalType": "bytes32",
          "name": "",
          "type": "bytes32"
        }
      ],
      "stateMutability": "view",
      "type": "function"
    },
    {
      "inputs": [
        {
          "internalType": "uint256",
          "name": "proposalId",
          "type": "uint256"
        },
        {
          "internalType": "uint256",
          "name": "tokenId",
          "type": "uint256"
        },
        {
          "internalType": "uint8",
          "name": "support",
          "type": "uint8"
        }
      ],
      "name": "castVote",
      "outputs": [
        {
          "internalType": "uint256",
          "name": "",
          "type": "uint256"
        }
      ],
      "stateMutability": "nonpayable",
      "type": "function"
    },
    {
      "inputs": [
        {
          "internalType": "uint256",
          "name": "proposalId",
          "type": "uint256"
        },
        {
          "internalType": "uint256",
          "name": "tokenId",
          "type": "uint256"
        },
        {
          "internalType": "uint8",
          "name": "support",
          "type": "uint8"
        },
        {
          "internalType": "uint8",
          "name": "v",
          "type": "uint8"
        },
        {
          "internalType": "bytes32",
          "name": "r",
          "type": "bytes32"
        },
        {
          "internalType": "bytes32",
          "name": "s",
          "type": "bytes32"
        }
      ],
      "name": "castVoteBySig",
      "outputs": [
        {
          "internalType": "uint256",
          "name": "",
          "type": "uint256"
        }
      ],
      "stateMutability": "nonpayable",
      "type": "function"
    },
    {
      "inputs": [
        {
          "internalType": "uint256",
          "name": "proposalId",
          "type": "uint256"
        },
        {
          "internalType": "uint256",
          "name": "tokenId",
          "type": "uint256"
        },
        {
          "internalType": "uint8",
          "name": "support",
          "type": "uint8"
        },
        {
          "internalType": "string",
          "name": "reason",
          "type": "string"
        }
      ],
      "name": "castVoteWithReason",
      "outputs": [
        {
          "internalType": "uint256",
          "name": "",
          "type": "uint256"
        }
      ],
      "stateMutability": "nonpayable",
      "type": "function"
    },
    {
      "inputs": [
        {
          "internalType": "uint256",
          "name": "proposalId",
          "type": "uint256"
        },
        {
          "internalType": "uint256",
          "name": "tokenId",
          "type": "uint256"
        },
        {
          "internalType": "uint8",
          "name": "support",
          "type": "uint8"
        },
        {
          "internalType": "string",
          "name": "reason",
          "type": "string"
        },
        {
          "internalType": "bytes",
          "name": "params",
          "type": "bytes"
        }
      ],
      "name": "castVoteWithReasonAndParams",
      "outputs": [
        {
          "internalType": "uint256",
          "name": "",
          "type": "uint256"
        }
      ],
      "stateMutability": "nonpayable",
      "type": "function"
    },
    {
      "inputs": [
        {
          "internalType": "uint256",
          "name": "proposalId",
          "type": "uint256"
        },
        {
          "internalType": "uint256",
          "name": "tokenId",
          "type": "uint256"
        },
        {
          "internalType": "uint8",
          "name": "support",
          "type": "uint8"
        },
        {
          "internalType": "string",
          "name": "reason",
          "type": "string"
        },
        {
          "internalType": "bytes",
          "name": "params",
          "type": "bytes"
        },
        {
          "internalType": "uint8",
          "name": "v",
          "type": "uint8"
        },
        {
          "internalType": "bytes32",
          "name": "r",
          "type": "bytes32"
        },
        {
          "internalType": "bytes32",
          "name": "s",
          "type": "bytes32"
        }
      ],
      "name": "castVoteWithReasonAndParamsBySig",
      "outputs": [
        {
          "internalType": "uint256",
          "name": "",
          "type": "uint256"
        }
      ],
      "stateMutability": "nonpayable",
      "type": "function"
    },
    {
      "inputs": [],
      "name": "clock",
      "outputs": [
        {
          "internalType": "uint48",
          "name": "",
          "type": "uint48"
        }
      ],
      "stateMutability": "view",
      "type": "function"
    },
    {
      "inputs": [],
      "name": "eip712Domain",
      "outputs": [
        {
          "internalType": "bytes1",
          "name": "fields",
          "type": "bytes1"
        },
        {
          "internalType": "string",
          "name": "name",
          "type": "string"
        },
        {
          "internalType": "string",
          "name": "version",
          "type": "string"
        },
        {
          "internalType": "uint256",
          "name": "chainId",
          "type": "uint256"
        },
        {
          "internalType": "address",
          "name": "verifyingContract",
          "type": "address"
        },
        {
          "internalType": "bytes32",
          "name": "salt",
          "type": "bytes32"
        },
        {
          "internalType": "uint256[]",
          "name": "extensions",
          "type": "uint256[]"
        }
      ],
      "stateMutability": "view",
      "type": "function"
    },
    {
      "inputs": [
        {
          "internalType": "address[]",
          "name": "targets",
          "type": "address[]"
        },
        {
          "internalType": "uint256[]",
          "name": "values",
          "type": "uint256[]"
        },
        {
          "internalType": "bytes[]",
          "name": "calldatas",
          "type": "bytes[]"
        },
        {
          "internalType": "bytes32",
          "name": "descriptionHash",
          "type": "bytes32"
        }
      ],
      "name": "execute",
      "outputs": [
        {
          "internalType": "uint256",
          "name": "",
          "type": "uint256"
        }
      ],
      "stateMutability": "payable",
      "type": "function"
    },
    {
      "inputs": [
        {
          "internalType": "address",
          "name": "account",
          "type": "address"
        },
        {
          "internalType": "uint256",
          "name": "tokenId",
          "type": "uint256"
        },
        {
          "internalType": "uint256",
          "name": "timepoint",
          "type": "uint256"
        }
      ],
      "name": "getVotes",
      "outputs": [
        {
          "internalType": "uint256",
          "name": "",
          "type": "uint256"
        }
      ],
      "stateMutability": "view",
      "type": "function"
    },
    {
      "inputs": [
        {
          "internalType": "address",
          "name": "account",
          "type": "address"
        },
        {
          "internalType": "uint256",
          "name": "tokenId",
          "type": "uint256"
        },
        {
          "internalType": "uint256",
          "name": "timepoint",
          "type": "uint256"
        },
        {
          "internalType": "bytes",
          "name": "params",
          "type": "bytes"
        }
      ],
      "name": "getVotesWithParams",
      "outputs": [
        {
          "internalType": "uint256",
          "name": "",
          "type": "uint256"
        }
      ],
      "stateMutability": "view",
      "type": "function"
    },
    {
      "inputs": [
        {
          "internalType": "uint256",
          "name": "proposalId",
          "type": "uint256"
        },
        {
          "internalType": "uint256",
          "name": "tokenId",
          "type": "uint256"
        }
      ],
      "name": "hasVoted",
      "outputs": [
        {
          "internalType": "bool",
          "name": "",
          "type": "bool"
        }
      ],
      "stateMutability": "view",
      "type": "function"
    },
    {
      "inputs": [
        {
          "internalType": "address[]",
          "name": "targets",
          "type": "address[]"
        },
        {
          "internalType": "uint256[]",
          "name": "values",
          "type": "uint256[]"
        },
        {
          "internalType": "bytes[]",
          "name": "calldatas",
          "type": "bytes[]"
        },
        {
          "internalType": "bytes32",
          "name": "epochStart",
          "type": "bytes32"
        }
      ],
      "name": "hashProposal",
      "outputs": [
        {
          "internalType": "uint256",
          "name": "",
          "type": "uint256"
        }
      ],
      "stateMutability": "pure",
      "type": "function"
    },
    {
      "inputs": [
        {
          "internalType": "address",
          "name": "forwarder",
          "type": "address"
        }
      ],
      "name": "isTrustedForwarder",
      "outputs": [
        {
          "internalType": "bool",
          "name": "",
          "type": "bool"
        }
      ],
      "stateMutability": "view",
      "type": "function"
    },
    {
      "inputs": [],
      "name": "name",
      "outputs": [
        {
          "internalType": "string",
          "name": "",
          "type": "string"
        }
      ],
      "stateMutability": "view",
      "type": "function"
    },
    {
      "inputs": [
        {
          "internalType": "address",
          "name": "",
          "type": "address"
        },
        {
          "internalType": "address",
          "name": "",
          "type": "address"
        },
        {
          "internalType": "uint256[]",
          "name": "",
          "type": "uint256[]"
        },
        {
          "internalType": "uint256[]",
          "name": "",
          "type": "uint256[]"
        },
        {
          "internalType": "bytes",
          "name": "",
          "type": "bytes"
        }
      ],
      "name": "onERC1155BatchReceived",
      "outputs": [
        {
          "internalType": "bytes4",
          "name": "",
          "type": "bytes4"
        }
      ],
      "stateMutability": "nonpayable",
      "type": "function"
    },
    {
      "inputs": [
        {
          "internalType": "address",
          "name": "",
          "type": "address"
        },
        {
          "internalType": "address",
          "name": "",
          "type": "address"
        },
        {
          "internalType": "uint256",
          "name": "",
          "type": "uint256"
        },
        {
          "internalType": "uint256",
          "name": "",
          "type": "uint256"
        },
        {
          "internalType": "bytes",
          "name": "",
          "type": "bytes"
        }
      ],
      "name": "onERC1155Received",
      "outputs": [
        {
          "internalType": "bytes4",
          "name": "",
          "type": "bytes4"
        }
      ],
      "stateMutability": "nonpayable",
      "type": "function"
    },
    {
      "inputs": [
        {
          "internalType": "address",
          "name": "",
          "type": "address"
        },
        {
          "internalType": "address",
          "name": "",
          "type": "address"
        },
        {
          "internalType": "uint256",
          "name": "",
          "type": "uint256"
        },
        {
          "internalType": "bytes",
          "name": "",
          "type": "bytes"
        }
      ],
      "name": "onERC721Received",
      "outputs": [
        {
          "internalType": "bytes4",
          "name": "",
          "type": "bytes4"
        }
      ],
      "stateMutability": "nonpayable",
      "type": "function"
    },
    {
      "inputs": [
        {
          "internalType": "uint256",
          "name": "proposalId",
          "type": "uint256"
        }
      ],
      "name": "proposalDeadline",
      "outputs": [
        {
          "internalType": "uint256",
          "name": "",
          "type": "uint256"
        }
      ],
      "stateMutability": "view",
      "type": "function"
    },
    {
      "inputs": [
        {
          "internalType": "uint256",
          "name": "proposalId",
          "type": "uint256"
        }
      ],
      "name": "proposalSnapshot",
      "outputs": [
        {
          "internalType": "uint256",
          "name": "",
          "type": "uint256"
        }
      ],
      "stateMutability": "view",
      "type": "function"
    },
    {
      "inputs": [],
      "name": "proposalThreshold",
      "outputs": [
        {
          "internalType": "uint256",
          "name": "",
          "type": "uint256"
        }
      ],
      "stateMutability": "view",
      "type": "function"
    },
    {
      "inputs": [
        {
          "internalType": "uint256",
          "name": "proposalId",
          "type": "uint256"
        }
      ],
      "name": "proposalVotes",
      "outputs": [
        {
          "internalType": "uint256",
          "name": "againstVotes",
          "type": "uint256"
        },
        {
          "internalType": "uint256",
          "name": "forVotes",
          "type": "uint256"
        },
        {
          "internalType": "uint256",
          "name": "abstainVotes",
          "type": "uint256"
        }
      ],
      "stateMutability": "view",
      "type": "function"
    },
    {
      "inputs": [
        {
          "internalType": "uint256",
          "name": "tokenId",
          "type": "uint256"
        },
        {
          "internalType": "address[]",
          "name": "targets",
          "type": "address[]"
        },
        {
          "internalType": "uint256[]",
          "name": "values",
          "type": "uint256[]"
        },
        {
          "internalType": "bytes[]",
          "name": "calldatas",
          "type": "bytes[]"
        },
        {
          "internalType": "string",
          "name": "description",
          "type": "string"
        }
      ],
      "name": "propose",
      "outputs": [
        {
          "internalType": "uint256",
          "name": "",
          "type": "uint256"
        }
      ],
      "stateMutability": "nonpayable",
      "type": "function"
    },
    {
      "inputs": [
        {
          "internalType": "uint256",
          "name": "blockNumber",
          "type": "uint256"
        }
      ],
      "name": "quorum",
      "outputs": [
        {
          "internalType": "uint256",
          "name": "",
          "type": "uint256"
        }
      ],
      "stateMutability": "view",
      "type": "function"
    },
    {
      "inputs": [],
      "name": "result",
      "outputs": [
        {
          "internalType": "enum IGovernor.ProposalState",
          "name": "",
          "type": "uint8"
        }
      ],
      "stateMutability": "view",
      "type": "function"
    },
    {
      "inputs": [],
      "name": "splitter",
      "outputs": [
        {
          "internalType": "address",
          "name": "",
          "type": "address"
        }
      ],
      "stateMutability": "view",
      "type": "function"
    },
    {
      "inputs": [
        {
          "internalType": "uint256",
          "name": "proposalId",
          "type": "uint256"
        }
      ],
      "name": "state",
      "outputs": [
        {
          "internalType": "enum IGovernor.ProposalState",
          "name": "",
          "type": "uint8"
        }
      ],
      "stateMutability": "view",
      "type": "function"
    },
    {
      "inputs": [
        {
          "internalType": "bytes4",
          "name": "interfaceId",
          "type": "bytes4"
        }
      ],
      "name": "supportsInterface",
      "outputs": [
        {
          "internalType": "bool",
          "name": "",
          "type": "bool"
        }
      ],
      "stateMutability": "view",
      "type": "function"
    },
    {
      "inputs": [],
      "name": "token",
      "outputs": [
        {
          "internalType": "contract IVotes",
          "name": "",
          "type": "address"
        }
      ],
      "stateMutability": "view",
      "type": "function"
    },
    {
      "inputs": [],
      "name": "version",
      "outputs": [
        {
          "internalType": "string",
          "name": "",
          "type": "string"
        }
      ],
      "stateMutability": "view",
      "type": "function"
    },
    {
      "inputs": [],
      "name": "votingDelay",
      "outputs": [
        {
          "internalType": "uint256",
          "name": "",
          "type": "uint256"
        }
      ],
      "stateMutability": "pure",
      "type": "function"
    },
    {
      "inputs": [],
      "name": "votingPeriod",
      "outputs": [
        {
          "internalType": "uint256",
          "name": "",
          "type": "uint256"
        }
      ],
      "stateMutability": "pure",
      "type": "function"
    },
    {
      "stateMutability": "payable",
      "type": "receive"
    }
  ],
  "transactionHash": "0xa5ede0db15ebfc4209e124634f0c54f114f1b36d0005fbe46061d331f80d253a",
  "args": [
    "0x5fA3D34F6c1537A0393098F0e124064B66cE8E24",
    "0xB63fcCd03521Cf21907627bd7fA465C129479231",
    "0x63aD4D014246eaD52408dF3BC8F046107cbf6065"
  ],
  "numDeployments": 1,
  "solcInputHash": "2799ce436a196df11f1ef308a2a7561c",
  "bytecode": "0x6101a06040523480156200001257600080fd5b50604051620035623803806200356283398101604081905262000035916200022c565b81836040518060400160405280600e81526020016d22b837b1b41023b7bb32b93737b960911b8152508381620000706200017360201b60201c565b6001600160a01b0385166080526200008a8260006200018e565b610140526200009b8160016200018e565b61016052815160208084019190912061010052815190820120610120524660c0526200012b6101005161012051604080517f8b73c3c69bb8fe3d512ecc4cf759cc79239f7b179b0ffacaa9a75d522b39400f60208201529081019290925260608201524660808201523060a082015260009060c00160405160208183030381529060405280519060200120905090565b60a05250503060e052600262000142838262000327565b50600380546001600160a01b0319166001600160a01b03928316179055929092166101805250620004699350505050565b6040805180820190915260018152603160f81b602082015290565b6000602083511015620001ae57620001a683620001c7565b9050620001c1565b81620001bb848262000327565b5060ff90505b92915050565b600080829050601f81511115620001fe578260405163305a27a960e01b8152600401620001f59190620003f3565b60405180910390fd5b80516200020b8262000444565b179392505050565b6001600160a01b03811681146200022957600080fd5b50565b6000806000606084860312156200024257600080fd5b83516200024f8162000213565b6020850151909350620002628162000213565b6040850151909250620002758162000213565b809150509250925092565b634e487b7160e01b600052604160045260246000fd5b600181811c90821680620002ab57607f821691505b602082108103620002cc57634e487b7160e01b600052602260045260246000fd5b50919050565b601f82111562000322576000816000526020600020601f850160051c81016020861015620002fd5750805b601f850160051c820191505b818110156200031e5782815560010162000309565b5050505b505050565b81516001600160401b0381111562000343576200034362000280565b6200035b8162000354845462000296565b84620002d2565b602080601f8311600181146200039357600084156200037a5750858301515b600019600386901b1c1916600185901b1785556200031e565b600085815260208120601f198616915b82811015620003c457888601518255948401946001909101908401620003a3565b5085821015620003e35787850151600019600388901b60f8161c191681555b5050505050600190811b01905550565b60006020808352835180602085015260005b81811015620004235785810183015185820160400152820162000405565b506000604082860101526040601f19601f8301168501019250505092915050565b80516020808301519190811015620002cc5760001960209190910360031b1b16919050565b60805160a05160c05160e0516101005161012051610140516101605161018051613073620004ef60003960008181610759015281816110a10152818161121d0152611690015260006111c90152600061119f01526000611fe301526000611fbb01526000611f1601526000611f4001526000611f6a0152600061116101526130736000f3fe6080604052600436106101c85760003560e01c806365372147116100f8578063cf781d4511610090578063cf781d4514610600578063dd4e2ba514610620578063dea112a614610666578063deaaa7cc14610686578063f23a6e61146106ba578063f8ce560a146106e6578063f945970a14610707578063fa25f37714610727578063fc0c546a1461074757600080fd5b806365372147146104b957806384b0196e146104d357806391ddadf4146104fb578063b58131b014610527578063bc197c811461053b578063be443ad014610567578063c01f9e3714610587578063c2e863e4146105c0578063c59057e4146105e057600080fd5b80632fe3e2611161016b5780632fe3e261146103185780633932abb11461034c5780633cd8045e146103615780633e4f49e6146103995780634bf5d7e9146103c6578063544ffc9c146103db57806354fd4d5014610430578063572b6c051461045a57806364390ff11461047a57600080fd5b806301ffc9a7146101d457806302a251a31461020957806306fdde03146102295780630f8a88361461024b57806311fd26f41461026b578063150b7a021461028b5780632656227d146102cf5780632d63f693146102e257600080fd5b366101cf57005b600080fd5b3480156101e057600080fd5b506101f46101ef366004612288565b61077b565b60405190151581526020015b60405180910390f35b34801561021557600080fd5b5062093a805b604051908152602001610200565b34801561023557600080fd5b5061023e6107e8565b6040516102009190612302565b34801561025757600080fd5b5061021b61026636600461255e565b61087a565b34801561027757600080fd5b5061021b610286366004612628565b610dd1565b34801561029757600080fd5b506102b66102a636600461265b565b630a85bd0160e11b949350505050565b6040516001600160e01b03199091168152602001610200565b61021b6102dd3660046126c2565b610dfd565b3480156102ee57600080fd5b5061021b6102fd366004612751565b6000908152600460205260409020546001600160401b031690565b34801561032457600080fd5b5061021b7fb3b3f3b703cd84ce352197dcff232b1b5d3cfb2025ce47cf04742d0651f1af8881565b34801561035857600080fd5b5061038461021b565b34801561036d57600080fd5b50600354610381906001600160a01b031681565b6040516001600160a01b039091168152602001610200565b3480156103a557600080fd5b506103b96103b4366004612751565b610f83565b6040516102009190612780565b3480156103d257600080fd5b5061023e61109d565b3480156103e757600080fd5b506104156103f6366004612751565b6000908152600860205260409020805460018201546002909201549092565b60408051938452602084019290925290820152606001610200565b34801561043c57600080fd5b506040805180820190915260018152603160f81b602082015261023e565b34801561046657600080fd5b506101f46104753660046127a8565b61115f565b34801561048657600080fd5b506101f46104953660046127c3565b60009182526008602090815260408084209284526003909201905290205460ff1690565b3480156104c557600080fd5b506005546103b99060ff1681565b3480156104df57600080fd5b506104e8611191565b6040516102009796959493929190612821565b34801561050757600080fd5b50610510611219565b60405165ffffffffffff9091168152602001610200565b34801561053357600080fd5b50600061021b565b34801561054757600080fd5b506102b6610556366004612891565b63bc197c8160e01b95945050505050565b34801561057357600080fd5b5061021b610582366004612986565b6112a7565b34801561059357600080fd5b5061021b6105a2366004612751565b6000908152600460205260409020600101546001600160401b031690565b3480156105cc57600080fd5b5061021b6105db366004612a11565b611305565b3480156105ec57600080fd5b5061021b6105fb3660046126c2565b611360565b34801561060c57600080fd5b5061021b61061b366004612a78565b61139a565b34801561062c57600080fd5b506040805180820190915260208082527f737570706f72743d627261766f2671756f72756d3d666f722c6162737461696e9082015261023e565b34801561067257600080fd5b5061021b610681366004612ac0565b6113b1565b34801561069257600080fd5b5061021b7f150214d74d59b7d1e90c73fc22ef3d991dd0a76b046543d4d80ab92d2a50328f81565b3480156106c657600080fd5b506102b66106d5366004612af5565b63f23a6e6160e01b95945050505050565b3480156106f257600080fd5b5061021b610701366004612751565b50600090565b34801561071357600080fd5b5061021b610722366004612b59565b6113da565b34801561073357600080fd5b5061021b610742366004612c09565b6114d4565b34801561075357600080fd5b506103817f000000000000000000000000000000000000000000000000000000000000000081565b60006001600160e01b0319821663e0c7633360e01b14806107ac57506001600160e01b03198216631a2fb4eb60e21b145b806107c757506001600160e01b03198216630271189760e51b145b806107e257506301ffc9a760e01b6001600160e01b03198316145b92915050565b6060600280546107f790612c61565b80601f016020809104026020016040519081016040528092919081815260200182805461082390612c61565b80156108705780601f1061084557610100808354040283529160200191610870565b820191906000526020600020905b81548152906001019060200180831161085357829003601f168201915b5050505050905090565b600080610885611540565b90506000610891611219565b65ffffffffffff16905060006108ad838a610286600186612cb1565b10156109205760405162461bcd60e51b815260206004820152603760248201527f476f7665726e6f7253696d706c653a2070726f706f73657220766f7465732062604482015276195b1bddc81c1c9bdc1bdcd85b081d1a1c995cda1bdb19604a1b60648201526084015b60405180910390fd5b86516001146109815760405162461bcd60e51b815260206004820152602760248201527f476f7665726e6f7253696d706c653a206f6e6c79206f6e652074617267657420604482015266185b1b1bddd95960ca1b6064820152608401610917565b60035487516001600160a01b039091169088906000906109a3576109a3612cc4565b60200260200101516001600160a01b031614610a0f5760405162461bcd60e51b815260206004820152602560248201527f476f7665726e6f7253696d706c653a206f6e6c792073706c697474657220616c6044820152641b1bddd95960da1b6064820152608401610917565b8451600114610a725760405162461bcd60e51b815260206004820152602960248201527f476f7665726e6f7253696d706c653a206f6e6c79206f6e652063616c6c6461746044820152681848185b1b1bddd95960ba1b6064820152608401610917565b8451634804532160e11b908690600090610a8e57610a8e612cc4565b6020026020010151610a9f90612cda565b6001600160e01b03191614610b015760405162461bcd60e51b815260206004820152602260248201527f476f7665726e6f7253696d706c653a206f6e6c79206e7564676520616c6c6f77604482015261195960f21b6064820152608401610917565b6000610b124262093a808106900390565b610b1f9062093a80612d11565b90506000610b2f89898985611360565b90506000895111610b825760405162461bcd60e51b815260206004820152601e60248201527f476f7665726e6f7253696d706c653a20656d7074792070726f706f73616c00006044820152606401610917565b600081815260046020526040902054600160401b90046001600160a01b031615610bfe5760405162461bcd60e51b815260206004820152602760248201527f476f7665726e6f7253696d706c653a2070726f706f73616c20616c72656164796044820152662065786973747360c81b6064820152608401610917565b6000610c0c61038485612d11565b90506000610c1d62093a8083612d11565b90506040518060e00160405280610c3384611562565b6001600160401b031681526001600160a01b038816602082015260006040820152606001610c6083611562565b6001600160401b039081168252600060208084018290526040808501839052606094850183905288835260048252918290208551815492870151878501519186166001600160e01b031990941693909317600160401b6001600160a01b039094168402176001600160e01b0316600160e01b60e09290921c91909102178155938501516080860151908416921c0217600183015560a08301516002909201805460c09094015161ffff1990941692151561ff00191692909217610100931515939093029290921790558b517f7d84a6263ae0d98d3329bd7b46bb4e8d6f98cd35a7adb45c274c8b7fd5ebd5e091859189918f918f91811115610d6457610d64612315565b604051908082528060200260200182016040528015610d9757816020015b6060815260200190600190039081610d825790505b508e8888610da48d6115ce565b604051610db999989796959493929190612db8565b60405180910390a150909a9950505050505050505050565b6000610df3848484610dee60408051602081019091526000815290565b611660565b90505b9392505050565b600080610e0f4262093a808106900390565b90506000610e1f87878785611360565b90506000610e2c82610f83565b90506004816007811115610e4257610e4261276a565b1480610e5f57506003816007811115610e5d57610e5d61276a565b145b80610e7b57506006816007811115610e7957610e7961276a565b145b610ed75760405162461bcd60e51b815260206004820152602760248201527f476f7665726e6f7253696d706c653a2070726f706f73616c206e6f742073756360448201526618d95cdcd99d5b60ca1b6064820152608401610917565b60008281526004602052604090819020600201805460ff19166001179055517f712ae1383f79ac853f8d882153778e0260ef8f03b504e2866e0593e04d2b291f90610f259084815260200190565b60405180910390a16005805482919060ff19166001836007811115610f4c57610f4c61276a565b0217905550610f5e82898989896116fd565b610f6b8289898989611782565b610f7882898989896116fd565b509695505050505050565b6000818152600460205260408120600281015460ff1615610fa75750600792915050565b6002810154610100900460ff1615610fc25750600292915050565b6000838152600460205260408120546001600160401b0316908190036110365760405162461bcd60e51b815260206004820152602360248201527f476f7665726e6f7253696d706c653a20756e6b6e6f776e2070726f706f73616c604482015262081a5960ea1b6064820152608401610917565b6000611040611219565b65ffffffffffff16905080821061105c57506000949350505050565b6000858152600460205260409020600101546001600160401b031681811061108a5750600195945050505050565b6110938661187e565b9695505050505050565b60607f00000000000000000000000000000000000000000000000000000000000000006001600160a01b0316634bf5d7e96040518163ffffffff1660e01b8152600401600060405180830381865afa92505050801561111e57506040513d6000823e601f3d908101601f1916820160405261111b9190810190612e8f565b60015b61115a575060408051808201909152601d81527f6d6f64653d626c6f636b6e756d6265722666726f6d3d64656661756c74000000602082015290565b919050565b7f00000000000000000000000000000000000000000000000000000000000000006001600160a01b0390811691161490565b6000606080828080836111c47f0000000000000000000000000000000000000000000000000000000000000000836118e2565b6111ef7f000000000000000000000000000000000000000000000000000000000000000060016118e2565b60408051600080825260208201909252600f60f81b9b939a50919850469750309650945092509050565b60007f00000000000000000000000000000000000000000000000000000000000000006001600160a01b03166391ddadf46040518163ffffffff1660e01b8152600401602060405180830381865afa925050508015611295575060408051601f3d908101601f1916820190925261129291810190612efc565b60015b61115a576112a24361198d565b905090565b6000806112b2611540565b90506112f98882898989898080601f0160208091040260200160405190810160405280939291908181526020018383808284376000920191909152508b92506119f4915050565b98975050505050505050565b600080611310611540565b90506113558782888888888080601f016020809104026020016040519081016040528093929190818152602001838380828437600092019190915250611b5492505050565b979650505050505050565b6000848484846040516020016113799493929190612f24565b60408051601f19818403018152919052805160209091012095945050505050565b60006113a885858585611660565b95945050505050565b6000806113bc611540565b90506113a88582868660405180602001604052806000815250611b54565b60008061147e6114767fb3b3f3b703cd84ce352197dcff232b1b5d3cfb2025ce47cf04742d0651f1af888d8c8c8c604051611416929190612f6f565b60405180910390208b8051906020012060405160200161145b959493929190948552602085019390935260ff9190911660408401526060830152608082015260a00190565b60405160208183030381529060405280519060200120611b78565b868686611ba5565b90506114c58b828c8c8c8c8080601f0160208091040260200160405190810160405280939291908181526020018383808284376000920191909152508e92506119f4915050565b9b9a5050505050505050505050565b604080517f150214d74d59b7d1e90c73fc22ef3d991dd0a76b046543d4d80ab92d2a50328f602082015290810187905260ff851660608201526000908190611522906114769060800161145b565b90506112f98882898960405180602001604052806000815250611b54565b600061154b3361115f565b1561155d575060131936013560601c90565b503390565b60006001600160401b038211156115ca5760405162461bcd60e51b815260206004820152602660248201527f53616665436173743a2076616c756520646f65736e27742066697420696e203660448201526534206269747360d01b6064820152608401610917565b5090565b606060006115db83611bcd565b60010190506000816001600160401b038111156115fa576115fa612315565b6040519080825280601f01601f191660200182016040528015611624576020820181803683370190505b5090508181016020015b600019016f181899199a1a9b1b9c1cb0b131b232b360811b600a86061a8153600a850494508461162e57509392505050565b604051634d6fb77560e01b81526001600160a01b03858116600483015260248201859052604482018490526000917f000000000000000000000000000000000000000000000000000000000000000090911690634d6fb77590606401602060405180830381865afa1580156116d9573d6000803e3d6000fd5b505050506040513d601f19601f820116820180604052508101906113a89190612f7f565b61177b565b8181101561177857306001600160a01b031686828151811061172657611726612cc4565b60200260200101516001600160a01b0316036117705761177084828151811061175157611751612cc4565b6020026020010151805190602001206006611ca590919063ffffffff16565b600101611702565b50505b5050505050565b600060405180606001604052806027815260200161301760279139855190915060005b81811015611874576000808883815181106117c2576117c2612cc4565b60200260200101516001600160a01b03168884815181106117e5576117e5612cc4565b60200260200101518885815181106117ff576117ff612cc4565b60200260200101516040516118149190612f98565b60006040518083038185875af1925050503d8060008114611851576040519150601f19603f3d011682016040523d82523d6000602084013e611856565b606091505b5091509150611866828287611ce1565b5050508060010190506117a5565b5050505050505050565b600081815260086020526040812080546001820154600283015481831180156118a657508083115b156118b75750600395945050505050565b82821180156118c557508082115b156118d65750600495945050505050565b50600695945050505050565b606060ff83146118fc576118f583611cfa565b90506107e2565b81805461190890612c61565b80601f016020809104026020016040519081016040528092919081815260200182805461193490612c61565b80156119815780601f1061195657610100808354040283529160200191611981565b820191906000526020600020905b81548152906001019060200180831161196457829003601f168201915b505050505090506107e2565b600065ffffffffffff8211156115ca5760405162461bcd60e51b815260206004820152602660248201527f53616665436173743a2076616c756520646f65736e27742066697420696e203460448201526538206269747360d01b6064820152608401610917565b60008681526004602052604081206001611a0d89610f83565b6007811115611a1e57611a1e61276a565b14611a7d5760405162461bcd60e51b815260206004820152602960248201527f476f7665726e6f7253696d706c653a20766f7465206e6f742063757272656e746044820152686c792061637469766560b81b6064820152608401610917565b8054600090611a9990899089906001600160401b031687611660565b9050611aa88988888488611d39565b8351600003611afe5786886001600160a01b03167f02ecdb7f59712b7ae7cb6851cce1c64e98f94e5b51ec63809112c054622b25548b89858a604051611af19493929190612fb4565b60405180910390a36112f9565b86886001600160a01b03167f7dcdc52e34b09364e599a32b0e3ccb5b730a7b952ddbdf4f237ea785da228ce78b89858a8a604051611b40959493929190612fdc565b60405180910390a398975050505050505050565b60006110938686868686611b7360408051602081019091526000815290565b6119f4565b60006107e2611b85611f09565b8360405161190160f01b8152600281019290925260228201526042902090565b6000806000611bb687878787612034565b91509150611bc3816120ee565b5095945050505050565b60008072184f03e93ff9f4daa797ed6e38ed64bf6a1f0160401b8310611c0c5772184f03e93ff9f4daa797ed6e38ed64bf6a1f0160401b830492506040015b6d04ee2d6d415b85acef81000000008310611c38576d04ee2d6d415b85acef8100000000830492506020015b662386f26fc100008310611c5657662386f26fc10000830492506010015b6305f5e1008310611c6e576305f5e100830492506008015b6127108310611c8257612710830492506004015b60648310611c94576064830492506002015b600a83106107e25760010192915050565b8154600160801b90819004600f0b6000818152600180860160205260409091209390935583546001600160801b03908116939091011602179055565b60608315611cf0575081610df6565b610df68383612236565b60606000611d0783612260565b604080516020808252818301909252919250600091906020820181803683375050509182525060208101929092525090565b6000858152600860209081526040808320878452600381019092529091205460ff1615611db85760405162461bcd60e51b815260206004820152602760248201527f476f7665726e6f72566f74696e6753696d706c653a20766f746520616c726561604482015266191e4818d85cdd60ca1b6064820152608401610917565b60008311611e195760405162461bcd60e51b815260206004820152602860248201527f476f7665726e6f72566f74696e6753696d706c653a207a65726f20766f74696e60448201526719c81dd95a59da1d60c21b6064820152608401610917565b60008581526003820160205260409020805460ff1916600117905560ff8416611e5b5782816000016000828254611e509190612d11565b90915550611f019050565b60001960ff851601611e7b5782816001016000828254611e509190612d11565b60011960ff851601611e9b5782816002016000828254611e509190612d11565b60405162461bcd60e51b815260206004820152603560248201527f476f7665726e6f72566f74696e6753696d706c653a20696e76616c69642076616044820152746c756520666f7220656e756d20566f74655479706560581b6064820152608401610917565b505050505050565b6000306001600160a01b037f000000000000000000000000000000000000000000000000000000000000000016148015611f6257507f000000000000000000000000000000000000000000000000000000000000000046145b15611f8c57507f000000000000000000000000000000000000000000000000000000000000000090565b6112a2604080517f8b73c3c69bb8fe3d512ecc4cf759cc79239f7b179b0ffacaa9a75d522b39400f60208201527f0000000000000000000000000000000000000000000000000000000000000000918101919091527f000000000000000000000000000000000000000000000000000000000000000060608201524660808201523060a082015260009060c00160405160208183030381529060405280519060200120905090565b6000806fa2a8918ca85bafe22016d0b997e4df60600160ff1b0383111561206157506000905060036120e5565b6040805160008082526020820180845289905260ff881692820192909252606081018690526080810185905260019060a0016020604051602081039080840390855afa1580156120b5573d6000803e3d6000fd5b5050604051601f1901519150506001600160a01b0381166120de576000600192509250506120e5565b9150600090505b94509492505050565b60008160048111156121025761210261276a565b0361210a5750565b600181600481111561211e5761211e61276a565b036121665760405162461bcd60e51b815260206004820152601860248201527745434453413a20696e76616c6964207369676e617475726560401b6044820152606401610917565b600281600481111561217a5761217a61276a565b036121c75760405162461bcd60e51b815260206004820152601f60248201527f45434453413a20696e76616c6964207369676e6174757265206c656e677468006044820152606401610917565b60038160048111156121db576121db61276a565b036122335760405162461bcd60e51b815260206004820152602260248201527f45434453413a20696e76616c6964207369676e6174757265202773272076616c604482015261756560f01b6064820152608401610917565b50565b8151156122465781518083602001fd5b8060405162461bcd60e51b81526004016109179190612302565b600060ff8216601f8111156107e257604051632cd44ac360e21b815260040160405180910390fd5b60006020828403121561229a57600080fd5b81356001600160e01b031981168114610df657600080fd5b60005b838110156122cd5781810151838201526020016122b5565b50506000910152565b600081518084526122ee8160208601602086016122b2565b601f01601f19169290920160200192915050565b602081526000610df660208301846122d6565b634e487b7160e01b600052604160045260246000fd5b604051601f8201601f191681016001600160401b038111828210171561235357612353612315565b604052919050565b60006001600160401b0382111561237457612374612315565b5060051b60200190565b80356001600160a01b038116811461115a57600080fd5b600082601f8301126123a657600080fd5b813560206123bb6123b68361235b565b61232b565b8083825260208201915060208460051b8701019350868411156123dd57600080fd5b602086015b84811015610f78576123f38161237e565b83529183019183016123e2565b600082601f83011261241157600080fd5b813560206124216123b68361235b565b8083825260208201915060208460051b87010193508684111561244357600080fd5b602086015b84811015610f785780358352918301918301612448565b60006001600160401b0382111561247857612478612315565b50601f01601f191660200190565b60006124946123b68461245f565b90508281528383830111156124a857600080fd5b828260208301376000602084830101529392505050565b600082601f8301126124d057600080fd5b610df683833560208501612486565b600082601f8301126124f057600080fd5b813560206125006123b68361235b565b82815260059290921b8401810191818101908684111561251f57600080fd5b8286015b84811015610f785780356001600160401b038111156125425760008081fd5b6125508986838b01016124bf565b845250918301918301612523565b600080600080600060a0868803121561257657600080fd5b8535945060208601356001600160401b038082111561259457600080fd5b6125a089838a01612395565b955060408801359150808211156125b657600080fd5b6125c289838a01612400565b945060608801359150808211156125d857600080fd5b6125e489838a016124df565b935060808801359150808211156125fa57600080fd5b508601601f8101881361260c57600080fd5b61261b88823560208401612486565b9150509295509295909350565b60008060006060848603121561263d57600080fd5b6126468461237e565b95602085013595506040909401359392505050565b6000806000806080858703121561267157600080fd5b61267a8561237e565b93506126886020860161237e565b92506040850135915060608501356001600160401b038111156126aa57600080fd5b6126b6878288016124bf565b91505092959194509250565b600080600080608085870312156126d857600080fd5b84356001600160401b03808211156126ef57600080fd5b6126fb88838901612395565b9550602087013591508082111561271157600080fd5b61271d88838901612400565b9450604087013591508082111561273357600080fd5b50612740878288016124df565b949793965093946060013593505050565b60006020828403121561276357600080fd5b5035919050565b634e487b7160e01b600052602160045260246000fd5b60208101600883106127a257634e487b7160e01b600052602160045260246000fd5b91905290565b6000602082840312156127ba57600080fd5b610df68261237e565b600080604083850312156127d657600080fd5b50508035926020909101359150565b60008151808452602080850194506020840160005b83811015612816578151875295820195908201906001016127fa565b509495945050505050565b60ff60f81b8816815260e06020820152600061284060e08301896122d6565b828103604084015261285281896122d6565b606084018890526001600160a01b038716608085015260a0840186905283810360c0850152905061288381856127e5565b9a9950505050505050505050565b600080600080600060a086880312156128a957600080fd5b6128b28661237e565b94506128c06020870161237e565b935060408601356001600160401b03808211156128dc57600080fd5b6128e889838a01612400565b945060608801359150808211156128fe57600080fd5b61290a89838a01612400565b9350608088013591508082111561292057600080fd5b5061261b888289016124bf565b803560ff8116811461115a57600080fd5b60008083601f84011261295057600080fd5b5081356001600160401b0381111561296757600080fd5b60208301915083602082850101111561297f57600080fd5b9250929050565b60008060008060008060a0878903121561299f57600080fd5b86359550602087013594506129b66040880161292d565b935060608701356001600160401b03808211156129d257600080fd5b6129de8a838b0161293e565b909550935060808901359150808211156129f757600080fd5b50612a0489828a016124bf565b9150509295509295509295565b600080600080600060808688031215612a2957600080fd5b8535945060208601359350612a406040870161292d565b925060608601356001600160401b03811115612a5b57600080fd5b612a678882890161293e565b969995985093965092949392505050565b60008060008060808587031215612a8e57600080fd5b612a978561237e565b9350602085013592506040850135915060608501356001600160401b038111156126aa57600080fd5b600080600060608486031215612ad557600080fd5b8335925060208401359150612aec6040850161292d565b90509250925092565b600080600080600060a08688031215612b0d57600080fd5b612b168661237e565b9450612b246020870161237e565b9350604086013592506060860135915060808601356001600160401b03811115612b4d57600080fd5b61261b888289016124bf565b60008060008060008060008060006101008a8c031215612b7857600080fd5b8935985060208a01359750612b8f60408b0161292d565b965060608a01356001600160401b0380821115612bab57600080fd5b612bb78d838e0161293e565b909850965060808c0135915080821115612bd057600080fd5b50612bdd8c828d016124bf565b945050612bec60a08b0161292d565b925060c08a0135915060e08a013590509295985092959850929598565b60008060008060008060c08789031215612c2257600080fd5b8635955060208701359450612c396040880161292d565b9350612c476060880161292d565b92506080870135915060a087013590509295509295509295565b600181811c90821680612c7557607f821691505b602082108103612c9557634e487b7160e01b600052602260045260246000fd5b50919050565b634e487b7160e01b600052601160045260246000fd5b818103818111156107e2576107e2612c9b565b634e487b7160e01b600052603260045260246000fd5b805160208201516001600160e01b03198082169291906004831015612d095780818460040360031b1b83161693505b505050919050565b808201808211156107e2576107e2612c9b565b60008151808452602080850194506020840160005b838110156128165781516001600160a01b031687529582019590820190600101612d39565b60008282518085526020808601955060208260051b8401016020860160005b84811015612dab57601f19868403018952612d998383516122d6565b98840198925090830190600101612d7d565b5090979650505050505050565b60006101208b8352602060018060a01b038c1681850152816040850152612de18285018c612d24565b91508382036060850152612df5828b6127e5565b915083820360808501528189518084528284019150828160051b850101838c0160005b83811015612e4657601f19878403018552612e348383516122d6565b94860194925090850190600101612e18565b505086810360a0880152612e5a818c612d5e565b9450505050508560c08401528460e0840152828103610100840152612e7f81856122d6565b9c9b505050505050505050505050565b600060208284031215612ea157600080fd5b81516001600160401b03811115612eb757600080fd5b8201601f81018413612ec857600080fd5b8051612ed66123b68261245f565b818152856020838501011115612eeb57600080fd5b6113a88260208301602086016122b2565b600060208284031215612f0e57600080fd5b815165ffffffffffff81168114610df657600080fd5b608081526000612f376080830187612d24565b8281036020840152612f4981876127e5565b90508281036040840152612f5d8186612d5e565b91505082606083015295945050505050565b8183823760009101908152919050565b600060208284031215612f9157600080fd5b5051919050565b60008251612faa8184602087016122b2565b9190910192915050565b84815260ff8416602082015282604082015260806060820152600061109360808301846122d6565b85815260ff8516602082015283604082015260a06060820152600061300460a08301856122d6565b82810360808401526112f981856122d656fe476f7665726e6f723a2063616c6c20726576657274656420776974686f7574206d657373616765a264697066735822122023d64a3797b01f4ac19888b73b7e38ce263cb1004d7056e77eaad985f54bf87f64736f6c63430008180033",
  "devdoc": {
    "details": "Epoch based governance system that allows for a three option majority (against, for, abstain).      Note that hash proposals are unique per epoch, but calls to a function with different values      may be allowed any number of times. It is best to use EpochGovernor with a function that accepts      no values.",
    "events": {
      "EIP712DomainChanged()": {
        "details": "MAY be emitted to signal that the domain could have changed."
      },
      "ProposalCanceled(uint256)": {
        "details": "Emitted when a proposal is canceled."
      },
      "ProposalCreated(uint256,address,address[],uint256[],string[],bytes[],uint256,uint256,string)": {
        "details": "Emitted when a proposal is created."
      },
      "ProposalExecuted(uint256)": {
        "details": "Emitted when a proposal is executed."
      },
      "VoteCast(address,uint256,uint256,uint8,uint256,string)": {
        "details": "Emitted when a vote is cast without params. Note: `support` values should be seen as buckets. Their interpretation depends on the voting module used."
      },
      "VoteCastWithParams(address,uint256,uint256,uint8,uint256,string,bytes)": {
        "details": "Emitted when a vote is cast with params. Note: `support` values should be seen as buckets. Their interpretation depends on the voting module used. `params` are additional encoded parameters. Their interpepretation also depends on the voting module used."
      }
    },
    "kind": "dev",
    "methods": {
      "CLOCK_MODE()": {
        "details": "Machine-readable description of the clock as specified in EIP-6372."
      },
      "COUNTING_MODE()": {
        "details": "See {IGovernor-COUNTING_MODE}."
      },
      "castVote(uint256,uint256,uint8)": {
        "details": "See {IGovernor-castVote}."
      },
      "castVoteBySig(uint256,uint256,uint8,uint8,bytes32,bytes32)": {
        "details": "See {IGovernor-castVoteBySig}."
      },
      "castVoteWithReason(uint256,uint256,uint8,string)": {
        "details": "See {IGovernor-castVoteWithReason}."
      },
      "castVoteWithReasonAndParams(uint256,uint256,uint8,string,bytes)": {
        "details": "See {IGovernor-castVoteWithReasonAndParams}."
      },
      "castVoteWithReasonAndParamsBySig(uint256,uint256,uint8,string,bytes,uint8,bytes32,bytes32)": {
        "details": "See {IGovernor-castVoteWithReasonAndParamsBySig}."
      },
      "clock()": {
        "details": "Clock (as specified in EIP-6372) is set to match the token's clock. Fallback to block numbers if the token does not implement EIP-6372."
      },
      "eip712Domain()": {
        "details": "See {EIP-5267}. _Available since v4.9._"
      },
      "execute(address[],uint256[],bytes[],bytes32)": {
        "details": "See {IGovernor-execute}. Executes a proposal with a start time at the beginning of this epoch."
      },
      "getVotes(address,uint256,uint256)": {
        "details": "See {IGovernor-getVotes}."
      },
      "getVotesWithParams(address,uint256,uint256,bytes)": {
        "details": "See {IGovernor-getVotesWithParams}."
      },
      "hasVoted(uint256,uint256)": {
        "details": "See {IGovernor-hasVoted}."
      },
      "hashProposal(address[],uint256[],bytes[],bytes32)": {
        "details": "See {IGovernor-hashProposal}. The proposal id is produced by hashing the ABI encoded `targets` array, the `values` array, the `calldatas` array and the descriptionHash (bytes32 which itself is the keccak256 hash of the description string). This proposal id can be produced from the proposal data which is part of the {ProposalCreated} event. It can even be computed in advance, before the proposal is submitted. Note that the chainId and the governor address are not part of the proposal id computation. Consequently, the same proposal (with same operation and same description) will have the same id if submitted on multiple governors across multiple networks. This also means that in order to execute the same operation twice (on the same governor) the proposer will have to change the description in order to avoid proposal id conflicts. The proposal id ignores description hash and uses the epoch start time for the following week. This ensures that only one proposal can be created per week."
      },
      "name()": {
        "details": "See {IGovernor-name}."
      },
      "onERC1155BatchReceived(address,address,uint256[],uint256[],bytes)": {
        "details": "See {IERC1155Receiver-onERC1155BatchReceived}."
      },
      "onERC1155Received(address,address,uint256,uint256,bytes)": {
        "details": "See {IERC1155Receiver-onERC1155Received}."
      },
      "onERC721Received(address,address,uint256,bytes)": {
        "details": "See {IERC721Receiver-onERC721Received}."
      },
      "proposalDeadline(uint256)": {
        "details": "See {IGovernor-proposalDeadline}."
      },
      "proposalSnapshot(uint256)": {
        "details": "See {IGovernor-proposalSnapshot}."
      },
      "proposalThreshold()": {
        "details": "Part of the Governor Bravo's interface: _\"The number of votes required in order for a voter to become a proposer\"_."
      },
      "proposalVotes(uint256)": {
        "details": "Accessor to the internal vote counts."
      },
      "propose(uint256,address[],uint256[],bytes[],string)": {
        "details": "See {IGovernor-propose}. description is ignored. The proposalId is created using the following epoch's start date."
      },
      "quorum(uint256)": {
        "details": "Dummy quorum function to comply with IGovernor as quorum is not used."
      },
      "state(uint256)": {
        "details": "See {IGovernor-state}."
      },
      "supportsInterface(bytes4)": {
        "details": "See {IERC165-supportsInterface}."
      },
      "version()": {
        "details": "See {IGovernor-version}."
      },
      "votingDelay()": {
        "details": "Delay, between the proposal is created and the vote starts. The unit this duration is expressed in depends on the clock (see EIP-6372) this contract uses. This can be increased to leave time for users to buy voting power, or delegate it, before the voting of a proposal starts."
      },
      "votingPeriod()": {
        "details": "Delay, between the vote start and vote ends. The unit this duration is expressed in depends on the clock (see EIP-6372) this contract uses. NOTE: The {votingDelay} can delay the start of the vote. This must be considered when setting the voting duration compared to the voting delay."
      }
    },
    "version": 1
  },
  "userdoc": {
    "kind": "user",
    "methods": {
      "votingDelay()": {
        "notice": "module:user-config"
      },
      "votingPeriod()": {
        "notice": "module:user-config"
      }
    },
    "version": 1
  },
  "storageLayout": {
    "storage": [
      {
        "astId": 6015,
        "contract": "contracts/EpochGovernor.sol:EpochGovernor",
        "label": "_nameFallback",
        "offset": 0,
        "slot": "0",
        "type": "t_string_storage"
      },
      {
        "astId": 6017,
        "contract": "contracts/EpochGovernor.sol:EpochGovernor",
        "label": "_versionFallback",
        "offset": 0,
        "slot": "1",
        "type": "t_string_storage"
      },
      {
        "astId": 24258,
        "contract": "contracts/EpochGovernor.sol:EpochGovernor",
        "label": "_name",
        "offset": 0,
        "slot": "2",
        "type": "t_string_storage"
      },
      {
        "astId": 24260,
        "contract": "contracts/EpochGovernor.sol:EpochGovernor",
        "label": "splitter",
        "offset": 0,
        "slot": "3",
        "type": "t_address"
      },
      {
        "astId": 24265,
        "contract": "contracts/EpochGovernor.sol:EpochGovernor",
        "label": "_proposals",
        "offset": 0,
        "slot": "4",
        "type": "t_mapping(t_uint256,t_struct(ProposalCore)24256_storage)"
      },
      {
        "astId": 24269,
        "contract": "contracts/EpochGovernor.sol:EpochGovernor",
        "label": "result",
        "offset": 0,
        "slot": "5",
        "type": "t_enum(ProposalState)25678"
      },
      {
        "astId": 24272,
        "contract": "contracts/EpochGovernor.sol:EpochGovernor",
        "label": "_governanceCall",
        "offset": 0,
        "slot": "6",
        "type": "t_struct(Bytes32Deque)8754_storage"
      },
      {
        "astId": 23958,
        "contract": "contracts/EpochGovernor.sol:EpochGovernor",
        "label": "_proposalVotes",
        "offset": 0,
        "slot": "8",
        "type": "t_mapping(t_uint256,t_struct(ProposalVote)23953_storage)"
      }
    ],
    "types": {
      "t_address": {
        "encoding": "inplace",
        "label": "address",
        "numberOfBytes": "20"
      },
      "t_bool": {
        "encoding": "inplace",
        "label": "bool",
        "numberOfBytes": "1"
      },
      "t_bytes24": {
        "encoding": "inplace",
        "label": "bytes24",
        "numberOfBytes": "24"
      },
      "t_bytes32": {
        "encoding": "inplace",
        "label": "bytes32",
        "numberOfBytes": "32"
      },
      "t_bytes4": {
        "encoding": "inplace",
        "label": "bytes4",
        "numberOfBytes": "4"
      },
      "t_enum(ProposalState)25678": {
        "encoding": "inplace",
        "label": "enum IGovernor.ProposalState",
        "numberOfBytes": "1"
      },
      "t_int128": {
        "encoding": "inplace",
        "label": "int128",
        "numberOfBytes": "16"
      },
      "t_mapping(t_int128,t_bytes32)": {
        "encoding": "mapping",
        "key": "t_int128",
        "label": "mapping(int128 => bytes32)",
        "numberOfBytes": "32",
        "value": "t_bytes32"
      },
      "t_mapping(t_uint256,t_bool)": {
        "encoding": "mapping",
        "key": "t_uint256",
        "label": "mapping(uint256 => bool)",
        "numberOfBytes": "32",
        "value": "t_bool"
      },
      "t_mapping(t_uint256,t_struct(ProposalCore)24256_storage)": {
        "encoding": "mapping",
        "key": "t_uint256",
        "label": "mapping(uint256 => struct GovernorSimple.ProposalCore)",
        "numberOfBytes": "32",
        "value": "t_struct(ProposalCore)24256_storage"
      },
      "t_mapping(t_uint256,t_struct(ProposalVote)23953_storage)": {
        "encoding": "mapping",
        "key": "t_uint256",
        "label": "mapping(uint256 => struct GovernorCountingMajority.ProposalVote)",
        "numberOfBytes": "32",
        "value": "t_struct(ProposalVote)23953_storage"
      },
      "t_string_storage": {
        "encoding": "bytes",
        "label": "string",
        "numberOfBytes": "32"
      },
      "t_struct(Bytes32Deque)8754_storage": {
        "encoding": "inplace",
        "label": "struct DoubleEndedQueue.Bytes32Deque",
        "members": [
          {
            "astId": 8747,
            "contract": "contracts/EpochGovernor.sol:EpochGovernor",
            "label": "_begin",
            "offset": 0,
            "slot": "0",
            "type": "t_int128"
          },
          {
            "astId": 8749,
            "contract": "contracts/EpochGovernor.sol:EpochGovernor",
            "label": "_end",
            "offset": 16,
            "slot": "0",
            "type": "t_int128"
          },
          {
            "astId": 8753,
            "contract": "contracts/EpochGovernor.sol:EpochGovernor",
            "label": "_data",
            "offset": 0,
            "slot": "1",
            "type": "t_mapping(t_int128,t_bytes32)"
          }
        ],
        "numberOfBytes": "64"
      },
      "t_struct(ProposalCore)24256_storage": {
        "encoding": "inplace",
        "label": "struct GovernorSimple.ProposalCore",
        "members": [
          {
            "astId": 24243,
            "contract": "contracts/EpochGovernor.sol:EpochGovernor",
            "label": "voteStart",
            "offset": 0,
            "slot": "0",
            "type": "t_uint64"
          },
          {
            "astId": 24245,
            "contract": "contracts/EpochGovernor.sol:EpochGovernor",
            "label": "proposer",
            "offset": 8,
            "slot": "0",
            "type": "t_address"
          },
          {
            "astId": 24247,
            "contract": "contracts/EpochGovernor.sol:EpochGovernor",
            "label": "__gap_unused0",
            "offset": 28,
            "slot": "0",
            "type": "t_bytes4"
          },
          {
            "astId": 24249,
            "contract": "contracts/EpochGovernor.sol:EpochGovernor",
            "label": "voteEnd",
            "offset": 0,
            "slot": "1",
            "type": "t_uint64"
          },
          {
            "astId": 24251,
            "contract": "contracts/EpochGovernor.sol:EpochGovernor",
            "label": "__gap_unused1",
            "offset": 8,
            "slot": "1",
            "type": "t_bytes24"
          },
          {
            "astId": 24253,
            "contract": "contracts/EpochGovernor.sol:EpochGovernor",
            "label": "executed",
            "offset": 0,
            "slot": "2",
            "type": "t_bool"
          },
          {
            "astId": 24255,
            "contract": "contracts/EpochGovernor.sol:EpochGovernor",
            "label": "canceled",
            "offset": 1,
            "slot": "2",
            "type": "t_bool"
          }
        ],
        "numberOfBytes": "96"
      },
      "t_struct(ProposalVote)23953_storage": {
        "encoding": "inplace",
        "label": "struct GovernorCountingMajority.ProposalVote",
        "members": [
          {
            "astId": 23944,
            "contract": "contracts/EpochGovernor.sol:EpochGovernor",
            "label": "againstVotes",
            "offset": 0,
            "slot": "0",
            "type": "t_uint256"
          },
          {
            "astId": 23946,
            "contract": "contracts/EpochGovernor.sol:EpochGovernor",
            "label": "forVotes",
            "offset": 0,
            "slot": "1",
            "type": "t_uint256"
          },
          {
            "astId": 23948,
            "contract": "contracts/EpochGovernor.sol:EpochGovernor",
            "label": "abstainVotes",
            "offset": 0,
            "slot": "2",
            "type": "t_uint256"
          },
          {
            "astId": 23952,
            "contract": "contracts/EpochGovernor.sol:EpochGovernor",
            "label": "hasVoted",
            "offset": 0,
            "slot": "3",
            "type": "t_mapping(t_uint256,t_bool)"
          }
        ],
        "numberOfBytes": "128"
      },
      "t_uint256": {
        "encoding": "inplace",
        "label": "uint256",
        "numberOfBytes": "32"
      },
      "t_uint64": {
        "encoding": "inplace",
        "label": "uint64",
        "numberOfBytes": "8"
      }
    }
  }
}